:020000040000FA
:040000000DEF00F010
:040008005FEF23F093
:06001800FF0032EF2BF0A7
:0D2600000000010203040506070850010058
:10260E000501D751800BE06FD751D725E26FD6AFBA
:10261E0013EF13F015EF13F016EF13F0E281E25102
:10262E00D8B41CEF13F01EEF13F033EF13F0E229C2
:10263E00D8A424EF13F026EF13F02EEF13F0000EB4
:10264E00D46F000ED56F000ED66F000ED76FD68FDB
:10265E00000ED76F3BEF13F0000ED46F000ED56F48
:10266E00000ED66F000ED76FDB51800BE16FE0517D
:10267E00E119D8B445EF13F047EF13F048EF13F01C
:10268E00E08DDB51DB25E16FDAAF50EF13F052EF47
:10269E0013F053EF13F0E181E151D8B459EF13F079
:1026AE005BEF13F070EF13F0E129D8A461EF13F094
:1026BE0063EF13F06BEF13F0000ED86F000ED96FAF
:1026CE00000EDA6F000EDB6FDA8F000EDB6F78EF25
:1026DE0013F0000ED86F000ED96F000EDA6F000ED9
:1026EE00DB6FE251E15DD8B07FEF13F081EF13F0B5
:1026FE00A8EF13F0E0AD86EF13F088EF13F08AEF3A
:10270E0013F0800EE01BE2C5E3F5E1C5E2F5E3C58B
:10271E00E1F5D4C5E3F5D8C5D4F5E3C5D8F5D5C5EF
:10272E00E3F5D9C5D5F5E3C5D9F5D6C5E3F5DAC5D3
:10273E00D6F5E3C5DAF5D7C5E3F5DBC5D7F5E3C5C1
:10274E00DBF5000EE36FE251E1C5DCF5DD6BDC5F1E
:10275E00000EDD5BDDBFBDEF13F0DD5109E11A0E9A
:10276E00DC5DD8A0BDEF13F0BFEF13F0F6EF13F062
:10277E00D451D511D611D711D8A4C8EF13F0CBEF81
:10278E0013F0010ECCEF13F0000EE36F000ED46FBA
:10279E00000ED56F000ED66F000ED76FE1C5E2F5B5
:1027AE00FFEF13F0E3A1DEEF13F0E0EF13F0E6EF2F
:1027BE0013F0D890E3310109E36FE8EF13F0D890EE
:1027CE00E333D4A1EDEF13F0EFEF13F0F0EF13F0CE
:1027DE00E38FD735D733D633D533D433E22BE1510C
:1027EE00E25DD8A0FDEF13F0FFEF13F0D9EF13F079
:1027FE00E0BD04EF14F006EF14F046EF14F0E251D2
:10280E00D8A40CEF14F00EEF14F018EF14F0000E25
:10281E00D46F000ED56F000ED66F000ED76F67EF18
:10282E0015F0D851D427D951D523DA51D623DB51FF
:10283E00D723D7A125EF14F027EF14F0D3EF14F020
:10284E00E3A12CEF14F02EEF14F034EF14F0D89027
:10285E00E3310109E36F36EF14F0D890E333D4A1DE
:10286E003BEF14F03DEF14F03EEF14F0E38FD7354D
:10287E00D733D633D533D433E22BD3EF14F0D8512C
:10288E00D45DD951D559DA51D659D751800ADC6F5A
:10289E00DB51800ADC59D8B057EF14F059EF14F021
:1028AE0084EF14F0D451D85DDC6FD551D959DD6F5A
:1028BE00D651DA59DE6FD751DB59DF6FFF0EDC25AB
:1028CE00D46FFF0EDD21D56FFF0EDE21D66FFF0E0A
:1028DE00DF21D76F800EE01BE36DE351D8A47AEFB2
:1028EE0014F07CEF14F08CEF14F0010ED427000ED0
:1028FE00D523D623D7238CEF14F0D851D45FD951DA
:10290E00D55BDA51D65BDB51D75BD451D511D611DD
:10291E00D711D8A495EF14F097EF14F0CCEF14F074
:10292E00E351D8A49DEF14F09FEF14F0CCEF14F008
:10293E00000ED46F000ED56F000ED66F000ED76F3F
:10294E0067EF15F0D890D437D537D637D737E3AFF2
:10295E00B3EF14F0B5EF14F0B6EF14F0D481E3A199
:10296E00BBEF14F0BDEF14F0C1EF14F0D880E337D5
:10297E00C3EF14F0D890E337E251D8B4C9EF14F096
:10298E00CBEF14F0CCEF14F0E207D6AFD1EF14F08A
:10299E00D3EF14F0A9EF14F0000EE16FE3AFDAEF0E
:1029AE0014F0DCEF14F0F4EF14F0E3C5DCF57F0E59
:1029BE00DC17D8B4E5EF14F0E7EF14F0EBEF14F0FA
:1029CE00010EE16FF4EF14F0D4A1F0EF14F0F2EF7A
:1029DE0014F0F4EF14F0E7EF14F0E151D8B4FAEF7D
:1029EE0014F0FCEF14F027EF15F0010ED427000EB3
:1029FE00D523D623D723D7A107EF15F009EF15F06E
:102A0E0027EF15F0D4C5DCF5D5C5DDF5D6C5DEF559
:102A1E00D7C5DFF5DF35DF33DE33DD33DC33DCC541
:102A2E00D4F5DDC5D5F5DEC5D6F5DFC5D7F5E2297A
:102A3E00D8B424EF15F026EF15F027EF15F0E22BA2
:102A4E00E229D8B42DEF15F02FEF15F037EF15F072
:102A5E00E251D8A435EF15F037EF15F049EF15F028
:102A6E00000ED46F000ED56F000ED66F000ED76F0E
:102A7E00E251D8A445EF15F047EF15F049EF15F0E8
:102A8E00000EE06FE2A14EEF15F050EF15F053EF90
:102A9E0015F0D68F54EF15F0D69FD890E231D76F40
:102AAE00E0AF5CEF15F05EEF15F05FEF15F0D78F2E
:102ABE00D4C5D4F5D5C5D5F5D6C5D6F5D7C5D7F574
:102ACE0012002B50800B346E2B502B24366E2AAEF8
:102ADE0073EF15F075EF15F076EF15F03680365072
:102AEE00D8B47CEF15F07EEF15F093EF15F0362885
:102AFE00D8A484EF15F086EF15F08EEF15F0000ECA
:102B0E00286E000E296E000E2A6E000E2B6E2A8E77
:102B1E00000E2B6E9BEF15F0000E286E000E296E28
:102B2E00000E2A6E000E2B6E2F50800B356E345019
:102B3E003518D8B4A5EF15F0A7EF15F0A8EF15F0DE
:102B4E00348C2F502F24356E2EAEB0EF15F0B2EF21
:102B5E0015F0B3EF15F035803550D8B4B9EF15F048
:102B6E00BBEF15F0D0EF15F03528D8A4C1EF15F056
:102B7E00C3EF15F0CBEF15F0000E2C6E000E2D6E80
:102B8E00000E2E6E000E2F6E2E8E000E2F6ED8EFB4
:102B9E0015F0000E2C6E000E2D6E000E2E6E000E19
:102BAE002F6E3650355CD8B0DFEF15F0E1EF15F033
:102BBE0008EF16F034ACE6EF15F0E8EF15F0EAEF9B
:102BCE0015F0800E341A36C537F535C536F537C5CE
:102BDE0035F528C537F52CC528F537C52CF529C58B
:102BEE0037F52DC529F537C52DF52AC537F52EC56F
:102BFE002AF537C52EF52BC537F52FC52BF537C55D
:102C0E002FF5000E376E365035C530F5316A305E11
:102C1E00000E315A31BE1DEF16F0315009E11A0E79
:102C2E00305CD8A01DEF16F01FEF16F056EF16F021
:102C3E00285029102A102B10D8A428EF16F02BEFAD
:102C4E0016F0010E2CEF16F0000E376E000E286EE9
:102C5E00000E296E000E2A6E000E2B6E35C536F54F
:102C6E005FEF16F037A03EEF16F040EF16F046EF8E
:102C7E0016F0D89037300109376E48EF16F0D8901D
:102C8E00373228A04DEF16F04FEF16F050EF16F03A
:102C9E00378E2B342B322A3229322832362A3550AF
:102CAE00365CD8A05DEF16F05FEF16F039EF16F038
:102CBE0034BC64EF16F066EF16F0A6EF16F0365041
:102CCE00D8A46CEF16F06EEF16F078EF16F0000E3B
:102CDE00286E000E296E000E2A6E000E2B6EC7EFA8
:102CEE0017F02C5028262D5029222E502A222F50F4
:102CFE002B222BA085EF16F087EF16F033EF17F08F
:102D0E0037A08CEF16F08EEF16F094EF16F0D890E9
:102D1E0037300109376E96EF16F0D890373228A06B
:102D2E009BEF16F09DEF16F09EEF16F0378E2B34BC
:102D3E002B322A3229322832362A33EF17F02C5012
:102D4E00285C2D5029582E502A582B50800A306E50
:102D5E002F50800A3058D8B0B7EF16F0B9EF16F0F2
:102D6E00E4EF16F028502C5C306E29502D58316E41
:102D7E002A502E58326E2B502F58336EFF0E3024A1
:102D8E00286EFF0E3120296EFF0E32202A6EFF0EA6
:102D9E0033202B6E800E341A376C3750D8A4DAEFEE
:102DAE0016F0DCEF16F0ECEF16F0010E2826000EF2
:102DBE0029222A222B22ECEF16F02C50285E2D50C1
:102DCE00295A2E502A5A2F502B5A285029102A1081
:102DDE002B10D8A4F5EF16F0F7EF16F02CEF17F036
:102DEE003750D8A4FDEF16F0FFEF16F02CEF17F0CA
:102DFE00000E286E000E296E000E2A6E000E2B6E2F
:102E0E00C7EF17F0D890283629362A362B3637AE2C
:102E1E0013EF17F015EF17F016EF17F0288037A005
:102E2E001BEF17F01DEF17F021EF17F0D880373694
:102E3E0023EF17F0D89037363650D8B429EF17F065
:102E4E002BEF17F02CEF17F036062AAE31EF17F0F6
:102E5E0033EF17F009EF17F0000E356E37AE3AEF7D
:102E6E0017F03CEF17F054EF17F037C530F57F0E23
:102E7E003016D8B445EF17F047EF17F04BEF17F0B9
:102E8E00010E356E54EF17F028A050EF17F052EFE9
:102E9E0017F054EF17F047EF17F03550D8B45AEF3C
:102EAE0017F05CEF17F087EF17F0010E2826000ED3
:102EBE0029222A222B222BA067EF17F069EF17F099
:102ECE0087EF17F028C530F529C531F52AC532F53B
:102EDE002BC533F53334333232323132303230C5E2
:102EEE0028F531C529F532C52AF533C52BF5362817
:102EFE00D8B484EF17F086EF17F087EF17F0362A65
:102F0E003628D8B48DEF17F08FEF17F097EF17F034
:102F1E003650D8A495EF17F097EF17F0A9EF17F0EA
:102F2E00000E286E000E296E000E2A6E000E2B6EFD
:102F3E003650D8A4A5EF17F0A7EF17F0A9EF17F0AA
:102F4E00000E346E36A0AEEF17F0B0EF17F0B3EF01
:102F5E0017F02A8EB4EF17F02A9ED89036302B6ECB
:102F6E0034AEBCEF17F0BEEF17F0BFEF17F02B8E9D
:102F7E0028C528F529C529F52AC52AF52BC52BF50F
:102F8E0012001250800B1B6E12501224216E11AEC5
:102F9E00D3EF17F0D5EF17F0D6EF17F021802150B1
:102FAE00D8B4DCEF17F0DEEF17F0F1EF17F02128B1
:102FBE00D8A4E4EF17F0E6EF17F0EEEF17F0000EDF
:102FCE000F6E000E106E000E116E000E126E118E30
:102FDE00F9EF17F0000E0F6E000E106E000E116E50
:102FEE00000E126E1650800B1B1A16501624206EF1
:102FFE0015AE04EF18F006EF18F007EF18F020806A
:10300E002050D8B40DEF18F00FEF18F022EF18F093
:10301E002028D8A415EF18F017EF18F01FEF18F0AE
:10302E00000E136E000E146E000E156E000E166E50
:10303E00158E2AEF18F0000E136E000E146E000E91
:10304E00156E000E166E2050D8B430EF18F032EF19
:10305E0018F03AEF18F02150D8A438EF18F03AEFE4
:10306E0018F044EF18F0000E0F6E000E106E000EEA
:10307E00116E000E126EEEEF19F015500F02610078
:10308E00CCF326F56100D0F327F526501C6E1D6A91
:10309E001E6A1F6A2750226E236A246A256A1450FC
:1030AE0010026100CCF326F56100D0F327F526500F
:1030BE001C26000E1D221E221F2227502226000E25
:1030CE00232224222522135011026100CCF326F56F
:1030DE006100D0F327F526501C26000E1D221E225D
:1030EE001F2227502226000E2322242225221EC50F
:1030FE001FF51DC51EF51CC51DF51C6A13501002CB
:10310E006100CCF326F56100D0F327F526501C267E
:10311E0027501D22000E1E22000E1F2214500F02D9
:10312E006100CCF326F56100D0F327F526501C265E
:10313E0027501D22000E1E22000E1F221EC51FF537
:10314E001DC51EF51CC51DF51C6A13500F0261002E
:10315E00CCF326F56100D0F327F526501C26275018
:10316E001D22000E1E22000E1F221550100261009D
:10317E00CCF326F56100D0F327F5265022262750F2
:10318E002322000E2422000E25221450110261006B
:10319E00CCF326F56100D0F327F5265022262750D2
:1031AE002322000E2422000E25221550110261004A
:1031BE00CCF326F56100D0F327F52650176E275075
:1031CE00186E196A1A6A19C51AF518C519F517C5B0
:1031DE0018F5176A17502226185023221950242248
:1031EE001A5025221CC517F51DC518F51EC519F553
:1031FE001FC51AF5190E09EF19F0D8901A321932A7
:10320E0018321732E82E04EF19F0175022261850F4
:10321E002322195024221A5025221EC51FF51DC522
:10322E001EF51CC51DF51C6A205021C517F5186A20
:10323E001726000E1822820E1724266EFF0E182057
:10324E00276E3FEF19F0D8902236233624362536D6
:10325E001FAE34EF19F036EF19F037EF19F0228068
:10326E00D8901C361D361E361F362606D8A02706C9
:10327E0024AE44EF19F046EF19F02AEF19F0000EC4
:10328E00206E1FAE4DEF19F04FEF19F073EF19F0DE
:10329E00FF0E1C14176EFF0E1D14186EFF0E1E145B
:1032AE00196E7F0E1F141A6E1750181019101A105F
:1032BE00D8B464EF19F066EF19F06AEF19F0010E49
:1032CE00206E73EF19F022A06FEF19F071EF19F065
:1032DE0073EF19F066EF19F02050D8B479EF19F0AA
:1032EE007BEF19F09FEF19F0010E2226000E23221C
:1032FE002422252225A086EF19F088EF19F09FEFE2
:10330E0019F022C517F523C518F524C519F525C5DD
:10331E001AF51A341A3219321832173217C522F525
:10332E0018C523F519C524F51AC525F5264A272AE9
:10333E0027BEAAEF19F0275008E12628D8A0AAEF39
:10334E0019F0ACEF19F0B6EF19F0000E226E000E68
:10335E00236E800E246E7F0E256EE4EF19F027BECD
:10336E00C3EF19F0275006E12604D8B0C1EF19F0CB
:10337E00C3EF19F0CFEF19F0000E226E000E236E80
:10338E00000E246E000E256E000E1B6EE4EF19F07B
:10339E0026C521F5FF0E2216FF0E23167F0E2416CC
:1033AE00000E251621A0DEEF19F0E0EF19F0E1EF87
:1033BE0019F0248ED8902130256E1B50251222C56F
:1033CE000FF523C510F524C511F525C512F512000C
:1033DE00446E57EF1AF0D5EC2EF0000EBFEC2EF027
:1033EE00000E01EC2CF001C547F502C548F5D2ECF4
:1033FE002EF0010E466E7CEF1AF0D5EC2EF0010E7B
:10340E00BFEC2EF0010E01EC2CF001C547F502C504
:10341E0048F5FEEF19F0D5EC2EF0020EBFEC2EF0B3
:10342E00170E01EC2CF001C547F502C548F5D2EC9C
:10343E002EF0020E466E7CEF1AF0D5EC2EF0030E37
:10344E00BFEC2EF0160E01EC2CF001C547F502C5AF
:10345E0048F51EEF1AF0D0B837EF1AF03BEF1AF01E
:10346E00426A422A3CEF1AF0426A4250476E486A5C
:10347E00020E466E7CEF1AF0D0B648EF1AF04CEF03
:10348E001AF0426A422A4DEF1AF0426A4250476ED3
:10349E00486A020E466E7CEF1AF046687CEF1AF010
:1034AE004450426E436A4350000AD8B461EF1AF09A
:1034BE0054EF1AF04250000AD8B4F2EF19F0010A94
:1034CE00D8B404EF1AF0030AD8B412EF1AF0010AB6
:1034DE00D8B424EF1AF0070AD8B432EF1AF0010A62
:1034EE00D8B443EF1AF054EF1AF000F04604D8A403
:1034FE0083EF1AF085EF1AF0ECEF1AF0485007E15F
:10350E00070E475CD8B08EEF1AF090EF1AF096EFD8
:10351E001AF0000E4C6E000E4B6EA0EF1AF047C55F
:10352E004BF548C54CF5FB0E4B244B6EFF0E4C2055
:10353E004C6E890E4B5C130E4C58D8A0A9EF1AF0A6
:10354E00ABEF1AF0ADEF1AF052EF1BF04BC501F5D1
:10355E004CC502F5000E046E050E036E0DEC2AF03E
:10356E0001C549F502C54AF59C0E4924496EFF0E68
:10357E004A204A6E49C501F54AC502F5000E046E91
:10358E000A0E036E15EC2DF001C549F502C54AF57C
:10359E0049C501F54AC502F5000E046EE80E036E2C
:1035AE000DEC2AF001C549F502C54AF54BC501F5EA
:1035BE004CC502F5000E046E640E036E0DEC2AF07F
:1035CE000150456E455052EF1BF0020E4618D8A41E
:1035DE00F3EF1AF0F5EF1AF052EF1BF06F0E2C6EA0
:1035EE00810E2D6EA80E2E6EC00E2F6EB30E136EA4
:1035FE007B0E146E920E156E3F0E166E47C501F5BC
:10360E0048C502F5036A046A000ECDEC20F001C530
:10361E000FF502C510F503C511F504C512F5C8EC7A
:10362E0017F00FC528F510C529F511C52AF512C5D5
:10363E002BF568EC15F028C538F529C539F52AC5DE
:10364E003AF52BC53BF568EC24F038C54BF539C57A
:10365E004CF5890E4B5C130E4C58D8A039EF1BF06D
:10366E003BEF1BF03DEF1BF052EF1BF0D8904B34AD
:10367E00496E4C344A6E49C501F54AC502F5000E35
:10368E00046E640E036E0DEC2AF001C549F502C5F9
:10369E004AF5DDEF1AF0120034EC27F00009D8B429
:1036AE005BEF1BF05DEF1BF09AEF1CF0B40E226E79
:1036BE00050E236E09EC2BF0E806D8A469EF1BF07B
:1036CE006BEF1BF09AEF1CF000F0B4C553F5B5C5C7
:1036DE0054F5B6C555F5B7C556F56100E4F6D9F4FF
:1036EE006100E8F6DAF4DF505D6E050120EE01F0C0
:1036FE00B951D926BA51DA22DF505E6E20EE02F0B1
:10370E00B951D926BA51DA22DF505C6E20EE03F0A1
:10371E00B951D926BA51DA22DF505A6E20EE04F092
:10372E00B951D926BA51DA22DF505B6E20EE05F080
:10373E00B951D926BA51DA22DF50596E20EE06F071
:10374E00B951D926BA51DA22DF50576E20EE07F062
:10375E00B951D926BA51DA22DF50586E54EF1CF007
:10376E005DC5ACF55EC5ABF55CC5AFF55AC5AAF542
:10377E005BC5A9F5B005D8A4C7EF1BF0C9EF1BF0C8
:10378E009AEF1CF0010EAD6F9AEF1CF05D50070B17
:10379E00A86F5D50180BA76F5D50E00BA66F5E50C3
:1037AE00010BA56F5E50060BA46F5E50780BA36FD6
:1037BE005CC54CF57F0E4C164D6A5EAE01D04D2A9F
:1037CE004D304C34A26F5A504C6E4D6AD8904C36D8
:1037DE004D365B504F6E4E6A4C504E124D504F123E
:1037EE00506A5CAE01D0502A010E501650504E1049
:1037FE000601206F4F50216F9AEF1CF05DC5A1F5A9
:10380E005EC5A0F55CC59FF55AC59EF55BC59DF5D9
:10381E0059C59CF557C59BF558C59AF59AEF1CF0FE
:10382E005D505EC54CF54D6A4CC54DF54C6A4C105D
:10383E0006011E6F4D501F6F5C505AC54CF54D6AF8
:10384E004CC54DF54C6A4C101C6F4D501D6F5B50A6
:10385E0059C54CF54D6A4CC54DF54C6A4C101A6F56
:10386E004D501B6F9AEF1CF05DC5B0F5B051D8A44A
:10387E0043EF1CF045EF1CF09AEF1CF0000E436E68
:10388E00000E426E010E456E2C0E446EDCEC25F0E1
:10389E009AEF1CF000F09AEF1CF053C54CF554C58E
:1038AE004DF555C54EF556C54FF54F50000AD8B4D7
:1038BE0093EF1CF051EF1CF04D50030AD8B472EF89
:1038CE001CF0070AD8B47DEF1CF0010AD8B484EFBF
:1038DE001CF051EF1CF04C50200AD8B4B7EF1BF07F
:1038EE00670AD8B43BEF1CF051EF1CF04C50120A93
:1038FE00D8B49AEF1CF051EF1CF04C50000AD8B41B
:10390E00CDEF1BF0010AD8B405EF1CF0030AD8B4B2
:10391E0017EF1CF051EF1CF04E50000AD8B463EFB5
:10392E001CF051EF1CF01200610038F4D9F4610064
:10393E003CF4DAF4610078F314F5610078F315F5D0
:10394E00610078F316F5610078F317F520EE04F0B8
:10395E000E50D9260F50DA22DFA0B8EF1CF0BAEFC6
:10396E001CF0F4EF1CF020EE01F00C50D9260D5097
:10397E00DA221438E842F80BF80BDF6E050E106EE3
:10398E00D8901732163215321432102EC7EF1CF0A3
:10399E0020EE02F00C50D9260D50DA22610050F4C0
:1039AE00DFF415C514F516C515F517C516F5176A06
:1039BE0020EE03F00C50D9260D50DA2214501F0BB6
:1039CE00DF6E050E106ED890173216321532143285
:1039DE00102EEAEF1CF00CEF1DF020EE03F00C5051
:1039EE00D9260D50DA22000EDF6E10EE02F00C50CA
:1039FE00E1260D50E222DFC4E7F420EE01F00C5078
:103A0E00D9260D50DA22E7C4DFF4610030F4D9F480
:103A1E00610034F4DAF4610050F4DFF415C514F5E6
:103A2E0016C515F517C516F5176A14C510F5070E48
:103A3E00101620EE01F00C50D9260D50DA2210503F
:103A4E00DF1220EE04F00E50D9260F50DA22DF30AE
:103A5E00E8320F0B136E20EE04F00E50D9260F50E5
:103A6E00DA22DFB03DEF1DF041EF1DF0106A102A93
:103A7E0042EF1DF0106A1038F00B131220EE04F016
:103A8E000E50D9260F50DA22DFB250EF1DF054EF50
:103A9E001DF0200E106E55EF1DF0106A105013120F
:103AAE0020EE04F00E50D9260F50DA22DFBE62EF60
:103ABE001DF066EF1DF0400E106E67EF1DF0106AE0
:103ACE001050131220EE04F00E50D9260F50DA22A9
:103ADE00DFBC74EF1DF078EF1DF0800E106E79EFE5
:103AEE001DF0106A1050131220EE04F00C50D9265F
:103AFE000D50DA2261004CF4DFF420EE04F00E508B
:103B0E00D9260F50DA22DFB28FEF1DF091EF1DF0A4
:103B1E00BDEF1DF0080E0C24016E000E0D20026E7E
:103B2E0020EE05F00E50D9260F50DA22610078F300
:103B3E0003F5610074F304F520EE04F00E50D9265F
:103B4E000F50DA22DF30E8320F0B106E116A010EC1
:103B5E001024F66E260E1120F76EF86A000EF8226B
:103B6E000800F550056E066ADCEC2AF0120020EE15
:103B7E0004F00C50D9260D50DA22DF50176E17C5FF
:103B8E0010F520EE04F00E50D9260F50DA22104612
:103B9E001046DF501018C30B1018DF6E17B8DAEF8F
:103BAE001DF0DEEF1DF0106A102ADFEF1DF0106A17
:103BBE0020EE04F00E50D9260F50DA22DF501018E6
:103BCE00FE0B1018DF6E17BAEFEF1DF0F3EF1DF0BE
:103BDE00106A102AF4EF1DF0106A20EE04F00E5059
:103BEE00D9260F50DA221046DF501018FD0B101890
:103BFE00DF6E17BC05EF1EF009EF1EF0106A102ADB
:103C0E000AEF1EF0106A20EE04F00E50D9260F5067
:103C1E00DA2210321032DF5010187F0B1018DF6EC0
:103C2E0017BE1CEF1EF020EF1EF0106A102A21EFB7
:103C3E001EF0106A20EE04F00E50D9260F50DA2234
:103C4E00103A10461046DF501018BF0B1018DF6EDA
:103C5E0020EE01F00C50D9260D50DA22DF50106EF6
:103C6E00070E10161050136E146A156A166A15C5D3
:103C7E0016F514C515F513C514F5136A610030F465
:103C8E00D9F4610034F4DAF4DF50106E10501312D0
:103C9E0020EE04F00E50D9260F50DA22DFA05AEF94
:103CAE001EF05CEF1EF09DEF1EF0050ED890133641
:103CBE00143615361636E82E5DEF1EF020EE03F0A4
:103CCE000C50D9260D50DA22DF50106E1F0E101632
:103CDE001050131215C516F514C515F513C514F5A8
:103CEE00136A20EE02F00C50D9260D50DA22DF5066
:103CFE00106E10501312050ED8901336143615365A
:103D0E001636E82E83EF1EF020EE01F00C50D92669
:103D1E000D50DA22DF50106ED8901032D89010323B
:103D2E00D89010321F0E101610501312610038F476
:103D3E00D9F461003CF4DAF461004CF4DEF4610075
:103D4E0050F4DEF4610054F4DEF4610058F4DEF455
:103D5E002A0E016E060E026E080E0C24036E000E65
:103D6E000D20046E20EE04F00E50D9260F50DA22EC
:103D7E00DF30E8320F0B106E116A010E1024F66E52
:103D8E00260E1120F76EF86A000EF8220800F55084
:103D9E00056E066ADCEC2AF020EE05F00E50D926F0
:103DAE000F50DA222A0EDE6E060EDD6E1200000EA7
:103DBE000301F96F3F0EFA6F000ED86F000EFB6F06
:103DCE00000ED96F000EDA6F000EDB6F000EDC6F87
:103DDE00000EDF6F000EE06F000EE36F000EE46F5B
:103DEE00000EE56F000EE66F000EE76F000EEA6F35
:103DFE00000EEB6F000EEC6FE80EEE6F030EEF6F22
:103E0E00000EF06F000EF16F000EF26F000EF36FEA
:103E1E00000EF46F100EF56F000EF66F000EF76FBA
:103E2E00000EF86F000EFC6F010EFB6F000ED96FC7
:103E3E00000EDA6F000EDB6F000EDC6F000EDF6F10
:103E4E00000EE06F000EE36F000EE46F000EE56FE4
:103E5E00000EE66F000EE76F000EEA6F000EEB6FBE
:103E6E00010EEC6FE80EEE6F030EEF6F000EF06FAB
:103E7E00000EF16F000EF26F000EF36F000EF46F76
:103E8E00100EF56F000EF66F000EF76F000EF86F46
:103E9E00000EFD6F020EFB6F000ED96F000EDA6F73
:103EAE00000EDB6F000EDC6F000EDF6F000EE06F9A
:103EBE00000EE36F000EE46F000EE56F000EE66F6E
:103ECE00000EE76F000EEA6F000EEB6F170EEC6F31
:103EDE00E80EEE6F030EEF6F000EF06F000EF16F37
:103EEE00000EF26F000EF36F000EF46F100EF56FF2
:103EFE00000EF66F000EF76F000EF86F000EFE6FDD
:103F0E00030EFB6F000ED96F000EDA6F000EDB6F23
:103F1E00000EDC6F000EDF6F000EE06F000EE36F21
:103F2E00000EE46F000EE56F000EE66F000EE76FF9
:103F3E00000EEA6F000EEB6F160EEC6FE80EEE6FD2
:103F4E00030EEF6F000EF06F000EF16F000EF26FAA
:103F5E00000EF36F000EF46F100EF56F000EF66F7D
:103F6E00000EF76F000EF86F000EFF6FAF94AF9656
:103F7E00B090B092B094B096000E0501C66F000ED0
:103F8E00C76FB5EC2EF0000E0501C66F000EC76FA1
:103F9E00ABEC2EF0000E0501C66F000EC76FA6EC3F
:103FAE002EF0000E0501C66F000EC76FA1EC2EF0AD
:103FBE00000E0501C66F000EC76F9CEC2EF0000EB2
:103FCE000501C66F000EC76FB0EC2EF0840E030114
:103FDE00F36F12000501CE6F0501CE51D8B4FAEF82
:103FEE001FF0FCEF1FF01EEF20F0C9BF03EF20F013
:103FFE0001EF20F01EEF20F0C6C5CAF5C7C5CBF500
:10400E00C8C5CCF5C9C5CDF5CA1FCB1FCC1FCD1F5A
:10401E00CA2B000ECB23CC23CD23CAC5D0F5CBC5DE
:10402E00D1F5CCC5D2F5CDC5D3F526EF20F0C6C55A
:10403E00D0F5C7C5D1F5C8C5D2F5C9C5D3F5C6519A
:10404E00C711C811C911D8A42FEF20F031EF20F0FD
:10405E003BEF20F0000EC66F000EC76F000EC86F4C
:10406E00000EC96FCCEF20F0960ECF6F45EF20F00B
:10407E00CF2BD890D333D233D133D033000ED015CB
:10408E00CA6F000ED115CB6F000ED215CC6FFE0E7F
:10409E00D315CD6FCA51CB11CC11CD11D8A45AEF77
:1040AE0020F05CEF20F03FEF20F06AEF20F0CF2BF6
:1040BE00010ED027000ED123D223D323D890D33391
:1040CE00D233D133D033000ED015CA6F000ED115B6
:1040DE00CB6F000ED215CC6FFF0ED315CD6FCA511C
:1040EE00CB11CC11CD11D8A47FEF20F081EF20F0B1
:1040FE005EEF20F089EF20F0CF07D890D037D13780
:10410E00D237D337D2BF8EEF20F090EF20F098EF5A
:10411E0020F0020ECF6196EF20F098EF20F083EFA3
:10412E0020F0CFB19DEF20F09FEF20F0A0EF20F018
:10413E00D29FD890CF33CFC5CAF5CB6BCC6BCD6B9E
:10414E00CAC5CDF5CC6BCB6BCA6BCA51D013CB5154
:10415E00D113CC51D213CD51D313CE51D8B4BAEF13
:10416E0020F0BCEF20F0C4EF20F0C9BFC3EF20F069
:10417E00C1EF20F0C4EF20F0D38FD0C5C6F5D1C566
:10418E00C7F5D2C5C8F5D3C5C9F51200096E0950D9
:10419E00D8B4D4EF20F0D6EF20F0F8EF20F004BE24
:1041AE00DDEF20F0DBEF20F0F8EF20F001C505F594
:1041BE0002C506F503C507F504C508F5051E061E5E
:1041CE00071E081E052A000E06220722082205C514
:1041DE000BF506C50CF507C50DF508C50EF500EF78
:1041EE0021F001C50BF502C50CF503C50DF504C58F
:1041FE000EF50150021003100410D8A409EF21F09F
:10420E000BEF21F015EF21F0000E016E000E026E85
:10421E00000E036E000E046EA6EF21F0960E0A6ECF
:10422E001FEF21F00A2AD8900E320D320C320B32CB
:10423E00000E0B14056E000E0C14066E000E0D14FF
:10424E00076EFE0E0E14086E0550061007100810AD
:10425E00D8A434EF21F036EF21F019EF21F044EF1E
:10426E0021F00A2A010E0B26000E0C220D220E2220
:10427E00D8900E320D320C320B32000E0B14056E2E
:10428E00000E0C14066E000E0D14076EFF0E0E14AB
:10429E00086E0550061007100810D8A459EF21F02B
:1042AE005BEF21F038EF21F063EF21F00A06D89092
:1042BE000B360C360D360E360DBE68EF21F06AEF5A
:1042CE0021F072EF21F0020E0A6070EF21F072EF12
:1042DE0021F05DEF21F00AB077EF21F079EF21F0B8
:1042EE007AEF21F00D9ED8900A320AC505F5066ABE
:1042FE00076A086A05C508F5076A066A056A055061
:10430E000B1206500C1207500D1208500E120950C7
:10431E00D8B494EF21F096EF21F09EEF21F004BE79
:10432E009DEF21F09BEF21F09EEF21F00E8E0BC53D
:10433E0001F50CC502F50DC503F50EC504F5120009
:10434E0001011DAFADEF21F0AFEF21F0BEEF21F077
:10435E0002D8BCEF21F00500FA6E05018451FD6E06
:10436E008551FE6EFF6AFA50120001011D9F1DADB0
:10437E00C3EF21F0C5EF21F0D4EF21F002D8D2EF38
:10438E0021F00500FA6E05018251FD6E8351FE6E1D
:10439E00FF6AFA50120001011D9D1DABD9EF21F0ED
:1043AE00DBEF21F0EAEF21F002D8E8EF21F0050073
:1043BE00FA6E05018051FD6E8151FE6EFF6AFA5054
:1043CE00120001011D9B1CA7EFEF21F0F1EF21F070
:1043DE0000EF22F002D8FEEF21F00500FA6E050183
:1043EE007E51FD6E7F51FE6EFF6AFA501200010182
:1043FE001C971DA905EF22F007EF22F016EF22F011
:10440E0002D814EF22F00500FA6E05017C51FD6E04
:10441E007D51FE6EFF6AFA50120001011D991DA515
:10442E001BEF22F01DEF22F033EF22F002D82AEF1D
:10443E0022F00500FA6E05017A51FD6E7B51FE6E7B
:10444E00FF6AFA501200010154A930EF22F032EF48
:10445E0022F033EF22F054991DA738EF22F03AEFF5
:10446E0022F050EF22F002D847EF22F00500FA6E4C
:10447E0005017851FD6E7951FE6EFF6AFA501200F9
:10448E00010160A74DEF22F04FEF22F050EF22F026
:10449E006097AE9C1200000E0501CF6FCDBF5CEF92
:1044AE0022F05AEF22F066EF22F0CD1FCC1FCB1F69
:1044BE00CA6D000ECB23CC23CD23010ECF6FC9BF07
:1044CE006DEF22F06BEF22F077EF22F0C91FC81FBD
:1044DE00C71FC66D000EC723C823C923010ECF1BED
:1044EE00000ED06F000ED16F000ED26F000ED36F84
:1044FE00CA51CB11CC11CD11D8B488EF22F08AEF6E
:10450E0022F0C0EF22F0010ECE6F94EF22F0D89081
:10451E00CA37CB37CC37CD37CE2BCDAF99EF22F074
:10452E009BEF22F08EEF22F0D890D037D137D237D2
:10453E00D337CA51C65DCB51C759CC51C859CD518D
:10454E00C959D8A0ADEF22F0AFEF22F0B8EF22F0AC
:10455E00CA51C65FCB51C75BCC51C85BCD51C95B4D
:10456E00D081D890CD33CC33CB33CA33CE2F9BEF03
:10457E0022F0CF51D8B4C6EF22F0C8EF22F0D0EF20
:10458E0022F0D31FD21FD11FD06D000ED123D22304
:10459E00D323D0C5C6F5D1C5C7F5D2C5C8F5D3C589
:1045AE00C9F51200000E0A6E08BEE2EF22F0E0EF2F
:1045BE0022F0ECEF22F0081E071E061E056C000E00
:1045CE00062207220822010E0A6E04BEF3EF22F025
:1045DE00F1EF22F0FDEF22F0041E031E021E016C0D
:1045EE00000E022203220422010E0A1A000E0B6E86
:1045FE00000E0C6E000E0D6E000E0E6E05500610A7
:10460E0007100810D8B40EEF23F010EF23F046EF8A
:10461E0023F0010E096E1AEF23F0D89005360636F8
:10462E0007360836092A08AE1FEF23F021EF23F0D4
:10463E0014EF23F0D8900B360C360D360E3605508F
:10464E00015C065002580750035808500458D8A071
:10465E0033EF23F035EF23F03EEF23F00550015EEC
:10466E000650025A0750035A0850045A0B80D8902D
:10467E000832073206320532092E21EF23F00A5096
:10468E00D8B44CEF23F04EEF23F056EF23F00E1E6E
:10469E000D1E0C1E0B6C000E0C220D220E220BC5D5
:1046AE0001F50CC502F50DC503F50EC504F5120096
:1046BE006100D8F3C2F56100DCF3C3F56100E0F3ED
:1046CE00C4F56100D4F3C5F5A1AE70EF23F072EF1F
:1046DE0023F07DEF23F0B1AE77EF23F079EF23F0E7
:1046EE007DEF23F0C4EC2EF0D7EF23F09FA082EFE6
:1046FE0023F084EF23F08FEF23F0AFA089EF23F0A8
:10470E008BEF23F08FEF23F0C8EC2EF0D7EF23F0D2
:10471E00A1A694EF23F096EF23F0A1EF23F0B1A61C
:10472E009BEF23F09DEF23F0A1EF23F025EC2EF06D
:10473E00D7EF23F09EACA6EF23F0A8EF23F0B3EF54
:10474E0023F0AEACADEF23F0AFEF23F0B3EF23F0D9
:10475E00A7EC21F0D7EF23F0A2A8B8EF23F0BAEF21
:10476E0023F0C5EF23F0B2A8BFEF23F0C1EF23F083
:10477E00C5EF23F0EAEC2CF0D7EF23F0A1A8CAEF97
:10478E0023F0CCEF23F0D7EF23F0B1A8D1EF23F035
:10479E00D3EF23F0D7EF23F099EC27F0D7EF23F0E8
:1047AE00610014F7F5F4610010F7F8F461000CF7EE
:1047BE00F7F4610008F7F6F411000501E635E73568
:1047CE00ED6FED51D8A4EEEF23F0F0EF23F0FAEFFA
:1047DE0023F0000EE46F000EE56F000EE66F000E84
:1047EE00E76F67EF24F0E4C5E8F5E5C5E9F5E6C542
:1047FE00EAF5E7C5EBF5200E0AEF24F0D890EB337F
:10480E00EA33E933E833E82E05EF24F0E851EC6F94
:10481E00E68FFF0EE417FF0EE517FF0EE617000EEC
:10482E00E717960EED5FEDBF21EF24F01FEF24F09A
:10483E0037EF24F0ED51800A970FD8B029EF24F00E
:10484E002BEF24F02DEF24F0F0EF23F0D890E73388
:10485E00E633E533E433ED3F2DEF24F04FEF24F054
:10486E001F0EED653DEF24F03FEF24F047EF24F0EF
:10487E00F0EF23F0D890E437E537E637E737ED076A
:10488E00ED51D8A44DEF24F04FEF24F041EF24F07A
:10489E00EC51D8B455EF24F057EF24F05FEF24F02D
:1048AE00E71FE61FE51FE46D000EE523E623E72371
:1048BE00E4C5E4F5E5C5E5F5E6C5E6F5E7C5E7F5D6
:1048CE0012003A343B34416E4150D8A471EF24F0BB
:1048DE0073EF24F07DEF24F0000E386E000E396E6B
:1048EE00000E3A6E000E3B6EEAEF24F038C53CF532
:1048FE0039C53DF53AC53EF53BC53FF5200E8DEF6A
:10490E0024F0D8903F323E323D323C32E82E88EFD2
:10491E0024F03C50406E3A8EFF0E3816FF0E3916BC
:10492E00FF0E3A16000E3B16960E415E41BEA4EFE8
:10493E0024F0A2EF24F0BAEF24F04150800A970F32
:10494E00D8B0ACEF24F0AEEF24F0B0EF24F073EF5C
:10495E0024F0D8903B323A3239323832413EB0EF01
:10496E0024F0D2EF24F01F0E4164C0EF24F0C2EF0A
:10497E0024F0CAEF24F073EF24F0D890383639368D
:10498E003A363B3641064150D8A4D0EF24F0D2EF50
:10499E0024F0C4EF24F04050D8B4D8EF24F0DAEF6E
:1049AE0024F0E2EF24F03B1E3A1E391E386C000E46
:1049BE0039223A223B2238C538F539C539F53AC580
:1049CE003AF53BC53BF51200490E0501C66F990E2F
:1049DE00C76F000EC86F000EC96FF0C5CAF5F1C5DE
:1049EE00CBF5CC6BCD6B52EC22F0C6C5F4F5C7C53A
:1049FE00F5F56A0E0501D86F4D0ED96F930EDA6F6D
:104A0E00BF0EDB6FF4C5C6F5F5C5C7F5C86BC96B30
:104A1E00000EF1EC1FF0C6C5D4F5C7C5D5F5C8C557
:104A2E00D6F5C9C5D7F507EC13F0D4C5E4F5D5C551
:104A3E00E5F5D6C5E6F5D7C5E7F5E4EC23F0E4C514
:104A4E00F4F5E5C5F5F5EEC5F2F5EFC5F3F505019F
:104A5E00D890F237F337D890F237F337F2C5F6F530
:104A6E00F3C5F7F5F6C5C6F5F7C5C7F5000EC96F60
:104A7E00640EC86FD4EC2CF0C6C5F6F5C7C5F7F5B5
:104A8E00F6C5C6F5F7C5C7F5F0C5C8F5F1C5C9F544
:104A9E0024EC29F0C6C5F6F5C7C5F7F5F6C5C6F57B
:104AAE00F7C5C7F51EEC2EF0F4C5C6F5F5C5C7F56E
:104ABE0017EC2EF0DDEC2EF0120023C522F624C5E5
:104ACE0023F625C524F626C525F627C526F628C5C0
:104ADE0027F629C528F62AC529F61EC5BBF51FC51A
:104AEE00BCF520C5BDF521C5BEF50501BF9DBF9F17
:104AFE00BF93BF8122C52BF50F0E2B162B462B46CF
:104B0E00BF512B18C30B2B18BF6F220EC06F060E92
:104B1E00C16FF8EC2DF0E806D8A498EF25F09AEFC7
:104B2E0025F09EEF25F000F0010E0501AE6FEDECC5
:104B3E002DF0E806D8A4A6EF25F0A8EF25F0ACEFEF
:104B4E0025F000F0010E0501AE6FE2EC2DF0E80647
:104B5E00D8A4B4EF25F0B6EF25F0BAEF25F000F0AB
:104B6E00010E0501AE6FA6EC2DF0E806D8A4C2EF3B
:104B7E0025F0C4EF25F0C8EF25F000F0010E050179
:104B8E00AE6F000E52EC2DF02B6E2BA0D1EF25F058
:104B9E00D3EF25F0DBEF25F0BB0E186E050E196E68
:104BAE00000E9DEC28F000F01200490E016E990ED9
:104BBE00026E000E036E000E046E44C505F545C56B
:104BCE0006F5076A086AD9EC22F001C548F502C558
:104BDE0049F56A0E2C6E4D0E2D6E930E2E6EBF0E77
:104BEE002F6E48C501F549C502F5036A046A000E29
:104BFE00CDEC20F001C528F502C529F503C52AF52F
:104C0E0004C52BF568EC15F028C538F529C539F51E
:104C1E002AC53AF52BC53BF568EC24F038C548F5A6
:104C2E0039C549F542C546F543C547F5D8904636D0
:104C3E004736D8904636473646C54AF547C54BF5F2
:104C4E004AC501F54BC502F5000E046E640E036EE7
:104C5E0015EC2DF001C54AF502C54BF54AC501F517
:104C6E004BC502F544C503F545C504F50DEC2AF018
:104C7E0001C54AF502C54BF54AC501F54BC502F50E
:104C8E0037EC2EF048C501F549C502F531EC2EF092
:104C9E00DFEC2EF01200216E000E1D6E1850CBECC4
:104CAE002DF0206E20A05EEF26F060EF26F0C6EF0E
:104CBE0026F018500C0D580EF324D96E010EF42068
:104CCE00DA6E610078F31EF5610074F31FF51E5065
:104CDE001F10D8B475EF26F077EF26F0C6EF26F04A
:104CEE001EC50CF51FC50DF519C50EF51AC50FF528
:104CFE00BEEC1DF018500C0D510EF324D96E010EA2
:104D0E00F420DA6E000EDB802150020DFB0EF32430
:104D1E00D96E050EF420DA6EDF2A185097EC2DF0BE
:104D2E001B6E2150020DFB0EF324D96E050EF420DE
:104D3E00DA6E1B50DE5CD8A0A7EF26F0A9EF26F0A6
:104D4E00B3EF26F02150020DFB0EF324D96E050EA3
:104D5E00F420DA6E000EDF6E20A6B8EF26F0BAEF62
:104D6E0026F0C4EF26F018500C0D540EF324D96E15
:104D7E00010EF420DA6EF70EDF16010E1D6E1D50B9
:104D8E001200076E000E096E20EE04F00250D926B6
:104D9E000350DA22DF500A6E0AAED8EF26F0DAEFB1
:104DAE0026F0E5EF26F0BAEC2EF0060AD8A4E2EFD4
:104DBE0026F0E4EF26F0E5EF26F009820A30E8321D
:104DCE000F0B046E080E0464EFEF26F0F1EF26F0E1
:104DDE0003EF27F00AACF6EF26F0F8EF26F002EF1D
:104DEE0027F0BAEC2EF0060AD8A400EF27F002EF57
:104DFE0027F003EF27F00980090EF66E260EF76EE8
:104E0E00F86A08006100D4F304F50A30E8320F0B9B
:104E1E00056E066A010E0524F66E260E0620F76E46
:104E2E00F86A000EF8220800F550045CD8B022EFA4
:104E3E0027F024EF27F025EF27F009800750BFEC6D
:104E4E002DF00009D8A42EEF27F030EF27F032EF27
:104E5E0027F0030E091209501200000E036E000E09
:104E6E000A6E0A50020DFA0EF324D96E050EF420C6
:104E7E00DA6EDF50066E0650CBEC2DF0056E05A0F7
:104E8E004BEF27F04DEF27F08EEF27F0065097EC03
:104E9E002DF0076E05A656EF27F058EF27F05CEFC2
:104EAE0027F007C504F58CEF27F006500C0D550EB4
:104EBE00F324D96E010EF420DA6EDF501F0B086E4C
:104ECE000A50020DFB0EF324D96E050EF420DA6E95
:104EDE00DF50096E0950085CD8B078EF27F07AEFF2
:104EEE0027F080EF27F00950085C0724046E8CEF42
:104EFE0027F00850095CD8B087EF27F089EF27F02C
:104F0E0058EF27F00950085C046E045003260A2A55
:104F1E000A50D8B495EF27F097EF27F038EF27F027
:104F2E0003501200B198F8C501F5F9C502F578ECF9
:104F3E002CF08FEC2CF0CFEC2EF00501B32B060EDF
:104F4E00B319D8A4ADEF27F0AFEF27F0B3EF27F0EA
:104F5E00000EB36F2BEC2EF00501B22B0B0EB21917
:104F6E00D8A4BCEF27F0BEEF27F0C2EF27F0000E5B
:104F7E00B26FAEEC2AF00501B12B650EB119D8A4B3
:104F8E00CBEF27F0CDEF27F0D1EF27F0000EB16F6A
:104F9E00E7EC2EF00501764B772B2D0E761906E1F8
:104FAE007705D8A4DDEF27F0DFEF27F0E5EF27F048
:104FBE00000E776F000E766FE5EC2EF00501744B48
:104FCE00752B590E741907E1020E7519D8A4F2EF5C
:104FDE0027F0F4EF27F0FAEF27F0000E756F000EB2
:104FEE00746FE6EC2EF01200000EEFEC19F04D6E21
:104FFE004D5005016E6F6F6B000E026E0A0E016E44
:10500E00A6EC2CF0010EEFEC19F04D6E4D50050193
:10501E006C6F6D6B000E026E0A0E016EA6EC2CF01C
:10502E00020EEFEC19F04D6E4D5005016A6F6B6B71
:10503E00000E026E0A0E016EA6EC2CF0030EEFECC3
:10504E0019F04D6E4D500501686F696B000E026EC2
:10505E000A0E016EA6EC2CF0040EEFEC19F04D6E5C
:10506E004D500501666F676B000E026E0A0E016EE3
:10507E00A6EC2CF0050EEFEC19F04D6E4D5005011F
:10508E00646F656B000E026E0A0E016EA6EC2CF0BC
:10509E0000F012000501C86F000E0501C76F74EC19
:1050AE002EF00501C66F040EC619D8B461EF28F0B4
:1050BE0063EF28F074EF28F0C805D8B469EF28F034
:1050CE006BEF28F074EF28F0040EC819D8A472EF15
:1050DE0028F074EF28F099EF28F001010351050133
:1050EE00C819F80BC8190101036F8BEF28F00101E5
:1050FE001DA984EF28F086EF28F08BEF28F0020E22
:10510E000501C76F9BEF28F00239E832070B050146
:10511E00C819D8A495EF28F097EF28F07EEF28F065
:10512E009BEF28F0010EC76FC75112001D6E1D5068
:10513E007BEC2BF00009D8B4A7EF28F0A9EF28F0EC
:10514E00E6EF28F018C502F519C503F51D50C8EC99
:10515E0026F01A6E1A50D8A4B7EF28F0B9EF28F03F
:10516E00E6EF28F01D500C0D580EF324D96E010EEB
:10517E00F420DA6E610078F31BF5610074F31CF510
:10518E001B501C10D8B4CEEF28F0D0EF28F0E6EF6D
:10519E0028F01BC50CF51CC50DF518C50EF519C567
:1051AE000FF59BEC1CF01D500C0D510EF324D96E17
:1051BE00010EF420DA6E030EDF12E6EF28F0120075
:1051CE00DC0E0501C66F5D0EC76F8DEC2EF0DE0E88
:1051DE000501C66F5D0EC76F92EC2EF0E00E050155
:1051EE00C66F5D0EC76F97EC2EF0DA0E0501C66F17
:1051FE005D0EC76F88EC2EF0D60E0501C66F5D0EE4
:10520E00C76F7EEC2EF0D40E0501C66F5D0EC76F14
:10521E0079EC2EF0D80E0501C66F5D0EC76F83ECCC
:10522E002EF0AE9C000E01011C6F000E1D6F0A0EBB
:10523E001E6FFC0E1F6F9E8C1200000E0501CC6FB0
:10524E00000ECB6FC851C911D8B430EF29F032EF30
:10525E0029F05AEF29F0010ECA6F3AEF29F0D890D3
:10526E00C837C937CA2BC9AF3FEF29F041EF29F034
:10527E0036EF29F0D890CB37CC37C851C65DC9511F
:10528E00C759D8A04DEF29F04FEF29F054EF29F070
:10529E00C851C65FC951C75BCB81D890C933C833DB
:1052AE00CA2F41EF29F0CBC5C6F5CCC5C7F5120004
:1052BE00000E6F6E020E706E000E716E500E726EDC
:1052CE000F0E736EFE0E746E000E756E000E766E01
:1052DE00000E776E000E796E0D0E7A6E050E7B6ED9
:1052EE00A80E7C6E070E7D6EB39CB39E7690769262
:1052FE00A39EA39C000E0501C66F000EC76F51EC56
:10530E002EF0000E0501C66F000EC76F4CEC2EF08E
:10531E00000E0501C66F000EC76F56EC2EF0800E04
:10532E00786E1200000E606E020E616E000E626EDE
:10533E003D0E636E000E646EFE0E656E000E666EA2
:10534E00000E676E000E686E000E6A6E1F0E6B6E9C
:10535E00000E6C6E1F0E6D6E000E6E6EB29CB29EC7
:10536E0067906792A29EA29C000E0501C66F000E6A
:10537E00C76F60EC2EF0000E0501C66F000EC76FF2
:10538E005BEC2EF0000E0501C66F000EC76F65ECCC
:10539E002EF0800E696E12000601326F0501910526
:1053AE00D8A4DCEF29F0DEEF29F00CEF2AF0B005DF
:1053BE00D8A4E4EF29F0E6EF29F00CEF2AF006016D
:1053CE0032513C0D6100CCF370F56100D0F371F5F4
:1053DE0070C5C6F571C5C7F5000E0501C96F640E1F
:1053EE00C86F24EC29F0C6C570F5C7C571F5050167
:1053FE007051706F716B70C5EEF571C5EFF5010EE2
:10540E00F16F2C0EF06FEBEC24F01200000E066E16
:10541E00000E056E03500410D8B418EF2AF01AEFE0
:10542E002AF042EF2AF0010E076E22EF2AF0D890F2
:10543E0003360436072A04AE27EF2AF029EF2AF0A6
:10544E001EEF2AF0D890053606360350015C045044
:10545E000258D8A035EF2AF037EF2AF03CEF2AF0A9
:10546E000350015E0450025A0580D8900432033274
:10547E00072E29EF2AF005C501F506C502F5120023
:10548E00000EBE6E000EBF6E000EC06E080ECA6E0F
:10549E00EF0EC66EC80EC76EDC0EC86ED80E0401B7
:1054AE00106F400E086FCF0E006F000E216F000EB2
:1054BE00096F000E016F000E116F000E026F000ECD
:1054CE000A6F000E126F03690B69136904690C6988
:1054DE001469080E246F180E0201116F0F0E696FFA
:1054EE00050E3E6F1A0E126F0B0E3D6F460E0D6FB0
:1054FE0012000101018F040E51EC28F00009D8A40E
:10550E008BEF2AF08DEF2AF0ADEF2AF0000E01019D
:10551E004C6F260E4D6F000E4E6F000E4F6F600ECD
:10552E00006F970E016F100E026F0DEC2EF003EC54
:10553E002EF000EC2DF066EC2DF04AEC2CF0E7ECA2
:10554E0028F0060E51EC28F0C79ABF9A1200BEB88A
:10555E00B3EF2AF0B6EF2AF0010EB7EF2AF0000EE5
:10556E00FF0A2C6E2C3ABE502C18EF0B2C18BE6E68
:10557E00600E1E6E030E1F6E000E206E000E216E4C
:10558E00080E226E6EC523F56CC524F56AC525F589
:10559E0068C526F566C527F564C528F562C529F5E3
:1055AE0060C52AF564EC25F0120003C509F504C5A3
:1055BE000AF501C507F502C508F5FBEF2AF06100F3
:1055CE0024F4D9F4610028F4DAF4DF500B6E094AA2
:1055DE000A2A61001CF4D9F4610020F4DAF46100A7
:1055EE002CF4DFF4074A082A0506D8A0060605287B
:1055FE0006E10628D8A406EF2BF008EF2BF0E6EF15
:10560E002AF01200000E256E2550020DFA0EF3241C
:10561E00D96E050EF420DA6EDF50186E22C519F51C
:10562E0023C51AF5255052EC26F0246E2450D8B41A
:10563E0023EF2BF025EF2BF027EF2BF030EF2BF095
:10564E00252A2550D8B42EEF2BF030EF2BF00BEF90
:10565E002BF024501200C20EF66E5D0EF76E000E89
:10566E00F86E09006100D4F3FAF509006100D4F375
:10567E00FBF501EE1AF2180EEE6AE806FDE101EEF8
:10568E0060F1620EEE6AE806FDE15F6A0401080E43
:10569E005D6F000E5E6F000E5F6F00019AEF2BF0D4
:1056AE00000E03011F6F000E206F010E216F850E7D
:1056BE001D6FEE0E1C6FB1981C51600074FCC8F586
:1056CE000501C96BC8C5C9F5C86BC811F86FC951BA
:1056DE00F96FA188C80EC66F5D0EC76F42EC2EF033
:1056EE00310E03011E6F1200026E000E016E040ECB
:1056FE00026084EF2BF086EF2BF098EF2BF0025028
:10570E000C0D500EF324D96E010EF420DA6E010149
:10571E00DFAE94EF2BF096EF2BF098EF2BF0010EFF
:10572E00016E01501200CFEC2BF0D68E000E32EC33
:10573E002CF088EC2DF0CCEC2EF000F00501B0052D
:10574E00D8A4ACEF2BF0AEEF2BF0A4EF2BF0AF51B3
:10575E00D3EC29F0A4EF2BF00DEF00F0000ECEBA33
:10576E00010E0501966F9605D8A4C0EF2BF0C2EF7F
:10577E002BF0CEEF2BF0000EEFEC19F00501956F2C
:10578E00010EEFEC19F00501946F70C597F512003C
:10579E00DBEC2EF03EEC2DF0DEEC1EF047EC2AF0AA
:1057AE00B3EC2DF01AEC2CF057EC2BF0D7EC2DF0CF
:1057BE002AEC2DF05FEC29F080EC2AF099EC29F020
:1057CE001200B5EC2BF0060118511911D8B4F2EFF6
:1057DE002BF0F4EF2BF000EF2CF002D800EF2CF0B2
:1057EE000500FA6E1851FD6E1951FE6EFF6AFA50E1
:1057FE0012001200056E610014F4ECF30301F38F36
:10580E00F39DF381F3B10EEF2CF010EF2CF009EFB6
:10581E002CF0EB51046E036AEA510324016E000E64
:10582E000420026E1200010E0301266F000E256F7A
:10583E00000E276FC20E236F000E226FB196A18647
:10584E00C40E0501C66F5D0EC76F3DEC2EF0F00E57
:10585E000301246F12000501C66F0501C605D8A409
:10586E003BEF2CF03DEF2CF040EF2CF09E8C49EFEF
:10587E002CF0C651D8A446EF2CF048EF2CF049EF8F
:10588E002CF09E9C1200000E0501C66FC651020D33
:10589E00FB0EF324D96E050EF420DA6E000EDF6EC9
:1058AE00C62BC651D8B45EEF2CF060EF2CF04DEF46
:1058BE002CF01200060102510311D8B469EF2CF03E
:1058CE006BEF2CF077EF2CF002D877EF2CF0050071
:1058DE00FA6E0251FD6E0351FE6EFF6AFA5012000F
:1058EE00120003011EA57EEF2CF080EF2CF089EF45
:1058FE002CF01E9102501D6F610004F41CF31E81EA
:10590E008EEF2CF002501D6F610004F41CF3120098
:10591E00060104510511D8B497EF2CF099EF2CF035
:10592E00A5EF2CF002D8A5EF2CF00500FA6E04516D
:10593E00FD6E0551FE6EFF6AFA5012001200AFEFB7
:10594E002CF0040E036E3E0EE82EFED7032EFCD76F
:10595E000106D8A00206012806E10228D8A4BAEF53
:10596E002CF0BCEF2CF0A8EF2CF012000601005129
:10597E000111D8B4C5EF2CF0C7EF2CF0D3EF2CF0FB
:10598E0002D8D3EF2CF00500FA6E0051FD6E0151D6
:10599E00FE6EFF6AFA50120012000501C651C803CE
:1059AE006100CCF3CAF56100D0F3CBF5C651C90343
:1059BE00F350CB27C751C803F350CB27CAC5C6F542
:1059CE00CBC5C7F51200010160A1F0EF2CF0F2EF8C
:1059DE002CF0FFEF2CF002D8FFEF2CF00500FA6E42
:1059EE0005018651FD6E8751FE6EFF6AFA50120058
:1059FE001200190E01015C6F040E5D6F600E5E6F7A
:105A0E00050E5F6FB00E0501C66F5D0EC76F6FECB2
:105A1E002EF001011E83B298A288120001500302DB
:105A2E006100CCF305F56100D0F306F501500402D8
:105A3E00F350062602500302F350062605C501F563
:105A4E0006C502F51200440E03011B6F9B0E196F63
:105A5E00000E186FB19EA18ED00E0501C66F5D0EA1
:105A6E00C76F47EC2EF0800E03011A6F1200000E66
:105A7E000001606F000E616F000E626F000E636FAB
:105A8E00000E646F000E656F000E666F000E676F7E
:105A9E00000E686F1200046E000E036E04507BEC55
:105AAE002BF00009D8B45EEF2DF060EF2DF064EF0F
:105ABE002DF00450BFEC2DF0036E035012005F0E5C
:105ACE000101946F956996699769000E986F000EA3
:105ADE00996F000E9A6F000E9B6F810E816F1200F0
:105AEE0000F00501AD05D8A47FEF2DF081EF2DF06C
:105AFE0085EF2DF0010E916F87EF2DF0000E916F57
:105B0E001200040100810083108F108D1089108700
:105B1E00C698C790C794C792C79AC884C89A1200ED
:105B2E00026E02500C0D530EF324D96E010EF420AA
:105B3E00DA6EDF50016E1F0E011601281200EDEC19
:105B4E002DF00009D8B4AEEF2DF0B1EF2DF0010E0F
:105B5E00B2EF2DF0000E1200700E0001AD6F000EB0
:105B6E00AF6F000EB36F020EB16F000EB06F12006A
:105B7E00016E01500C0D540EF324D96E010EF4205B
:105B8E00DA6EDF50010B1200016E01500C0D540E37
:105B9E00F324D96E010EF420DA6EDF50090B1200D9
:105BAE00AF90D680D20E0501C66F5D0EC76F6AEC40
:105BBE002EF09F801200010136B5E8EF2DF0EBEFCD
:105BCE002DF0010EECEF2DF0000E1200010136B992
:105BDE00F3EF2DF0F6EF2DF0010EF7EF2DF0000E96
:105BEE001200010136BBFEEF2DF001EF2EF0010E7B
:105BFE0002EF2EF0000E1200100E0101506F040E77
:105C0E00516F610E526F050E536F1200010E01019E
:105C1E00046F010E056F060E066F000E076F120061
:105C2E00610018F763F40501C751646E120061003C
:105C3E0018F76BF40501C7516C6E1200B19661EC4A
:105C4E002CF0E3EC2EF0120077EC2DF0000E050197
:105C5E00AD6F1200610004F463F40250646E120022
:105C6E00610004F46BF402506C6E1200C6C502F6AD
:105C7E00C7C503F61200C6C504F6C7C505F6120061
:105C8E00C6C500F6C7C501F61200C6C508F6C7C5DB
:105C9E0009F61200C6C50AF6C7C50BF61200C6C530
:105CAE0006F6C7C507F61200C6C58AF5C7C58BF539
:105CBE001200C6C58CF5C7C58DF51200C6C588F590
:105CCE00C7C589F51200C6C518F6C7C519F6120064
:105CDE00C6C586F5C7C587F5120001010239E8323F
:105CEE00070B1200C6C57AF5C7C57BF51200C6C5EF
:105CFE007CF5C7C57DF51200C6C578F5C7C579F523
:105D0E001200C6C57EF5C7C57FF51200C6C584F55F
:105D1E00C7C585F51200C6C582F5C7C583F5120045
:105D2E00C6C580F5C7C581F51200C6C50EF6C7C536
:105D3E000FF61200C6C510F6C7C511F61200C6C57D
:105D4E0012F6C7C513F61200C6C514F6C7C515F66A
:105D5E001200C6C50CF6C7C50DF61200C6C516F65E
:105D6E00C7C517F6120001010239E832070B1200FF
:105D7E00016E610004F4FBF31200B19EBDEC2CF039
:105D8E001200AF90E8EC2BF0120003011A9F1200E4
:105D9E00FBEC27F012000301F39112000301F39BB9
:105DAE00120053EC1BF01200D69A120069841200F6
:105DBE00698412000100120012001200120012007B
:105DCE001200120012001200120012001200120035
:045DDE00120012009D
:020000040020DA
:10000000FF0FFF0FFF0FFF0FFF0FFF0FFF0FFF0F80
:10001000FF0FFF0FFF0FFF0FFF0FFF0FFF0FFF0F70
:020000040030CA
:10000000FAEFF7DF9FFFFFFFFFFFFFFFFFFFFFFF9D
:10001000FFFFFFFFFFFFFFFFFFFFFFFFFFFFFFFFF0
:04002000FFFFFFFFE0
:00000001FF
