:020000040000FA
:040000000DEF00F010
:0400080092EF22F061
:06001800FF00B8EF24F028
:0D2600000000010203040506070850010058
:10260E000501C851800BD16FC851C825D36FC7AF14
:10261E0013EF13F015EF13F016EF13F0D381D35120
:10262E00D8B41CEF13F01EEF13F033EF13F0D329D1
:10263E00D8A424EF13F026EF13F02EEF13F0000EB4
:10264E00C56F000EC66F000EC76F000EC86FC78F26
:10265E00000EC86F3BEF13F0000EC56F000EC66F75
:10266E00000EC76F000EC86FCC51800BD26FD151C8
:10267E00D219D8B445EF13F047EF13F048EF13F02B
:10268E00D18DCC51CC25D26FCBAF50EF13F052EF92
:10269E0013F053EF13F0D281D251D8B459EF13F097
:1026AE005BEF13F070EF13F0D229D8A461EF13F0A3
:1026BE0063EF13F06BEF13F0000EC96F000ECA6FCD
:1026CE00000ECB6F000ECC6FCB8F000ECC6F78EF61
:1026DE0013F0000EC96F000ECA6F000ECB6F000E06
:1026EE00CC6FD351D25DD8B07FEF13F081EF13F0E2
:1026FE00A8EF13F0D1AD86EF13F088EF13F08AEF49
:10270E0013F0800ED11BD3C5D4F5D2C5D3F5D4C5E5
:10271E00D2F5C5C5D4F5C9C5C5F5D4C5C9F5C6C567
:10272E00D4F5CAC5C6F5D4C5CAF5C7C5D4F5CBC54B
:10273E00C7F5D4C5CBF5C8C5D4F5CCC5C8F5D4C539
:10274E00CCF5000ED46FD351D2C5CDF5CE6BCD5F87
:10275E00000ECE5BCEBFBDEF13F0CE5109E11A0EC7
:10276E00CD5DD8A0BDEF13F0BFEF13F0F6EF13F071
:10277E00C551C611C711C811D8A4C8EF13F0CBEFBD
:10278E0013F0010ECCEF13F0000ED46F000EC56FD8
:10279E00000EC66F000EC76F000EC86FD2C5D3F500
:1027AE00FFEF13F0D4A1DEEF13F0E0EF13F0E6EF3E
:1027BE0013F0D890D4310109D46FE8EF13F0D8900C
:1027CE00D433C5A1EDEF13F0EFEF13F0F0EF13F0EC
:1027DE00D48FC835C833C733C633C533D32BD25184
:1027EE00D35DD8A0FDEF13F0FFEF13F0D9EF13F088
:1027FE00D1BD04EF14F006EF14F046EF14F0D351F0
:10280E00D8A40CEF14F00EEF14F018EF14F0000E25
:10281E00C56F000EC66F000EC76F000EC86F67EF54
:10282E0015F0C951C527CA51C623CB51C723CC5168
:10283E00C823C8A125EF14F027EF14F0D3EF14F03E
:10284E00D4A12CEF14F02EEF14F034EF14F0D89036
:10285E00D4310109D46F36EF14F0D890D433C5A11A
:10286E003BEF14F03DEF14F03EEF14F0D48FC8356B
:10287E00C833C733C633C533D32BD3EF14F0C95186
:10288E00C55DCA51C659CB51C759C851800ACD6FC3
:10289E00CC51800ACD59D8B057EF14F059EF14F03F
:1028AE0084EF14F0C551C95DCD6FC651CA59CE6FB4
:1028BE00C751CB59CF6FC851CC59D06FFF0ECD2514
:1028CE00C56FFF0ECE21C66FFF0ECF21C76FFF0E55
:1028DE00D021C86F800ED11BD46DD451D8A47AEFFD
:1028EE0014F07CEF14F08CEF14F0010EC527000EDF
:1028FE00C623C723C8238CEF14F0C951C55FCA5134
:10290E00C65BCB51C75BCC51C85BC551C611C71155
:10291E00C811D8A495EF14F097EF14F0CCEF14F083
:10292E00D451D8A49DEF14F09FEF14F0CCEF14F017
:10293E00000EC56F000EC66F000EC76F000EC86F7B
:10294E0067EF15F0D890C537C637C737C837D4AF3D
:10295E00B3EF14F0B5EF14F0B6EF14F0C581D4A1B7
:10296E00BBEF14F0BDEF14F0C1EF14F0D880D437E4
:10297E00C3EF14F0D890D437D351D8B4C9EF14F0B4
:10298E00CBEF14F0CCEF14F0D307C7AFD1EF14F0A8
:10299E00D3EF14F0A9EF14F0000ED26FD4AFDAEF2C
:1029AE0014F0DCEF14F0F4EF14F0D4C5CDF57F0E77
:1029BE00CD17D8B4E5EF14F0E7EF14F0EBEF14F009
:1029CE00010ED26FF4EF14F0C5A1F0EF14F0F2EF98
:1029DE0014F0F4EF14F0E7EF14F0D251D8B4FAEF8C
:1029EE0014F0FCEF14F027EF15F0010EC527000EC2
:1029FE00C623C723C823C8A107EF15F009EF15F0AA
:102A0E0027EF15F0C5C5CDF5C6C5CEF5C7C5CFF5B3
:102A1E00C8C5D0F5D035D033CF33CE33CD33CDC5B9
:102A2E00C5F5CEC5C6F5CFC5C7F5D0C5C8F5D329F2
:102A3E00D8B424EF15F026EF15F027EF15F0D32BB1
:102A4E00D329D8B42DEF15F02FEF15F037EF15F081
:102A5E00D351D8A435EF15F037EF15F049EF15F037
:102A6E00000EC56F000EC66F000EC76F000EC86F4A
:102A7E00D351D8A445EF15F047EF15F049EF15F0F7
:102A8E00000ED16FD3A14EEF15F050EF15F053EFAE
:102A9E0015F0C78F54EF15F0C79FD890D331C86F7C
:102AAE00D1AF5CEF15F05EEF15F05FEF15F0C88F4C
:102ABE00C5C5C5F5C6C5C6F5C7C5C7F5C8C5C8F5EC
:102ACE0012002B50800B346E2B502B24366E2AAEF8
:102ADE0073EF15F075EF15F076EF15F03680365072
:102AEE00D8B47CEF15F07EEF15F093EF15F0362885
:102AFE00D8A484EF15F086EF15F08EEF15F0000ECA
:102B0E00286E000E296E000E2A6E000E2B6E2A8E77
:102B1E00000E2B6E9BEF15F0000E286E000E296E28
:102B2E00000E2A6E000E2B6E2F50800B356E345019
:102B3E003518D8B4A5EF15F0A7EF15F0A8EF15F0DE
:102B4E00348C2F502F24356E2EAEB0EF15F0B2EF21
:102B5E0015F0B3EF15F035803550D8B4B9EF15F048
:102B6E00BBEF15F0D0EF15F03528D8A4C1EF15F056
:102B7E00C3EF15F0CBEF15F0000E2C6E000E2D6E80
:102B8E00000E2E6E000E2F6E2E8E000E2F6ED8EFB4
:102B9E0015F0000E2C6E000E2D6E000E2E6E000E19
:102BAE002F6E3650355CD8B0DFEF15F0E1EF15F033
:102BBE0008EF16F034ACE6EF15F0E8EF15F0EAEF9B
:102BCE0015F0800E341A36C537F535C536F537C5CE
:102BDE0035F528C537F52CC528F537C52CF529C58B
:102BEE0037F52DC529F537C52DF52AC537F52EC56F
:102BFE002AF537C52EF52BC537F52FC52BF537C55D
:102C0E002FF5000E376E365035C530F5316A305E11
:102C1E00000E315A31BE1DEF16F0315009E11A0E79
:102C2E00305CD8A01DEF16F01FEF16F056EF16F021
:102C3E00285029102A102B10D8A428EF16F02BEFAD
:102C4E0016F0010E2CEF16F0000E376E000E286EE9
:102C5E00000E296E000E2A6E000E2B6E35C536F54F
:102C6E005FEF16F037A03EEF16F040EF16F046EF8E
:102C7E0016F0D89037300109376E48EF16F0D8901D
:102C8E00373228A04DEF16F04FEF16F050EF16F03A
:102C9E00378E2B342B322A3229322832362A3550AF
:102CAE00365CD8A05DEF16F05FEF16F039EF16F038
:102CBE0034BC64EF16F066EF16F0A6EF16F0365041
:102CCE00D8A46CEF16F06EEF16F078EF16F0000E3B
:102CDE00286E000E296E000E2A6E000E2B6EC7EFA8
:102CEE0017F02C5028262D5029222E502A222F50F4
:102CFE002B222BA085EF16F087EF16F033EF17F08F
:102D0E0037A08CEF16F08EEF16F094EF16F0D890E9
:102D1E0037300109376E96EF16F0D890373228A06B
:102D2E009BEF16F09DEF16F09EEF16F0378E2B34BC
:102D3E002B322A3229322832362A33EF17F02C5012
:102D4E00285C2D5029582E502A582B50800A306E50
:102D5E002F50800A3058D8B0B7EF16F0B9EF16F0F2
:102D6E00E4EF16F028502C5C306E29502D58316E41
:102D7E002A502E58326E2B502F58336EFF0E3024A1
:102D8E00286EFF0E3120296EFF0E32202A6EFF0EA6
:102D9E0033202B6E800E341A376C3750D8A4DAEFEE
:102DAE0016F0DCEF16F0ECEF16F0010E2826000EF2
:102DBE0029222A222B22ECEF16F02C50285E2D50C1
:102DCE00295A2E502A5A2F502B5A285029102A1081
:102DDE002B10D8A4F5EF16F0F7EF16F02CEF17F036
:102DEE003750D8A4FDEF16F0FFEF16F02CEF17F0CA
:102DFE00000E286E000E296E000E2A6E000E2B6E2F
:102E0E00C7EF17F0D890283629362A362B3637AE2C
:102E1E0013EF17F015EF17F016EF17F0288037A005
:102E2E001BEF17F01DEF17F021EF17F0D880373694
:102E3E0023EF17F0D89037363650D8B429EF17F065
:102E4E002BEF17F02CEF17F036062AAE31EF17F0F6
:102E5E0033EF17F009EF17F0000E356E37AE3AEF7D
:102E6E0017F03CEF17F054EF17F037C530F57F0E23
:102E7E003016D8B445EF17F047EF17F04BEF17F0B9
:102E8E00010E356E54EF17F028A050EF17F052EFE9
:102E9E0017F054EF17F047EF17F03550D8B45AEF3C
:102EAE0017F05CEF17F087EF17F0010E2826000ED3
:102EBE0029222A222B222BA067EF17F069EF17F099
:102ECE0087EF17F028C530F529C531F52AC532F53B
:102EDE002BC533F53334333232323132303230C5E2
:102EEE0028F531C529F532C52AF533C52BF5362817
:102EFE00D8B484EF17F086EF17F087EF17F0362A65
:102F0E003628D8B48DEF17F08FEF17F097EF17F034
:102F1E003650D8A495EF17F097EF17F0A9EF17F0EA
:102F2E00000E286E000E296E000E2A6E000E2B6EFD
:102F3E003650D8A4A5EF17F0A7EF17F0A9EF17F0AA
:102F4E00000E346E36A0AEEF17F0B0EF17F0B3EF01
:102F5E0017F02A8EB4EF17F02A9ED89036302B6ECB
:102F6E0034AEBCEF17F0BEEF17F0BFEF17F02B8E9D
:102F7E0028C528F529C529F52AC52AF52BC52BF50F
:102F8E0012001250800B1B6E12501224216E11AEC5
:102F9E00D3EF17F0D5EF17F0D6EF17F021802150B1
:102FAE00D8B4DCEF17F0DEEF17F0F1EF17F02128B1
:102FBE00D8A4E4EF17F0E6EF17F0EEEF17F0000EDF
:102FCE000F6E000E106E000E116E000E126E118E30
:102FDE00F9EF17F0000E0F6E000E106E000E116E50
:102FEE00000E126E1650800B1B1A16501624206EF1
:102FFE0015AE04EF18F006EF18F007EF18F020806A
:10300E002050D8B40DEF18F00FEF18F022EF18F093
:10301E002028D8A415EF18F017EF18F01FEF18F0AE
:10302E00000E136E000E146E000E156E000E166E50
:10303E00158E2AEF18F0000E136E000E146E000E91
:10304E00156E000E166E2050D8B430EF18F032EF19
:10305E0018F03AEF18F02150D8A438EF18F03AEFE4
:10306E0018F044EF18F0000E0F6E000E106E000EEA
:10307E00116E000E126EEEEF19F015500F02610078
:10308E00CCF326F56100D0F327F526501C6E1D6A91
:10309E001E6A1F6A2750226E236A246A256A1450FC
:1030AE0010026100CCF326F56100D0F327F526500F
:1030BE001C26000E1D221E221F2227502226000E25
:1030CE00232224222522135011026100CCF326F56F
:1030DE006100D0F327F526501C26000E1D221E225D
:1030EE001F2227502226000E2322242225221EC50F
:1030FE001FF51DC51EF51CC51DF51C6A13501002CB
:10310E006100CCF326F56100D0F327F526501C267E
:10311E0027501D22000E1E22000E1F2214500F02D9
:10312E006100CCF326F56100D0F327F526501C265E
:10313E0027501D22000E1E22000E1F221EC51FF537
:10314E001DC51EF51CC51DF51C6A13500F0261002E
:10315E00CCF326F56100D0F327F526501C26275018
:10316E001D22000E1E22000E1F221550100261009D
:10317E00CCF326F56100D0F327F5265022262750F2
:10318E002322000E2422000E25221450110261006B
:10319E00CCF326F56100D0F327F5265022262750D2
:1031AE002322000E2422000E25221550110261004A
:1031BE00CCF326F56100D0F327F52650176E275075
:1031CE00186E196A1A6A19C51AF518C519F517C5B0
:1031DE0018F5176A17502226185023221950242248
:1031EE001A5025221CC517F51DC518F51EC519F553
:1031FE001FC51AF5190E09EF19F0D8901A321932A7
:10320E0018321732E82E04EF19F0175022261850F4
:10321E002322195024221A5025221EC51FF51DC522
:10322E001EF51CC51DF51C6A205021C517F5186A20
:10323E001726000E1822820E1724266EFF0E182057
:10324E00276E3FEF19F0D8902236233624362536D6
:10325E001FAE34EF19F036EF19F037EF19F0228068
:10326E00D8901C361D361E361F362606D8A02706C9
:10327E0024AE44EF19F046EF19F02AEF19F0000EC4
:10328E00206E1FAE4DEF19F04FEF19F073EF19F0DE
:10329E00FF0E1C14176EFF0E1D14186EFF0E1E145B
:1032AE00196E7F0E1F141A6E1750181019101A105F
:1032BE00D8B464EF19F066EF19F06AEF19F0010E49
:1032CE00206E73EF19F022A06FEF19F071EF19F065
:1032DE0073EF19F066EF19F02050D8B479EF19F0AA
:1032EE007BEF19F09FEF19F0010E2226000E23221C
:1032FE002422252225A086EF19F088EF19F09FEFE2
:10330E0019F022C517F523C518F524C519F525C5DD
:10331E001AF51A341A3219321832173217C522F525
:10332E0018C523F519C524F51AC525F5264A272AE9
:10333E0027BEAAEF19F0275008E12628D8A0AAEF39
:10334E0019F0ACEF19F0B6EF19F0000E226E000E68
:10335E00236E800E246E7F0E256EE4EF19F027BECD
:10336E00C3EF19F0275006E12604D8B0C1EF19F0CB
:10337E00C3EF19F0CFEF19F0000E226E000E236E80
:10338E00000E246E000E256E000E1B6EE4EF19F07B
:10339E0026C521F5FF0E2216FF0E23167F0E2416CC
:1033AE00000E251621A0DEEF19F0E0EF19F0E1EF87
:1033BE0019F0248ED8902130256E1B50251222C56F
:1033CE000FF523C510F524C511F525C512F512000C
:1033DE001250800B1F6E12501224266E11AEFAEF91
:1033EE0019F0FCEF19F0FDEF19F026802650D8B435
:1033FE0003EF1AF005EF1AF01AEF1AF02628D8A4E8
:10340E000BEF1AF00DEF1AF015EF1AF0000E0F6E0B
:10341E00000E106E000E116E000E126E118E000E4A
:10342E00126E22EF1AF0000E0F6E000E106E000ECE
:10343E00116E000E126E1650800B1F1A16501624A7
:10344E00276E15AE2DEF1AF02FEF1AF030EF1AF09F
:10345E0027802750D8B436EF1AF038EF1AF04DEF18
:10346E001AF02728D8A43EEF1AF040EF1AF048EFD2
:10347E001AF0000E136E000E146E000E156E000E76
:10348E00166E158E000E166E55EF1AF0000E136E98
:10349E00000E146E000E156E000E166E13501410E4
:1034AE0015101610D8A45EEF1AF060EF1AF078EF30
:1034BE001AF0000E0F6E000E106E000E116E000E42
:1034CE00126E800E11127F0E12121F5012120FC5A5
:1034DE000FF510C510F511C511F512C512F5BBEF9C
:1034EE001BF02650D8A47EEF1AF080EF1AF08AEF68
:1034FE001AF0000E0F6E000E106E000E116E000E02
:10350E00126EBBEF1BF0275026C517F5186A175E13
:10351E00000E185A7F0E1724206E000E1820216EF2
:10352E000FC51BF510C51CF511C51DF512C51EF5F1
:10353E00000E0F6E000E106E000E116E000E126E4B
:10354E00000E226E000E236E000E246E000E256EEF
:10355E00000E276EEBEF1AF02750D8B4B9EF1AF021
:10356E00BBEF1AF0D2EF1AF0D8901B361C361D3670
:10357E001E36D8900F3610361136123625AECAEFDB
:10358E001AF0CCEF1AF0CDEF1AF00F80D890223649
:10359E0023362436253613501B5C14501C581550F8
:1035AE001D5816501E58D8A0DFEF1AF0E1EF1AF092
:1035BE00EAEF1AF0258C13501B5E14501C5A15504E
:1035CE001D5A16501E5A272A190E2764F1EF1AF0AB
:1035DE00F3EF1AF0B3EF1AF01B501C101D101E1053
:1035EE00D8B4FCEF1AF0FEEF1AF016EF1BF02280A3
:1035FE0016EF1BF0D8900F3610361136123625AE58
:10360E000BEF1BF00DEF1BF00EEF1BF00F80D890A1
:10361E0022362336243625362006D8A0210611AEB2
:10362E001BEF1BF01DEF1BF001EF1BF0000E276EC2
:10363E0025AE24EF1BF026EF1BF04AEF1BF0FF0E1A
:10364E002214176EFF0E2314186EFF0E2414196E1B
:10365E007F0E25141A6E1750181019101A10D8B4A0
:10366E003BEF1BF03DEF1BF041EF1BF0010E276E01
:10367E004AEF1BF00FA046EF1BF048EF1BF04AEF8E
:10368E001BF03DEF1BF02750D8B450EF1BF052EF5C
:10369E001BF076EF1BF0010E0F26000E10221122EA
:1036AE00122212A05DEF1BF05FEF1BF076EF1BF006
:1036BE000FC517F510C518F511C519F512C51AF570
:1036CE001A341A3219321832173217C50FF518C5B7
:1036DE0010F519C511F51AC512F5204A212A21BE79
:1036EE0081EF1BF0215008E12028D8A081EF1BF0BC
:1036FE0083EF1BF08EEF1BF0000E216E2068000E84
:10370E000F6E000E106E000E116E000E126E21BEA8
:10371E009BEF1BF0215006E12004D8B099EF1BF06F
:10372E009BEF1BF0A9EF1BF0000E216E000E206E1A
:10373E00000E0F6E000E106E000E116E000E126E49
:10374E00000E1F6E20C526F526A0B0EF1BF0B2EFBF
:10375E001BF0B5EF1BF0118EB6EF1BF0119ED8903B
:10376E002630126E6CEF1AF01200040E0301F96F80
:10377E00000EFA6F000ED86F000EFB6F000ED96FA1
:10378E00000EDA6F000EDB6F000EDC6F000EDF6FC7
:10379E00000EE06F000EE36F000EE46F000EE56F9B
:1037AE00000EE66F000EE76F000EEA6F000EEB6F75
:1037BE00000EEC6F000EEE6F000EEF6F000EF06F4E
:1037CE00000EF16F000EF26F000EF36F000EF46F2D
:1037DE00100EF56F000EF66F000EF76F120EF86FEB
:1037EE00000EFC6F010EFB6F000ED96F000EDA6F2C
:1037FE00000EDB6F000EDC6F000EDF6F000EE06F51
:10380E00000EE36F000EE46F000EE56F000EE66F24
:10381E00000EE76F000EEA6F000EEB6F010EEC6FFD
:10382E00000EEE6F000EEF6F000EF06F000EF16FD8
:10383E00000EF26F000EF36F000EF46F100EF56FA8
:10384E00000EF66F000EF76F000EF86F000EFD6F94
:10385E00020EFB6F000ED96F000EDA6F000EDB6FDB
:10386E00000EDC6F000EDF6F000EE06F000EE36FD8
:10387E00000EE46F000EE56F000EE66F000EE76FB0
:10388E00000EEA6F000EEB6F160EEC6F000EEE6F71
:10389E00000EEF6F000EF06F000EF16F000EF26F64
:1038AE00000EF36F000EF46F100EF56F000EF66F34
:1038BE00000EF76F000EF86F000EFE6F030EFB6F1B
:1038CE00000ED96F000EDA6F000EDB6F000EDC6F8C
:1038DE00000EDF6F000EE06F000EE36F000EE46F60
:1038EE00000EE56F000EE66F000EE76F000EEA6F3A
:1038FE00000EEB6F170EEC6F000EEE6F000EEF6FFB
:10390E00000EF06F000EF16F000EF26F000EF36FEF
:10391E00000EF46F100EF56F000EF66F000EF76FBF
:10392E00000EF86F000EFF6FAF94AF96B090B0928E
:10393E00B094B096000E0501A96F000EAA6F6EEC42
:10394E0027F0000E0501A96F000EAA6F64EC27F098
:10395E00000E0501A96F000EAA6F5FEC27F0000E96
:10396E000501A96F000EAA6F5AEC27F0000E050193
:10397E00A96F000EAA6F55EC27F0000E0501A96F76
:10398E00000EAA6F69EC27F0840E0301F36F12008C
:10399E00446E10EF1DF080EC27F0000E73EC27F054
:1039AE00000E95EC25F001C547F502C548F5010E50
:1039BE00496E3DEF1DF080EC27F0010E73EC27F001
:1039CE00010E95EC25F001C547F502C548F5DEEF71
:1039DE001CF080EC27F0020E73EC27F0170E95EC1E
:1039EE0025F001C547F502C548F5DEEF1CF080EC69
:1039FE0027F0020E73EC27F0160E95EC25F001C59C
:103A0E0047F502C548F5DEEF1CF0020E496E3DEF9C
:103A1E001DF04450426E436A4350000AD8B41AEF68
:103A2E001DF00CEF1DF04250000AD8B4D2EF1CF07E
:103A3E00010AD8B4E2EF1CF0030AD8B4F0EF1CF080
:103A4E00010AD8B4FEEF1CF0070AD8B40CEF1DF033
:103A5E00010AD8B40CEF1DF0030AD8B40CEF1DF018
:103A6E00010AD8B40CEF1DF00CEF1DF04904D8A4D8
:103A7E0043EF1DF045EF1DF0C6EF1DF0485007E176
:103A8E00070E475CD8B04EEF1DF050EF1DF056EF0D
:103A9E001DF0000E466E000E456E91EF1DF06F0E7E
:103AAE002C6E810E2D6EA80E2E6EC00E2F6EB30EC6
:103ABE00136E7B0E146E920E156E3F0E166E47C56C
:103ACE0001F548C502F5036A046A000EA3EC1EF068
:103ADE0001C50FF502C510F503C511F504C512F5A4
:103AEE00C8EC17F00FC528F510C529F511C52AF534
:103AFE0012C52BF568EC15F028C538F529C539F532
:103B0E002AC53AF52BC53BF533EC21F038C545F502
:103B1E0039C546F5890E455C130E4658D8A09AEF66
:103B2E001DF09CEF1DF09EEF1DF0C6EF1DF02F0E49
:103B3E00136EDD0E146E9C0E156E410E166E45C57F
:103B4E0001F546C502F5036A046A000EA3EC1EF0E9
:103B5E0001C50FF502C510F503C511F504C512F523
:103B6E00EFEC19F00FC538F510C539F511C53AF55A
:103B7E0012C53BF533EC21F03850C6EF1DF01200A4
:103B8E000501BF6F0501BF51D8B4D0EF1DF0D2EFC4
:103B9E001DF0F4EF1DF0BABFD9EF1DF0D7EF1DF0F9
:103BAE00F4EF1DF0B7C5BBF5B8C5BCF5B9C5BDF58D
:103BBE00BAC5BEF5BB1FBC1FBD1FBE1FBB2B000E63
:103BCE00BC23BD23BE23BBC5C1F5BCC5C2F5BDC557
:103BDE00C3F5BEC5C4F5FCEF1DF0B7C5C1F5B8C53C
:103BEE00C2F5B9C5C3F5BAC5C4F5B751B811B91107
:103BFE00BA11D8A405EF1EF007EF1EF011EF1EF05C
:103C0E00000EB76F000EB86F000EB96F000EBA6FD0
:103C1E00A2EF1EF0960EC06F1BEF1EF0C02BD890B9
:103C2E00C433C333C233C133000EC115BB6F000E94
:103C3E00C215BC6F000EC315BD6FFE0EC415BE6F50
:103C4E00BB51BC11BD11BE11D8A430EF1EF032EF26
:103C5E001EF015EF1EF040EF1EF0C02B010EC12717
:103C6E00000EC223C323C423D890C433C333C2333C
:103C7E00C133000EC115BB6F000EC215BC6F000E16
:103C8E00C315BD6FFF0EC415BE6FBB51BC11BD1168
:103C9E00BE11D8A455EF1EF057EF1EF034EF1EF0F4
:103CAE005FEF1EF0C007D890C137C237C337C43795
:103CBE00C3BF64EF1EF066EF1EF06EEF1EF0020E35
:103CCE00C0616CEF1EF06EEF1EF059EF1EF0C0B12A
:103CDE0073EF1EF075EF1EF076EF1EF0C39FD890B7
:103CEE00C033C0C5BBF5BC6BBD6BBE6BBBC5BEF5F3
:103CFE00BD6BBC6BBB6BBB51C113BC51C213BD5171
:103D0E00C313BE51C413BF51D8B490EF1EF092EF3F
:103D1E001EF09AEF1EF0BABF99EF1EF097EF1EF04D
:103D2E009AEF1EF0C48FC1C5B7F5C2C5B8F5C3C5AD
:103D3E00B9F5C4C5BAF51200096E0950D8B4AAEF88
:103D4E001EF0ACEF1EF0CEEF1EF004BEB3EF1EF071
:103D5E00B1EF1EF0CEEF1EF001C505F502C506F55A
:103D6E0003C507F504C508F5051E061E071E081E29
:103D7E00052A000E06220722082205C50BF506C5E8
:103D8E000CF507C50DF508C50EF5D6EF1EF001C5ED
:103D9E000BF502C50CF503C50DF504C50EF5015066
:103DAE00021003100410D8A4DFEF1EF0E1EF1EF096
:103DBE00EBEF1EF0000E016E000E026E000E036E93
:103DCE00000E046E7CEF1FF0960E0A6EF5EF1EF0DD
:103DDE000A2AD8900E320D320C320B32000E0B1412
:103DEE00056E000E0C14066E000E0D14076EFE0E00
:103DFE000E14086E0550061007100810D8A40AEF0E
:103E0E001FF00CEF1FF0EFEF1EF01AEF1FF00A2A53
:103E1E00010E0B26000E0C220D220E22D8900E3211
:103E2E000D320C320B32000E0B14056E000E0C14FC
:103E3E00066E000E0D14076EFF0E0E14086E055062
:103E4E00061007100810D8A42FEF1FF031EF1FF047
:103E5E000EEF1FF039EF1FF00A06D8900B360C3616
:103E6E000D360E360DBE3EEF1FF040EF1FF048EF41
:103E7E001FF0020E0A6046EF1FF048EF1FF033EFFF
:103E8E001FF00AB04DEF1FF04FEF1FF050EF1FF075
:103E9E000D9ED8900A320AC505F5066A076A086AA9
:103EAE0005C508F5076A066A056A05500B12065025
:103EBE000C1207500D1208500E120950D8B46AEFAA
:103ECE001FF06CEF1FF074EF1FF004BE73EF1FF0C6
:103EDE0071EF1FF074EF1FF00E8E0BC501F50CC5C0
:103EEE0002F50DC503F50EC504F5120001011DAF57
:103EFE0083EF1FF085EF1FF094EF1FF002D892EFC3
:103F0E001FF00500FA6E05018851FD6E8951FE6E97
:103F1E00FF6AFA50120001011D9F1DAD99EF1FF0AF
:103F2E009BEF1FF0AAEF1FF002D8A8EF1FF00500BD
:103F3E00FA6E05018651FD6E8751FE6EFF6AFA50CC
:103F4E00120001011D9D1DABAFEF1FF0B1EF1FF071
:103F5E00C0EF1FF002D8BEEF1FF00500FA6E05018C
:103F6E008451FD6E8551FE6EFF6AFA5012000101FA
:103F7E001D9B1CA7C5EF1FF0C7EF1FF0D6EF1FF05C
:103F8E0002D8D4EF1FF00500FA6E05018251FD6EC6
:103F9E008351FE6EFF6AFA50120001011C971DA993
:103FAE00DBEF1FF0DDEF1FF0ECEF1FF002D8EAEFB2
:103FBE001FF00500FA6E05018051FD6E8151FE6EF7
:103FCE00FF6AFA50120001011D991DA5F1EF1FF0B5
:103FDE00F3EF1FF009EF20F002D800EF20F00500FC
:103FEE00FA6E05017E51FD6E7F51FE6EFF6AFA502C
:103FFE001200010154A906EF20F008EF20F009EF9E
:10400E0020F054991DA70EEF20F010EF20F026EFB0
:10401E0020F002D81DEF20F00500FA6E05017C514C
:10402E00FD6E7D51FE6EFF6AFA501200010160A70F
:10403E0023EF20F025EF20F026EF20F06097AE9CC6
:10404E001200000E0501B26FB0BF32EF20F030EF5C
:10405E0020F03CEF20F0B01FAF1FAE1FAD6D000E75
:10406E00AE23AF23B023010EB26FACBF43EF20F0EF
:10407E0041EF20F04DEF20F0AC1FAB1FAA1FA96D32
:10408E00000EAA23AB23AC23010EB21B000EB36F9E
:10409E00000EB46F000EB56F000EB66FAD51AE11BF
:1040AE00AF11B011D8B45EEF20F060EF20F096EFB4
:1040BE0020F0010EB16F6AEF20F0D890AD37AE3719
:1040CE00AF37B037B12BB0AF6FEF20F071EF20F0FC
:1040DE0064EF20F0D890B337B437B537B637AD515B
:1040EE00A95DAE51AA59AF51AB59B051AC59D8A038
:1040FE0083EF20F085EF20F08EEF20F0AD51A95F19
:10410E00AE51AA5BAF51AB5BB051AC5BB381D890F3
:10411E00B033AF33AE33AD33B12F71EF20F0B251B8
:10412E00D8B49CEF20F09EEF20F0A6EF20F0B61F43
:10413E00B51FB41FB36D000EB423B523B623B3C59C
:10414E00A9F5B4C5AAF5B5C5ABF5B6C5ACF5120063
:10415E000501D735D835DE6FDE51D8A4B9EF20F082
:10416E00BBEF20F0C5EF20F0000ED56F000ED66F1E
:10417E00000ED76F000ED86F32EF21F0D5C5D9F5EE
:10418E00D6C5DAF5D7C5DBF5D8C5DCF5200ED5EFEB
:10419E0020F0D890DC33DB33DA33D933E82ED0EF8E
:1041AE0020F0D951DD6FD78FFF0ED517FF0ED61722
:1041BE00FF0ED717000ED817960EDE5FDEBFECEFA0
:1041CE0020F0EAEF20F002EF21F0DE51800A970F87
:1041DE00D8B0F4EF20F0F6EF20F0F8EF20F0BBEFC0
:1041EE0020F0D890D833D733D633D533DE3FF8EF1F
:1041FE0020F01AEF21F01F0EDE6508EF21F00AEF16
:10420E0021F012EF21F0BBEF20F0D890D537D63742
:10421E00D737D837DE07DE51D8A418EF21F01AEFC2
:10422E0021F00CEF21F0DD51D8B420EF21F022EF78
:10423E0021F02AEF21F0D81FD71FD61FD56D000E03
:10424E00D623D723D823D5C5D5F5D6C5D6F5D7C50C
:10425E00D7F5D8C5D8F512003A343B34416E4150EB
:10426E00D8A43CEF21F03EEF21F048EF21F0000EF4
:10427E00386E000E396E000E3A6E000E3B6EB5EFC4
:10428E0021F038C53CF539C53DF53AC53EF53BC57F
:10429E003FF5200E58EF21F0D8903F323E323D329E
:1042AE003C32E82E53EF21F03C50406E3A8EFF0E1A
:1042BE003816FF0E3916FF0E3A16000E3B16960EE6
:1042CE00415E41BE6FEF21F06DEF21F085EF21F0E1
:1042DE004150800A970FD8B077EF21F079EF21F097
:1042EE007BEF21F03EEF21F0D8903B323A3239325B
:1042FE003832413E7BEF21F09DEF21F01F0E4164DD
:10430E008BEF21F08DEF21F095EF21F03EEF21F0B4
:10431E00D890383639363A363B3641064150D8A415
:10432E009BEF21F09DEF21F08FEF21F04050D8B49C
:10433E00A3EF21F0A5EF21F0ADEF21F03B1E3A1EC9
:10434E00391E386C000E39223A223B2238C538F518
:10435E0039C539F53AC53AF53BC53BF512006A0E3B
:10436E000501C96F4D0ECA6F930ECB6FBF0ECC6F8A
:10437E00E1C5ADF5E2C5AEF5AF6BB06B490EA96FF9
:10438E00990EAA6F000EAB6F000EAC6F28EC20F0EA
:10439E00A9C5B7F5AAC5B8F5ABC5B9F5ACC5BAF59B
:1043AE00010EC7EC1DF0B7C5C5F5B8C5C6F5B9C544
:1043BE00C7F5BAC5C8F507EC13F0C5C5D5F5C6C522
:1043CE00D6F5C7C5D7F5C8C5D8F5AFEC20F0D5C51D
:1043DE00E5F5D6C5E6F5DFC5E3F5E0C5E4F505017F
:1043EE00D890E337E437D890E337E437E3C5B0F538
:1043FE00E4C5B1F5E1C5ABF5E2C5ACF5000EAA6FAB
:10440E00640EA96F76EC23F0A9C5B2F5AAC5B3F573
:10441E0050EC26F0B0C5E7F5B1C5E8F5E7C5A9F54E
:10442E00E8C5AAF5E0EC26F0E5C5A9F5E6C5AAF5BE
:10443E00D9EC26F085EC27F012006A0E0501C96F43
:10444E004D0ECA6F930ECB6FBF0ECC6FE1C5ADF59F
:10445E00E2C5AEF5AF6BB06B490EA96F990EAA6FA0
:10446E00000EAB6F000EAC6F28EC20F0A9C5B7F5AF
:10447E00AAC5B8F5ABC5B9F5ACC5BAF5010EC7EC12
:10448E001DF0B7C5C5F5B8C5C6F5B9C5C7F5BAC5EA
:10449E00C8F507EC13F0C5C5D5F5C6C5D6F5C7C525
:1044AE00D7F5C8C5D8F5AFEC20F0D5C5E5F5D6C51E
:1044BE00E6F5DFC5E3F5E0C5E4F50501D890E33791
:1044CE00E437D890E337E437E3C5B0F5E4C5B1F58A
:1044DE00E1C5ABF5E2C5ACF5000EAA6F640EA96F8F
:1044EE0076EC23F0A9C5B2F5AAC5B3F550EC26F0CB
:1044FE00B0C5E7F5B1C5E8F5E7C5A9F5E8C5AAF574
:10450E00EEEC26F0E5C5A9F5E6C5AAF5E7EC26F032
:10451E008BEC27F01200A1AE97EF22F099EF22F06C
:10452E00A4EF22F0B1AE9EEF22F0A0EF22F0A4EFA6
:10453E0022F078EC27F0ECEF22F09FA0A9EF22F00A
:10454E00ABEF22F0B6EF22F0AFA0B0EF22F0B2EF59
:10455E0022F0B6EF22F07CEC27F0ECEF22F09EACCE
:10456E00BBEF22F0BDEF22F0C8EF22F0AEACC2EFEF
:10457E0022F0C4EF22F0C8EF22F07DEC1FF0ECEF3A
:10458E0022F0A1A6CDEF22F0CFEF22F0DAEF22F04B
:10459E00B1A6D4EF22F0D6EF22F0DAEF22F0DDEC66
:1045AE0025F0ECEF22F0A1A8DFEF22F0E1EF22F0F0
:1045BE00ECEF22F0B1A8E6EF22F0E8EF22F0ECEFFC
:1045CE0022F0CFEC26F0ECEF22F011000501AB6FDC
:1045DE00000E0501AA6F2DEC27F00501A96F040E40
:1045EE00A919D8B4FDEF22F0FFEF22F010EF23F05F
:1045FE00AB05D8B405EF23F007EF23F010EF23F04F
:10460E00040EAB19D8A40EEF23F010EF23F035EF04
:10461E0023F0010103510501AB19F80BAB19010190
:10462E00036F27EF23F001011DA920EF23F022EFE6
:10463E0023F027EF23F0020E0501AA6F37EF23F0C8
:10464E000239E832070B0501AB19D8A431EF23F07C
:10465E0033EF23F01AEF23F037EF23F0010EAA6F9A
:10466E00AA5112002E0E0501A96F4F0EAA6F46EC2D
:10467E0027F0300E0501A96F4F0EAA6F4BEC27F0F5
:10468E00320E0501A96F4F0EAA6F50EC27F02C0EBB
:10469E000501A96F4F0EAA6F41EC27F0280E0501F8
:1046AE00A96F4F0EAA6F37EC27F0260E0501A96FE2
:1046BE004F0EAA6F32EC27F02A0E0501A96F4F0E8E
:1046CE00AA6F3CEC27F0AE9C000E01011C6F000E91
:1046DE001D6F080E1E6FFC0E1F6F9E8C1200000EBB
:1046EE000501AE6F000EAD6FAB51AC11D8B482EFB9
:1046FE0023F084EF23F0ACEF23F0010EAF6F8CEFBD
:10470E0023F0D890AB37AC37AF2BACAF91EF23F093
:10471E0093EF23F088EF23F0D890AD37AE37AB513F
:10472E00A95DAC51AA59D8A09FEF23F0A1EF23F0B9
:10473E00A6EF23F0AB51A95FAC51AA5BAD81D89027
:10474E00AC33AB33AF2F93EF23F0ADC5A9F5AEC5A8
:10475E00AAF51200000E6F6E020E706E000E716ED4
:10476E00500E726E0F0E736EFE0E746E000E756E20
:10477E00000E766E000E776E000E796E0D0E7A6E4E
:10478E00050E7B6EA80E7C6E070E7D6EB39CB39EDF
:10479E0076907692A39EA39C000E0501A96F000E43
:1047AE00AA6F0FEC27F0000E0501A96F000EAA6F7D
:1047BE000AEC27F0000E0501A96F000EAA6F14EC8B
:1047CE0027F0800E786E1200000E606E020E616E83
:1047DE00000E626E3D0E636E000E646EFE0E656E12
:1047EE00000E666E000E676E000E686E000E6A6E2C
:1047FE001F0E6B6E000E6C6E1F0E6D6E000E6E6ECB
:10480E00B29CB29E67906792A29EA29C000E05017A
:10481E00A96F000EAA6F1EEC27F0000E0501A96FFE
:10482E00000EAA6F19EC27F0000E0501A96F000EFD
:10483E00AA6F23EC27F0800E696E1200000EBE6E7A
:10484E00000EBF6E000EC06E080ECA6EEF0EC66E64
:10485E00C80EC76EDC0EC86EF30E0401106F770E15
:10486E00086FDF0E006F000E216F000E096F000E35
:10487E00016F000E116F000E026F000E0A6F000E18
:10488E00126F03690B69136904690C691469080EC8
:10489E00246F180E0201116F0F0E696F050E3E6F19
:1048AE001A0E126F0B0E3D6F460E0D6F12000501A4
:1048BE00EB6F75EF24F089EC27F08BEF24F087EC8B
:1048CE0027F0000E0501E06F320EDF6F000EE26F73
:1048DE00640EE16F24EC22F08BEF24F00501EB5116
:1048EE00E96FEA6BEA51000AD8B480EF24F08BEF3F
:1048FE0024F0E951000AD8B462EF24F0010AD8B4CA
:10490E0066EF24F08BEF24F012000101018F040EEC
:10491E00EDEC22F00009D8A497EF24F099EF24F0E3
:10492E00B7EF24F0000E01014C6F260E4D6F000EF6
:10493E004E6F000E4F6F600E006F970E016F100ED0
:10494E00026FC5EC26F0B1EC26F0BBEC26F08EEC37
:10495E0027F0C6EC25F039EC23F0060EEDEC22F034
:10496E0012001A0EF66E4F0EF76E000EF86E09005C
:10497E006100D4F3FEF509006100D4F3FFF501EEFA
:10498E0000F2100EEE6AE806FDE101EE60F1490E4E
:10499E00EE6AE806FDE101EE4AF1160EEE6AE80651
:1049AE00FDE10401080E5D6F000E5E6F000E5F6F7D
:1049BE000001E2EF24F04AEC25F0D68EC79ABF8AAA
:1049CE00F5EC26F09AEC26F00B0E0501AA6FB80E48
:1049DE00A96F30EC25F0C790C896BF80C086270E11
:1049EE000501AA6F100EA96F30EC25F0000E5EECDB
:1049FE0024F000F0030E0501AA6FE80EA96F30EC4B
:104A0E0025F000EF25F00DEF00F0000E03011F6FF3
:104A1E00000E206F010E216FCF0E1D6F2C0E1C6F1E
:104A2E00B1981C51600074FCABF50501AC6BABC5C5
:104A3E00ACF5AB6BAB11EC6FAC51ED6FA188200EEA
:104A4E00A96F4F0EAA6F00EC27F0110E03011E6F17
:104A5E0012003BEF25F0040E0501AB6F3D0EE82E64
:104A6E00FED7AB2FFCD700D00501A907D8A0AA0707
:104A7E00A92906E1AA29D8A447EF25F049EF25F088
:104A8E0032EF25F0120083EC27F07AEC26F0BCEC26
:104A9E001BF025EC24F08EEC26F0AEEC25F0A6EC07
:104AAE0026F00CEC25F066EC26F0B1EC23F08CEC45
:104ABE0024F0EBEC23F012007CEC25F00501FC5108
:104ACE00FD11D8B46DEF25F06FEF25F07BEF25F0DB
:104ADE0002D87BEF25F00500FA6EFC51FD6EFD51FC
:104AEE00FE6EFF6AFA5012001200000ECEBA010ED0
:104AFE004D6E4D04D8A486EF25F088EF25F094EF87
:104B0E0025F0000ECFEC1CF00501936F010ECFECDB
:104B1E001CF00501926F4EC594F51200056E6100F2
:104B2E0014F4ECF30301F38FF39DF381F3B1A2EFD1
:104B3E0025F0A4EF25F09DEF25F0EB51046E036AEE
:104B4E00EA510324016E000E0420026E1200010EC3
:104B5E000301266F000E256F000E276FC20E236F06
:104B6E00000E226FB196A1861E0E0501A96F4F0E83
:104B7E00AA6FFBEC26F0F00E0301246F1200000E5C
:104B8E000501A96FA951020DFF0EF324D96E050E72
:104B9E00F420DA6E000EDF6EA92BA951D8B4DAEF2D
:104BAE0025F0DCEF25F0C9EF25F01200B1960501D6
:104BBE007A4B7B2B7B5109E10A0E7A5DD8A0EAEF86
:104BCE0025F0ECEF25F0F3EF25F0F4EC25F0000ED8
:104BDE0005017B6F000E7A6F120006011251131140
:104BEE00D8B4FCEF25F0FEEF25F00AEF26F002D840
:104BFE000AEF26F00500FA6E1251FD6E1351FE6E8D
:104C0E00FF6AFA501200120003011EA511EF26F0E2
:104C1E0013EF26F01CEF26F01E9102501D6F61005F
:104C2E0004F41CF31E8121EF26F002501D6F61006B
:104C3E0004F41CF31200060114511511D8B42AEF16
:104C4E0026F02CEF26F038EF26F002D838EF26F0BB
:104C5E000500FA6E1451FD6E1551FE6EFF6AFA5084
:104C6E0012001200060110511111D8B441EF26F0B6
:104C7E0043EF26F04FEF26F002D84FEF26F0050057
:104C8E00FA6E1051FD6E1151FE6EFF6AFA5012004F
:104C9E0012000501B051B2036100CCF3B4F561000E
:104CAE00D0F3B5F5B051B303F350B527B151B203FC
:104CBE00F350B527B4C5B0F5B5C5B1F51200440E25
:104CCE0003011B6F9B0E196F000E186FB19EA18E04
:104CDE00220E0501A96F4F0EAA6F05EC27F0800E6C
:104CEE0003011A6F1200000E0001606F000E616F5B
:104CFE00000E626F000E636F000E646F000E656F24
:104D0E00000E666F000E676F000E686F1200700E59
:104D1E000001AD6F000EAF6F000EB36F020EB16FDC
:104D2E00000EB06F1200000E0501E06F000EDF6F77
:104D3E00000EE26F320EE16FB6EC21F01200AF9072
:104D4E00D680240E0501A96F4F0EAA6F28EC27F00E
:104D5E009F801200100E0101506F040E516F600EF5
:104D6E00526F050E536F1200080E01015C6F040E98
:104D7E005D6F600E5E6F050E5F6F1200010E01011A
:104D8E00046F010E056F060E066F000E076F120000
:104D9E00B198ECC501F5EDC502F50BEC26F022EC51
:104DAE0026F012006100A4F663F40501AA51646EA8
:104DBE0012006100A4F66BF40501AA516C6E12008C
:104DCE006100A4F672F40501AA51736E120061001F
:104DDE00A4F67AF40501AA517B6E1200BF84BF823D
:104DEE00010E5EEC24F01200A9C512F6AAC513F648
:104DFE001200A9C514F6AAC515F61200A9C510F61B
:104E0E00AAC511F61200A9C518F6AAC519F6120000
:104E1E00A9C5EEF5AAC5EFF51200A9C516F6AAC5E5
:104E2E0017F61200A9C58CF5AAC58DF51200A9C5F5
:104E3E008EF5AAC58FF51200A9C58AF5AAC58BF500
:104E4E001200A9C5FCF5AAC5FDF512000101023933
:104E5E00E832070B1200A9C57EF5AAC57FF5120030
:104E6E00A9C580F5AAC581F51200A9C57CF5AAC50C
:104E7E007DF51200A9C582F5AAC583F51200A9C554
:104E8E0088F5AAC589F51200A9C586F5AAC587F5C4
:104E9E001200A9C584F5AAC585F51200A9C5F2F5BB
:104EAE00AAC5F3F51200A9C5F4F5AAC5F5F51200C9
:104EBE00A9C5F6F5AAC5F7F51200A9C5F8F5AAC554
:104ECE00F9F51200A9C5F0F5AAC5F1F51200A9C5AC
:104EDE00FAF5AAC5FBF51200016E610004F4FBF3AE
:104EEE001200B19E39EC26F01200AF9063EC25F063
:104EFE0012000301F39B1200D69A1200698412006D
:104F0E00788E1200789E1200788412000100120032
:104F1E0012001200120012001200120012001200F3
:064F2E0012001200120047
:020000040020DA
:10000000FF0FFF0FFF0FFF0FFF0FFF0FFF0FFF0F80
:10001000FF0FFF0FFF0FFF0FFF0FFF0FFF0FFF0F70
:020000040030CA
:10000000FAEFF7DF9FFFFFFFFFFFFFFFFFFFFFFF9D
:10001000FFFFFFFFFFFFFFFFFFFFFFFFFFFFFFFFF0
:04002000FFFFFFFFE0
:00000001FF
