:020000040000FA
:040000000DEF00F010
:040008009DEF1FF059
:06001800FF0011EF26F0CD
:0D2600000000010203040506070850010058
:10260E002B50800B346E2B502B24366E2AAE12EFCD
:10261E0013F014EF13F015EF13F036803650D8B4D4
:10262E001BEF13F01DEF13F032EF13F03628D8A482
:10263E0023EF13F025EF13F02DEF13F0000E286E9D
:10264E00000E296E000E2A6E000E2B6E2A8E000EC4
:10265E002B6E3AEF13F0000E286E000E296E000E50
:10266E002A6E000E2B6E2F50800B356E345035189F
:10267E00D8B444EF13F046EF13F047EF13F0348C59
:10268E002F502F24356E2EAE4FEF13F051EF13F067
:10269E0052EF13F035803550D8B458EF13F05AEF8F
:1026AE0013F06FEF13F03528D8A460EF13F062EF3C
:1026BE0013F06AEF13F0000E2C6E000E2D6E000E4E
:1026CE002E6E000E2F6E2E8E000E2F6E77EF13F0E5
:1026DE00000E2C6E000E2D6E000E2E6E000E2F6E46
:1026EE003650355CD8B07EEF13F080EF13F0A7EFC5
:1026FE0013F034AC85EF13F087EF13F089EF13F07E
:10270E00800E341A36C537F535C536F537C535F56D
:10271E0028C537F52CC528F537C52CF529C537F54D
:10272E002DC529F537C52DF52AC537F52EC52AF540
:10273E0037C52EF52BC537F52FC52BF537C52FF51C
:10274E00000E376E365035C530F5316A305E000EEC
:10275E00315A31BEBCEF13F0315009E11A0E305C24
:10276E00D8A0BCEF13F0BEEF13F0F5EF13F0285026
:10277E0029102A102B10D8A4C7EF13F0CAEF13F0AC
:10278E00010ECBEF13F0000E376E000E286E000E0A
:10279E00296E000E2A6E000E2B6E35C536F5FEEF35
:1027AE0013F037A0DDEF13F0DFEF13F0E5EF13F0CA
:1027BE00D89037300109376EE7EF13F0D8903732E3
:1027CE0028A0ECEF13F0EEEF13F0EFEF13F0378ECF
:1027DE002B342B322A3229322832362A3550365CA7
:1027EE00D8A0FCEF13F0FEEF13F0D8EF13F034BCCB
:1027FE0003EF14F005EF14F045EF14F03650D8A4A3
:10280E000BEF14F00DEF14F017EF14F0000E286E0E
:10281E00000E296E000E2A6E000E2B6E66EF15F05E
:10282E002C5028262D5029222E502A222F502B2272
:10283E002BA024EF14F026EF14F0D2EF14F037A0F3
:10284E002BEF14F02DEF14F033EF14F0D890373047
:10285E000109376E35EF14F0D890373228A03AEFD1
:10286E0014F03CEF14F03DEF14F0378E2B342B3276
:10287E002A3229322832362AD2EF14F02C50285C14
:10288E002D5029582E502A582B50800A306E2F501A
:10289E00800A3058D8B056EF14F058EF14F083EF8A
:1028AE0014F028502C5C306E29502D58316E2A5061
:1028BE002E58326E2B502F58336EFF0E3024286E4A
:1028CE00FF0E3120296EFF0E32202A6EFF0E3320AE
:1028DE002B6E800E341A376C3750D8A479EF14F063
:1028EE007BEF14F08BEF14F0010E2826000E292238
:1028FE002A222B228BEF14F02C50285E2D50295AB1
:10290E002E502A5A2F502B5A285029102A102B108D
:10291E00D8A494EF14F096EF14F0CBEF14F03750D8
:10292E00D8A49CEF14F09EEF14F0CBEF14F0000E31
:10293E00286E000E296E000E2A6E000E2B6E66EFAC
:10294E0015F0D890283629362A362B3637AEB2EF08
:10295E0014F0B4EF14F0B5EF14F0288037A0BAEFEE
:10296E0014F0BCEF14F0C0EF14F0D8803736C2EF7D
:10297E0014F0D89037363650D8B4C8EF14F0CAEFEA
:10298E0014F0CBEF14F036062AAED0EF14F0D2EFDF
:10299E0014F0A8EF14F0000E356E37AED9EF14F028
:1029AE00DBEF14F0F3EF14F037C530F57F0E301671
:1029BE00D8B4E4EF14F0E6EF14F0EAEF14F0010EE1
:1029CE00356EF3EF14F028A0EFEF14F0F1EF14F0E2
:1029DE00F3EF14F0E6EF14F03550D8B4F9EF14F02D
:1029EE00FBEF14F026EF15F0010E2826000E29221B
:1029FE002A222B222BA006EF15F008EF15F026EF5A
:102A0E0015F028C530F529C531F52AC532F52BC587
:102A1E0033F53334333232323132303230C528F579
:102A2E0031C529F532C52AF533C52BF53628D8B46C
:102A3E0023EF15F025EF15F026EF15F0362A362880
:102A4E00D8B42CEF15F02EEF15F036EF15F03650FA
:102A5E00D8A434EF15F036EF15F048EF15F0000E50
:102A6E00286E000E296E000E2A6E000E2B6E36504A
:102A7E00D8A444EF15F046EF15F048EF15F0000E10
:102A8E00346E36A04DEF15F04FEF15F052EF15F0F6
:102A9E002A8E53EF15F02A9ED89036302B6E34AE18
:102AAE005BEF15F05DEF15F05EEF15F02B8E28C580
:102ABE0028F529C529F52AC52AF52BC52BF51200AF
:102ACE001250800B1B6E12501224216E11AE72EF3B
:102ADE0015F074EF15F075EF15F021802150D8B474
:102AEE007BEF15F07DEF15F090EF15F02128D8A4AF
:102AFE0083EF15F085EF15F08DEF15F0000E0F6ECC
:102B0E00000E106E000E116E000E126E118E98EFEA
:102B1E0015F0000E0F6E000E106E000E116E000EF0
:102B2E00126E1650800B1B1A16501624206E15AE00
:102B3E00A3EF15F0A5EF15F0A6EF15F020802050AD
:102B4E00D8B4ACEF15F0AEEF15F0C1EF15F02028AC
:102B5E00D8A4B4EF15F0B6EF15F0BEEF15F0000ED9
:102B6E00136E000E146E000E156E000E166E158E80
:102B7E00C9EF15F0000E136E000E146E000E156EDA
:102B8E00000E166E2050D8B4CFEF15F0D1EF15F021
:102B9E00D9EF15F02150D8A4D7EF15F0D9EF15F0D5
:102BAE00E3EF15F0000E0F6E000E106E000E116E9C
:102BBE00000E126E8DEF17F015500F026100CCF360
:102BCE0026F56100D0F327F526501C6E1D6A1E6A8D
:102BDE001F6A2750226E236A246A256A1450100237
:102BEE006100CCF326F56100D0F327F526501C26A4
:102BFE00000E1D221E221F2227502226000E2322E7
:102C0E0024222522135011026100CCF326F5610017
:102C1E00D0F327F526501C26000E1D221E221F2241
:102C2E0027502226000E2322242225221EC51FF500
:102C3E001DC51EF51CC51DF51C6A13501002610042
:102C4E00CCF326F56100D0F327F526501C2627502D
:102C5E001D22000E1E22000E1F2214500F026100B4
:102C6E00CCF326F56100D0F327F526501C2627500D
:102C7E001D22000E1E22000E1F221EC51FF51DC591
:102C8E001EF51CC51DF51C6A13500F026100CCF316
:102C9E0026F56100D0F327F526501C2627501D225D
:102CAE00000E1E22000E1F22155010026100CCF3E2
:102CBE0026F56100D0F327F5265022262750232231
:102CCE00000E2422000E2522145011026100CCF3B6
:102CDE0026F56100D0F327F5265022262750232211
:102CEE00000E2422000E2522155011026100CCF395
:102CFE0026F56100D0F327F52650176E2750186E73
:102D0E00196A1A6A19C51AF518C519F517C518F5ED
:102D1E00176A1750222618502322195024221A50AF
:102D2E0025221CC517F51DC518F51EC519F51FC59D
:102D3E001AF5190EA8EF16F0D8901A321932183269
:102D4E001732E82EA3EF16F0175022261850232222
:102D5E00195024221A5025221EC51FF51DC51EF519
:102D6E001CC51DF51C6A205021C517F5186A1726BB
:102D7E00000E1822820E1724266EFF0E1820276EC4
:102D8E00DEEF16F0D89022362336243625361FAEC7
:102D9E00D3EF16F0D5EF16F0D6EF16F02280D890BE
:102DAE001C361D361E361F362606D8A0270624AE24
:102DBE00E3EF16F0E5EF16F0C9EF16F0000E206EF9
:102DCE001FAEECEF16F0EEEF16F012EF17F0FF0E4F
:102DDE001C14176EFF0E1D14186EFF0E1E14196EA6
:102DEE007F0E1F141A6E1750181019101A10D8B41F
:102DFE0003EF17F005EF17F009EF17F0010E206E35
:102E0E0012EF17F022A00EEF17F010EF17F012EFDF
:102E1E0017F005EF17F02050D8B418EF17F01AEF8F
:102E2E0017F03EEF17F0010E2226000E2322242269
:102E3E00252225A025EF17F027EF17F03EEF17F00C
:102E4E0022C517F523C518F524C519F525C51AF59C
:102E5E001A341A3219321832173217C522F518C51C
:102E6E0023F519C524F51AC525F5264A272A27BEA6
:102E7E0049EF17F0275008E12628D8A049EF17F0A0
:102E8E004BEF17F055EF17F0000E226E000E236E6B
:102E9E00800E246E7F0E256E83EF17F027BE62EF35
:102EAE0017F0275006E12604D8B060EF17F062EF56
:102EBE0017F06EEF17F0000E226E000E236E000E4E
:102ECE00246E000E256E000E1B6E83EF17F026C5C6
:102EDE0021F5FF0E2216FF0E23167F0E2416000E6E
:102EEE00251621A07DEF17F07FEF17F080EF17F07A
:102EFE00248ED8902130256E1B50251222C50FF539
:102F0E0023C510F524C511F525C512F51200446E22
:102F1E00F6EF17F0A5EC29F0000E8FEC29F0000E5D
:102F2E0012EC27F001C547F502C548F5A2EC29F0D1
:102F3E00010E466E1BEF18F0A5EC29F0010E8FEC7A
:102F4E0029F0010E12EC27F001C547F502C548F530
:102F5E009DEF17F0A5EC29F0020E8FEC29F0170E5D
:102F6E0012EC27F001C547F502C548F5A2EC29F091
:102F7E00020E466E1BEF18F0A5EC29F0030E8FEC37
:102F8E0029F0160E12EC27F001C547F502C548F5DB
:102F9E00BDEF17F0D0B8D6EF17F0DAEF17F0426AA0
:102FAE00422ADBEF17F0426A4250476E486A020E21
:102FBE00466E1BEF18F0D0B6E7EF17F0EBEF17F0F9
:102FCE00426A422AECEF17F0426A4250476E486A54
:102FDE00020E466E1BEF18F046681BEF18F04450B9
:102FEE00426E436A4350000AD8B400EF18F0F3EF74
:102FFE0017F04250000AD8B491EF17F0010AD8B476
:10300E00A3EF17F0030AD8B4B1EF17F0010AD8B442
:10301E00C3EF17F0070AD8B4D1EF17F0010AD8B4EE
:10302E00E2EF17F0F3EF17F000F04604D8A422EF0A
:10303E0018F024EF18F08BEF18F0485007E1070E48
:10304E00475CD8B02DEF18F02FEF18F035EF18F0D1
:10305E00000E4C6E000E4B6E3FEF18F047C54BF551
:10306E0048C54CF5FB0E4B244B6EFF0E4C204C6EA0
:10307E00890E4B5C130E4C58D8A048EF18F04AEF4F
:10308E0018F04CEF18F0F1EF18F04BC501F54CC5E8
:10309E0002F5000E046E050E036E15EC25F001C54B
:1030AE0049F502C54AF59C0E4924496EFF0E4A2089
:1030BE004A6E49C501F54AC502F5000E046E0A0EA8
:1030CE00036EF8EC27F001C549F502C54AF549C56E
:1030DE0001F54AC502F5000E046EE80E036E15ECFE
:1030EE0025F001C549F502C54AF54BC501F54CC59C
:1030FE0002F5000E046E640E036E15EC25F0015001
:10310E00456E4550F1EF18F0020E4618D8A492EF16
:10311E0018F094EF18F0F1EF18F06F0E2C6E810E80
:10312E002D6EA80E2E6EC00E2F6EB30E136E7B0E6E
:10313E00146E920E156E3F0E166E47C501F548C5FC
:10314E0002F5036A046A000E92EC1DF001C50FF53C
:10315E0002C510F503C511F504C512F567EC15F09F
:10316E000FC528F510C529F511C52AF512C52BF581
:10317E0007EC13F028C538F529C539F52AC53AF5F7
:10318E002BC53BF522EC20F038C54BF539C54CF577
:10319E00890E4B5C130E4C58D8A0D8EF18F0DAEF0E
:1031AE0018F0DCEF18F0F1EF18F0D8904B34496EB0
:1031BE004C344A6E49C501F54AC502F5000E046E3F
:1031CE00640E036E15EC25F001C549F502C54AF5EE
:1031DE007CEF18F0120071EC22F00009D8B4FAEF6F
:1031EE0018F0FCEF18F03BEF1AF0BD0E226E050E34
:1031FE00236E3BEC26F0E806D8A408EF19F00AEF90
:10320E0019F03BEF1AF000F0BDC5E9F5BEC5EAF5C1
:10321E00BFC5EBF5C0C5ECF5610008F7D9F4610048
:10322E000CF7DAF4DF500501F36F20EE01F0C25116
:10323E00D926C351DA22DF50F46F20EE02F0C251CC
:10324E00D926C351DA22DF50F26F20EE03F0C251BD
:10325E00D926C351DA22DF50F06F20EE04F0C251AE
:10326E00D926C351DA22DF50F16F20EE05F0C2519C
:10327E00D926C351DA22DF50EF6F20EE06F0C2518D
:10328E00D926C351DA22DF50ED6F20EE07F0C2517E
:10329E00D926C351DA22DF50EE6FF5EF19F0F3C5E0
:1032AE00B2F5F4C5B1F5F2C5B0F5F0C5AFF5F1C59F
:1032BE00AEF59C05D8A466EF19F068EF19F03BEF58
:1032CE001AF0B05122EC24F0010E0501B36F3BEF62
:1032DE001AF0F351070BAD6FF351180BAC6FF3519E
:1032EE00E00BAB6FF451010BAA6FF451060BA96FF3
:1032FE00F451780BA86FF2C54DF57F0E4D164E6A40
:10330E00F4AF01D04E2A4E304D34A76FF0514D6EB2
:10331E004E6AD8904D364E36F151506E4F6A4D5022
:10332E004F124E505012516AF2AF01D0512A010E77
:10333E00511651504F10766F5050776F3BEF1AF079
:10334E00F3C5A6F5F4C5A5F5F2C5A4F5F0C5A3F52C
:10335E00F1C5A2F5EFC5A1F5EDC5A0F5EEC59FF53A
:10336E003BEF1AF0F351F4C54DF54E6A4DC54EF5CF
:10337E004D6A4D10746F4E50756FF251F0C54DF58C
:10338E004E6A4DC54EF54D6A4D10726F4E50736FAD
:10339E00F151EFC54DF54E6A4DC54EF54D6A4D10C6
:1033AE00706F4E50716F3BEF1AF0F3C59CF59C5148
:1033BE00D8A4E4EF19F0E6EF19F03BEF1AF0000E87
:1033CE00436E000E426E010E456E2C0E446EA5EC41
:1033DE0020F03BEF1AF000F03BEF1AF0E9C54DF587
:1033EE00EAC54EF5EBC54FF5ECC550F55050000A49
:1033FE00D8B434EF1AF0F2EF19F04E50030AD8B4E5
:10340E0013EF1AF0070AD8B41EEF1AF0010AD8B457
:10341E0025EF1AF0F2EF19F04D50200AD8B456EFFE
:10342E0019F0670AD8B4DCEF19F0F2EF19F04D502D
:10343E00120AD8B4DCEF19F0F2EF19F04D50000A71
:10344E00D8B470EF19F0010AD8B4A7EF19F0030A37
:10345E00D8B4B9EF19F0F2EF19F04F50000AD8B402
:10346E0004EF1AF0F2EF19F01200610038F4D9F4FB
:10347E0061003CF4DAF4610078F314F5610078F33E
:10348E0015F5610078F316F5610078F317F520EE67
:10349E0004F00E50D9260F50DA22DFA059EF1AF0A1
:1034AE005BEF1AF095EF1AF020EE01F00C50D926D2
:1034BE000D50DA221438E842F80BF80BDF6E050EC9
:1034CE00106ED8901732163215321432102E68EF55
:1034DE001AF020EE02F00C50D9260D50DA226100BF
:1034EE0050F4DFF415C514F516C515F517C516F508
:1034FE00176A20EE03F00C50D9260D50DA22145024
:10350E001F0BDF6E050E106ED89017321632153265
:10351E001432102E8BEF1AF0ADEF1AF020EE03F0EE
:10352E000C50D9260D50DA22000EDF6E10EE02F08E
:10353E000C50E1260D50E222DFC4E7F420EE01F03C
:10354E000C50D9260D50DA22E7C4DFF4610030F4B6
:10355E00D9F4610034F4DAF4610050F4DFF415C5E7
:10356E0014F516C515F517C516F5176A14C510F519
:10357E00070E101620EE01F00C50D9260D50DA224F
:10358E001050DF1220EE04F00E50D9260F50DA2222
:10359E00DF30E8320F0B136E20EE04F00E50D926FA
:1035AE000F50DA22DFB0DEEF1AF0E2EF1AF0106AF7
:1035BE00102AE3EF1AF0106A1038F00B131220EEF7
:1035CE0004F00E50D9260F50DA22DFB2F1EF1AF0C6
:1035DE00F5EF1AF0200E106EF6EF1AF0106A10507A
:1035EE00131220EE04F00E50D9260F50DA22DFBE51
:1035FE0003EF1BF007EF1BF0400E106E08EF1BF0F1
:10360E00106A1050131220EE04F00E50D9260F50EF
:10361E00DA22DFBC15EF1BF019EF1BF0800E106ED7
:10362E001AEF1BF0106A1050131220EE04F00C501B
:10363E00D9260D50DA2261004CF4DFF420EE04F0AE
:10364E000E50D9260F50DA22DFB230EF1BF032EFD8
:10365E001BF05EEF1BF0080E0C24016E000E0D2009
:10366E00026E20EE05F00E50D9260F50DA226100C0
:10367E0078F303F5610074F304F520EE04F00E50B8
:10368E00D9260F50DA22DF30E8320F0B106E116A96
:10369E00010E1024F66E260E1120F76EF86A000E3B
:1036AE00F8220800F550056E066AE4EC25F01200CB
:1036BE0020EE04F00C50D9260D50DA22DF50176E92
:1036CE0017C510F520EE04F00E50D9260F50DA2251
:1036DE0010461046DF501018C30B1018DF6E17B8C7
:1036EE007BEF1BF07FEF1BF0106A102A80EF1BF0B0
:1036FE00106A20EE04F00E50D9260F50DA22DF5059
:10370E001018FE0B1018DF6E17BA90EF1BF094EF27
:10371E001BF0106A102A95EF1BF0106A20EE04F0D1
:10372E000E50D9260F50DA221046DF501018FD0B1E
:10373E001018DF6E17BCA6EF1BF0AAEF1BF0106A75
:10374E00102AABEF1BF0106A20EE04F00E50D926B3
:10375E000F50DA2210321032DF5010187F0B101873
:10376E00DF6E17BEBDEF1BF0C1EF1BF0106A102A03
:10377E00C2EF1BF0106A20EE04F00E50D9260F5047
:10378E00DA22103A10461046DF501018BF0B1018F0
:10379E00DF6E20EE01F00C50D9260D50DA22DF50EC
:1037AE00106E070E10161050136E146A156A166AF4
:1037BE0015C516F514C515F513C514F5136A610074
:1037CE0030F4D9F4610034F4DAF4DF50106E105096
:1037DE00131220EE04F00E50D9260F50DA22DFA07D
:1037EE00FBEF1BF0FDEF1BF03EEF1CF0050ED8902B
:1037FE001336143615361636E82EFEEF1BF020EE75
:10380E0003F00C50D9260D50DA22DF50106E1F0E29
:10381E0010161050131215C516F514C515F513C54F
:10382E0014F5136A20EE02F00C50D9260D50DA2250
:10383E00DF50106E10501312050ED890133614363A
:10384E0015361636E82E24EF1CF020EE01F00C5043
:10385E00D9260D50DA22DF50106ED8901032D89043
:10386E001032D89010321F0E101610501312610025
:10387E0038F4D9F461003CF4DAF461004CF4DEF46F
:10388E00610050F4DEF4610054F4DEF4610058F48B
:10389E00DEF4000E016E060E026E080E0C24036E90
:1038AE00000E0D20046E20EE04F00E50D9260F509F
:1038BE00DA22DF30E8320F0B106E116A010E10247F
:1038CE00F66E260E1120F76EF86A000EF82208002A
:1038DE00F550056E066AE4EC25F020EE05F00E506C
:1038EE00D9260F50DA22000EDE6E060EDD6E1200A5
:1038FE00000E0301F96F3F0EFA6F000ED86F000E27
:10390E00FB6F000ED96F000EDA6F000EDB6F000E2C
:10391E00DC6F000EDF6F000EE06F000EE36F000E27
:10392E00E46F000EE56F000EE66F000EE76F000EFF
:10393E00EA6F000EEB6F000EEC6FE80EEE6F030EEB
:10394E00EF6F000EF06F000EF16F000EF26F000EB3
:10395E00F36F000EF46F100EF56F000EF66F000E83
:10396E00F76F000EF86F000EFC6F010EFB6F000E6E
:10397E00D96F000EDA6F000EDB6F000EDC6F000EDB
:10398E00DF6F000EE06F000EE36F000EE46F000EAF
:10399E00E56F000EE66F000EE76F000EEA6F000E89
:1039AE00EB6F010EEC6FE80EEE6F030EEF6F000E75
:1039BE00F06F000EF16F000EF26F000EF36F000E3F
:1039CE00F46F100EF56F000EF66F000EF76F000E0F
:1039DE00F86F000EFD6F020EFB6F000ED96F000E1A
:1039EE00DA6F000EDB6F000EDC6F000EDF6F000E65
:1039FE00E06F000EE36F000EE46F000EE56F000E39
:103A0E00E66F000EE76F000EEA6F000EEB6F170EFB
:103A1E00EC6FE80EEE6F030EEF6F000EF06F000E00
:103A2E00F16F000EF26F000EF36F000EF46F100EBA
:103A3E00F56F000EF66F000EF76F000EF86F000EAA
:103A4E00FE6F030EFB6F000ED96F000EDA6F000EC5
:103A5E00DB6F000EDC6F000EDF6F000EE06F000EEE
:103A6E00E36F000EE46F000EE56F000EE66F000EC2
:103A7E00E76F000EEA6F000EEB6F160EEC6FE80E9E
:103A8E00EE6F030EEF6F000EF06F000EF16F000E73
:103A9E00F26F000EF36F000EF46F100EF56F000E46
:103AAE00F66F000EF76F000EF86F000EFF6FAF94FB
:103ABE00AF96B090B092B094B096000E0601086F1B
:103ACE00000E096F85EC29F0000E0601086F000E3E
:103ADE00096F7BEC29F0000E0601086F000E096FCE
:103AEE0076EC29F0000E0601086F000E096F71ECDE
:103AFE0029F0000E0601086F000E096F6CEC29F01C
:103B0E00000E0601086F000E096F80EC29F0840E7E
:103B1E000301F36F1200096E0950D8B499EF1DF02E
:103B2E009BEF1DF0BDEF1DF004BEA2EF1DF0A0EF48
:103B3E001DF0BDEF1DF001C505F502C506F503C567
:103B4E0007F504C508F5051E061E071E081E052AE4
:103B5E00000E06220722082205C50BF506C50CF538
:103B6E0007C50DF508C50EF5C5EF1DF001C50BF522
:103B7E0002C50CF503C50DF504C50EF50150021076
:103B8E0003100410D8A4CEEF1DF0D0EF1DF0DAEF25
:103B9E001DF0000E016E000E026E000E036E000E82
:103BAE00046E6BEF1EF0960E0A6EE4EF1DF00A2AFD
:103BBE00D8900E320D320C320B32000E0B14056EF5
:103BCE00000E0C14066E000E0D14076EFE0E0E1473
:103BDE00086E0550061007100810D8A4F9EF1DF056
:103BEE00FBEF1DF0DEEF1DF009EF1EF00A2A010EAD
:103BFE000B26000E0C220D220E22D8900E320D3204
:103C0E000C320B32000E0B14056E000E0C14066EE9
:103C1E00000E0D14076EFF0E0E14086E05500610E2
:103C2E0007100810D8A41EEF1EF020EF1EF0FDEFB7
:103C3E001DF028EF1EF00A06D8900B360C360D3606
:103C4E000E360DBE2DEF1EF02FEF1EF037EF1EF0CD
:103C5E00020E0A6035EF1EF037EF1EF022EF1EF057
:103C6E000AB03CEF1EF03EEF1EF03FEF1EF00D9E31
:103C7E00D8900A320AC505F5066A076A086A05C5AC
:103C8E0008F5076A066A056A05500B1206500C12F3
:103C9E0007500D1208500E120950D8B459EF1EF0ED
:103CAE005BEF1EF063EF1EF004BE62EF1EF060EFDE
:103CBE001EF063EF1EF00E8E0BC501F50CC502F55E
:103CCE000DC503F50EC504F5120001011DAF72EF0F
:103CDE001EF074EF1EF083EF1EF002D881EF1EF07F
:103CEE000500FA6E05018A51FD6E8B51FE6EFF6A5C
:103CFE00FA50120001011D9F1DAD88EF1EF08AEFD4
:103D0E001EF099EF1EF002D897EF1EF00500FA6E26
:103D1E0005018851FD6E8951FE6EFF6AFA50120040
:103D2E0001011D9D1DAB9EEF1EF0A0EF1EF0AFEF2B
:103D3E001EF002D8ADEF1EF00500FA6E0501865199
:103D4E00FD6E8751FE6EFF6AFA50120001011D9B37
:103D5E001CA7B4EF1EF0B6EF1EF0C5EF1EF002D892
:103D6E00C3EF1EF00500FA6E05018451FD6E8551FC
:103D7E00FE6EFF6AFA50120001011C971DA9CAEFD0
:103D8E001EF0CCEF1EF0DBEF1EF002D8D9EF1EF0C6
:103D9E000500FA6E05018251FD6E8351FE6EFF6ABB
:103DAE00FA50120001011D991DA5E0EF1EF0E2EF81
:103DBE001EF0F8EF1EF002D8EFEF1EF00500FA6EBF
:103DCE0005018051FD6E8151FE6EFF6AFA501200A0
:103DDE00010154A9F5EF1EF0F7EF1EF0F8EF1EF0FB
:103DEE0054991DA7FDEF1EF0FFEF1EF015EF1FF00B
:103DFE0002D80CEF1FF00500FA6E05017E51FD6E24
:103E0E007F51FE6EFF6AFA501200010160A712EF99
:103E1E001FF014EF1FF015EF1FF06097AE9C12000D
:103E2E00000E0A6E08BE20EF1FF01EEF1FF02AEFE5
:103E3E001FF0081E071E061E056C000E0622072226
:103E4E000822010E0A6E04BE31EF1FF02FEF1FF095
:103E5E003BEF1FF0041E031E021E016C000E022219
:103E6E0003220422010E0A1A000E0B6E000E0C6EB7
:103E7E00000E0D6E000E0E6E055006100710081087
:103E8E00D8B44CEF1FF04EEF1FF084EF1FF0010E71
:103E9E00096E58EF1FF0D8900536063607360836ED
:103EAE00092A08AE5DEF1FF05FEF1FF052EF1FF013
:103EBE00D8900B360C360D360E360550015C06507A
:103ECE0002580750035808500458D8A071EF1FF03D
:103EDE0073EF1FF07CEF1FF00550015E0650025A83
:103EEE000750035A0850045A0B80D89008320732F4
:103EFE0006320532092E5FEF1FF00A50D8B48AEF52
:103F0E001FF08CEF1FF094EF1FF00E1E0D1E0C1EF7
:103F1E000B6C000E0C220D220E220BC501F50CC5EA
:103F2E0002F50DC503F50EC504F512006100D8F3B8
:103F3E0052F56100DCF353F56100E0F354F56100D6
:103F4E00D4F355F5A1AEAEEF1FF0B0EF1FF0BBEFFF
:103F5E001FF0B1AEB5EF1FF0B7EF1FF0BBEF1FF0C4
:103F6E0094EC29F015EF20F09FA0C0EF1FF0C2EFE8
:103F7E001FF0CDEF1FF0AFA0C7EF1FF0C9EF1FF07E
:103F8E00CDEF1FF098EC29F015EF20F0A1A6D2EF9F
:103F9E001FF0D4EF1FF0DFEF1FF0B1A6D9EF1FF027
:103FAE00DBEF1FF0DFEF1FF0F5EC28F015EF20F040
:103FBE009EACE4EF1FF0E6EF1FF0F1EF1FF0AEAC9A
:103FCE00EBEF1FF0EDEF1FF0F1EF1FF06CEC1EF0BA
:103FDE0015EF20F0A2A8F6EF1FF0F8EF1FF003EF99
:103FEE0020F0B2A8FDEF1FF0FFEF1FF003EF20F05F
:103FFE00CDEC27F015EF20F0A1A808EF20F00AEF86
:10400E0020F015EF20F0B1A80FEF20F011EF20F007
:10401E0015EF20F0D6EC22F015EF20F0610054F5EC
:10402E00F5F4610050F5F8F461004CF5F7F4610019
:10403E0048F5F6F411003A343B34416E4150D8A4A1
:10404E002BEF20F02DEF20F037EF20F0000E386E22
:10405E00000E396E000E3A6E000E3B6EA4EF20F08D
:10406E0038C53CF539C53DF53AC53EF53BC53FF57E
:10407E00200E47EF20F0D8903F323E323D323C3298
:10408E00E82E42EF20F03C50406E3A8EFF0E38166E
:10409E00FF0E3916FF0E3A16000E3B16960E415EB7
:1040AE0041BE5EEF20F05CEF20F074EF20F0415047
:1040BE00800A970FD8B066EF20F068EF20F06AEF15
:1040CE0020F02DEF20F0D8903B323A323932383290
:1040DE00413E6AEF20F08CEF20F01F0E41647AEF24
:1040EE0020F07CEF20F084EF20F02DEF20F0D89020
:1040FE00383639363A363B3641064150D8A48AEF27
:10410E0020F08CEF20F07EEF20F04050D8B492EFEC
:10411E0020F094EF20F09CEF20F03B1E3A1E391E4B
:10412E00386C000E39223A223B2238C538F539C593
:10413E0039F53AC53AF53BC53BF51200490E016E0D
:10414E00990E026E000E036E000E046E44C505F548
:10415E0045C506F5076A086A17EC1FF001C548F554
:10416E0002C549F56A0E2C6E4D0E2D6E930E2E6EF7
:10417E00BF0E2F6E48C501F549C502F5036A046AE4
:10418E00000E92EC1DF001C528F502C529F503C5F8
:10419E002AF504C52BF507EC13F028C538F529C50B
:1041AE0039F52AC53AF52BC53BF522EC20F038C57A
:1041BE0048F539C549F542C546F543C547F5D8908A
:1041CE0046364736D8904636473646C54AF547C531
:1041DE004BF54AC501F54BC502F5000E046E640E93
:1041EE00036EF8EC27F001C54AF502C54BF54AC53A
:1041FE0001F54BC502F544C503F545C504F515ECAF
:10420E0025F001C54AF502C54BF54AC501F54BC56A
:10421E0002F507EC29F048C501F549C502F501EC98
:10422E0029F0ADEC29F01200216E000E1D6E185013
:10423E00A9EC28F0206E20A027EF21F029EF21F025
:10424E008FEF21F018500C0D580EF324D96E010E7D
:10425E00F420DA6E610078F31EF5610074F31FF539
:10426E001E501F10D8B43EEF21F040EF21F08FEF1B
:10427E0021F01EC50CF51FC50DF519C50EF51AC595
:10428E000FF55FEC1BF018500C0D510EF324D96E88
:10429E00010EF420DA6E000EDB802150020DF60EB8
:1042AE00F324D96E050EF420DA6EDF2A185069EC6D
:1042BE0028F01B6E2150020DF60EF324D96E050E5A
:1042CE00F420DA6E1B50DE5CD8A070EF21F072EF96
:1042DE0021F07CEF21F02150020DF60EF324D96E61
:1042EE00050EF420DA6E000EDF6E20A681EF21F0AF
:1042FE0083EF21F08DEF21F018500C0D540EF324A6
:10430E00D96E010EF420DA6EF70EDF16010E1D6E59
:10431E001D50120023C5B5F524C5B6F525C5B7F554
:10432E0026C5B8F527C5B9F528C5BAF529C5BBF513
:10433E002AC5BCF51EC5C4F51FC5C5F520C5C6F5F5
:10434E0021C5C7F50501C89DC89FC893C88122C560
:10435E002BF50F0E2B162B462B46C8512B18C30BC5
:10436E002B18C86FB50EC96F050ECA6FD6EC28F0A4
:10437E00E806D8A4C5EF21F0C7EF21F0CAEF21F06F
:10438E0000F0010E5B6ECBEC28F0E806D8A4D2EF5D
:10439E0021F0D4EF21F0D7EF21F000F0010E5B6E8B
:1043AE00C0EC28F0E806D8A4DFEF21F0E1EF21F011
:1043BE00E4EF21F000F0010E5B6E78EC28F0E806D9
:1043CE00D8A4ECEF21F0EEEF21F0F1EF21F000F0A8
:1043DE00010E5B6E000E35EC28F02B6E2BA0FAEF63
:1043EE0021F0FCEF21F004EF22F0C40E186E050E42
:1043FE00196E000ED8EC23F000F01200076E000EBE
:10440E00096E20EE04F00250D9260350DA22DF5056
:10441E000A6E0AAE15EF22F017EF22F022EF22F00D
:10442E008AEC29F0060AD8A41FEF22F021EF22F021
:10443E0022EF22F009820A30E8320F0B046E080ECA
:10444E0004642CEF22F02EEF22F040EF22F00AACA3
:10445E0033EF22F035EF22F03FEF22F08AEC29F015
:10446E00060AD8A43DEF22F03FEF22F040EF22F0F3
:10447E000980090EF66E260EF76EF86A08006100C6
:10448E00D4F304F50A30E8320F0B056E066A010EFE
:10449E000524F66E260E0620F76EF86A000EF82238
:1044AE000800F550045CD8B05FEF22F061EF22F007
:1044BE0062EF22F0098007509DEC28F00009D8A485
:1044CE006BEF22F06DEF22F06FEF22F0030E091268
:1044DE0009501200000E036E000E0A6E0A50020DF5
:1044EE00F50EF324D96E050EF420DA6EDF50066E4B
:1044FE000650A9EC28F0056E05A088EF22F08AEF91
:10450E0022F0CBEF22F0065069EC28F0076E05A6DC
:10451E0093EF22F095EF22F099EF22F007C504F504
:10452E00C9EF22F006500C0D550EF324D96E010E74
:10453E00F420DA6EDF501F0B086E0A50020DF60ED5
:10454E00F324D96E050EF420DA6EDF50096E095091
:10455E00085CD8B0B5EF22F0B7EF22F0BDEF22F035
:10456E000950085C0724046EC9EF22F00850095C5C
:10457E00D8B0C4EF22F0C6EF22F095EF22F009502A
:10458E00085C046E045003260A2A0A50D8B4D2EFEF
:10459E0022F0D4EF22F075EF22F003501200B19802
:1045AE00D1C501F5D2C502F571EC27F088EC27F0E4
:1045BE009FEC29F05D2A060E5D18D8A4E9EF22F0D3
:1045CE00EBEF22F0EFEF22F0000E5D6EFBEC28F029
:1045DE005C2A0B0E5C18D8A4F7EF22F0F9EF22F04C
:1045EE00FDEF22F0000E5C6EB6EC25F00501B42B4B
:1045FE00650EB419D8A406EF23F008EF23F00CEFE4
:10460E0023F0000EB46FB5EC29F005017C4B7D2B29
:10461E002D0E7C1906E17D05D8A418EF23F01AEFB4
:10462E0023F020EF23F0000E7D6F000E7C6FB3ECB5
:10463E0029F005017A4B7B2B590E7A1907E1020EF0
:10464E007B19D8A42DEF23F02FEF23F035EF23F0B5
:10465E00000E7B6F000E7A6FB4EC29F01200000E84
:10466E008EEC17F04D6E4D5005016E6F6F6B000E98
:10467E00026E0A0E016E9FEC27F0010E8EEC17F003
:10468E004D6E4D5005016C6F6D6B000E026E0A0E75
:10469E00016E9FEC27F0020E8EEC17F04D6E4D5012
:1046AE0005016A6F6B6B000E026E0A0E016E9FECB7
:1046BE0027F0030E8EEC17F04D6E4D500501686F0E
:1046CE00696B000E026E0A0E016E9FEC27F0040E4F
:1046DE008EEC17F04D6E4D500501666F676B000E38
:1046EE00026E0A0E016E9FEC27F0050E8EEC17F08F
:1046FE004D6E4D500501646F656B000E026E0A0E15
:10470E00016E9FEC27F000F0120006010A6F000EFA
:10471E000601096F44EC29F00601086F040E081912
:10472E00D8B49CEF23F09EEF23F0AFEF23F00A05F1
:10473E00D8B4A4EF23F0A6EF23F0AFEF23F0040ECE
:10474E000A19D8A4ADEF23F0AFEF23F0D4EF23F086
:10475E000101035106010A19F80B0A190101036F31
:10476E00C6EF23F001011DA9BFEF23F0C1EF23F027
:10477E00C6EF23F0020E0601096FD6EF23F00239C1
:10478E00E832070B06010A19D8A4D0EF23F0D2EFB6
:10479E0023F0B9EF23F0D6EF23F0010E096F095184
:1047AE0012001D6E1D508CEC26F00009D8B4E2EFFD
:1047BE0023F0E4EF23F021EF24F018C502F519C51C
:1047CE0003F51D5005EC22F01A6E1A50D8A4F2EF24
:1047DE0023F0F4EF23F021EF24F01D500C0D580EB2
:1047EE00F324D96E010EF420DA6E610078F31BF516
:1047FE00610074F31CF51B501C10D8B409EF24F0A3
:10480E000BEF24F021EF24F01BC50CF51CC50DF5A4
:10481E0018C50EF519C50FF53CEC1AF01D500C0D10
:10482E00510EF324D96E010EF420DA6E030EDF1250
:10483E0021EF24F012004C6E05019505D8A42AEF45
:10484E0024F02CEF24F059EF24F09C05D8A432EF7D
:10485E0024F034EF24F063EF24F04C503C0D610053
:10486E00CCF356F56100D0F357F556C501F557C593
:10487E0002F5000E046E640E036E15EC25F001C5F4
:10488E0056F502C557F55650566E576A56C542F53F
:10489E0057C543F5010E456E2C0E446EA5EC20F067
:1048AE0063EF24F0000E436E3C0E426E010E456E19
:1048BE002C0E446EA5EC20F01200780E0601086F47
:1048CE00530E096F5DEC29F07A0E0601086F530E38
:1048DE00096F62EC29F07C0E0601086F530E096F0A
:1048EE0067EC29F0760E0601086F530E096F58EC2F
:1048FE0029F0720E0601086F530E096F4EEC29F067
:10490E00700E0601086F530E096F49EC29F0740EF4
:10491E000601086F530E096F53EC29F0AE9C000E82
:10492E0001011C6F000E1D6F0A0E1E6FFC0E1F6F15
:10493E009E8C1200000E6F6E020E706E000E716E67
:10494E00500E726E0F0E736EFE0E746E000E756E3E
:10495E00000E766E000E776E000E796E0D0E7A6E6C
:10496E00050E7B6EA80E7C6E070E7D6EB39CB39EFD
:10497E0076907692A39EA39C000E0601086F000E01
:10498E00096F21EC29F0000E0601086F000E096F69
:10499E001CEC29F0000E0601086F000E096F26ECC4
:1049AE0029F0800E786E1200000E606E020E616E9F
:1049BE00000E626E3D0E636E000E646EFE0E656E30
:1049CE00000E666E000E676E000E686E000E6A6E4A
:1049DE001F0E6B6E000E6C6E1F0E6D6E000E6E6EE9
:1049EE00B29CB29E67906792A29EA29C000E060198
:1049FE00086F000E096F30EC29F0000E0601086FEB
:104A0E00000E096F2BEC29F0000E0601086F000E48
:104A1E00096F35EC29F0800E696E1200000E066EDD
:104A2E00000E056E03500410D8B420EF25F022EFCF
:104A3E0025F04AEF25F0010E076E2AEF25F0D890EB
:104A4E0003360436072A04AE2FEF25F031EF25F09A
:104A5E0026EF25F0D890053606360350015C04503B
:104A6E000258D8A03DEF25F03FEF25F044EF25F09A
:104A7E000350015E0450025A0580D890043203326E
:104A8E00072E31EF25F005C501F506C502F512001A
:104A9E00000EBE6E000EBF6E000EC06E080ECA6E09
:104AAE00EF0EC66EC80EC76EDC0EC86ED80E0401B1
:104ABE00106F400E086FCF0E006F000E216F000EAC
:104ACE00096F000E016F000E116F000E026F000EC7
:104ADE000A6F000E126F03690B69136904690C6982
:104AEE001469080E246F180E0201116F0F0E696FF4
:104AFE00050E3E6F1A0E126F0B0E3D6F460E0D6FAA
:104B0E0012000101018F040E8CEC23F00009D8A4D1
:104B1E0093EF25F095EF25F0B5EF25F0000E01018E
:104B2E004C6F260E4D6F000E4E6F000E4F6F600EC7
:104B3E00006F970E016F100E026FEBEC28F0E1EC98
:104B4E0028F0E3EC27F049EC28F043EC27F064EC76
:104B5E0024F0060E8CEC23F0C79ABF9A1200BEB852
:104B6E00BBEF25F0BEEF25F0010EBFEF25F0000ED6
:104B7E00FF0A2C6E2C3ABE502C18EF0B2C18BE6E62
:104B8E00600E1E6E030E1F6E000E206E000E216E46
:104B9E00080E226E6EC523F56CC524F56AC525F583
:104BAE0068C526F566C527F564C528F562C529F5DD
:104BBE0060C52AF591EC21F0120003C509F504C574
:104BCE000AF501C507F502C508F503EF26F06100E9
:104BDE0024F4D9F4610028F4DAF4DF500B6E094A9C
:104BEE000A2A61001CF4D9F4610020F4DAF46100A1
:104BFE002CF4DFF4074A082A0506D8A00606052875
:104C0E0006E10628D8A40EEF26F010EF26F0EEEF00
:104C1E0025F012005E0EF66E530EF76E000EF86E55
:104C2E0009006100D4F3F5F509006100D4F3F6F53F
:104C3E0001EE00F2080EEE6AE806FDE101EE60F10B
:104C4E006B0EEE6AE806FDE101EE56F1080EEE6A15
:104C5E00E806FDE10401080E5D6F000E5E6F000EAA
:104C6E005F6F000185EF28F0000E256E2550020DB6
:104C7E00F50EF324D96E050EF420DA6EDF50186EA1
:104C8E0022C519F523C51AF525501BEC21F0246E0B
:104C9E002450D8B455EF26F057EF26F059EF26F0F2
:104CAE0062EF26F0252A2550D8B460EF26F062EF89
:104CBE0026F03DEF26F024501200000E03011F6F68
:104CCE00000E206F010E216F850E1D6FEE0E1C6FF4
:104CDE00B1981C51600074FC0AF606010B6B0AC6F3
:104CEE000BF60A6B0A110501D16F06010B51050176
:104CFE00D26FA188640E0601086F530E096F12EC75
:104D0E0029F0310E03011E6F1200026E000E016EAD
:104D1E00040E026095EF26F097EF26F0A9EF26F02D
:104D2E0002500C0D500EF324D96E010EF420DA6EE3
:104D3E000101DFAEA5EF26F0A7EF26F0A9EF26F0D2
:104D4E00010E016E0150120000F00501B305D8A44A
:104D5E00B3EF26F0B5EF26F0B9EF26F0010E956F02
:104D6E00C5EF26F0000E956F000E436E3C0E426EA0
:104D7E00010E456E2C0E446EA5EC20F01200000EB6
:104D8E00CEBA010E05019A6F9A05D8A4D1EF26F07E
:104D9E00D3EF26F0DFEF26F0000E8EEC17F00501B4
:104DAE00996F010E8EEC17F00501986F56C59BF5A5
:104DBE001200ABEC29F021EC28F07FEC1CF04FEC4C
:104DCE0025F091EC28F02BEC27F064EC26F0B5ECF6
:104DDE0028F00DEC28F0A1EC24F088EC25F0DBECAB
:104DEE0024F01200C6EC26F00501E551E611D8B408
:104DFE0003EF27F005EF27F011EF27F002D811EFA0
:104E0E0027F00500FA6EE551FD6EE651FE6EFF6A63
:104E1E00FA5012001200056E610014F4ECF3030157
:104E2E00F38FF39DF381F3B11FEF27F021EF27F0FE
:104E3E001AEF27F0EB51046E036AEA510324016E58
:104E4E00000E0420026E1200010E0301266F000EEA
:104E5E00256F000E276FC20E236F000E226FB196C4
:104E6E00A186600E0601086F530E096F0DEC29F036
:104E7E00F00E0301246F1200000E0601086F085198
:104E8E00020DF60EF324D96E050EF420DA6E000E26
:104E9E00DF6E082B0851D8B457EF27F059EF27F0E3
:104EAE0046EF27F012000501CD51CE11D8B462EFB6
:104EBE0027F064EF27F070EF27F002D870EF27F09D
:104ECE000500FA6ECD51FD6ECE51FE6EFF6AFA50A0
:104EDE001200120003011EA577EF27F079EF27F0DD
:104EEE0082EF27F01E9102501D6F610004F41CF337
:104EFE001E8187EF27F002501D6F610004F41CF332
:104F0E0012000501CF51D011D8B490EF27F092EFD7
:104F1E0027F09EEF27F002D89EEF27F00500FA6EDD
:104F2E00CF51FD6ED051FE6EFF6AFA501200120084
:104F3E00A8EF27F0040E036E3E0EE82EFED7032ECA
:104F4E00FCD70106D8A00206012806E10228D8A443
:104F5E00B3EF27F0B5EF27F0A1EF27F01200050110
:104F6E00CB51CC11D8B4BEEF27F0C0EF27F0CCEF69
:104F7E0027F002D8CCEF27F00500FA6ECB51FD6E6C
:104F8E00CC51FE6EFF6AFA5012001200010160A1B0
:104F9E00D3EF27F0D5EF27F0E2EF27F002D8E2EFBC
:104FAE0027F00500FA6E05018C51FD6E8D51FE6ED7
:104FBE00FF6AFA5012001200190E01015C6F040E06
:104FCE005D6F600E5E6F050E5F6F500E0601086F0F
:104FDE00530E096F3FEC29F001011E83B298A2888F
:104FEE001200015003026100CCF305F56100D0F30D
:104FFE0006F501500402F350062602500302F35048
:10500E00062605C501F506C502F51200440E03017C
:10501E001B6F9B0E196F000E186FB19EA18E6C0E3A
:10502E000601086F530E096F17EC29F0800E03016D
:10503E001A6F1200000E0001606F000E616F000EFD
:10504E00626F000E636F000E646F000E656F000ED0
:10505E00666F000E676F000E686F1200046E000E12
:10506E00036E04508CEC26F00009D8B441EF28F002
:10507E0043EF28F047EF28F004509DEC28F0036E24
:10508E00035012005F0E0101946F9569966997693E
:10509E00000E986F000E996F000E9A6F000E9B6FA8
:1050AE00810E816F1200040100810083108F108D1C
:1050BE0010891087C698C790C794C792C79AC8849C
:1050CE00C89A1200026E02500C0D530EF324D96EC4
:1050DE00010EF420DA6EDF50016E1F0E011601284C
:1050EE001200CBEC28F00009D8B480EF28F083EF43
:1050FE0028F0010E84EF28F0000E1200E0EC26F0EE
:10510E00D68E5AEC28F09CEC29F000F08CEF28F0AB
:10511E000DEF00F0700E0001AD6F000EAF6F000EC0
:10512E00B36F020EB16F000EB06F1200016E015020
:10513E000C0D540EF324D96E010EF420DA6EDF50EE
:10514E00010B1200016E01500C0D540EF324D96E9A
:10515E00010EF420DA6EDF50090B1200AF90D680EC
:10516E006E0E0601086F530E096F3AEC29F09F8000
:10517E001200010136B5C6EF28F0C9EF28F0010E76
:10518E00CAEF28F0000E1200010136B9D1EF28F057
:10519E00D4EF28F0010ED5EF28F0000E1200010119
:1051AE0036BBDCEF28F0DFEF28F0010EE0EF28F041
:1051BE00000E1200100E0101506F040E516F610EA1
:1051CE00526F050E536F1200010E0101046F010E96
:1051DE00056F060E066F000E076F1200B1965AECA1
:1051EE0027F0B1EC29F01200ABEC26F0000E050111
:1051FE00B36F1200610004F463F40250646E120087
:10520E00610004F46BF402506C6E120008C6CDF50A
:10521E0009C6CEF5120008C6CFF509C6D0F51200A4
:10522E0008C6CBF509C6CCF5120008C6D5F509C6D9
:10523E00D6F5120008C6D7F509C6D8F5120008C66D
:10524E00D3F509C6D4F5120008C690F509C691F536
:10525E00120008C692F509C693F5120008C68EF51F
:10526E0009C68FF5120008C6E5F509C6E6F5120067
:10527E0008C68CF509C68DF5120001010239E83217
:10528E00070B120008C680F509C681F5120008C684
:10529E0082F509C683F5120008C67EF509C67FF5AC
:1052AE00120008C684F509C685F5120008C68AF5EF
:1052BE0009C68BF5120008C688F509C689F51200D5
:1052CE0008C686F509C687F5120008C6DBF509C6BD
:1052DE00DCF5120008C6DDF509C6DEF5120008C6BB
:1052EE00DFF509C6E0F5120008C6E1F509C6E2F5DC
:1052FE00120008C6D9F509C6DAF5120008C6E3F59C
:10530E0009C6E4F5120001010239E832070B12005A
:10531E00016E610004F4FBF31200B19EB6EC27F0AF
:10532E001200AF90F9EC26F0120003011A9F120042
:10533E0036EC23F012000301F39112000301F39BEC
:10534E001200F2EC18F01200D69A120069841200C4
:10535E0001001200120012001200120012001200C0
:10536E00120012001200120012001200120012009F
:020000040020DA
:10000000FF0FFF0FFF0FFF0FFF0FFF0FFF0FFF0F80
:10001000FF0FFF0FFF0FFF0FFF0FFF0FFF0FFF0F70
:020000040030CA
:10000000FAEFF7DF9FFFFFFFFFFFFFFFFFFFFFFF9D
:10001000FFFFFFFFFFFFFFFFFFFFFFFFFFFFFFFFF0
:04002000FFFFFFFFE0
:00000001FF
