:040000000DEF00F010
:0400080024EF28F0C9
:06001800FF00CEEF31F005
:0D2600000000010203040506070850010058
:10260E0005019051800B996F905190259B6F8FAF64
:10261E0013EF13F015EF13F016EF13F09B819B5190
:10262E00D8B41CEF13F01EEF13F033EF13F09B2909
:10263E00D8A424EF13F026EF13F02EEF13F0000EB4
:10264E008D6F000E8E6F000E8F6F000E906F8F8F3E
:10265E00000E906F3BEF13F0000E8D6F000E8E6F1D
:10266E00000E8F6F000E906F9451800B9A6F9951E0
:10267E009A19D8B445EF13F047EF13F048EF13F063
:10268E00998D945194259A6F93AF50EF13F052EFAA
:10269E0013F053EF13F09A819A51D8B459EF13F007
:1026AE005BEF13F070EF13F09A29D8A461EF13F0DB
:1026BE0063EF13F06BEF13F0000E916F000E926F3D
:1026CE00000E936F000E946F938F000E946F78EF41
:1026DE0013F0000E916F000E926F000E936F000EAE
:1026EE00946F9B519A5DD8B07FEF13F081EF13F08A
:1026FE00A8EF13F099AD86EF13F088EF13F08AEF81
:10270E0013F0800E991B9BC59CF59AC59BF59CC535
:10271E009AF58DC59CF591C58DF59CC591F58EC527
:10272E009CF592C58EF59CC592F58FC59CF593C50B
:10273E008FF59CC593F590C59CF594C590F59CC5F9
:10274E0094F5000E9C6F9B519AC595F5966B955F0F
:10275E00000E965B96BFBDEF13F0965109E11A0E6F
:10276E00955DD8A0BDEF13F0BFEF13F0F6EF13F0A9
:10277E008D518E118F119011D8A4C8EF13F0CBEF9D
:10278E0013F0010ECCEF13F0000E9C6F000E8D6F48
:10279E00000E8E6F000E8F6F000E906F9AC59BF518
:1027AE00FFEF13F09CA1DEEF13F0E0EF13F0E6EF76
:1027BE0013F0D8909C3101099C6FE8EF13F0D8907C
:1027CE009C338DA1EDEF13F0EFEF13F0F0EF13F05C
:1027DE009C8F903590338F338E338D339B2B9A5144
:1027EE009B5DD8A0FDEF13F0FFEF13F0D9EF13F0C0
:1027FE0099BD04EF14F006EF14F046EF14F09B5160
:10280E00D8A40CEF14F00EEF14F018EF14F0000E25
:10281E008D6F000E8E6F000E8F6F000E906F67EF34
:10282E0015F091518D2792518E2393518F239451F0
:10283E00902390A125EF14F027EF14F0D3EF14F0AE
:10284E009CA12CEF14F02EEF14F034EF14F0D8906E
:10285E009C3101099C6F36EF14F0D8909C338DA1FA
:10286E003BEF14F03DEF14F03EEF14F09C8F9035DB
:10287E0090338F338E338D339B2BD3EF14F09151D6
:10288E008D5D92518E5993518F599051800A956F4B
:10289E009451800A9559D8B057EF14F059EF14F0AF
:1028AE0084EF14F08D51915D956F8E519259966F04
:1028BE008F519359976F90519459986FFF0E95259C
:1028CE008D6FFF0E96218E6FFF0E97218F6FFF0E6D
:1028DE009821906F800E991B9C6D9C51D8A47AEF15
:1028EE0014F07CEF14F08CEF14F0010E8D27000E17
:1028FE008E238F2390238CEF14F091518D5F925184
:10290E008E5B93518F5B9451905B8D518E118F1115
:10291E009011D8A495EF14F097EF14F0CCEF14F0BB
:10292E009C51D8A49DEF14F09FEF14F0CCEF14F04F
:10293E00000E8D6F000E8E6F000E8F6F000E906F5B
:10294E0067EF15F0D8908D378E378F3790379CAF55
:10295E00B3EF14F0B5EF14F0B6EF14F08D819CA127
:10296E00BBEF14F0BDEF14F0C1EF14F0D8809C371C
:10297E00C3EF14F0D8909C379B51D8B4C9EF14F024
:10298E00CBEF14F0CCEF14F09B078FAFD1EF14F018
:10299E00D3EF14F0A9EF14F0000E9A6F9CAFDAEF9C
:1029AE0014F0DCEF14F0F4EF14F09CC595F57F0EE7
:1029BE009517D8B4E5EF14F0E7EF14F0EBEF14F041
:1029CE00010E9A6FF4EF14F08DA1F0EF14F0F2EF08
:1029DE0014F0F4EF14F0E7EF14F09A51D8B4FAEFC4
:1029EE0014F0FCEF14F027EF15F0010E8D27000EFA
:1029FE008E238F23902390A107EF15F009EF15F08A
:102A0E0027EF15F08DC595F58EC596F58FC597F503
:102A1E0090C598F59835983397339633953395C579
:102A2E008DF596C58EF597C58FF598C590F59B29B2
:102A3E00D8B424EF15F026EF15F027EF15F09B2BE9
:102A4E009B29D8B42DEF15F02FEF15F037EF15F0B9
:102A5E009B51D8A435EF15F037EF15F049EF15F06F
:102A6E00000E8D6F000E8E6F000E8F6F000E906F2A
:102A7E009B51D8A445EF15F047EF15F049EF15F02F
:102A8E00000E996F9BA14EEF15F050EF15F053EF1E
:102A9E0015F08F8F54EF15F08F9FD8909B31906F5C
:102AAE0099AF5CEF15F05EEF15F05FEF15F0908FBC
:102ABE008DC58DF58EC58EF58FC58FF590C590F5AC
:102ACE0012002B50800B346E2B502B24366E2AAEF8
:102ADE0073EF15F075EF15F076EF15F03680365072
:102AEE00D8B47CEF15F07EEF15F093EF15F0362885
:102AFE00D8A484EF15F086EF15F08EEF15F0000ECA
:102B0E00286E000E296E000E2A6E000E2B6E2A8E77
:102B1E00000E2B6E9BEF15F0000E286E000E296E28
:102B2E00000E2A6E000E2B6E2F50800B356E345019
:102B3E003518D8B4A5EF15F0A7EF15F0A8EF15F0DE
:102B4E00348C2F502F24356E2EAEB0EF15F0B2EF21
:102B5E0015F0B3EF15F035803550D8B4B9EF15F048
:102B6E00BBEF15F0D0EF15F03528D8A4C1EF15F056
:102B7E00C3EF15F0CBEF15F0000E2C6E000E2D6E80
:102B8E00000E2E6E000E2F6E2E8E000E2F6ED8EFB4
:102B9E0015F0000E2C6E000E2D6E000E2E6E000E19
:102BAE002F6E3650355CD8B0DFEF15F0E1EF15F033
:102BBE0008EF16F034ACE6EF15F0E8EF15F0EAEF9B
:102BCE0015F0800E341A36C537F535C536F537C5CE
:102BDE0035F528C537F52CC528F537C52CF529C58B
:102BEE0037F52DC529F537C52DF52AC537F52EC56F
:102BFE002AF537C52EF52BC537F52FC52BF537C55D
:102C0E002FF5000E376E365035C530F5316A305E11
:102C1E00000E315A31BE1DEF16F0315009E11A0E79
:102C2E00305CD8A01DEF16F01FEF16F056EF16F021
:102C3E00285029102A102B10D8A428EF16F02BEFAD
:102C4E0016F0010E2CEF16F0000E376E000E286EE9
:102C5E00000E296E000E2A6E000E2B6E35C536F54F
:102C6E005FEF16F037A03EEF16F040EF16F046EF8E
:102C7E0016F0D89037300109376E48EF16F0D8901D
:102C8E00373228A04DEF16F04FEF16F050EF16F03A
:102C9E00378E2B342B322A3229322832362A3550AF
:102CAE00365CD8A05DEF16F05FEF16F039EF16F038
:102CBE0034BC64EF16F066EF16F0A6EF16F0365041
:102CCE00D8A46CEF16F06EEF16F078EF16F0000E3B
:102CDE00286E000E296E000E2A6E000E2B6EC7EFA8
:102CEE0017F02C5028262D5029222E502A222F50F4
:102CFE002B222BA085EF16F087EF16F033EF17F08F
:102D0E0037A08CEF16F08EEF16F094EF16F0D890E9
:102D1E0037300109376E96EF16F0D890373228A06B
:102D2E009BEF16F09DEF16F09EEF16F0378E2B34BC
:102D3E002B322A3229322832362A33EF17F02C5012
:102D4E00285C2D5029582E502A582B50800A306E50
:102D5E002F50800A3058D8B0B7EF16F0B9EF16F0F2
:102D6E00E4EF16F028502C5C306E29502D58316E41
:102D7E002A502E58326E2B502F58336EFF0E3024A1
:102D8E00286EFF0E3120296EFF0E32202A6EFF0EA6
:102D9E0033202B6E800E341A376C3750D8A4DAEFEE
:102DAE0016F0DCEF16F0ECEF16F0010E2826000EF2
:102DBE0029222A222B22ECEF16F02C50285E2D50C1
:102DCE00295A2E502A5A2F502B5A285029102A1081
:102DDE002B10D8A4F5EF16F0F7EF16F02CEF17F036
:102DEE003750D8A4FDEF16F0FFEF16F02CEF17F0CA
:102DFE00000E286E000E296E000E2A6E000E2B6E2F
:102E0E00C7EF17F0D890283629362A362B3637AE2C
:102E1E0013EF17F015EF17F016EF17F0288037A005
:102E2E001BEF17F01DEF17F021EF17F0D880373694
:102E3E0023EF17F0D89037363650D8B429EF17F065
:102E4E002BEF17F02CEF17F036062AAE31EF17F0F6
:102E5E0033EF17F009EF17F0000E356E37AE3AEF7D
:102E6E0017F03CEF17F054EF17F037C530F57F0E23
:102E7E003016D8B445EF17F047EF17F04BEF17F0B9
:102E8E00010E356E54EF17F028A050EF17F052EFE9
:102E9E0017F054EF17F047EF17F03550D8B45AEF3C
:102EAE0017F05CEF17F087EF17F0010E2826000ED3
:102EBE0029222A222B222BA067EF17F069EF17F099
:102ECE0087EF17F028C530F529C531F52AC532F53B
:102EDE002BC533F53334333232323132303230C5E2
:102EEE0028F531C529F532C52AF533C52BF5362817
:102EFE00D8B484EF17F086EF17F087EF17F0362A65
:102F0E003628D8B48DEF17F08FEF17F097EF17F034
:102F1E003650D8A495EF17F097EF17F0A9EF17F0EA
:102F2E00000E286E000E296E000E2A6E000E2B6EFD
:102F3E003650D8A4A5EF17F0A7EF17F0A9EF17F0AA
:102F4E00000E346E36A0AEEF17F0B0EF17F0B3EF01
:102F5E0017F02A8EB4EF17F02A9ED89036302B6ECB
:102F6E0034AEBCEF17F0BEEF17F0BFEF17F02B8E9D
:102F7E0028C528F529C529F52AC52AF52BC52BF50F
:102F8E001200D0B4CDEF17F0CFEF17F0D2EF17F04D
:102F9E00010E06015A6F06015A05D8A4D9EF17F093
:102FAE00DBEF17F0E1EF17F0010E1BEC31F0020E24
:102FBE0006015A6F020E5A19D8A4E8EF17F0EAEF7D
:102FCE0017F0F6EF17F00501D351D8B4F1EF17F063
:102FDE00F3EF17F0EAEF17F0030E06015A6F030E28
:102FEE005A19D8A4FDEF17F0FFEF17F005EF18F000
:102FFE00000E1BEC31F0040E06015A6F040E5A1926
:10300E00D8A40CEF18F00EEF18F01CEF18F0D0B497
:10301E0013EF18F015EF18F019EF18F0050E5A6FA0
:10302E001CEF18F0010E23EC35F0050E06015A19AF
:10303E00D8A424EF18F026EF18F02BEF18F0010E9D
:10304E001BEC31F006015A2B060E5A19D8A432EF9A
:10305E0018F034EF18F07AEF18F0020E3FEC1EF075
:10306E000601576F0501C9510601575DD8A042EF01
:10307E0018F044EF18F077EF18F0030E3FEC1EF047
:10308E000601576F0501C9510601575DD8A052EFD1
:10309E0018F054EF18F077EF18F0000E3FEC1EF01A
:1030AE000601576F57510501C85DD8A061EF18F0A2
:1030BE0063EF18F077EF18F0010E3FEC1EF00601EB
:1030CE00576F57510501C85DD8A070EF18F072EF19
:1030DE0018F077EF18F0070E06015A6F7AEF18F016
:1030EE00020E23EC35F0070E06015A19D8A482EF12
:1030FE0018F084EF18F0A9EF18F0040E3FEC1EF054
:10310E000601576F57510501C75DD8A091EF18F012
:10311E0093EF18F0A6EF18F0050E3FEC1EF0060127
:10312E00576F57510501C75DD8A0A0EF18F0A2EF59
:10313E0018F0A6EF18F006015A2BA9EF18F0030E9F
:10314E0023EC35F0080E06015A19D8A4B1EF18F089
:10315E00B3EF18F0F9EF18F0000E3FEC1EF0060179
:10316E00576F0501CB510601575DD8A0C1EF18F07E
:10317E00C3EF18F0F6EF18F0010E3FEC1EF006014B
:10318E00576F0501CB510601575DD8A0D1EF18F04E
:10319E00D3EF18F0F6EF18F0000E3FEC1EF006011C
:1031AE00576F57510501CA5DD8A0E0EF18F0E2EF56
:1031BE0018F0F6EF18F0010E3FEC1EF00601576FF7
:1031CE0057510501CA5DD8A0EFEF18F0F1EF18F0D6
:1031DE00F6EF18F0090E06015A6FF9EF18F0040E0B
:1031EE0023EC35F00A0E06015A19D8A401EF19F096
:1031FE0003EF19F013EF19F006EF19F000F0D10EEE
:10320E000601105D070E1159D8A010EF19F012EF3C
:10321E0019F005EF19F05A2BBF94BF820C0E5A6F9E
:10322E00030E0501676FE80E666F98EC32F0000E24
:10323E003FEC1EF00601576F0501C6510601575DA2
:10324E00D8A02CEF19F02EEF19F062EF19F0000E46
:10325E003FEC1EF00601576F0501C6510601575D82
:10326E00D8A03CEF19F03EEF19F062EF19F0040E02
:10327E003FEC1EF00601576F0501C5510601575D63
:10328E00D8A04CEF19F04EEF19F062EF19F0050EC1
:10329E003FEC1EF00601576F0501C7510601575D41
:1032AE00D8A05CEF19F05EEF19F062EF19F00D0E79
:1032BE005A6F65EF19F0050E23EC35F00D0E060171
:1032CE005A19D8A46DEF19F06FEF19F07BEF19F0C2
:1032DE00BF84BF82030E0501676FE80E666F98EC20
:1032EE0032F00D0E06015A6F0E0E5A19D8A482EF47
:1032FE0019F084EF19F088EF19F0BF92BF840F0E0A
:10330E005A6F0F0E5A19D8A48FEF19F091EF19F0CA
:10331E00D9EF19F0030E0501676FE80E666F98EC92
:10332E0032F0CEB29DEF19F0A2EF19F00601576BF5
:10333E00572BA4EF19F00601576B0501CA51060170
:10334E00575DD8B0ADEF19F0B0EF19F0010EB1EF37
:10335E0019F0000E586FCEB0B7EF19F0BBEF19F0A1
:10336E00596B592BBDEF19F00601596B0501CA5166
:10337E000601595DD8B0C6EF19F0C9EF19F0010E6C
:10338E00CAEF19F0000E5815E8A0D0EF19F0D2EFE1
:10339E0019F0D6EF19F00F0E5A6FD9EF19F0060E7D
:1033AE0023EC35F0100E06015A19D8A4E1EF19F0EE
:1033BE00E3EF19F0EFEF19F0BF82BF84030E0501A2
:1033CE00676FE80E666F98EC32F0010E0501D46F50
:1033DE00120005017751800B806F77517725866F2C
:1033EE0076AFFCEF19F0FEEF19F0FFEF19F08681C2
:1033FE008651D8B405EF1AF007EF1AF01AEF1AF04B
:10340E008629D8A40DEF1AF00FEF1AF017EF1AF065
:10341E00000E746F000E756F000E766F000E776FD4
:10342E00768F22EF1AF0000E746F000E756F000E7D
:10343E00766F000E776F7B51800B801B7B517B2547
:10344E00816F7AAF2DEF1AF02FEF1AF030EF1AF0DE
:10345E0081818151D8B436EF1AF038EF1AF04BEF64
:10346E001AF08129D8A43EEF1AF040EF1AF048EF77
:10347E001AF0000E786F000E796F000E7A6F000E44
:10348E007B6F7A8F53EF1AF0000E786F000E796F04
:10349E00000E7A6F000E7B6F8151D8B459EF1AF07F
:1034AE005BEF1AF063EF1AF08651D8A461EF1AF0B1
:1034BE0063EF1AF06DEF1AF0000E746F000E756F59
:1034CE00000E766F000E776F17EF1CF07A517403B3
:1034DE006100CCF38BF56100D0F38CF58B51826FCC
:1034EE00836B846B856B8C51876F886B896B8A6B52
:1034FE00795175036100CCF38BF56100D0F38CF537
:10350E008B518227000E8323842385238C5187279A
:10351E00000E882389238A23785176036100CCF329
:10352E008BF56100D0F38CF58B518227000E83232F
:10353E00842385238C518727000E882389238A2391
:10354E0084C585F583C584F582C583F5826B785174
:10355E0075036100CCF38BF56100D0F38CF58B51C4
:10356E0082278C518323000E8423000E85237951EC
:10357E0074036100CCF38BF56100D0F38CF58B51A5
:10358E0082278C518323000E8423000E852384C54D
:10359E0085F583C584F582C583F5826B78517403F6
:1035AE006100CCF38BF56100D0F38CF58B51822743
:1035BE008C518323000E8423000E85237A517503CC
:1035CE006100CCF38BF56100D0F38CF58B5187271E
:1035DE008C518823000E8923000E8A23795176039D
:1035EE006100CCF38BF56100D0F38CF58B518727FE
:1035FE008C518823000E8923000E8A237A5176037C
:10360E006100CCF38BF56100D0F38CF58B517C6FA0
:10361E008C517D6F7E6B7F6B7EC57FF57DC57EF594
:10362E007CC57DF57C6B7C5187277D5188237E512F
:10363E0089237F518A2382C57CF583C57DF584C598
:10364E007EF585C57FF5190E32EF1BF0D8907F33CE
:10365E007E337D337C33E82E2DEF1BF07C51872794
:10366E007D5188237E5189237F518A2384C585F518
:10367E0083C584F582C583F5826B815186C57CF541
:10368E007D6B7C27000E7D23820E7C258B6FFF0EBB
:10369E007D218C6F68EF1BF0D8908737883789377C
:1036AE008A3785AF5DEF1BF05FEF1BF060EF1BF00D
:1036BE008781D89082378337843785378B07D8A098
:1036CE008C0789AF6DEF1BF06FEF1BF053EF1BF004
:1036DE00000E816F85AF76EF1BF078EF1BF09CEF3D
:1036EE001BF0FF0E82157C6FFF0E83157D6FFF0E94
:1036FE0084157E6F7F0E85157F6F7C517D117E1137
:10370E007F11D8B48DEF1BF08FEF1BF093EF1BF0F2
:10371E00010E816F9CEF1BF087A198EF1BF09AEFC3
:10372E001BF09CEF1BF08FEF1BF08151D8B4A2EF72
:10373E001BF0A4EF1BF0C8EF1BF0010E8727000E45
:10374E00882389238A238AA1AFEF1BF0B1EF1BF0E8
:10375E00C8EF1BF087C57CF588C57DF589C57EF55C
:10376E008AC57FF57F357F337E337D337C337CC5D1
:10377E0087F57DC588F57EC589F57FC58AF58B4BA6
:10378E008C2B8CBFD3EF1BF08C5108E18B29D8A06A
:10379E00D3EF1BF0D5EF1BF0DFEF1BF0000E876FA2
:1037AE00000E886F800E896F7F0E8A6F0DEF1CF0F2
:1037BE008CBFECEF1BF08C5106E18B05D8B0EAEF15
:1037CE001BF0ECEF1BF0F8EF1BF0000E876F000EF6
:1037DE00886F000E896F000E8A6F000E806F0DEFDE
:1037EE001CF08BC586F5FF0E8717FF0E88177F0E10
:1037FE008917000E8A1786A107EF1CF009EF1CF03F
:10380E000AEF1CF0898FD89086318A6F80518A1307
:10381E0087C574F588C575F589C576F58AC577F5BA
:10382E0012001250800B1B6E12501224216E11AE1C
:10383E0023EF1CF025EF1CF026EF1CF02180215009
:10384E00D8B42CEF1CF02EEF1CF041EF1CF0212809
:10385E00D8A434EF1CF036EF1CF03EEF1CF0000E37
:10386E000F6E000E106E000E116E000E126E118E87
:10387E0049EF1CF0000E0F6E000E106E000E116E52
:10388E00000E126E1650800B1B1A16501624206E48
:10389E0015AE54EF1CF056EF1CF057EF1CF02080C5
:1038AE002050D8B45DEF1CF05FEF1CF072EF1CF0EF
:1038BE002028D8A465EF1CF067EF1CF06FEF1CF00A
:1038CE00000E136E000E146E000E156E000E166EA8
:1038DE00158E7AEF1CF0000E136E000E146E000E95
:1038EE00156E000E166E2050D8B480EF1CF082EFCD
:1038FE001CF08AEF1CF02150D8A488EF1CF08AEF40
:10390E001CF094EF1CF0000E0F6E000E106E000EE9
:10391E00116E000E126E3EEF1EF015500F0261007A
:10392E00CCF326F56100D0F327F526501C6E1D6AE8
:10393E001E6A1F6A2750226E236A246A256A145053
:10394E0010026100CCF326F56100D0F327F5265066
:10395E001C26000E1D221E221F2227502226000E7C
:10396E00232224222522135011026100CCF326F5C6
:10397E006100D0F327F526501C26000E1D221E22B4
:10398E001F2227502226000E2322242225221EC566
:10399E001FF51DC51EF51CC51DF51C6A1350100222
:1039AE006100CCF326F56100D0F327F526501C26D6
:1039BE0027501D22000E1E22000E1F2214500F0231
:1039CE006100CCF326F56100D0F327F526501C26B6
:1039DE0027501D22000E1E22000E1F221EC51FF58F
:1039EE001DC51EF51CC51DF51C6A13500F02610086
:1039FE00CCF326F56100D0F327F526501C26275070
:103A0E001D22000E1E22000E1F22155010026100F4
:103A1E00CCF326F56100D0F327F526502226275049
:103A2E002322000E2422000E2522145011026100C2
:103A3E00CCF326F56100D0F327F526502226275029
:103A4E002322000E2422000E2522155011026100A1
:103A5E00CCF326F56100D0F327F52650176E2750CC
:103A6E00186E196A1A6A19C51AF518C519F517C507
:103A7E0018F5176A1750222618502322195024229F
:103A8E001A5025221CC517F51DC518F51EC519F5AA
:103A9E001FC51AF5190E59EF1DF0D8901A321932AA
:103AAE0018321732E82E54EF1DF0175022261850F8
:103ABE002322195024221A5025221EC51FF51DC57A
:103ACE001EF51CC51DF51C6A205021C517F5186A78
:103ADE001726000E1822820E1724266EFF0E1820AF
:103AEE00276E8FEF1DF0D8902236233624362536DA
:103AFE001FAE84EF1DF086EF1DF087EF1DF02280C4
:103B0E00D8901C361D361E361F362606D8A0270620
:103B1E0024AE94EF1DF096EF1DF07AEF1DF0000E1F
:103B2E00206E1FAE9DEF1DF09FEF1DF0C3EF1DF039
:103B3E00FF0E1C14176EFF0E1D14186EFF0E1E14B2
:103B4E00196E7F0E1F141A6E1750181019101A10B6
:103B5E00D8B4B4EF1DF0B6EF1DF0BAEF1DF0010EA4
:103B6E00206EC3EF1DF022A0BFEF1DF0C1EF1DF0C0
:103B7E00C3EF1DF0B6EF1DF02050D8B4C9EF1DF005
:103B8E00CBEF1DF0EFEF1DF0010E2226000E2322CB
:103B9E002422252225A0D6EF1DF0D8EF1DF0EFEF41
:103BAE001DF022C517F523C518F524C519F525C531
:103BBE001AF51A341A3219321832173217C522F57D
:103BCE0018C523F519C524F51AC525F5264A272A41
:103BDE0027BEFAEF1DF0275008E12628D8A0FAEFED
:103BEE001DF0FCEF1DF006EF1EF0000E226E000E13
:103BFE00236E800E246E7F0E256E34EF1EF027BED0
:103C0E0013EF1EF0275006E12604D8B011EF1EF078
:103C1E0013EF1EF01FEF1EF0000E226E000E236E2D
:103C2E00000E246E000E256E000E1B6E34EF1EF07D
:103C3E0026C521F5FF0E2216FF0E23167F0E241623
:103C4E00000E251621A02EEF1EF030EF1EF031EFE4
:103C5E001EF0248ED8902130256E1B50251222C5C1
:103C6E000FF523C510F524C511F525C512F5120063
:103C7E000501A96FACEF1EF0F5EC35F0000E48EC27
:103C8E0035F0000E5AEC32F066C5ACF567C5ADF5F1
:103C9E00F2EC35F0010E0501AB6FD2EF1EF0F5EC34
:103CAE0035F0010E48EC35F0010E5AEC32F066C5D7
:103CBE00ACF567C5ADF54FEF1EF0F5EC35F0020E25
:103CCE0048EC35F0170E5AEC32F066C5ACF567C508
:103CDE00ADF5F2EC35F0020E0501AB6FD2EF1EF032
:103CEE00F5EC35F0030E48EC35F0160E5AEC32F0CA
:103CFE0066C5ACF567C5ADF570EF1EF0D0B88AEFAE
:103D0E001EF08EEF1EF0A76BA72B90EF1EF0050195
:103D1E00A76BA751AC6FAD6B020EAB6FD2EF1EF05F
:103D2E00D0B69CEF1EF0A0EF1EF0A76BA72BA2EF54
:103D3E001EF00501A76BA751AC6FAD6B020EAB6FFA
:103D4E00D2EF1EF0AB69D2EF1EF00501A951A76F9D
:103D5E00A86BA851000AD8B4B7EF1EF0A9EF1EF059
:103D6E00A751000AD8B443EF1EF0010AD8B456EF9B
:103D7E001EF0030AD8B464EF1EF0010AD8B477EF30
:103D8E001EF0070AD8B485EF1EF0010AD8B497EFDB
:103D9E001EF0A9EF1EF000F00501AB05D8A4DAEF76
:103DAE001EF0DCEF1EF03CEF1FF0AD5107E1070EE9
:103DBE00AC5DD8B0E5EF1EF0E7EF1EF0EDEF1EF0B4
:103DCE00000EAF6F000EAE6FF7EF1EF0ACC5AEF586
:103DDE00ADC5AFF5FB0EAE25AE6FFF0EAF21AF6FCB
:103DEE00890EAE5D130EAF59D8A000EF1FF002EF93
:103DFE001FF004EF1FF0ADEF1FF0AEC566F5AFC5B7
:103E0E0067F5000E696F050E686FC1EC2FF066C581
:103E1E00B0F567C5B1F59C0E0501B025B06FFF0E6C
:103E2E00B121B16FB0C566F5B1C567F5000E696F0A
:103E3E000A0E686FD1EC33F066C5B0F567C5B1F503
:103E4E00B0C566F5B1C567F5000E0501696FE80EE0
:103E5E00686FC1EC2FF066C5B0F567C5B1F5B0C59A
:103E6E00AAF50501AA51ADEF1FF0020EAB19D8A4A9
:103E7E0043EF1FF045EF1FF0ADEF1FF06F0E916F88
:103E8E00810E926FA80E936FC00E946FB30E786F63
:103E9E007B0E796F920E7A6F3F0E7B6FACC566F517
:103EAE00ADC567F5686B696B000EC3EC25F066C592
:103EBE0074F567C575F568C576F569C577F5F0ECE7
:103ECE0019F074C58DF575C58EF576C58FF577C568
:103EDE0090F507EC13F08DC59DF58EC59EF58FC53B
:103EEE009FF590C5A0F5C2EC29F09DC5AEF59EC517
:103EFE00AFF5890E0501AE5D130EAF59D8A08AEF4E
:103F0E001FF08CEF1FF08EEF1FF0ADEF1FF0D8906B
:103F1E00AE35B06FAF35B16FB0C566F5B1C567F5EB
:103F2E00000E696F640E686FC1EC2FF066C5B0F5B8
:103F3E0067C5B1F5B0C5AAF56E0E0501AA65AAEF63
:103F4E001FF0ACEF1FF038EF1FF0000E1200446EA2
:103F5E0016EF20F0FEEC35F0000EE2EC35F0000E20
:103F6E00FEEC32F001C547F502C548F5FBEC35F025
:103F7E00010E466E3BEF20F0FEEC35F0010EE2EC4A
:103F8E0035F0010EFEEC32F001C547F502C548F5DD
:103F9E00BDEF1FF0FEEC35F0020EE2EC35F0170E21
:103FAE00FEEC32F001C547F502C548F5FBEC35F0E5
:103FBE00020E466E3BEF20F0FEEC35F0030EE2EC07
:103FCE0035F0160EFEEC32F001C547F502C548F588
:103FDE00DDEF1FF0D0B8F6EF1FF0FAEF1FF0426AD8
:103FEE00422AFBEF1FF0426A4250476E486A020EA9
:103FFE00466E3BEF20F0D0B607EF20F00BEF20F02F
:10400E00426A422A0CEF20F0426A4250476E486ADA
:10401E00020E466E3BEF20F046683BEF20F0445018
:10402E00426E436A4350000AD8B420EF20F013EFDB
:10403E0020F04250000AD8B4B1EF1FF0010AD8B4F4
:10404E00C3EF1FF0030AD8B4D1EF1FF0010AD8B4A2
:10405E00E3EF1FF0070AD8B4F1EF1FF0010AD8B44E
:10406E0002EF20F013EF20F000F04604D8A442EF48
:10407E0020F044EF20F0A1EF20F0485007E1070EAA
:10408E00475CD8B04DEF20F04FEF20F055EF20F009
:10409E00000E4A6E000E496E5FEF20F047C549F5DF
:1040AE0048C54AF5FB0E4924496EFF0E4A204A6E5A
:1040BE00890E495C130E4A58D8A068EF20F06AEFBB
:1040CE0020F06CEF20F010EF21F049C501F54AC544
:1040DE0002F5000E046E050E036E70EC30F001C595
:1040EE004BF502C54CF59C0E4B244B6EFF0E4C202F
:1040FE004C6E4BC501F54CC502F5000E046E0A0E52
:10410E00036E12EC34F001C54BF502C54CF54BC5F0
:10411E0001F54CC502F5000E046EE80E036E70EC50
:10412E0030F001C54BF502C54CF54BC545F5455074
:10413E0010EF21F0020E4618D8A4A8EF20F0AAEF37
:10414E0020F010EF21F06F0E2C6E810E2D6EA80E4A
:10415E002E6EC00E2F6EB30E136E7B0E146E920E5D
:10416E00156E3F0E166E47C501F548C502F5036A7A
:10417E00046A000E9FEC26F001C50FF502C510F57E
:10418E0003C511F504C512F518EC1CF00FC528F582
:10419E0010C529F511C52AF512C52BF568EC15F0D9
:1041AE0028C538F529C539F52AC53AF52BC53BF58D
:1041BE0046EC2AF038C549F539C54AF5890E495CF1
:1041CE00130E4A58D8A0EEEF20F0F0EF20F0F2EFE9
:1041DE0020F010EF21F0D89049344B6E4A344C6EDB
:1041EE004BC501F54CC502F5000E046E640E036E50
:1041FE0070EC30F001C54BF502C54CF54BC545F5DD
:10420E006E0E45640DEF21F00FEF21F09EEF20F0C2
:10421E00000E120087EC2DF00009D8B419EF21F032
:10422E001BEF21F06CEF22F0EF0E216E050E226EC9
:10423E00A5EC31F0E806D8A427EF21F029EF21F004
:10424E006CEF22F000F0EFC551F5F0C552F5F1C557
:10425E0053F5F2C554F56100D0F7D9F46100D4F7E7
:10426E00DAF4DF505B6E050120EE01F0F451D92631
:10427E00F551DA22DF505C6E20EE02F0F451D926B1
:10428E00F551DA22DF50596E20EE03F0F451D926A3
:10429E00F551DA22DF505A6E20EE04F0F451D92691
:1042AE00F551DA22DF50586E20EE05F0F451D92682
:1042BE00F551DA22DF50576E20EE06F0F451D92672
:1042CE00F551DA22DF50556E20EE07F0F451D92663
:1042DE00F551DA22DF50566E22EF22F05BC5E8F57B
:1042EE005CC5E7F559C5EAF55AC5E6F558C5E5F5D5
:1042FE00EB05D8A485EF21F087EF21F06CEF22F0CB
:10430E00010EE96F6CEF22F05B50070BE46F5B5010
:10431E00180BE36F5B50E00BE26F5C50010BE16F2B
:10432E005C50060BE06F5C50780BDF6F59C54CF597
:10433E007F0E4C164D6A5CAE01D04D2A4D304C347A
:10434E00DE6F5A504C6E4D6AD8904C364D365850E2
:10435E004F6E4E6A4C504E124D504F12506A59AE1F
:10436E0001D0502A010E501650504E100601186FF3
:10437E004F50196F6CEF22F05BC5DDF55CC5DCF5B7
:10438E0059C5DBF55AC5DAF558C5D9F557C5D8F56F
:10439E0055C5D7F556C5D6F56CEF22F05B505CC50A
:1043AE004CF54D6A4CC54DF54C6A4C100601166F16
:1043BE004D50176F59505AC54CF54D6A4CC54DF5B9
:1043CE004C6A4C10146F4D50156F585057C54CF524
:1043DE004D6A4CC54DF54C6A4C10126F4D50136F13
:1043EE006CEF22F05BC5EBF5EB51D8A401EF22F098
:1043FE0003EF22F00DEF22F0000E436E000E426E20
:10440E00010E456E2C0E446EBBEC2BF05AC5D3F547
:10441E006CEF22F05B505CC54CF54D6A4CC54DF50A
:10442E004C6A4C100601106F4D50116F6CEF22F05C
:10443E0000F06CEF22F051C54CF552C54DF553C549
:10444E004EF554C54FF54F50000AD8B465EF22F023
:10445E001FEF22F04D50030AD8B440EF22F0070AA6
:10446E00D8B44FEF22F0010AD8B456EF22F01FEF66
:10447E0022F04C50200AD8B475EF21F0650AD8B45A
:10448E0011EF22F0020AD8B4F9EF21F01FEF22F05B
:10449E004C50120AD8B46CEF22F01FEF22F04C50A1
:1044AE00000AD8B48BEF21F0010AD8B4C3EF21F083
:1044BE00030AD8B4D5EF21F01FEF22F04E50000AB8
:1044CE00D8B431EF22F01FEF22F01200610038F461
:1044DE00D9F461003CF4DAF4610078F313F561006D
:1044EE0078F314F5610078F315F5610078F316F59D
:1044FE0020EE04F00E50D9260F50DA22DFA08AEFFC
:10450E0022F08CEF22F0C6EF22F020EE01F00C50DC
:10451E00D9260D50DA221338E842F80BF80BDF6E6D
:10452E00050E106ED8901632153214321332102E2C
:10453E0099EF22F020EE02F00C50D9260D50DA221F
:10454E0061004CF4DFF414C513F515C514F516C54A
:10455E0015F5166A20EE03F00C50D9260D50DA220E
:10456E0013501F0BDF6E050E106ED89016321532DB
:10457E0014321332102EBCEF22F0DEEF22F020EEBA
:10458E0003F00C50D9260D50DA22000EDF6E10EE1D
:10459E0002F00C50E1260D50E222DFC4E7F420EECB
:1045AE0001F00C50D9260D50DA22E7C4DFF4610079
:1045BE0030F4D9F4610034F4DAF461004CF4DFF431
:1045CE0014C513F515C514F516C515F5166A13C5DC
:1045DE0010F5070E101620EE01F00C50D9260D50D6
:1045EE00DA221050DF1220EE04F00E50D9260F50B2
:1045FE00DA22DF30E8320F0B126E20EE04F00E508E
:10460E00D9260F50DA22DFB00FEF23F013EF23F08D
:10461E00106A102A14EF23F0106A1038F00B1212E1
:10462E0020EE04F00E50D9260F50DA22DFB222EF20
:10463E0023F026EF23F0200E106E27EF23F0106AE2
:10464E001050121220EE04F00E50D9260F50DA221E
:10465E00DFBE34EF23F038EF23F0400E106E39EF4B
:10466E0023F0106A1050121220EE04F00E50D926CC
:10467E000F50DA22DFBC46EF23F04AEF23F0800E14
:10468E00106E4BEF23F0106A1050121220EE04F051
:10469E000C50D9260D50DA22610048F4DFF420EEDA
:1046AE0004F00E50D9260F50DA22DFB261EF23F05C
:1046BE0063EF23F08FEF23F0080E0C24016E000E33
:1046CE000D20026E20EE05F00E50D9260F50DA2284
:1046DE00610078F303F5610074F304F520EE04F045
:1046EE000E50D9260F50DA22DF30E8320F0B106E43
:1046FE00116A010E1024F66E260E1120F76EF86A5E
:10470E00000EF8220800F550056E066A78EC31F0BE
:10471E00120020EE04F00C50D9260D50DA22DF5094
:10472E00166E16C510F520EE04F00E50D9260F5059
:10473E00DA2210461046DF501018C30B1018DF6E29
:10474E0016B8ACEF23F0B0EF23F0106A102AB1EFD9
:10475E0023F0106A20EE04F00E50D9260F50DA2204
:10476E00DF501018FE0B1018DF6E16BAC1EF23F0D3
:10477E00C5EF23F0106A102AC6EF23F0106A20EE60
:10478E0004F00E50D9260F50DA221046DF501018C2
:10479E00FD0B1018DF6E16BCD7EF23F0DBEF23F006
:1047AE00106A102ADCEF23F0106A20EE04F00E508F
:1047BE00D9260F50DA2210321032DF5010187F0B2C
:1047CE001018DF6E16BEEEEF23F0F2EF23F0106A34
:1047DE00102AF3EF23F0106A20EE04F00E50D926C3
:1047EE000F50DA22103A10461046DF501018BF0B49
:1047FE001018DF6E20EE01F00C50D9260D50DA2283
:10480E00DF50106E070E10161050126E136A146AD7
:10481E00156A14C515F513C514F512C513F5126AEC
:10482E00610030F4D9F4610034F4DAF4DF50106E24
:10483E001050121220EE04F00E50D9260F50DA222C
:10484E00DFA02CEF24F02EEF24F06FEF24F0050EF6
:10485E00D8901236133614361536E82E2FEF24F074
:10486E0020EE03F00C50D9260D50DA22DF50106ED8
:10487E001F0E10161050121214C515F513C514F58F
:10488E0012C513F5126A20EE02F00C50D9260D5007
:10489E00DA22DF50106E10501212050ED89012361A
:1048AE00133614361536E82E55EF24F020EE01F0AF
:1048BE000C50D9260D50DA22DF50106ED8901032DF
:1048CE00D8901032D89010321F0E101610501212AF
:1048DE00610038F4D9F461003CF4DAF4610048F474
:1048EE00DEF461004CF4DEF4610050F4DEF461009D
:1048FE0054F4DEF42C0E016E060E026E080E0C241D
:10490E00036E000E0D20046E20EE04F00E50D9261C
:10491E000F50DA22DF30E8320F0B106E116A010EE3
:10492E001024F66E260E1120F76EF86A000EF8228D
:10493E000800F550056E066A78EC31F020EE05F0B1
:10494E000E50D9260F50DA222C0EDE6E060EDD6EBC
:10495E001200000E0301F96F3F0EFA6F000ED86FB2
:10496E00000EFB6F000ED96F000EDA6F000EDB6FBC
:10497E00000EDC6F000EDF6F000EE06F000EE36FB7
:10498E00000EE46F000EE56F000EE66F000EE76F8F
:10499E00000EEA6F000EEB6F000EEC6FE80EEE6F7E
:1049AE00030EEF6F000EF06F000EF16F000EF26F40
:1049BE00000EF36F000EF46F100EF56F000EF66F13
:1049CE00000EF76F000EF86F000EFC6F010EFB6FFE
:1049DE00000ED96F000EDA6F000EDB6F000EDC6F6B
:1049EE00000EDF6F000EE06F000EE36F000EE46F3F
:1049FE00000EE56F000EE66F000EE76F000EEA6F19
:104A0E00000EEB6F010EEC6FE80EEE6F030EEF6F04
:104A1E00000EF06F000EF16F000EF26F000EF36FCE
:104A2E00000EF46F100EF56F000EF66F000EF76F9E
:104A3E00000EF86F000EFD6F020EFB6F000ED96FA9
:104A4E00000EDA6F000EDB6F000EDC6F000EDF6FF4
:104A5E00000EE06F000EE36F000EE46F000EE56FC8
:104A6E00000EE66F000EE76F000EEA6F000EEB6FA2
:104A7E00170EEC6FE80EEE6F030EEF6F000EF06F79
:104A8E00000EF16F000EF26F000EF36F000EF46F5A
:104A9E00100EF56F000EF66F000EF76F000EF86F2A
:104AAE00000EFE6F030EFB6F000ED96F000EDA6F55
:104ABE00000EDB6F000EDC6F000EDF6F000EE06F7E
:104ACE00000EE36F000EE46F000EE56F000EE66F52
:104ADE00000EE76F000EEA6F000EEB6F160EEC6F16
:104AEE00E80EEE6F030EEF6F000EF06F000EF16F1B
:104AFE00000EF26F000EF36F000EF46F100EF56FD6
:104B0E00000EF66F000EF76F000EF86F000EFF6FBF
:104B1E00AF94AF96B090B092B094B096000E0501DF
:104B2E00666F000E676FD8EC35F0000E0501666FEC
:104B3E00000E676FCEEC35F0000E0501666F000EAD
:104B4E00676FC9EC35F0000E0501666F000E676FDA
:104B5E00C4EC35F0000E0501666F000E676FBFECFA
:104B6E0035F0000E0501666F000E676FD3EC35F061
:104B7E00840E0301F36F120005016E6F05016E5175
:104B8E00D8B4CCEF25F0CEEF25F0F0EF25F069BFCD
:104B9E00D5EF25F0D3EF25F0F0EF25F066C56AF5D9
:104BAE0067C56BF568C56CF569C56DF56A1F6B1F3A
:104BBE006C1F6D1F6A2B000E6B236C236D236AC551
:104BCE0070F56BC571F56CC572F56DC573F5F8EFC3
:104BDE0025F066C570F567C571F568C572F569C5CE
:104BEE0073F56651671168116911D8A401EF26F0AB
:104BFE0003EF26F00DEF26F0000E666F000E676FC6
:104C0E00000E686F000E696F9EEF26F0960E6F6FA6
:104C1E0017EF26F06F2BD8907333723371337033D6
:104C2E00000E70156A6F000E71156B6F000E721507
:104C3E006C6FFE0E73156D6F6A516B116C116D11E9
:104C4E00D8A42CEF26F02EEF26F011EF26F03CEF35
:104C5E0026F06F2B010E7027000E71237223732323
:104C6E00D8907333723371337033000E70156A6FD0
:104C7E00000E71156B6F000E72156C6FFF0E7315B3
:104C8E006D6F6A516B116C116D11D8A451EF26F036
:104C9E0053EF26F030EF26F05BEF26F06F07D8903B
:104CAE00703771377237733772BF60EF26F062EF6D
:104CBE0026F06AEF26F0020E6F6168EF26F06AEFBB
:104CCE0026F055EF26F06FB16FEF26F071EF26F05C
:104CDE0072EF26F0729FD8906F336FC56AF56B6BCB
:104CEE006C6B6D6B6AC56DF56C6B6B6B6A6B6A5139
:104CFE0070136B5171136C5172136D5173136E519E
:104D0E00D8B48CEF26F08EEF26F096EF26F069BF22
:104D1E0095EF26F093EF26F096EF26F0738F70C581
:104D2E0066F571C567F572C568F573C569F512004C
:104D3E00096E0950D8B4A6EF26F0A8EF26F0CAEFF8
:104D4E0026F004BEAFEF26F0ADEF26F0CAEF26F048
:104D5E0001C505F502C506F503C507F504C508F539
:104D6E00051E061E071E081E052A000E0622072215
:104D7E00082205C50BF506C50CF507C50DF508C5CA
:104D8E000EF5D2EF26F001C50BF502C50CF503C5E5
:104D9E000DF504C50EF50150021003100410D8A431
:104DAE00DBEF26F0DDEF26F0E7EF26F0000E016ECA
:104DBE00000E026E000E036E000E046E78EF27F0EA
:104DCE00960E0A6EF1EF26F00A2AD8900E320D32A8
:104DDE000C320B32000E0B14056E000E0C14066E08
:104DEE00000E0D14076EFE0E0E14086E0550061002
:104DFE0007100810D8A406EF27F008EF27F0EBEF06
:104E0E0026F016EF27F00A2A010E0B26000E0C22B2
:104E1E000D220E22D8900E320D320C320B32000EB5
:104E2E000B14056E000E0C14066E000E0D14076E9C
:104E3E00FF0E0E14086E0550061007100810D8A4A9
:104E4E002BEF27F02DEF27F00AEF27F035EF27F0A5
:104E5E000A06D8900B360C360D360E360DBE3AEFCE
:104E6E0027F03CEF27F044EF27F0020E0A6042EFE6
:104E7E0027F044EF27F02FEF27F00AB049EF27F085
:104E8E004BEF27F04CEF27F00D9ED8900A320AC553
:104E9E0005F5066A076A086A05C508F5076A066A0F
:104EAE00056A05500B1206500C1207500D120850D1
:104EBE000E120950D8B466EF27F068EF27F070EFA6
:104ECE0027F004BE6FEF27F06DEF27F070EF27F09D
:104EDE000E8E0BC501F50CC502F50DC503F50EC5FD
:104EEE0004F5120001011DAF7FEF27F081EF27F0CF
:104EFE0090EF27F002D88EEF27F00500FA6E05012D
:104F0E00BA51FD6EBB51FE6EFF6AFA5012000101DE
:104F1E001D9F1DAD95EF27F097EF27F0A6EF27F019
:104F2E0002D8A4EF27F00500FA6E0501B851FD6E08
:104F3E00B951FE6EFF6AFA50120001011D9D1DABA4
:104F4E00ABEF27F0ADEF27F0BCEF27F002D8BAEFAA
:104F5E0027F00500FA6E0501B651FD6EB751FE6ED3
:104F6E00FF6AFA50120001011D9B1CA7C1EF27F02A
:104F7E00C3EF27F0D2EF27F002D8D0EF27F00500CD
:104F8E00FA6E0501B451FD6EB551FE6EFF6AFA5010
:104F9E00120001011C971DA9D7EF27F0D9EF27F0BA
:104FAE00E8EF27F002D8E6EF27F00500FA6E0501CC
:104FBE00B251FD6EB351FE6EFF6AFA50120001013E
:104FCE001D991DA5EDEF27F0EFEF27F005EF28F067
:104FDE0002D8FCEF27F00500FA6E06012251FD6E95
:104FEE002351FE6EFF6AFA501200010154A902EF1E
:104FFE0028F004EF28F005EF28F054991DA70AEFCA
:10500E0028F00CEF28F022EF28F002D819EF28F044
:10501E000500FA6E06012051FD6E2151FE6EFF6AEB
:10502E00FA501200010160A71FEF28F021EF28F0BF
:10503E0022EF28F06097AE9C12006100E8F360F555
:10504E006100ECF361F56100D8F362F56100DCF309
:10505E0063F56100E0F364F56100D4F365F5A1AE8C
:10506E003BEF28F03DEF28F048EF28F0B1AE42EFCD
:10507E0028F044EF28F048EF28F0E7EC35F0A2EFE7
:10508E0028F09FA04DEF28F04FEF28F05AEF28F0B0
:10509E00AFA054EF28F056EF28F05AEF28F0EBECC3
:1050AE0035F0A2EF28F0A1A65FEF28F061EF28F00F
:1050BE006CEF28F0B1A666EF28F068EF28F06CEFE1
:1050CE0028F04EEC35F0A2EF28F09EAC71EF28F0F0
:1050DE0073EF28F07EEF28F0AEAC78EF28F07AEF81
:1050EE0028F07EEF28F079EC27F0A2EF28F0A2A8A6
:1050FE0083EF28F085EF28F090EF28F0B2A88AEF22
:10510E0028F08CEF28F090EF28F0E7EC33F0A2EFC8
:10511E0028F0A1A895EF28F097EF28F0A2EF28F03D
:10512E00B1A89CEF28F09EEF28F0A2EF28F0ECEC4F
:10513E002DF0A2EF28F0610094F5F5F4610090F5E2
:10514E00F8F461008CF5F7F4610088F5F6F461006F
:10515E0084F5FBF4610080F5FAF41100000E0501F0
:10516E006F6F6DBFBFEF28F0BDEF28F0C9EF28F0CD
:10517E006D1F6C1F6B1F6A6D000E6B236C236D23EE
:10518E00010E6F6F69BFD0EF28F0CEEF28F0DAEF87
:10519E0028F0691F681F671F666D000E672368235E
:1051AE006923010E6F1B000E706F000E716F000EE3
:1051BE00726F000E736F6A516B116C116D11D8B452
:1051CE00EBEF28F0EDEF28F023EF29F0010E6E6FD4
:1051DE00F7EF28F0D8906A376B376C376D376E2B38
:1051EE006DAFFCEF28F0FEEF28F0F1EF28F0D8902D
:1051FE0070377137723773376A51665D6B51675905
:10520E006C5168596D516959D8A010EF29F012EF01
:10521E0029F01BEF29F06A51665F6B51675B6C5189
:10522E00685B6D51695B7081D8906D336C336B33F5
:10523E006A336E2FFEEF28F06F51D8B429EF29F0A4
:10524E002BEF29F033EF29F0731F721F711F706D52
:10525E00000E71237223732370C566F571C567F551
:10526E0072C568F573C569F51200000E0A6E08BEA8
:10527E0045EF29F043EF29F04FEF29F0081E071EE6
:10528E00061E056C000E062207220822010E0A6E6B
:10529E0004BE56EF29F054EF29F060EF29F0041EFA
:1052AE00031E021E016C000E022203220422010EB6
:1052BE000A1A000E0B6E000E0C6E000E0D6E000E16
:1052CE000E6E0550061007100810D8B471EF29F0B5
:1052DE0073EF29F0A9EF29F0010E096E7DEF29F089
:1052EE00D8900536063607360836092A08AE82EFFC
:1052FE0029F084EF29F077EF29F0D8900B360C3691
:10530E000D360E360550015C0650025807500358F4
:10531E0008500458D8A096EF29F098EF29F0A1EF85
:10532E0029F00550015E0650025A0750035A0850E4
:10533E00045A0B80D8900832073206320532092EF5
:10534E0084EF29F00A50D8B4AFEF29F0B1EF29F06D
:10535E00B9EF29F00E1E0D1E0C1E0B6C000E0C224A
:10536E000D220E220BC501F50CC502F50DC503F578
:10537E000EC504F5120005019F35A035A66FA65186
:10538E00D8A4CCEF29F0CEEF29F0D8EF29F0000EFB
:10539E009D6F000E9E6F000E9F6F000EA06F45EF6B
:1053AE002AF09DC5A1F59EC5A2F59FC5A3F5A0C582
:1053BE00A4F5200EE8EF29F0D890A433A333A2333E
:1053CE00A133E82EE3EF29F0A151A56F9F8FFF0EB9
:1053DE009D17FF0E9E17FF0E9F17000EA017960E1D
:1053EE00A65FA6BFFFEF29F0FDEF29F015EF2AF01B
:1053FE00A651800A970FD8B007EF2AF009EF2AF0CE
:10540E000BEF2AF0CEEF29F0D890A0339F339E33C6
:10541E009D33A63F0BEF2AF02DEF2AF01F0EA66547
:10542E001BEF2AF01DEF2AF025EF2AF0CEEF29F020
:10543E00D8909D379E379F37A037A607A651D8A480
:10544E002BEF2AF02DEF2AF01FEF2AF0A551D8B43A
:10545E0033EF2AF035EF2AF03DEF2AF0A01F9F1F01
:10546E009E1F9D6D000E9E239F23A0239DC59DF51F
:10547E009EC59EF59FC59FF5A0C5A0F512003A34B6
:10548E003B34416E4150D8A44FEF2AF051EF2AF031
:10549E005BEF2AF0000E386E000E396E000E3A6E7B
:1054AE00000E3B6EC8EF2AF038C53CF539C53DF508
:1054BE003AC53EF53BC53FF5200E6BEF2AF0D8906E
:1054CE003F323E323D323C32E82E66EF2AF03C50FF
:1054DE00406E3A8EFF0E3816FF0E3916FF0E3A1634
:1054EE00000E3B16960E415E41BE82EF2AF080EF13
:1054FE002AF098EF2AF04150800A970FD8B08AEF21
:10550E002AF08CEF2AF08EEF2AF051EF2AF0D89085
:10551E003B323A3239323832413E8EEF2AF0B0EF1A
:10552E002AF01F0E41649EEF2AF0A0EF2AF0A8EF9A
:10553E002AF051EF2AF0D890383639363A363B36C3
:10554E0041064150D8A4AEEF2AF0B0EF2AF0A2EFF8
:10555E002AF04050D8B4B6EF2AF0B8EF2AF0C0EFD8
:10556E002AF03B1E3A1E391E386C000E39223A22A2
:10557E003B2238C538F539C539F53AC53AF53BC53C
:10558E003BF51200490E0501666F990E676F000E0E
:10559E00686F000E696FA9C56AF5AAC56BF56C6BCD
:1055AE006D6BB5EC28F066C5ADF567C5AEF56A0E48
:1055BE000501916F4D0E926F930E936FBF0E946F08
:1055CE00ADC566F5AEC567F5686B696B000EC3ECCD
:1055DE0025F066C58DF567C58EF568C58FF569C56D
:1055EE0090F507EC13F08DC59DF58EC59EF58FC514
:1055FE009FF590C5A0F5C2EC29F09DC5ADF59EC5F1
:10560E00AEF5A7C5ABF5A8C5ACF50501D890AB377F
:10561E00AC37D890AB37AC37ABC5AFF5ACC5B0F542
:10562E00AFC566F5B0C567F5000E696F640E686F9D
:10563E00D1EC33F066C5AFF567C5B0F5AFC566F50D
:10564E00B0C567F5A9C568F5AAC569F5C1EC2FF017
:10565E0066C5AFF567C5B0F5AFC566F5B0C567F5FC
:10566E0033EC35F0ADC566F5AEC567F52CEC35F00F
:10567E0006EC36F01200490E0501666F990E676F43
:10568E00000E686F000E696FA9C56AF5AAC56BF5A5
:10569E006C6B6D6BB5EC28F066C5ADF567C5AEF5F8
:1056AE006A0E0501916F4D0E926F930E936FBF0EA2
:1056BE00946FADC566F5AEC567F5686B696B000E88
:1056CE00C3EC25F066C58DF567C58EF568C58FF5FB
:1056DE0069C590F507EC13F08DC59DF58EC59EF549
:1056EE008FC59FF590C5A0F5C2EC29F09DC5ADF50F
:1056FE009EC5AEF5A7C5ABF5A8C5ACF50501D8900E
:10570E00AB37AC37D890AB37AC37ABC5AFF5ACC514
:10571E00B0F5AFC566F5B0C567F5000E696F640EDE
:10572E00686FD1EC33F066C5AFF567C5B0F5AFC5A0
:10573E0066F5B0C567F5A9C568F5AAC569F5C1ECEA
:10574E002FF066C5AFF567C5B0F5AFC566F5B0C548
:10575E0067F541EC35F0ADC566F5AEC567F53AECCB
:10576E0035F00CEC36F01200490E016E990E026EF9
:10577E00000E036E000E046E44C505F545C506F514
:10578E00076A086A3CEC29F001C548F502C549F5DF
:10579E006A0E2C6E4D0E2D6E930E2E6EBF0E2F6E4C
:1057AE0048C501F549C502F5036A046A000E9FEC6F
:1057BE0026F001C528F502C529F503C52AF504C54D
:1057CE002BF568EC15F028C538F529C539F52AC52D
:1057DE003AF52BC53BF546EC2AF038C548F539C5E8
:1057EE0049F542C546F543C547F5D8904636473686
:1057FE00D8904636473646C54AF547C54BF54AC595
:10580E0001F54BC502F5000E046E640E036E12EC2C
:10581E0034F001C54AF502C54BF54AC501F54BC535
:10582E0002F544C503F545C504F570EC30F001C52D
:10583E004AF502C54BF54AC501F54BC502F55AECC2
:10584E0035F048C501F549C502F554EC35F00EECBE
:10585E0036F01200206E000E1C6E1750D7EC34F08E
:10586E001F6E1FA03DEF2CF03FEF2CF0A5EF2CF09C
:10587E0017500C0D580EF324D96E010EF420DA6E6B
:10588E00610078F31DF5610074F31EF51D501E10B6
:10589E00D8B454EF2CF056EF2CF0A5EF2CF01DC51C
:1058AE000CF51EC50DF518C50EF519C50FF590ECC6
:1058BE0023F017500C0D510EF324D96E010EF42067
:1058CE00DA6E000EDB802050020DF90EF324D96E35
:1058DE00050EF420DA6EDF2A1750A3EC34F01A6EA0
:1058EE002050020DF90EF324D96E050EF420DA6E57
:1058FE001A50DE5CD8A086EF2CF088EF2CF092EFD9
:10590E002CF02050020DF90EF324D96E050EF42062
:10591E00DA6E000EDF6E1FA697EF2CF099EF2CF0CB
:10592E00A3EF2CF017500C0D540EF324D96E010E6C
:10593E00F420DA6EF70EDF16010E1C6E1C501200EC
:10594E0022C524F623C525F624C526F625C527F639
:10595E0026C528F627C529F628C52AF629C52BF609
:10596E001DC534F61EC535F61FC536F620C537F6ED
:10597E000601389D389F3893388121C52AF50F0EC0
:10598E002A162A462A4638512A18C30B2A18386F67
:10599E00240E396F060E3A6F04EC35F0E806D8A4E3
:1059AE00DBEF2CF0DDEF2CF0E0EF2CF000F0010E31
:1059BE005F6EF9EC34F0E806D8A4E8EF2CF0EAEFCD
:1059CE002CF0EDEF2CF000F0010E5F6EEEEC34F0EB
:1059DE00E806D8A4F5EF2CF0F7EF2CF0FAEF2CF048
:1059EE0000F0010E5F6EB2EC34F0E806D8A402EFC0
:1059FE002DF004EF2DF007EF2DF000F0010E5F6E8D
:105A0E00000E4FEC34F02A6E2AA010EF2DF012EF9C
:105A1E002DF01AEF2DF0340E176E060E186E000EC6
:105A2E003AEC2FF000F01200076E000E086E20EE1A
:105A3E0004F00250D9260350DA22DF50096E09AE67
:105A4E002BEF2DF02DEF2DF038EF2DF0DDEC35F0A6
:105A5E00060AD8A435EF2DF037EF2DF038EF2DF0E4
:105A6E0008820930E8320F0B046E080E046442EF10
:105A7E002DF044EF2DF056EF2DF009AC49EF2DF03F
:105A8E004BEF2DF055EF2DF0DDEC35F0060AD8A4D6
:105A9E0053EF2DF055EF2DF056EF2DF00880090E37
:105AAE00F66E260EF76EF86A08006100D4F304F560
:105ABE000930E8320F0B056E066A010E0524F66EEC
:105ACE00260E0620F76EF86A000EF8220800F55032
:105ADE00045CD8B075EF2DF077EF2DF078EF2DF048
:105AEE0008800750CBEC34F00009D8A481EF2DF0DC
:105AFE0083EF2DF085EF2DF0030E081208501200E3
:105B0E00000E036E000E0A6E0A50020DF80EF324FC
:105B1E00D96E050EF420DA6EDF50066E0650D7EC05
:105B2E0034F0056E05A09EEF2DF0A0EF2DF0E1EF05
:105B3E002DF00650A3EC34F0076E05A6A9EF2DF05C
:105B4E00ABEF2DF0AFEF2DF007C504F5DFEF2DF025
:105B5E0006500C0D550EF324D96E010EF420DA6E9C
:105B6E00DF501F0B086E0A50020DF90EF324D96E8A
:105B7E00050EF420DA6EDF50096E0950085CD8B0BD
:105B8E00CBEF2DF0CDEF2DF0D3EF2DF00950085CBB
:105B9E000724046EDFEF2DF00850095CD8B0DAEF61
:105BAE002DF0DCEF2DF0ABEF2DF00950085C046EFC
:105BBE00045003260A2A0A50D8B4E8EF2DF0EAEF73
:105BCE002DF08BEF2DF003501200B198F6C501F5B4
:105BDE00F7C502F575EC33F08CEC33F0F8EC35F0DC
:105BEE000501EE2B060EEE19D8A400EF2EF002EFF3
:105BFE002EF006EF2EF0000EEE6F19EC32F00501CE
:105C0E00ED2B0B0EED19D8A40FEF2EF011EF2EF099
:105C1E0015EF2EF0000EED6FF0EC2EF00501EC2BD3
:105C2E00650EEC19D8A41EEF2EF020EF2EF024EF07
:105C3E002EF0000EEC6F16EC36F006011E4B1F2BED
:105C4E002D0E1E1906E11F05D8A430EF2EF032EFEF
:105C5E002EF038EF2EF0000E1F6F000E1E6F14EC9C
:105C6E0036F006011C4B1D2B590E1C1907E1020EB6
:105C7E001D19D8A445EF2EF047EF2EF04DEF2EF064
:105C8E00000E1D6F000E1C6F15EC36F01200000E8C
:105C9E00AEEC1FF04D6E4D5006010E6F0F6B000EE9
:105CAE00026E0A0E016EA3EC33F0010EAEEC1FF085
:105CBE004D6E4D5006010C6F0D6B000E026E0A0EEE
:105CCE00016EA3EC33F0020EAEEC1FF04D6E4D5094
:105CDE0006010A6F0B6B000E026E0A0E016EA3EC2C
:105CEE0033F0030EAEEC1FF04D6E4D500601086FF3
:105CFE00096B000E026E0A0E016EA3EC33F0040E59
:105D0E00AEEC1FF04D6E4D500601066F076B000E88
:105D1E00026E0A0E016EA3EC33F0050EAEEC1FF010
:105D2E004D6E4D500601046F056B000E026E0A0E8D
:105D3E00016EA3EC33F000F012000501686F000E47
:105D4E000501676F97EC35F00501666F040E661955
:105D5E00D8B4B4EF2EF0B6EF2EF0C7EF2EF06805E4
:105D6E00D8B4BCEF2EF0BEEF2EF0C7EF2EF0040E1F
:105D7E006819D8A4C5EF2EF0C7EF2EF0ECEF2EF079
:105D8E000101035105016819F80B68190101036F30
:105D9E00DEEF2EF001011DA9D7EF2EF0D9EF2EF078
:105DAE00DEEF2EF0020E0501676FEEEF2EF00239D8
:105DBE00E832070B05016819D8A4E8EF2EF0EAEFD8
:105DCE002EF0D1EF2EF0EEEF2EF0010E676F675131
:105DDE001200BEB8F5EF2EF0F8EF2EF0010EF9EF2F
:105DEE002EF0000EFF0A2B6E2B3ABE502B18EF0B27
:105DFE002B18BE6E620E1D6E030E1E6E000E1F6EF3
:105E0E00000E206E080E216ED5C522F5D4C523F5E1
:105E1E00C4C524F5000E256E000E266E000E276EEC
:105E2E00000E286E000E296EA7EC2CF0600E1D6E73
:105E3E00030E1E6E000E1F6E000E206E080E216EDB
:105E4E000EC622F50CC623F50AC624F508C625F59E
:105E5E0006C626F504C627F502C628F500C629F59E
:105E6E00A7EC2CF012001C6E1C5079EC32F00009DD
:105E7E00D8B444EF2FF046EF2FF083EF2FF017C575
:105E8E0002F518C503F51C501BEC2DF0196E1950B8
:105E9E00D8A454EF2FF056EF2FF083EF2FF01C50B5
:105EAE000C0D580EF324D96E010EF420DA6E61003B
:105EBE0078F31AF5610074F31BF51A501B10D8B461
:105ECE006BEF2FF06DEF2FF083EF2FF01AC50CF55F
:105EDE001BC50DF517C50EF518C50FF56DEC22F0A7
:105EEE001C500C0D510EF324D96E010EF420DA6EF7
:105EFE00030EDF1283EF2FF012003A0E0501666FCC
:105F0E006C0E676FB0EC35F03C0E0501666F6C0ED3
:105F1E00676FB5EC35F03E0E0501666F6C0E676F60
:105F2E00BAEC35F0380E0501666F6C0E676FABEC90
:105F3E0035F0340E0501666F6C0E676FA1EC35F00F
:105F4E00320E0501666F6C0E676F9CEC35F0360EE7
:105F5E000501666F6C0E676FA6EC35F0AE9C000EF9
:105F6E0001011C6F000E1D6F0A0E1E6FFC0E1F6FBF
:105F7E009E8C1200000E05016C6F000E6B6F685147
:105F8E006911D8B4CDEF2FF0CFEF2FF0F7EF2FF040
:105F9E00010E6A6FD7EF2FF0D890683769376A2BEA
:105FAE0069AFDCEF2FF0DEEF2FF0D3EF2FF0D890AC
:105FBE006B376C376851665D69516759D8A0EAEF47
:105FCE002FF0ECEF2FF0F1EF2FF06851665F695173
:105FDE00675B6B81D890693368336A2FDEEF2FF0E1
:105FEE006BC566F56CC567F51200000E6F6E020E7E
:105FFE00706E000E716E500E726E0F0E736EFE0E80
:10600E00746E000E756E000E766E000E776E000EBC
:10601E00796E0D0E7A6E050E7B6EA80E7C6E070ED7
:10602E007D6EB39CB39E76907692A39EA39C000E3B
:10603E000501666F000E676F74EC35F0000E0501FA
:10604E00666F000E676F6FEC35F0000E0501666F20
:10605E00000E676F79EC35F0800E786E1200000E30
:10606E00606E020E616E000E626E3D0E636E000E6D
:10607E00646EFE0E656E000E666E000E676E000E8E
:10608E00686E000E6A6E1F0E6B6E000E6C6E1F0E2B
:10609E006D6E000E6E6EB29CB29E67906792A29E5F
:1060AE00A29C000E0501666F000E676F83EC35F043
:1060BE00000E0501666F000E676F7EEC35F0000E68
:1060CE000501666F000E676F88EC35F0800E696E05
:1060DE001200000E066E000E056E03500410D8B4AA
:1060EE007BEF30F07DEF30F0A5EF30F0010E076E54
:1060FE0085EF30F0D89003360436072A04AE8AEFC7
:10610E0030F08CEF30F081EF30F0D8900536063657
:10611E000350015C04500258D8A098EF30F09AEF6B
:10612E0030F09FEF30F00350015E0450025A0580AC
:10613E00D89004320332072E8CEF30F005C501F5EE
:10614E0006C502F51200000EBE6E000EBF6E000EEA
:10615E00C06E080ECA6EEF0EC66EC80EC76EDC0E8F
:10616E00C86ED80E0401106F400E086FCF0E006F70
:10617E00000E216F000E096F000E016F000E116FE1
:10618E00000E026F000E0A6F000E126F03690B698C
:10619E00136904690C691469080E246F180E020144
:1061AE00116F0F0E696F050E3E6F1A0E126F0B0EEA
:1061BE003D6F460E0D6F12000501B16F0501CC0546
:1061CE00D8A4ECEF30F0EEEF30F01AEF31F0EB0533
:1061DE00D8A4F4EF30F0F6EF30F01AEF31F0B15101
:1061EE003C0D6100CCF35DF56100D0F35EF55DC54D
:1061FE0066F55EC567F5000E696F640E686FC1ECDB
:10620E002FF066C55DF567C55EF55D505D6E5E6A25
:10621E005DC5A7F55EC5A8F5010E0501AA6F2C0E8A
:10622E00A96FC9EC2AF012000501B16F32EF31F0FF
:10623E000AEC36F049EF31F008EC36F0000E0501AD
:10624E00A86F320EA76F000EAA6F1E0EA96F42EC3A
:10625E002BF049EF31F00501B1510601556F566B28
:10626E005651000AD8B43EEF31F049EF31F0555196
:10627E00000AD8B41FEF31F0010AD8B423EF31F081
:10628E0049EF31F012000101018F040EA4EC2EF043
:10629E000009D8A455EF31F057EF31F077EF31F018
:1062AE00000E01014C6F260E4D6F000E4E6F000E4C
:1062BE004F6F600E006F970E016F100E026F19EC8C
:1062CE0035F00FEC35F0FDEC33F063EC34F047ECC9
:1062DE0033F084EC2FF0060EA4EC2EF0C79ABF9A82
:1062EE00120003C509F504C50AF501C507F502C577
:1062FE0008F597EF31F0610024F4D9F4610028F429
:10630E00DAF4DF500B6E094A0A2A61001CF4D9F444
:10631E00610020F4DAF461002CF4DFF4074A082A55
:10632E000506D8A00606052806E10628D8A4A2EF81
:10633E0031F0A4EF31F082EF31F01200000E246E36
:10634E002450020DF80EF324D96E050EF420DA6EE9
:10635E00DF50176E21C518F522C519F5245031EC02
:10636E002CF0236E2350D8B4BFEF31F0C1EF31F0D3
:10637E00C3EF31F0CCEF31F0242A2450D8B4CAEF59
:10638E0031F0CCEF31F0A7EF31F023501200200E98
:10639E00F66E6C0EF76E000EF86E09006100D4F307
:1063AE00F8F509006100D4F3F9F501EE00F23B0EA9
:1063BE00EE6AE806FDE101EEB2F1440EEE6AE80681
:1063CE00FDE15F6A5E6A5D6A0401080E5D6F000E94
:1063DE005E6F000E5F6F00013BEF32F0000E0301A7
:1063EE001F6F000E206F010E216F850E1D6FEE0EBA
:1063FE001C6FB1981C51600074FC68F50501696B47
:10640E0068C569F5686B6811F66F6951F76FA188F9
:10641E00260E666F6C0E676F65EC35F0310E03015C
:10642E001E6F120074EC34F0000E0501E96F610E60
:10643E001D6E030E1E6E000E1F6E000E206E080ED9
:10644E00216E000E226E000E236E000E246E000EC4
:10645E00256E000E266E000E276E000E286ED1C51C
:10646E0029F5A7EC2CF01200CCEC32F0D68E000EF3
:10647E002FEC33F085EC34F0EFEC35F094EC34F097
:10648E00C8EC17F000F00501EB05D8A451EF32F07F
:10649E0053EF32F049EF32F0EA51E3EC30F049EFCE
:1064AE0032F00DEF00F005016A6F6100A8F5ECF314
:1064BE000301F38FF39DF381F3B168EF32F06AEFCE
:1064CE0032F063EF32F0EB510501696F686B030137
:1064DE00EA5105016825666F0301000E0501692169
:1064EE00676F1200026E000E016E040E026082EFE4
:1064FE0032F084EF32F096EF32F002500C0D500E67
:10650E00F324D96E010EF420DA6E0101DFAE92EFA4
:10651E0032F094EF32F096EF32F0010E016E015030
:10652E001200A3EF32F0040E0501686F3D0EE82E47
:10653E00FED7682FFCD700D005016607D8A06707E5
:10654E00662906E16729D8A4AFEF32F0B1EF32F039
:10655E009AEF32F01200000ECEBA010E0501D16F85
:10656E00D105D8A4BDEF32F0BFEF32F0CBEF32F051
:10657E00000EAEEC1FF00501D06F010EAEEC1FF059
:10658E000501CF6F5DC5D2F5120004EC36F03BEC81
:10659E0034F0B0EC24F0AAEC30F0BFEC34F017EC91
:1065AE0033F0F5EC31F0E3EC34F027EC34F0FCECA6
:1065BE002FF04AEC31F036EC30F01200B2EC32F043
:1065CE00060153515411D8B4EFEF32F0F1EF32F01F
:1065DE00FDEF32F002D8FDEF32F00500FA6E5351A6
:1065EE00FD6E5451FE6EFF6AFA5012001200056ED7
:1065FE00610014F4ECF30301F38FF39DF381F3B117
:10660E000BEF33F00DEF33F006EF33F0EB51046E7A
:10661E00036AEA510324016E000E0420026E12007A
:10662E00010E0301266F000E256F000E276FC20E9E
:10663E00236F000E226FB196A186220E0501666FA2
:10664E006C0E676F60EC35F0F00E0301246F1200D4
:10665E000501666F05016605D8A438EF33F03AEFF1
:10666E0033F03DEF33F09E8C46EF33F06651D8A4F5
:10667E0043EF33F045EF33F046EF33F09E9C1200BC
:10668E00000E0501666F6651020DF90EF324D96EE8
:10669E00050EF420DA6E000EDF6E662B6651D8B44E
:1066AE005BEF33F05DEF33F04AEF33F0120006018B
:1066BE003D513E11D8B466EF33F068EF33F074EF0E
:1066CE0033F002D874EF33F00500FA6E3D51FD6ED3
:1066DE003E51FE6EFF6AFA501200120003011EA513
:1066EE007BEF33F07DEF33F086EF33F01E910250E7
:1066FE001D6F610004F41CF31E818BEF33F002500A
:10670E001D6F610004F41CF3120006013F5140118D
:10671E00D8B494EF33F096EF33F0A2EF33F002D803
:10672E00A2EF33F00500FA6E3F51FD6E4051FE6E42
:10673E00FF6AFA5012001200ACEF33F0040E036E33
:10674E003E0EE82EFED7032EFCD70106D8A0020679
:10675E00012806E10228D8A4B7EF33F0B9EF33F0E1
:10676E00A5EF33F0120006013B513C11D8B4C2EF35
:10677E0033F0C4EF33F0D0EF33F002D8D0EF33F074
:10678E000500FA6E3B51FD6E3C51FE6EFF6AFA50EB
:10679E00120012000501665168036100CCF36AF520
:1067AE006100D0F36BF566516903F3506B276751A7
:1067BE006803F3506B276AC566F56BC567F5120063
:1067CE00010160A1EDEF33F0EFEF33F0FCEF33F0AA
:1067DE0002D8FCEF33F00500FA6E0501BC51FD6ED8
:1067EE00BD51FE6EFF6AFA5012001200190E010121
:1067FE005C6F040E5D6F600E5E6F050E5F6F020EB6
:10680E000501666F6C0E676F92EC35F001011E8309
:10681E00B298A2881200015003026100CCF305F574
:10682E006100D0F306F501500402F3500626025023
:10683E000302F350062605C501F506C502F5120042
:10684E00440E03011B6F9B0E196F000E186FB19E45
:10685E00A18E2E0E0501666F6C0E676F6AEC35F019
:10686E00800E03011A6F1200000E0001606F000E01
:10687E00616F000E626F000E636F000E646F000E8C
:10688E00656F000E666F000E676F000E686F120068
:10689E00046E000E036E045079EC32F00009D8B489
:1068AE005BEF34F05DEF34F061EF34F00450CBEC7D
:1068BE0034F0036E035012005F0E0101946F956960
:1068CE0096699769000E986F000E996F000E9A6F79
:1068DE00000E9B6F810E816F120000F00501E9051D
:1068EE00D8A47CEF34F07EEF34F082EF34F0010E5A
:1068FE00CC6F84EF34F0000ECC6F120004010081D7
:10690E000083108F108D10891087C698C790C7947A
:10691E00C792C79AC884C89A1200BF84BF82010E5C
:10692E001BEC31F0C08A010E0501676FF40E666F25
:10693E0098EC32F0C09A1200026E02500C0D530EFB
:10694E00F324D96E010EF420DA6EDF50016E1F0EA5
:10695E00011601281200F9EC34F00009D8B4BAEF90
:10696E0034F0BDEF34F0010EBEEF34F0000E120025
:10697E00700E0001AD6F000EAF6F000EB36F020E02
:10698E00B16F000EB06F1200016E01500C0D540E5F
:10699E00F324D96E010EF420DA6EDF50010B1200D3
:1069AE00016E01500C0D540EF324D96E010EF4201D
:1069BE00DA6EDF50090B1200AF90D680300E050153
:1069CE00666F6C0E676F8DEC35F09F8012000101C3
:1069DE0036B5F4EF34F0F7EF34F0010EF8EF34F093
:1069EE00000E1200010136B9FFEF34F002EF35F060
:1069FE00010E03EF35F0000E1200010136BB0AEF57
:106A0E0035F00DEF35F0010E0EEF35F0000E1200E1
:106A1E00100E0101506F040E516F610E526F050E74
:106A2E00536F1200010E0101046F010E056F060E69
:106A3E00066F000E076F12000501666F66C5C4F57E
:106A4E00C08A030E0501D46F1200610098F563F43D
:106A5E0005016751646E1200610098F56BF4050133
:106A6E0067516C6E1200610098F572F40501675162
:106A7E00736E1200610098F57AF4050167517B6E12
:106A8E0012000501666F610098F5FBF31200B196D6
:106A9E005EEC33F012EC36F01200610004F463F495
:106AAE000250646E1200610004F46BF402506C6EBE
:106ABE00120066C53DF667C53EF6120066C53FF686
:106ACE0067C540F6120066C53BF667C53CF6120078
:106ADE0066C543F667C544F6120066C545F667C53A
:106AEE0046F6120066C541F667C542F6120066C547
:106AFE00C0F567C5C1F5120066C5C2F567C5C3F519
:106B0E00120066C5BEF567C5BFF5120066C553F621
:106B1E0067C554F6120066C5BCF567C5BDF5120013
:106B2E0001010239E832070B120066C522F667C56D
:106B3E0023F6120066C5B2F567C5B3F5120066C539
:106B4E0020F667C521F6120066C5B4F567C5B5F522
:106B5E00120066C5BAF567C5BBF5120066C5B8F575
:106B6E0067C5B9F5120066C5B6F567C5B7F512006B
:106B7E0066C549F667C54AF6120066C54BF667C587
:106B8E004CF6120066C54DF667C54EF6120066C588
:106B9E004FF667C550F6120066C547F667C548F64C
:106BAE00120066C551F667C552F612000101023990
:106BBE00E832070B1200016E610004F4FBF31200C1
:106BCE00B19EBAEC33F01200AF90E5EC32F0120049
:106BDE0003011A9F12000301F39112000301F39BAC
:106BEE0012004EEC2EF012000301F391120003017D
:106BFE00F39B120011EC21F01200D69A1200698458
:106C0E001200788E1200789E120078841200698429
:106C1E0012000100120012001200120012001200E7
:106C2E0012001200120012001200120012001200C6
:026C3E00120042
:020000040020DA
:10000000FF0FFF0FFF0FFF0FFF0FFF0FFF0FFF0F80
:10001000FF0FFF0FFF0FFF0FFF0FFF0FFF0FFF0F70
:020000040030CA
:10000000FAEFF7DF9FFFFFFFFFFFFFFFFFFFFFFF9D
:10001000FFFFFFFFFFFFFFFFFFFFFFFFFFFFFFFFF0
:04002000FFFFFFFFE0
:00000001FF
