:020000040000FA
:040000000DEF00F010
:040008007CEF1EF07B
:06001800FF0042EF23F09F
:0D2600000000010203040506070850010058
:10260E002B50800B346E2B502B24366E2AAE12EFCD
:10261E0013F014EF13F015EF13F036803650D8B4D4
:10262E001BEF13F01DEF13F032EF13F03628D8A482
:10263E0023EF13F025EF13F02DEF13F0000E286E9D
:10264E00000E296E000E2A6E000E2B6E2A8E000EC4
:10265E002B6E3AEF13F0000E286E000E296E000E50
:10266E002A6E000E2B6E2F50800B356E345035189F
:10267E00D8B444EF13F046EF13F047EF13F0348C59
:10268E002F502F24356E2EAE4FEF13F051EF13F067
:10269E0052EF13F035803550D8B458EF13F05AEF8F
:1026AE0013F06FEF13F03528D8A460EF13F062EF3C
:1026BE0013F06AEF13F0000E2C6E000E2D6E000E4E
:1026CE002E6E000E2F6E2E8E000E2F6E77EF13F0E5
:1026DE00000E2C6E000E2D6E000E2E6E000E2F6E46
:1026EE003650355CD8B07EEF13F080EF13F0A7EFC5
:1026FE0013F034AC85EF13F087EF13F089EF13F07E
:10270E00800E341A36C537F535C536F537C535F56D
:10271E0028C537F52CC528F537C52CF529C537F54D
:10272E002DC529F537C52DF52AC537F52EC52AF540
:10273E0037C52EF52BC537F52FC52BF537C52FF51C
:10274E00000E376E365035C530F5316A305E000EEC
:10275E00315A31BEBCEF13F0315009E11A0E305C24
:10276E00D8A0BCEF13F0BEEF13F0F5EF13F0285026
:10277E0029102A102B10D8A4C7EF13F0CAEF13F0AC
:10278E00010ECBEF13F0000E376E000E286E000E0A
:10279E00296E000E2A6E000E2B6E35C536F5FEEF35
:1027AE0013F037A0DDEF13F0DFEF13F0E5EF13F0CA
:1027BE00D89037300109376EE7EF13F0D8903732E3
:1027CE0028A0ECEF13F0EEEF13F0EFEF13F0378ECF
:1027DE002B342B322A3229322832362A3550365CA7
:1027EE00D8A0FCEF13F0FEEF13F0D8EF13F034BCCB
:1027FE0003EF14F005EF14F045EF14F03650D8A4A3
:10280E000BEF14F00DEF14F017EF14F0000E286E0E
:10281E00000E296E000E2A6E000E2B6E66EF15F05E
:10282E002C5028262D5029222E502A222F502B2272
:10283E002BA024EF14F026EF14F0D2EF14F037A0F3
:10284E002BEF14F02DEF14F033EF14F0D890373047
:10285E000109376E35EF14F0D890373228A03AEFD1
:10286E0014F03CEF14F03DEF14F0378E2B342B3276
:10287E002A3229322832362AD2EF14F02C50285C14
:10288E002D5029582E502A582B50800A306E2F501A
:10289E00800A3058D8B056EF14F058EF14F083EF8A
:1028AE0014F028502C5C306E29502D58316E2A5061
:1028BE002E58326E2B502F58336EFF0E3024286E4A
:1028CE00FF0E3120296EFF0E32202A6EFF0E3320AE
:1028DE002B6E800E341A376C3750D8A479EF14F063
:1028EE007BEF14F08BEF14F0010E2826000E292238
:1028FE002A222B228BEF14F02C50285E2D50295AB1
:10290E002E502A5A2F502B5A285029102A102B108D
:10291E00D8A494EF14F096EF14F0CBEF14F03750D8
:10292E00D8A49CEF14F09EEF14F0CBEF14F0000E31
:10293E00286E000E296E000E2A6E000E2B6E66EFAC
:10294E0015F0D890283629362A362B3637AEB2EF08
:10295E0014F0B4EF14F0B5EF14F0288037A0BAEFEE
:10296E0014F0BCEF14F0C0EF14F0D8803736C2EF7D
:10297E0014F0D89037363650D8B4C8EF14F0CAEFEA
:10298E0014F0CBEF14F036062AAED0EF14F0D2EFDF
:10299E0014F0A8EF14F0000E356E37AED9EF14F028
:1029AE00DBEF14F0F3EF14F037C530F57F0E301671
:1029BE00D8B4E4EF14F0E6EF14F0EAEF14F0010EE1
:1029CE00356EF3EF14F028A0EFEF14F0F1EF14F0E2
:1029DE00F3EF14F0E6EF14F03550D8B4F9EF14F02D
:1029EE00FBEF14F026EF15F0010E2826000E29221B
:1029FE002A222B222BA006EF15F008EF15F026EF5A
:102A0E0015F028C530F529C531F52AC532F52BC587
:102A1E0033F53334333232323132303230C528F579
:102A2E0031C529F532C52AF533C52BF53628D8B46C
:102A3E0023EF15F025EF15F026EF15F0362A362880
:102A4E00D8B42CEF15F02EEF15F036EF15F03650FA
:102A5E00D8A434EF15F036EF15F048EF15F0000E50
:102A6E00286E000E296E000E2A6E000E2B6E36504A
:102A7E00D8A444EF15F046EF15F048EF15F0000E10
:102A8E00346E36A04DEF15F04FEF15F052EF15F0F6
:102A9E002A8E53EF15F02A9ED89036302B6E34AE18
:102AAE005BEF15F05DEF15F05EEF15F02B8E28C580
:102ABE0028F529C529F52AC52AF52BC52BF51200AF
:102ACE001250800B1B6E12501224216E11AE72EF3B
:102ADE0015F074EF15F075EF15F021802150D8B474
:102AEE007BEF15F07DEF15F090EF15F02128D8A4AF
:102AFE0083EF15F085EF15F08DEF15F0000E0F6ECC
:102B0E00000E106E000E116E000E126E118E98EFEA
:102B1E0015F0000E0F6E000E106E000E116E000EF0
:102B2E00126E1650800B1B1A16501624206E15AE00
:102B3E00A3EF15F0A5EF15F0A6EF15F020802050AD
:102B4E00D8B4ACEF15F0AEEF15F0C1EF15F02028AC
:102B5E00D8A4B4EF15F0B6EF15F0BEEF15F0000ED9
:102B6E00136E000E146E000E156E000E166E158E80
:102B7E00C9EF15F0000E136E000E146E000E156EDA
:102B8E00000E166E2050D8B4CFEF15F0D1EF15F021
:102B9E00D9EF15F02150D8A4D7EF15F0D9EF15F0D5
:102BAE00E3EF15F0000E0F6E000E106E000E116E9C
:102BBE00000E126E8DEF17F015500F026100CCF360
:102BCE0026F56100D0F327F526501C6E1D6A1E6A8D
:102BDE001F6A2750226E236A246A256A1450100237
:102BEE006100CCF326F56100D0F327F526501C26A4
:102BFE00000E1D221E221F2227502226000E2322E7
:102C0E0024222522135011026100CCF326F5610017
:102C1E00D0F327F526501C26000E1D221E221F2241
:102C2E0027502226000E2322242225221EC51FF500
:102C3E001DC51EF51CC51DF51C6A13501002610042
:102C4E00CCF326F56100D0F327F526501C2627502D
:102C5E001D22000E1E22000E1F2214500F026100B4
:102C6E00CCF326F56100D0F327F526501C2627500D
:102C7E001D22000E1E22000E1F221EC51FF51DC591
:102C8E001EF51CC51DF51C6A13500F026100CCF316
:102C9E0026F56100D0F327F526501C2627501D225D
:102CAE00000E1E22000E1F22155010026100CCF3E2
:102CBE0026F56100D0F327F5265022262750232231
:102CCE00000E2422000E2522145011026100CCF3B6
:102CDE0026F56100D0F327F5265022262750232211
:102CEE00000E2422000E2522155011026100CCF395
:102CFE0026F56100D0F327F52650176E2750186E73
:102D0E00196A1A6A19C51AF518C519F517C518F5ED
:102D1E00176A1750222618502322195024221A50AF
:102D2E0025221CC517F51DC518F51EC519F51FC59D
:102D3E001AF5190EA8EF16F0D8901A321932183269
:102D4E001732E82EA3EF16F0175022261850232222
:102D5E00195024221A5025221EC51FF51DC51EF519
:102D6E001CC51DF51C6A205021C517F5186A1726BB
:102D7E00000E1822820E1724266EFF0E1820276EC4
:102D8E00DEEF16F0D89022362336243625361FAEC7
:102D9E00D3EF16F0D5EF16F0D6EF16F02280D890BE
:102DAE001C361D361E361F362606D8A0270624AE24
:102DBE00E3EF16F0E5EF16F0C9EF16F0000E206EF9
:102DCE001FAEECEF16F0EEEF16F012EF17F0FF0E4F
:102DDE001C14176EFF0E1D14186EFF0E1E14196EA6
:102DEE007F0E1F141A6E1750181019101A10D8B41F
:102DFE0003EF17F005EF17F009EF17F0010E206E35
:102E0E0012EF17F022A00EEF17F010EF17F012EFDF
:102E1E0017F005EF17F02050D8B418EF17F01AEF8F
:102E2E0017F03EEF17F0010E2226000E2322242269
:102E3E00252225A025EF17F027EF17F03EEF17F00C
:102E4E0022C517F523C518F524C519F525C51AF59C
:102E5E001A341A3219321832173217C522F518C51C
:102E6E0023F519C524F51AC525F5264A272A27BEA6
:102E7E0049EF17F0275008E12628D8A049EF17F0A0
:102E8E004BEF17F055EF17F0000E226E000E236E6B
:102E9E00800E246E7F0E256E83EF17F027BE62EF35
:102EAE0017F0275006E12604D8B060EF17F062EF56
:102EBE0017F06EEF17F0000E226E000E236E000E4E
:102ECE00246E000E256E000E1B6E83EF17F026C5C6
:102EDE0021F5FF0E2216FF0E23167F0E2416000E6E
:102EEE00251621A07DEF17F07FEF17F080EF17F07A
:102EFE00248ED8902130256E1B50251222C50FF539
:102F0E0023C510F524C511F525C512F51200446E22
:102F1E00F6EF17F05CEC26F0000E49EC26F0000EF2
:102F2E0024EC24F001C547F502C548F559EC26F00E
:102F3E00010E466E1BEF18F05CEC26F0010E49EC0C
:102F4E0026F0010E24EC24F001C547F502C548F524
:102F5E009DEF17F05CEC26F0020E49EC26F0170EF2
:102F6E0024EC24F001C547F502C548F559EC26F0CE
:102F7E00020E466E1BEF18F05CEC26F0030E49ECC9
:102F8E0026F0160E24EC24F001C547F502C548F5CF
:102F9E00BDEF17F0D0B8D6EF17F0DAEF17F0426AA0
:102FAE00422ADBEF17F0426A4250476E486A020E21
:102FBE00466E1BEF18F0D0B6E7EF17F0EBEF17F0F9
:102FCE00426A422AECEF17F0426A4250476E486A54
:102FDE00020E466E1BEF18F046681BEF18F04450B9
:102FEE00426E436A4350000AD8B400EF18F0F3EF74
:102FFE0017F04250000AD8B491EF17F0010AD8B476
:10300E00A3EF17F0030AD8B4B1EF17F0010AD8B442
:10301E00C3EF17F0070AD8B4D1EF17F0010AD8B4EE
:10302E00E2EF17F0F3EF17F000F04604D8A422EF0A
:10303E0018F024EF18F08BEF18F0485007E1070E48
:10304E00475CD8B02DEF18F02FEF18F035EF18F0D1
:10305E00000E4C6E000E4B6E3FEF18F047C54BF551
:10306E0048C54CF5FB0E4B244B6EFF0E4C204C6EA0
:10307E00890E4B5C130E4C58D8A048EF18F04AEF4F
:10308E0018F04CEF18F0F1EF18F04BC501F54CC5E8
:10309E0002F5000E046E050E036E74EC22F001C5EF
:1030AE0049F502C54AF59C0E4924496EFF0E4A2089
:1030BE004A6E49C501F54AC502F5000E046E0A0EA8
:1030CE00036EF3EC24F001C549F502C54AF549C576
:1030DE0001F54AC502F5000E046EE80E036E74EC9F
:1030EE0022F001C549F502C54AF54BC501F54CC59F
:1030FE0002F5000E046E640E036E74EC22F00150A5
:10310E00456E4550F1EF18F0020E4618D8A492EF16
:10311E0018F094EF18F0F1EF18F06F0E2C6E810E80
:10312E002D6EA80E2E6EC00E2F6EB30E136E7B0E6E
:10313E00146E920E156E3F0E166E47C501F548C5FC
:10314E0002F5036A046A000E71EC1CF001C50FF55E
:10315E0002C510F503C511F504C512F567EC15F09F
:10316E000FC528F510C529F511C52AF512C52BF581
:10317E0007EC13F028C538F529C539F52AC53AF5F7
:10318E002BC53BF501EC1FF038C54BF539C54CF599
:10319E00890E4B5C130E4C58D8A0D8EF18F0DAEF0E
:1031AE0018F0DCEF18F0F1EF18F0D8904B34496EB0
:1031BE004C344A6E49C501F54AC502F5000E046E3F
:1031CE00640E036E74EC22F001C549F502C54AF592
:1031DE007CEF18F0120070EC20F00009D8B4FAEF72
:1031EE0018F0FCEF18F03DEF1AF0BD0E226E050E32
:1031FE00236E6CEC23F0E806D8A408EF19F00AEF62
:10320E0019F03DEF1AF000F0BDC5E9F5BEC5EAF5BF
:10321E00BFC5EBF5C0C5ECF5610008F7D9F4610048
:10322E000CF7DAF4DF500501F46F20EE01F0C25115
:10323E00D926C351DA22DF50F36F20EE02F0C251CD
:10324E00D926C351DA22DF50F26F20EE03F0C251BD
:10325E00D926C351DA22DF50F06F20EE04F0C251AE
:10326E00D926C351DA22DF50F16F20EE05F0C2519C
:10327E00D926C351DA22DF50EF6F20EE06F0C2518D
:10328E00D926C351DA22DF50ED6F20EE07F0C2517E
:10329E00D926C351DA22DF50EE6FF7EF19F0F4C5DD
:1032AE00B2F5F3C5B1F5F2C5B0F5F0C5AFF5F1C5A0
:1032BE00AEF59C05D8A466EF19F068EF19F03DEF56
:1032CE001AF0B05181EC21F0010E0501B36F3DEF04
:1032DE001AF0F451070BAD6FF451180BAC6FF4519B
:1032EE00E00BAB6FF351010BAA6FF351060BA96FF5
:1032FE00F351780BA86FF2C54DF57F0E4D164E6A41
:10330E00F3AF01D04E2A4E304D34A76FF0514D6EB3
:10331E004E6AD8904D364E36F151506E4F6A4D5022
:10332E004F124E505012516AF2AF01D0512A010E77
:10333E00511651504F10766F5050776F3DEF1AF077
:10334E00F4C5A6F5F3C5A5F5F2C5A4F5F0C5A3F52C
:10335E00F1C5A2F5EFC5A1F5EDC5A0F5EEC59FF53A
:10336E003DEF1AF0F451F3C54DF54E6A4DC54EF5CD
:10337E004D6A4D10746F4E50756FF251F0C54DF58C
:10338E004E6A4DC54EF54D6A4D10726F4E50736FAD
:10339E00F151EFC54DF54E6A4DC54EF54D6A4D10C6
:1033AE00706F4E50716F3DEF1AF0F4C5B0F5F4C565
:1033BE009CF59C51D8A4E6EF19F0E8EF19F03DEF1B
:1033CE001AF0000E436E000E426E010E456E2C0E6C
:1033DE00446E84EC1FF03DEF1AF000F03DEF1AF052
:1033EE00E9C54DF5EAC54EF5EBC54FF5ECC550F503
:1033FE005050000AD8B436EF1AF0F4EF19F04E50D0
:10340E00030AD8B415EF1AF0070AD8B420EF1AF051
:10341E00010AD8B427EF1AF0F4EF19F04D50200A34
:10342E00D8B456EF19F0670AD8B4DEEF19F0F4EFFE
:10343E0019F04D50120AD8B4DCEF19F0F4EF19F070
:10344E004D50000AD8B470EF19F0010AD8B4A7EFA6
:10345E0019F0030AD8B4B9EF19F0F4EF19F04F5080
:10346E00000AD8B406EF1AF0F4EF19F0120020EEAD
:10347E0004F00C50D9260D50DA22DF50176E17C506
:10348E0010F520EE04F00E50D9260F50DA22104619
:10349E001046DF501018C30B1018DF6E17B85AEF16
:1034AE001AF05EEF1AF0106A102A5FEF1AF0106A27
:1034BE0020EE04F00E50D9260F50DA22DF501018ED
:1034CE00FE0B1018DF6E17BA6FEF1AF073EF1AF0CB
:1034DE00106A102A74EF1AF0106A20EE04F00E50E3
:1034EE00D9260F50DA221046DF501018FD0B101897
:1034FE00DF6E17BC85EF1AF089EF1AF0106A102AEA
:10350E008AEF1AF0106A20EE04F00E50D9260F50F2
:10351E00DA2210321032DF5010187F0B1018DF6EC7
:10352E0017BE9CEF1AF0A0EF1AF0106A102AA1EF46
:10353E001AF0106A20EE04F00E50D9260F50DA223F
:10354E00103A10461046DF501018BF0B1018DF6EE1
:10355E0020EE01F00C50D9260D50DA22DF50106EFD
:10356E00070E10161050136E146A156A166A15C5DA
:10357E0016F514C515F513C514F5136A610030F46C
:10358E00D9F4610034F4DAF4DF50106E10501312D7
:10359E0020EE04F00E50D9260F50DA22DFA0DAEF1B
:1035AE001AF0DCEF1AF01DEF1BF0050ED890133653
:1035BE00143615361636E82EDDEF1AF020EE03F02F
:1035CE000C50D9260D50DA22DF50106E1F0E101639
:1035DE001050131215C516F514C515F513C514F5AF
:1035EE00136A20EE02F00C50D9260D50DA22DF506D
:1035FE00106E10501312050ED89013361436153661
:10360E001636E82E03EF1BF020EE01F00C50D926F3
:10361E000D50DA22DF50106ED8901032D890103242
:10362E00D89010321F0E101610501312610038F47D
:10363E00D9F461003CF4DAF461004CF4DEF461007C
:10364E0050F4DEF4610054F4DEF4610058F4DEF45C
:10365E00000E016E060E026E080E0C24036E000E96
:10366E000D20046E20EE04F00E50D9260F50DA22F3
:10367E00DF30E8320F0B106E116A010E1024F66E59
:10368E00260E1120F76EF86A000EF8220800F5508B
:10369E00056E066A15EC23F020EE05F00E50D926C5
:1036AE000F50DA22000EDE6E060EDD6E1200000ED8
:1036BE000301F96F3F0EFA6F000ED86F000EFB6F0D
:1036CE00000ED96F000EDA6F000EDB6F000EDC6F8E
:1036DE00000EDF6F000EE06F000EE36F000EE46F62
:1036EE00000EE56F000EE66F000EE76F000EEA6F3C
:1036FE00000EEB6F000EEC6FE80EEE6F030EEF6F29
:10370E00000EF06F000EF16F000EF26F000EF36FF1
:10371E00000EF46F100EF56F000EF66F000EF76FC1
:10372E00000EF86F000EFC6F010EFB6F000ED96FCE
:10373E00000EDA6F000EDB6F000EDC6F000EDF6F17
:10374E00000EE06F000EE36F000EE46F000EE56FEB
:10375E00000EE66F000EE76F000EEA6F000EEB6FC5
:10376E00010EEC6FE80EEE6F030EEF6F000EF06FB2
:10377E00000EF16F000EF26F000EF36F000EF46F7D
:10378E00100EF56F000EF66F000EF76F000EF86F4D
:10379E00000EFD6F020EFB6F000ED96F000EDA6F7A
:1037AE00000EDB6F000EDC6F000EDF6F000EE06FA1
:1037BE00000EE36F000EE46F000EE56F000EE66F75
:1037CE00000EE76F000EEA6F000EEB6F170EEC6F38
:1037DE00E80EEE6F030EEF6F000EF06F000EF16F3E
:1037EE00000EF26F000EF36F000EF46F100EF56FF9
:1037FE00000EF66F000EF76F000EF86F000EFE6FE4
:10380E00030EFB6F000ED96F000EDA6F000EDB6F2A
:10381E00000EDC6F000EDF6F000EE06F000EE36F28
:10382E00000EE46F000EE56F000EE66F000EE76F00
:10383E00000EEA6F000EEB6F160EEC6FE80EEE6FD9
:10384E00030EEF6F000EF06F000EF16F000EF26FB1
:10385E00000EF36F000EF46F100EF56F000EF66F84
:10386E00000EF76F000EF86F000EFF6FAF94AF965D
:10387E00B090B092B094B096000E0601086F000E94
:10388E00096F44EC26F0000E0601086F000E096F5A
:10389E003AEC26F0000E0601086F000E096F35ECAB
:1038AE0026F0000E0601086F000E096F30EC26F0B0
:1038BE00000E0601086F000E096F2BEC26F0000EAD
:1038CE000601086F000E096F3FEC26F0840E03010F
:1038DE00F36F1200096E0950D8B478EF1CF07AEF2E
:1038EE001CF09CEF1CF004BE81EF1CF07FEF1CF06F
:1038FE009CEF1CF001C505F502C506F503C507F5DD
:10390E0004C508F5051E061E071E081E052A000E14
:10391E0006220722082205C50BF506C50CF507C5BC
:10392E000DF508C50EF5A4EF1CF001C50BF502C58B
:10393E000CF503C50DF504C50EF50150021003106C
:10394E000410D8A4ADEF1CF0AFEF1CF0B9EF1CF0D3
:10395E00000E016E000E026E000E036E000E046E5F
:10396E004AEF1DF0960E0A6EC3EF1CF00A2AD8908D
:10397E000E320D320C320B32000E0B14056E000E91
:10398E000C14066E000E0D14076EFE0E0E14086E4D
:10399E000550061007100810D8A4D8EF1CF0DAEF67
:1039AE001CF0BDEF1CF0E8EF1CF00A2A010E0B26EE
:1039BE00000E0C220D220E22D8900E320D320C3239
:1039CE000B32000E0B14056E000E0C14066E000E5C
:1039DE000D14076EFF0E0E14086E0550061007101C
:1039EE000810D8A4FDEF1CF0FFEF1CF0DCEF1CF06C
:1039FE0007EF1DF00A06D8900B360C360D360E3634
:103A0E000DBE0CEF1DF00EEF1DF016EF1DF0020EA9
:103A1E000A6014EF1DF016EF1DF001EF1DF00AB055
:103A2E001BEF1DF01DEF1DF01EEF1DF00D9ED8902B
:103A3E000A320AC505F5066A076A086A05C508F559
:103A4E00076A066A056A05500B1206500C120750DB
:103A5E000D1208500E120950D8B438EF1DF03AEF7F
:103A6E001DF042EF1DF004BE41EF1DF03FEF1DF0C3
:103A7E0042EF1DF00E8E0BC501F50CC502F50DC5FE
:103A8E0003F50EC504F5120001011DAF51EF1DF037
:103A9E0053EF1DF062EF1DF002D860EF1DF0050030
:103AAE00FA6E05018A51FD6E8B51FE6EFF6AFA5059
:103ABE00120001011D9F1DAD67EF1DF069EF1DF096
:103ACE0078EF1DF002D876EF1DF00500FA6E0501B5
:103ADE008851FD6E8951FE6EFF6AFA501200010187
:103AEE001D9D1DAB7DEF1DF07FEF1DF08EEF1DF0C8
:103AFE0002D88CEF1DF00500FA6E05018651FD6EA1
:103B0E008751FE6EFF6AFA50120001011D9B1CA721
:103B1E0093EF1DF095EF1DF0A4EF1DF002D8A2EF6C
:103B2E001DF00500FA6E05018451FD6E8551FE6E85
:103B3E00FF6AFA50120001011C971DA9A9EF1DF092
:103B4E00ABEF1DF0BAEF1DF002D8B8EF1DF0050077
:103B5E00FA6E05018251FD6E8351FE6EFF6AFA50B8
:103B6E00120001011D991DA5BFEF1DF0C1EF1DF043
:103B7E00D7EF1DF002D8CEEF1DF00500FA6E05014D
:103B8E008051FD6E8151FE6EFF6AFA5012000101E6
:103B9E0054A9D4EF1DF0D6EF1DF0D7EF1DF05499B8
:103BAE001DA7DCEF1DF0DEEF1DF0F4EF1DF002D8C7
:103BBE00EBEF1DF00500FA6E05017E51FD6E7F5193
:103BCE00FE6EFF6AFA501200010160A7F1EF1DF0C0
:103BDE00F3EF1DF0F4EF1DF06097AE9C1200000E97
:103BEE000A6E08BEFFEF1DF0FDEF1DF009EF1EF08F
:103BFE00081E071E061E056C000E0622072208224E
:103C0E00010E0A6E04BE10EF1EF00EEF1EF01AEF3C
:103C1E001EF0041E031E021E016C000E0222032261
:103C2E000422010E0A1A000E0B6E000E0C6E000E10
:103C3E000D6E000E0E6E0550061007100810D8B44B
:103C4E002BEF1EF02DEF1EF063EF1EF0010E096E2E
:103C5E0037EF1EF0D8900536063607360836092A95
:103C6E0008AE3CEF1EF03EEF1EF031EF1EF0D89086
:103C7E000B360C360D360E360550015C06500258CA
:103C8E000750035808500458D8A050EF1EF052EFBA
:103C9E001EF05BEF1EF00550015E0650025A0750F3
:103CAE00035A0850045A0B80D89008320732063255
:103CBE000532092E3EEF1EF00A50D8B469EF1EF001
:103CCE006BEF1EF073EF1EF00E1E0D1E0C1E0B6C16
:103CDE00000E0C220D220E220BC501F50CC502F5AD
:103CEE000DC503F50EC504F512006100D8F352F5AB
:103CFE006100DCF353F56100E0F354F56100D4F399
:103D0E0055F5A1AE8DEF1EF08FEF1EF09AEF1EF05F
:103D1E00B1AE94EF1EF096EF1EF09AEF1EF04EEC41
:103D2E0026F0F4EF1EF09FA09FEF1EF0A1EF1EF005
:103D3E00ACEF1EF0AFA0A6EF1EF0A8EF1EF0ACEF9A
:103D4E001EF052EC26F0F4EF1EF0A1A6B1EF1EF01D
:103D5E00B3EF1EF0BEEF1EF0B1A6B8EF1EF0BAEF35
:103D6E001EF0BEEF1EF0B4EC25F0F4EF1EF09EAC8C
:103D7E00C3EF1EF0C5EF1EF0D0EF1EF0AEACCAEFD3
:103D8E001EF0CCEF1EF0D0EF1EF04BEC1DF0F4EF5A
:103D9E001EF0A2A8D5EF1EF0D7EF1EF0E2EF1EF038
:103DAE00B2A8DCEF1EF0DEEF1EF0E2EF1EF0C8EC64
:103DBE0024F0F4EF1EF0A1A8E7EF1EF0E9EF1EF0DD
:103DCE00F4EF1EF0B1A8EEEF1EF0F0EF1EF0F4EFE0
:103DDE001EF0D5EC20F0F4EF1EF0610054F5F5F472
:103DEE00610050F5F8F461004CF5F7F4610048F508
:103DFE00F6F411003A343B34416E4150D8A40AEF28
:103E0E001FF00CEF1FF016EF1FF0000E386E000EB5
:103E1E00396E000E3A6E000E3B6E83EF1FF038C502
:103E2E003CF539C53DF53AC53EF53BC53FF5200E8F
:103E3E0026EF1FF0D8903F323E323D323C32E82E14
:103E4E0021EF1FF03C50406E3A8EFF0E3816FF0EDB
:103E5E003916FF0E3A16000E3B16960E415E41BE07
:103E6E003DEF1FF03BEF1FF053EF1FF04150800A64
:103E7E00970FD8B045EF1FF047EF1FF049EF1FF037
:103E8E000CEF1FF0D8903B323A3239323832413E85
:103E9E0049EF1FF06BEF1FF01F0E416459EF1FF03B
:103EAE005BEF1FF063EF1FF00CEF1FF0D89038366A
:103EBE0039363A363B3641064150D8A469EF1FF0E9
:103ECE006BEF1FF05DEF1FF04050D8B471EF1FF095
:103EDE0073EF1FF07BEF1FF03B1E3A1E391E386C3E
:103EEE00000E39223A223B2238C538F539C539F54C
:103EFE003AC53AF53BC53BF51200490E016E990ED7
:103F0E00026E000E036E000E046E44C505F545C527
:103F1E0006F5076A086AF6EC1DF001C548F502C5FC
:103F2E0049F56A0E2C6E4D0E2D6E930E2E6EBF0E33
:103F3E002F6E48C501F549C502F5036A046A000EE5
:103F4E0071EC1CF001C528F502C529F503C52AF54B
:103F5E0004C52BF507EC13F028C538F529C539F53E
:103F6E002AC53AF52BC53BF501EC1FF038C548F5CF
:103F7E0039C549F542C546F543C547F5D89046368D
:103F8E004736D8904636473646C54AF547C54BF5AF
:103F9E004AC501F54BC502F5000E046E640E036EA4
:103FAE00F3EC24F001C54AF502C54BF54AC501F5FF
:103FBE004BC502F544C503F545C504F574EC22F076
:103FCE0001C54AF502C54BF54AC501F54BC502F5CB
:103FDE00C6EC25F048C501F549C502F5C0EC25F043
:103FEE0064EC26F01200216E000E1D6E185089EC46
:103FFE0025F0206E20A006EF20F008EF20F06EEFE7
:10400E0020F018500C0D580EF324D96E010EF4202A
:10401E00DA6E610078F31EF5610074F31FF51E5021
:10402E001F10D8B41DEF20F01FEF20F06EEF20F020
:10403E001EC50CF51FC50DF519C50EF51AC50FF5E4
:10404E003EEC1AF018500C0D510EF324D96E010EE1
:10405E00F420DA6E000EDB802150020DF60EF324F2
:10406E00D96E050EF420DA6EDF2A185062EC25F0B8
:10407E001B6E2150020DF60EF324D96E050EF420A0
:10408E00DA6E1B50DE5CD8A04FEF20F051EF20F01F
:10409E005BEF20F02150020DF60EF324D96E050EC3
:1040AE00F420DA6E000EDF6E20A660EF20F062EFD5
:1040BE0020F06CEF20F018500C0D540EF324D96E36
:1040CE00010EF420DA6EF70EDF16010E1D6E1D5076
:1040DE001200000E036E000E0A6E0A50020DF50E4F
:1040EE00F324D96E050EF420DA6EDF50066E0650FC
:1040FE0089EC25F0056E05A087EF20F089EF20F002
:10410E00CAEF20F0065062EC25F0076E05A692EF7E
:10411E0020F094EF20F098EF20F007C504F5C8EFDB
:10412E0020F006500C0D550EF324D96E010EF4201E
:10413E00DA6EDF501F0B086E0A50020DF60EF324D6
:10414E00D96E050EF420DA6EDF50096E0950085C48
:10415E00D8B0B4EF20F0B6EF20F0BCEF20F009504D
:10416E00085C0724046EC8EF20F00850095CD8B034
:10417E00C3EF20F0C5EF20F094EF20F00950085C5B
:10418E00046E045003260A2A0A50D8B4D1EF20F048
:10419E00D3EF20F074EF20F003501200B198D1C588
:1041AE0001F5D2C502F583EC24F09AEC24F06DEC07
:1041BE0026F05D2A060E5D18D8A4E8EF20F0EAEF8F
:1041CE0020F0EEEF20F0000E5D6EBAEC25F05C2ACA
:1041DE000B0E5C18D8A4F6EF20F0F8EF20F0FCEFF1
:1041EE0020F0000E5C6E30EC25F00501B42B650E50
:1041FE00B419D8A405EF21F007EF21F00BEF21F051
:10420E00000EB46F6CEC26F005017C4B7D2B2D0E51
:10421E007C1906E17D05D8A417EF21F019EF21F0E6
:10422E001FEF21F0000E7D6F000E7C6F6AEC26F002
:10423E0005017A4B7B2B590E7A1907E1020E7B1979
:10424E00D8A42CEF21F02EEF21F034EF21F0000E48
:10425E007B6F000E7A6F6BEC26F0120006010A6F70
:10426E00000E0601096F03EC26F00601086F040E1E
:10427E000819D8B445EF21F047EF21F058EF21F09F
:10428E000A05D8B44DEF21F04FEF21F058EF21F091
:10429E00040E0A19D8A456EF21F058EF21F07DEF45
:1042AE0021F00101035106010A19F80B0A19010147
:1042BE00036F6FEF21F001011DA968EF21F06AEF86
:1042CE0021F06FEF21F0020E0601096F7FEF21F052
:1042DE000239E832070B06010A19D8A479EF21F04A
:1042EE007BEF21F062EF21F07FEF21F0010E096FDD
:1042FE00095112004C6E05019505D8A489EF21F0E5
:10430E008BEF21F0B8EF21F09C05D8A491EF21F0AE
:10431E0093EF21F0C2EF21F04C503C0D6100CCF335
:10432E0056F56100D0F357F556C501F557C502F5A0
:10433E00000E046E640E036E74EC22F001C556F589
:10434E0002C557F55650566E576A56C542F557C5B3
:10435E0043F5010E456E2C0E446E84EC1FF0C2EF39
:10436E0021F0000E436E3C0E426E010E456E2C0E79
:10437E00446E84EC1FF01200E80E0601086F4C0E1E
:10438E00096F1CEC26F0EA0E0601086F4C0E096F41
:10439E0021EC26F0EC0E0601086F4C0E096F26EC90
:1043AE0026F0E60E0601086F4C0E096F17EC26F08C
:1043BE00E20E0601086F4C0E096F0DEC26F0E00EB2
:1043CE000601086F4C0E096F08EC26F0E40E06018C
:1043DE00086F4C0E096F12EC26F0AE9C000E010118
:1043EE001C6F000E1D6F0A0E1E6FFC0E1F6F9E8C33
:1043FE001200000E6F6E020E706E000E716E500E79
:10440E00726E0F0E736EFE0E746E000E756E000ED3
:10441E00766E000E776E000E796E0D0E7A6E050EAC
:10442E007B6EA80E7C6E070E7D6EB39CB39E76904F
:10443E007692A39EA39C000E0601086F000E096FD4
:10444E00E0EC25F0000E0601086F000E096FDBECA4
:10445E0025F0000E0601086F000E096FE5EC25F041
:10446E00800E786E1200000E606E020E616E000EEF
:10447E00626E3D0E636E000E646EFE0E656E000E75
:10448E00666E000E676E000E686E000E6A6E1F0E70
:10449E006B6E000E6C6E1F0E6D6E000E6E6EB29C0D
:1044AE00B29E67906792A29EA29C000E0601086FB4
:1044BE00000E096FEFEC25F0000E0601086F000EDE
:1044CE00096FEAEC25F0000E0601086F000E096F69
:1044DE00F4EC25F0800E696E1200000E066E000ED2
:1044EE00056E03500410D8B47FEF22F081EF22F056
:1044FE00A9EF22F0010E076E89EF22F0D890033655
:10450E000436072A04AE8EEF22F090EF22F085EFEC
:10451E0022F0D890053606360350015C045002583E
:10452E00D8A09CEF22F09EEF22F0A3EF22F00350D2
:10453E00015E0450025A0580D89004320332072ED1
:10454E0090EF22F005C501F506C502F51200000E2A
:10455E00BE6E000EBF6E000EC06E080ECA6EEF0E5F
:10456E00C66EC80EC76EDC0EC86ED80E0401106F74
:10457E00400E086FCF0E006F000E216F000E096FF8
:10458E00000E016F000E116F000E026F000E0A6F0B
:10459E00000E126F03690B69136904690C691469C3
:1045AE00080E246F180E0201116F0F0E696F050EA3
:1045BE003E6F1A0E126F0B0E3D6F460E0D6F1200F0
:1045CE000101018F040E35EC21F00009D8A4F2EFA1
:1045DE0022F0F4EF22F014EF23F0000E01014C6FE5
:1045EE00260E4D6F000E4E6F000E4F6F600E006F59
:1045FE00970E016F100E026FAAEC25F0A0EC25F0BD
:10460E00DEEC24F042EC25F055EC24F0C3EC21F066
:10461E00060E35EC21F0C79ABF9A120003C509F5B4
:10462E0004C50AF501C507F502C508F534EF23F0F8
:10463E00610024F4D9F4610028F4DAF4DF500B6E33
:10464E00094A0A2A61001CF4D9F4610020F4DAF454
:10465E0061002CF4DFF4074A082A0506D8A00606E6
:10466E00052806E10628D8A43FEF23F041EF23F0FA
:10467E001FEF23F01200CC0EF66E4C0EF76E000EEE
:10468E00F86E09006100D4F3F5F509006100D4F36A
:10469E00F6F501EE00F2080EEE6AE806FDE101EE17
:1046AE0060F16B0EEE6AE806FDE101EE56F1080EC2
:1046BE00EE6AE806FDE10401080E5D6F000E5E6F06
:1046CE00000E5F6F000171EF25F0000E256E255074
:1046DE00020DF50EF324D96E050EF420DA6EDF50BE
:1046EE00186E22C519F523C51AF52550FAEC1FF0E0
:1046FE00246E2450D8B486EF23F088EF23F08AEF8F
:10470E0023F093EF23F0252A2550D8B491EF23F010
:10471E0093EF23F06EEF23F024501200000E0301EE
:10472E001F6F000E206F010E216F850E1D6FEE0E96
:10473E001C6FB1981C51600074FC0AF606010B6BDD
:10474E000AC60BF60A6B0A110501D16F06010B5151
:10475E000501D26FA188D20E0601086F4C0E096FAB
:10476E00D1EC25F0310E03011E6F120000F0050191
:10477E00B305D8A4C5EF23F0C7EF23F0CBEF23F09A
:10478E00010E956FD7EF23F0000E956F000E436E5E
:10479E00000E426E010E456E2C0E446E84EC1FF020
:1047AE001200000ECEBA010E05019A6F9A05D8A41A
:1047BE00E3EF23F0E5EF23F0F1EF23F0000E8EECA4
:1047CE0017F00501996F010E8EEC17F00501986F29
:1047DE0056C59BF5120062EC26F01CEC25F05EEC43
:1047EE001BF0AEEC22F07DEC25F03DEC24F095ECC8
:1047FE0023F095EC25F008EC25F000EC22F0E7EC28
:10480E0022F03AEC22F01200D8EC23F00501E5512B
:10481E00E611D8B415EF24F017EF24F023EF24F0AF
:10482E0002D823EF24F00500FA6EE551FD6EE65135
:10483E00FE6EFF6AFA5012001200056E610014F44B
:10484E00ECF30301F38FF39DF381F3B131EF24F019
:10485E0033EF24F02CEF24F0EB51046E036AEA518F
:10486E000324016E000E0420026E1200010E0301DD
:10487E00266F000E256F000E276FC20E236F000EDF
:10488E00226FB196A186CE0E0601086F4C0E096FEF
:10489E00CCEC25F0F00E0301246F1200000E060181
:1048AE00086F0851020DF60EF324D96E050EF42092
:1048BE00DA6E000EDF6E082B0851D8B469EF24F0C3
:1048CE006BEF24F058EF24F012000501CD51CE11FC
:1048DE00D8B474EF24F076EF24F082EF24F002D8EF
:1048EE0082EF24F00500FA6ECD51FD6ECE51FE6EB4
:1048FE00FF6AFA501200120003011EA589EF24F080
:10490E008BEF24F094EF24F01E9102501D6F610086
:10491E0004F41CF31E8199EF24F002501D6F610008
:10492E0004F41CF312000501CF51D011D8B4A2EF3C
:10493E0024F0A4EF24F0B0EF24F002D8B0EF24F06E
:10494E000500FA6ECF51FD6ED051FE6EFF6AFA5021
:10495E00120012000501CB51CC11D8B4B9EF24F0DE
:10496E00BBEF24F0C7EF24F002D8C7EF24F0050008
:10497E00FA6ECB51FD6ECC51FE6EFF6AFA501200EC
:10498E001200010160A1CEEF24F0D0EF24F0DDEF94
:10499E0024F002D8DDEF24F00500FA6E05018C51EB
:1049AE00FD6E8D51FE6EFF6AFA5012001200190E46
:1049BE0001015C6F040E5D6F600E5E6F050E5F6F22
:1049CE00BE0E0601086F4C0E096FFEEC25F00101BC
:1049DE001E83B298A2881200015003026100CCF32C
:1049EE0005F56100D0F306F501500402F3500626DA
:1049FE0002500302F350062605C501F506C502F561
:104A0E001200440E03011B6F9B0E196F000E186FE0
:104A1E00B19EA18EDC0E0601086F4C0E096FD6EC0E
:104A2E0025F0800E03011A6F1200000E0001606F58
:104A3E00000E616F000E626F000E636F000E646FEA
:104A4E00000E656F000E666F000E676F000E686FCA
:104A5E001200BEB835EF25F038EF25F0010E39EF14
:104A6E0025F0000EFF0A016E013ABE500118EF0B41
:104A7E000118BE6E12005F0E0101946F9569966962
:104A8E009769000E986F000E996F000E9A6F000EC8
:104A9E009B6F810E816F1200040100810083108FC5
:104AAE00108D10891087C698C790C794C792C79A61
:104ABE00C884C89A1200026E02500C0D530EF324D5
:104ACE00D96E010EF420DA6EDF50016E1F0E011644
:104ADE0001281200F2EC23F0D68E53EC25F056ECA2
:104AEE0026F000F078EF25F00DEF00F0700E0001CB
:104AFE00AD6F000EAF6F000EB36F020EB16F000EF2
:104B0E00B06F1200016E01500C0D540EF324D96ECD
:104B1E00010EF420DA6EDF50090B1200AF90D68032
:104B2E00DE0E0601086F4C0E096FF9EC25F09F8022
:104B3E001200100E0101506F040E516F610E526F74
:104B4E00050E536F1200010E0101046F010E056F69
:104B5E00060E066F000E076F1200B1966CEC24F075
:104B6E0068EC26F01200BDEC23F0000E0501B36FC9
:104B7E001200610004F463F40250646E12006100CE
:104B8E0004F46BF402506C6E120008C6CDF509C623
:104B9E00CEF5120008C6CFF509C6D0F5120008C62C
:104BAE00CBF509C6CCF5120008C6D5F509C6D6F563
:104BBE00120008C6D7F509C6D8F5120008C6D3F5F7
:104BCE0009C6D4F5120008C690F509C691F5120073
:104BDE0008C692F509C693F5120008C68EF509C6E9
:104BEE008FF5120008C6E5F509C6E6F5120008C6EF
:104BFE008CF509C68DF5120001010239E832070B5A
:104C0E00120008C680F509C681F5120008C682F5A5
:104C1E0009C683F5120008C67EF509C67FF5120097
:104C2E0008C684F509C685F5120008C68AF509C6B8
:104C3E008BF5120008C688F509C689F5120008C65C
:104C4E0086F509C687F5120008C6DBF509C6DCF540
:104C5E00120008C6DDF509C6DEF5120008C6DFF53E
:104C6E0009C6E0F5120008C6E1F509C6E2F5120024
:104C7E0008C6D9F509C6DAF5120008C6E3F509C665
:104C8E00E4F51200016E610004F4FBF31200B19E14
:104C9E00B1EC24F01200AF900BEC24F012000301E3
:104CAE001A9F12000301F39112000301F39B1200ED
:104CBE00F2EC18F01200D69A12006984120001006C
:104CCE001200120012001200120012001200120046
:104CDE001200120012001200120012001200120036
:020000040020DA
:10000000FF0FFF0FFF0FFF0FFF0FFF0FFF0FFF0F80
:10001000FF0FFF0FFF0FFF0FFF0FFF0FFF0FFF0F70
:020000040030CA
:10000000FAEFF7DF9FFFFFFFFFFFFFFFFFFFFFFF9D
:10001000FFFFFFFFFFFFFFFFFFFFFFFFFFFFFFFFF0
:04002000FFFFFFFFE0
:00000001FF
