:020000040000FA
:040000000DEF00F010
:0400080064EF18F099
:06001800FF004FEF1AF09B
:0D2600000000010203040506070850010058
:10260E002250800B2B6E225022242D6E21AE12EF03
:10261E0013F014EF13F015EF13F02D802D50D8B4E6
:10262E001BEF13F01DEF13F032EF13F02D28D8A48B
:10263E0023EF13F025EF13F02DEF13F0000E1F6EA6
:10264E00000E206E000E216E000E226E218E000EE8
:10265E00226E3AEF13F0000E1F6E000E206E000E6B
:10266E00216E000E226E2650800B2C6E2B502C18D5
:10267E00D8B444EF13F046EF13F047EF13F02B8C62
:10268E00265026242C6E25AE4FEF13F051EF13F08B
:10269E0052EF13F02C802C50D8B458EF13F05AEFA1
:1026AE0013F06FEF13F02C28D8A460EF13F062EF45
:1026BE0013F06AEF13F0000E236E000E246E000E60
:1026CE00256E000E266E258E000E266E77EF13F009
:1026DE00000E236E000E246E000E256E000E266E6A
:1026EE002D502C5CD8B07EEF13F080EF13F0A7EFD7
:1026FE0013F02BAC85EF13F087EF13F089EF13F087
:10270E00800E2B1A2DC52EF52CC52DF52EC52CF5AC
:10271E001FC52EF523C51FF52EC523F520C52EF595
:10272E0024C520F52EC524F521C52EF525C521F588
:10273E002EC525F522C52EF526C522F52EC526F564
:10274E00000E2E6E2D502CC527F5286A275E000E22
:10275E00285A28BEBCEF13F0285009E11A0E275C48
:10276E00D8A0BCEF13F0BEEF13F0F5EF13F01F502F
:10277E00201021102210D8A4C7EF13F0CAEF13F0C7
:10278E00010ECBEF13F0000E2E6E000E1F6E000E1C
:10279E00206E000E216E000E226E2CC52DF5FEEF62
:1027AE0013F02EA0DDEF13F0DFEF13F0E5EF13F0D3
:1027BE00D8902E3001092E6EE7EF13F0D8902E32FE
:1027CE001FA0ECEF13F0EEEF13F0EFEF13F02E8EE1
:1027DE0022342232213220321F322D2A2C502D5CEF
:1027EE00D8A0FCEF13F0FEEF13F0D8EF13F02BBCD4
:1027FE0003EF14F005EF14F045EF14F02D50D8A4AC
:10280E000BEF14F00DEF14F017EF14F0000E1F6E17
:10281E00000E206E000E216E000E226E66EF15F079
:10282E0023501F26245020222550212226502222BA
:10283E0022A024EF14F026EF14F0D2EF14F02EA005
:10284E002BEF14F02DEF14F033EF14F0D8902E3050
:10285E0001092E6E35EF14F0D8902E321FA03AEFEC
:10286E0014F03CEF14F03DEF14F02E8E2234223291
:10287E00213220321F322D2AD2EF14F023501F5C4A
:10288E0024502058255021582250800A276E265059
:10289E00800A2758D8B056EF14F058EF14F083EF93
:1028AE0014F01F50235C276E20502458286E2150A0
:1028BE002558296E225026582A6EFF0E27241F6E89
:1028CE00FF0E2820206EFF0E2920216EFF0E2A20DB
:1028DE00226E800E2B1A2E6C2E50D8A479EF14F087
:1028EE007BEF14F08BEF14F0010E1F26000E20224A
:1028FE00212222228BEF14F023501F5E2450205AE7
:10290E002550215A2650225A1F50201021102210D5
:10291E00D8A494EF14F096EF14F0CBEF14F02E50E1
:10292E00D8A49CEF14F09EEF14F0CBEF14F0000E31
:10293E001F6E000E206E000E216E000E226E66EFD0
:10294E0015F0D8901F362036213622362EAEB2EF35
:10295E0014F0B4EF14F0B5EF14F01F802EA0BAEF00
:10296E0014F0BCEF14F0C0EF14F0D8802E36C2EF86
:10297E0014F0D8902E362D50D8B4C8EF14F0CAEFFC
:10298E0014F0CBEF14F02D0621AED0EF14F0D2EFF1
:10299E0014F0A8EF14F0000E2C6E2EAED9EF14F03A
:1029AE00DBEF14F0F3EF14F02EC527F57F0E27168C
:1029BE00D8B4E4EF14F0E6EF14F0EAEF14F0010EE1
:1029CE002C6EF3EF14F01FA0EFEF14F0F1EF14F0F4
:1029DE00F3EF14F0E6EF14F02C50D8B4F9EF14F036
:1029EE00FBEF14F026EF15F0010E1F26000E20222D
:1029FE002122222222A006EF15F008EF15F026EF75
:102A0E0015F01FC527F520C528F521C529F522C5C6
:102A1E002AF52A342A3229322832273227C51FF5C1
:102A2E0028C520F529C521F52AC522F52D28D8B4AB
:102A3E0023EF15F025EF15F026EF15F02D2A2D2892
:102A4E00D8B42CEF15F02EEF15F036EF15F02D5003
:102A5E00D8A434EF15F036EF15F048EF15F0000E50
:102A6E001F6E000E206E000E216E000E226E2D5077
:102A7E00D8A444EF15F046EF15F048EF15F0000E10
:102A8E002B6E2DA04DEF15F04FEF15F052EF15F008
:102A9E00218E53EF15F0219ED8902D30226E2BAE45
:102AAE005BEF15F05DEF15F05EEF15F0228E1FC592
:102ABE001FF520C520F521C521F522C522F51200EE
:102ACE00196E1950D8B46EEF15F070EF15F092EF35
:102ADE0015F014BE77EF15F075EF15F092EF15F0B7
:102AEE0011C515F512C516F513C517F514C518F54C
:102AFE00151E161E171E181E152A000E1622172238
:102B0E00182215C51BF516C51CF517C51DF518C5DC
:102B1E001EF59AEF15F011C51BF512C51CF513C560
:102B2E001DF514C51EF51150121013101410D8A453
:102B3E00A3EF15F0A5EF15F0AFEF15F0000E116E27
:102B4E00000E126E000E136E000E146E40EF16F095
:102B5E00960E1A6EB9EF15F01A2AD8901E321D3243
:102B6E001C321B32000E1B14156E000E1C14166E3A
:102B7E00000E1D14176EFE0E1E14186E1550161034
:102B8E0017101810D8A4CEEF15F0D0EF15F0B3EF44
:102B9E0015F0DEEF15F01A2A010E1B26000E1C2270
:102BAE001D221E22D8901E321D321C321B32000EE8
:102BBE001B14156E000E1C14166E000E1D14176ECF
:102BCE00FF0E1E14186E1550161017101810D8A4DC
:102BDE00F3EF15F0F5EF15F0D2EF15F0FDEF15F060
:102BEE001A06D8901B361C361D361E361DBE02EF39
:102BFE0016F004EF16F00CEF16F0020E1A600AEF44
:102C0E0016F00CEF16F0F7EF15F01AB011EF16F0F4
:102C1E0013EF16F014EF16F01D9ED8901A321AC547
:102C2E0015F5166A176A186A15C518F5176A166A21
:102C3E00156A15501B1216501C1217501D121850E3
:102C4E001E121950D8B42EEF16F030EF16F038EFE2
:102C5E0016F014BE37EF16F035EF16F038EF16F00B
:102C6E001E8E1BC511F51CC512F51DC513F51EC50F
:102C7E0014F51200000E0C6E0ABE4AEF16F048EF65
:102C8E0016F054EF16F00A1E091E081E076C000EF1
:102C9E00082209220A22010E0C6E06BE5BEF16F008
:102CAE0059EF16F065EF16F0061E051E041E036C96
:102CBE00000E042205220622010E0C1A000E0D6EC5
:102CCE00000E0E6E000E0F6E000E106E07500810E6
:102CDE0009100A10D8B476EF16F078EF16F0AEEFB2
:102CEE0016F0010E0B6E82EF16F0D89007360836EE
:102CFE0009360A360B2A0AAE87EF16F089EF16F060
:102D0E007CEF16F0D8900D360E360F361036075073
:102D1E00035C08500458095005580A500658D8A0AC
:102D2E009BEF16F09DEF16F0A6EF16F00750035E20
:102D3E000850045A0950055A0A50065A0D80D89068
:102D4E000A320932083207320B2E89EF16F00C5078
:102D5E00D8B4B4EF16F0B6EF16F0BEEF16F0101EA4
:102D6E000F1E0E1E0D6C000E0E220F2210220DC510
:102D7E0003F50EC504F50FC505F510C506F51200D1
:102D8E0031343234386E3850D8A4D0EF16F0D2EF3A
:102D9E0016F0DCEF16F0000E2F6E000E306E000EE9
:102DAE00316E000E326E49EF17F02FC533F530C578
:102DBE0034F531C535F532C536F5200EECEF16F08B
:102DCE00D8903632353234323332E82EE7EF16F001
:102DDE003350376E318EFF0E2F16FF0E3016FF0E4C
:102DEE003116000E3216960E385E38BE03EF17F00F
:102DFE0001EF17F019EF17F03850800A970FD8B07F
:102E0E000BEF17F00DEF17F00FEF17F0D2EF16F0E4
:102E1E00D8903232313230322F32383E0FEF17F037
:102E2E0031EF17F01F0E38641FEF17F021EF17F078
:102E3E0029EF17F0D2EF16F0D8902F363036313604
:102E4E00323638063850D8A42FEF17F031EF17F07E
:102E5E0023EF17F03750D8B437EF17F039EF17F0DC
:102E6E0041EF17F0321E311E301E2F6C000E302235
:102E7E00312232222FC52FF530C530F531C531F54F
:102E8E0032C532F512006A0E236E4D0E246E930E6D
:102E9E00256EBF0E266E3BC507F53CC508F5096AC3
:102EAE000A6A490E036E990E046E000E056E000E30
:102EBE00066E41EC16F003C511F504C512F505C5F5
:102ECE0013F506C514F5010E67EC15F011C51FF5C7
:102EDE0012C520F513C521F514C522F507EC13F024
:102EEE001FC52FF520C530F521C531F522C532F5A8
:102EFE00C7EC16F02FC588F530C589F539C53DF5F7
:102F0E003AC53EF5D8903D363E36D8903D363E36E3
:102F1E003DC50AF53EC50BF53BC505F53CC506F5A9
:102F2E00000E046E640E036EE8EC18F003C50CF58B
:102F3E0004C50DF511EC1BF00AC58AF50BC58BF512
:102F4E008AC503F58BC504F5ACEC1BF088C503F5FB
:102F5E0089C504F5A6EC1BF00EEC1CF012006A0EEF
:102F6E00236E4D0E246E930E256EBF0E266E3BC540
:102F7E0007F53CC508F5096A0A6A490E036E990EF3
:102F8E00046E000E056E000E066E41EC16F003C5C3
:102F9E0011F504C512F505C513F506C514F5010E98
:102FAE0067EC15F011C51FF512C520F513C521F5F7
:102FBE0014C522F507EC13F01FC52FF520C530F50B
:102FCE0021C531F522C532F5C7EC16F02FC588F5AF
:102FDE0030C589F539C53DF53AC53EF5D8903D3633
:102FEE003E36D8903D363E363DC58AF53EC58BF50C
:102FFE008AC503F58BC504F5B8EC1BF088C503F53F
:10300E0089C504F5B2EC1BF010EC1CF01200040E96
:10301E000301F96F000EFA6F000ED86F000EFB6FF2
:10302E00000ED96F000EDA6F000EDB6F000EDC6F34
:10303E00000EDF6F000EE06F000EE36F000EE46F08
:10304E00000EE56F000EE66F000EE76F000EEA6FE2
:10305E00000EEB6F000EEC6F000EEE6F000EEF6FBA
:10306E00000EF06F000EF16F000EF26F000EF36F98
:10307E00000EF46F100EF56F000EF66F000EF76F68
:10308E00120EF86F000EFC6FAF94AF96B090000E5C
:10309E00036E000E046EFFEC1BF0000E036E000EAE
:1030AE00046EF5EC1BF0000E036E000E046EFAECCF
:1030BE001BF0840E0301F36F1200A1AE69EF18F03E
:1030CE006BEF18F076EF18F0B1AE70EF18F072EFFC
:1030DE0018F076EF18F004EC1CF0ACEF18F09FA08F
:1030EE007BEF18F07DEF18F088EF18F0AFA082EFAD
:1030FE0018F084EF18F088EF18F008EC1CF0ACEF25
:10310E0018F0A1A68DEF18F08FEF18F09AEF18F0C7
:10311E00B1A694EF18F096EF18F09AEF18F026EC8F
:10312E001BF0ACEF18F0A1A89FEF18F0A1EF18F06C
:10313E00ACEF18F0B1A8A6EF18F0A8EF18F0ACEFAE
:10314E0018F09CEC1BF0ACEF18F01100000EBE6EE8
:10315E00000EBF6E000EC06E080ECA6EEF0EC66E6B
:10316E00C90EC76EDC0EC86EFB0E0401106F770E13
:10317E00086FDF0E006F000E216F000E096F000E3C
:10318E00016F000E116F000E026F000E0A6F100E0F
:10319E00126F03690B69136904690C691469080ECF
:1031AE00246F180E0201116F0F0E696F050E3E6F20
:1031BE001A0E126F0B0E3D6F460E0D6FC79ABF8A19
:1031CE001200000E096E000E086E05500610D8B4DF
:1031DE00F3EF18F0F5EF18F01DEF19F0010E076E72
:1031EE00FDEF18F0D89005360636072A06AE02EF28
:1031FE0019F004EF19F0F9EF18F0D89008360936E7
:10320E000550035C06500458D8A010EF19F012EFC9
:10321E0019F017EF19F00550035E0650045A088096
:10322E00D89006320532072E04EF19F008C503F5C3
:10323E0009C504F51200000E6F6E020E706E000EC0
:10324E00716E500E726E0F0E736EFE0E746E000E59
:10325E00756E000E766E000E776E000E796E0D0E88
:10326E007A6E050E7B6EA80E7C6E070E7D6EB39C7D
:10327E00B39E76907692A39EA39C000E036E000ED4
:10328E00046ED2EC1BF0000E036E000E046ECDEC3D
:10329E001BF0000E036E000E046ED7EC1BF0800EBA
:1032AE00786E1200000E606E020E616E000E626E7F
:1032BE003D0E636E000E646EFE0E656E000E666E43
:1032CE00000E676E000E686E000E6A6E1F0E6B6E3D
:1032DE00000E6C6E1F0E6D6E000E6E6EB29CB29E68
:1032EE0067906792A29EA29C000E036E000E046E63
:1032FE00E1EC1BF0000E036E000E046EDCEC1BF016
:10330E00000E036E000E046EE6EC1BF0800E696E6E
:10331E001200056E000E046EF0EC1BF0036E040E30
:10332E000318D8B49DEF19F09FEF19F0B0EF19F014
:10333E000504D8B4A5EF19F0A7EF19F0B0EF19F006
:10334E00040E0518D8A4AEEF19F0B0EF19F0B8EFCF
:10335E0019F0010103510518F80B0518036FBAEFA8
:10336E0019F0010E046E04501200BEB8C1EF19F030
:10337E00C4EF19F0010EC5EF19F0000EFF0A016E31
:10338E00013ABE500118EF0B0118BE6E05018251B5
:10339E008311D8B4D5EF19F0D7EF19F0E3EF19F088
:1033AE0002D8E3EF19F00500FA6E8251FD6E8351DB
:1033BE00FE6EFF6AFA50120012006FEC1AF0D68EF3
:1033CE00C79ABF8A030E046EE80E036E9FEC1AF0C6
:1033DE0000F0000E3A6E320E396E020E3C6E580E32
:1033EE003B6EB6EC17F0000E3A6E190E396E000EEB
:1033FE003C6E0A0E3B6E4AEC17F0E9EF19F00DEF3A
:10340E0000F00101018F040E90EC19F00009D8A410
:10341E0013EF1AF015EF1AF02BEF1AF0000E010150
:10342E004C6F380E4D6F000E4E6F000E4F6F600ECC
:10343E00006F970E016F100E026F92EC1BF088EC6E
:10344E001BF0060E90EC19F01200000E03011F6F18
:10345E00000E206F010E216FCF0E1D6F2C0E1C6FF4
:10346E00B1981C51600074FC05F5066A05C506F599
:10347E00056A05104E6E06504F6EA188260E036E1D
:10348E00380E046EC3EC1BF0110E03011E6F1200FA
:10349E00C40EF66E360EF76E000EF86E01EE60F18B
:1034AE0010EE20F00900F5C4EEF4E550E150FAE11B
:1034BE0001EE3FF10F0EEE6AE806FDE10401080E83
:1034CE005D6F000E5E6F000E5F6F0001E4EF19F08E
:1034DE000CEC1CF03BEC1BF00EEC18F0ADEC18F005
:1034EE0072EC1BF088EC1AF07EEC1BF02CEC1AF050
:1034FE004FEC1BF022EC19F008EC1AF059EC19F015
:10350E001200010E0301266F000E256F000E276FAD
:10351E00C20E236F000E226FB196A186240E036E8B
:10352E00380E046EBEEC1BF0F00E0301246F120079
:10353E00A8EF1AF0040E056E3E0EE82EFED7052EED
:10354E00FCD70306D8A00406032806E10428D8A455
:10355E00B3EF1AF0B5EF1AF0A1EF1AF01200030153
:10356E001EA5BCEF1AF0BEEF1AF0C7EF1AF01E91AF
:10357E0002501D6F610004F41CF31E81CCEF1AF093
:10358E0002501D6F610004F41CF3120005018451FA
:10359E008511D8B4D5EF1AF0D7EF1AF0E3EF1AF081
:1035AE0002D8E3EF1AF00500FA6E8451FD6E8551D4
:1035BE00FE6EFF6AFA501200120005018051811151
:1035CE00D8B4ECEF1AF0EEEF1AF0FAEF1AF002D8C8
:1035DE00FAEF1AF00500FA6E8051FD6E8151FE6E03
:1035EE00FF6AFA50120012005A505B10D8B402EF64
:1035FE001BF004EF1BF010EF1BF002D810EF1BF0C6
:10360E000500FA6E5A50FD6E5B50FE6EFF6AFA5060
:10361E00120012000A500C026100CCF30EF561008C
:10362E00D0F30FF50A500D02F3500F260B500C027B
:10363E00F3500F260EC50AF50FC50BF51200B19605
:10364E003F4A402A405009E10A0E3F5CD8A032EFB3
:10365E001BF034EF1BF03AEF1BF0BCEC19F0000E30
:10366E00406E000E3F6E1200000E0001606F000EE5
:10367E00616F000E626F000E636F000E646F000EBE
:10368E00656F000E666F000E676F000E686F12009A
:10369E00440E03011B6F9B0E196F000E186FB19E27
:1036AE00A18E280E036E380E046EC8EC1BF0800E31
:1036BE0003011A6F120042554646455243414E00D1
:1036CE0000000000000000000000000000000000EC
:1036DE00000000000000700E0001AD6F000EAF6F15
:1036EE00000EB36F020EB16F000EB06F1200AF90EE
:1036FE00D6802A0E036E380E046EEBEC1BF09F8004
:10370E001200000E0101506F040E516F600E526FC9
:10371E00050E536F1200010E0101046F010E056FAD
:10372E00060E066F000E076F1200B1984EC501F51A
:10373E004FC502F5B6EC1AF0CDEC1AF0120061008E
:10374E000CF472F40450736E120061000CF47AF4EF
:10375E0004507B6E120061000CF463F40450646E2E
:10376E00120061000CF46BF404506C6E120003C571
:10377E0082F504C583F5120003C584F504C585F5ED
:10378E00120003C580F504C581F5120003C550F57E
:10379E0004C551F5120003C552F504C553F51200C8
:1037AE0003C586F504C587F5120003C543F504C5A8
:1037BE0044F5120003C545F504C546F5120003C5D0
:1037CE0041F504C542F5120003C55AF504C55BF573
:1037DE00120001010239E832070B120003C556F53B
:1037EE0004C557F5120003C554F504C555F512006E
:1037FE0003C558F504C559F51200B19EE4EC1AF054
:10380E001200AF90FBEC1AF01200D69A12007884D8
:0E381E00120069841200120012001200120043
:020000040020DA
:10000000FF0FFF0FFF0FFF0FFF0FFF0FFF0FFF0F80
:10001000FF0FFF0FFF0FFF0FFF0FFF0FFF0FFF0F70
:020000040030CA
:10000000FAEFF7DF9FFFFFFFFFFFFFFFFFFFFFFF9D
:10001000FFFFFFFFFFFFFFFFFFFFFFFFFFFFFFFFF0
:04002000FFFFFFFFE0
:00000001FF
