:020000040000FA
:040000000DEF00F010
:04000800DEEF22F015
:06001800FF0058EF2BF081
:0D2500000000010203040506070850010059
:10250E000501D751800BE06FD751D725E26FD6AFBB
:10251E0093EF12F095EF12F096EF12F0E281E25186
:10252E00D8B49CEF12F09EEF12F0B3EF12F0E22946
:10253E00D8A4A4EF12F0A6EF12F0AEEF12F0000E38
:10254E00D46F000ED56F000ED66F000ED76FD68FDC
:10255E00000ED76FBBEF12F0000ED46F000ED56FCA
:10256E00000ED66F000ED76FDB51800BE16FE0517E
:10257E00E119D8B4C5EF12F0C7EF12F0C8EF12F0A0
:10258E00E08DDB51DB25E16FDAAFD0EF12F0D2EF49
:10259E0012F0D3EF12F0E181E151D8B4D9EF12F07D
:1025AE00DBEF12F0F0EF12F0E129D8A4E1EF12F018
:1025BE00E3EF12F0EBEF12F0000ED86F000ED96FB2
:1025CE00000EDA6F000EDB6FDA8F000EDB6FF8EFA6
:1025DE0012F0000ED86F000ED96F000EDA6F000EDB
:1025EE00DB6FE251E15DD8B0FFEF12F001EF13F0B7
:1025FE0028EF13F0E0AD06EF13F008EF13F00AEF3B
:10260E0013F0800EE01BE2C5E3F5E1C5E2F5E3C58C
:10261E00E1F5D4C5E3F5D8C5D4F5E3C5D8F5D5C5F0
:10262E00E3F5D9C5D5F5E3C5D9F5D6C5E3F5DAC5D4
:10263E00D6F5E3C5DAF5D7C5E3F5DBC5D7F5E3C5C2
:10264E00DBF5000EE36FE251E1C5DCF5DD6BDC5F1F
:10265E00000EDD5BDDBF3DEF13F0DD5109E11A0E1B
:10266E00DC5DD8A03DEF13F03FEF13F076EF13F0E3
:10267E00D451D511D611D711D8A448EF13F04BEF82
:10268E0013F0010E4CEF13F0000EE36F000ED46F3B
:10269E00000ED56F000ED66F000ED76FE1C5E2F5B6
:1026AE007FEF13F0E3A15EEF13F060EF13F066EF30
:1026BE0013F0D890E3310109E36F68EF13F0D8906F
:1026CE00E333D4A16DEF13F06FEF13F070EF13F04F
:1026DE00E38FD735D733D633D533D433E22BE1510D
:1026EE00E25DD8A07DEF13F07FEF13F059EF13F0FA
:1026FE00E0BD84EF13F086EF13F0C6EF13F0E25156
:10270E00D8A48CEF13F08EEF13F098EF13F0000EA9
:10271E00D46F000ED56F000ED66F000ED76FE7EF99
:10272E0014F0D851D427D951D523DA51D623DB5101
:10273E00D723D7A1A5EF13F0A7EF13F053EF14F0A3
:10274E00E3A1ACEF13F0AEEF13F0B4EF13F0D890AB
:10275E00E3310109E36FB6EF13F0D890E333D4A160
:10276E00BBEF13F0BDEF13F0BEEF13F0E38FD735D1
:10277E00D733D633D533D433E22B53EF14F0D851AD
:10278E00D45DD951D559DA51D659D751800ADC6F5B
:10279E00DB51800ADC59D8B0D7EF13F0D9EF13F024
:1027AE0004EF14F0D451D85DDC6FD551D959DD6FDB
:1027BE00D651DA59DE6FD751DB59DF6FFF0EDC25AC
:1027CE00D46FFF0EDD21D56FFF0EDE21D66FFF0E0B
:1027DE00DF21D76F800EE01BE36DE351D8A4FAEF33
:1027EE0013F0FCEF13F00CEF14F0010ED427000ED3
:1027FE00D523D623D7230CEF14F0D851D45FD9515B
:10280E00D55BDA51D65BDB51D75BD451D511D611DE
:10281E00D711D8A415EF14F017EF14F04CEF14F0F5
:10282E00E351D8A41DEF14F01FEF14F04CEF14F089
:10283E00000ED46F000ED56F000ED66F000ED76F40
:10284E00E7EF14F0D890D437D537D637D737E3AF74
:10285E0033EF14F035EF14F036EF14F0D481E3A11A
:10286E003BEF14F03DEF14F041EF14F0D880E33756
:10287E0043EF14F0D890E337E251D8B449EF14F097
:10288E004BEF14F04CEF14F0E207D6AF51EF14F00B
:10289E0053EF14F029EF14F0000EE16FE3AF5AEF8F
:1028AE0014F05CEF14F074EF14F0E3C5DCF57F0E5A
:1028BE00DC17D8B465EF14F067EF14F06BEF14F07B
:1028CE00010EE16F74EF14F0D4A170EF14F072EFFB
:1028DE0014F074EF14F067EF14F0E151D8B47AEFFE
:1028EE0014F07CEF14F0A7EF14F0010ED427000EB5
:1028FE00D523D623D723D7A187EF14F089EF14F071
:10290E00A7EF14F0D4C5DCF5D5C5DDF5D6C5DEF5DB
:10291E00D7C5DFF5DF35DF33DE33DD33DC33DCC542
:10292E00D4F5DDC5D5F5DEC5D6F5DFC5D7F5E2297B
:10293E00D8B4A4EF14F0A6EF14F0A7EF14F0E22B26
:10294E00E229D8B4ADEF14F0AFEF14F0B7EF14F0F6
:10295E00E251D8A4B5EF14F0B7EF14F0C9EF14F0AC
:10296E00000ED46F000ED56F000ED66F000ED76F0F
:10297E00E251D8A4C5EF14F0C7EF14F0C9EF14F06C
:10298E00000EE06FE2A1CEEF14F0D0EF14F0D3EF13
:10299E0014F0D68FD4EF14F0D69FD890E231D76FC3
:1029AE00E0AFDCEF14F0DEEF14F0DFEF14F0D78FB2
:1029BE00D4C5D4F5D5C5D5F5D6C5D6F5D7C5D7F575
:1029CE0012002B50800B346E2B502B24366E2AAEF9
:1029DE00F3EF14F0F5EF14F0F6EF14F036803650F6
:1029EE00D8B4FCEF14F0FEEF14F013EF15F0362808
:1029FE00D8A404EF15F006EF15F00EEF15F0000E4B
:102A0E00286E000E296E000E2A6E000E2B6E2A8E78
:102A1E00000E2B6E1BEF15F0000E286E000E296EA9
:102A2E00000E2A6E000E2B6E2F50800B356E34501A
:102A3E003518D8B425EF15F027EF15F028EF15F05F
:102A4E00348C2F502F24356E2EAE30EF15F032EF22
:102A5E0015F033EF15F035803550D8B439EF15F049
:102A6E003BEF15F050EF15F03528D8A441EF15F0D7
:102A7E0043EF15F04BEF15F0000E2C6E000E2D6E81
:102A8E00000E2E6E000E2F6E2E8E000E2F6E58EF35
:102A9E0015F0000E2C6E000E2D6E000E2E6E000E1A
:102AAE002F6E3650355CD8B05FEF15F061EF15F034
:102ABE0088EF15F034AC66EF15F068EF15F06AEF9D
:102ACE0015F0800E341A36C537F535C536F537C5CF
:102ADE0035F528C537F52CC528F537C52CF529C58C
:102AEE0037F52DC529F537C52DF52AC537F52EC570
:102AFE002AF537C52EF52BC537F52FC52BF537C55E
:102B0E002FF5000E376E365035C530F5316A305E12
:102B1E00000E315A31BE9DEF15F0315009E11A0EFB
:102B2E00305CD8A09DEF15F09FEF15F0D6EF15F0A5
:102B3E00285029102A102B10D8A4A8EF15F0ABEFAF
:102B4E0015F0010EACEF15F0000E376E000E286E6C
:102B5E00000E296E000E2A6E000E2B6E35C536F550
:102B6E00DFEF15F037A0BEEF15F0C0EF15F0C6EF92
:102B7E0015F0D89037300109376EC8EF15F0D890A0
:102B8E00373228A0CDEF15F0CFEF15F0D0EF15F0BE
:102B9E00378E2B342B322A3229322832362A3550B0
:102BAE00365CD8A0DDEF15F0DFEF15F0B9EF15F0BC
:102BBE0034BCE4EF15F0E6EF15F026EF16F03650C4
:102BCE00D8A4ECEF15F0EEEF15F0F8EF15F0000EBF
:102BDE00286E000E296E000E2A6E000E2B6E47EF29
:102BEE0017F02C5028262D5029222E502A222F50F5
:102BFE002B222BA005EF16F007EF16F0B3EF16F011
:102C0E0037A00CEF16F00EEF16F014EF16F0D8906A
:102C1E0037300109376E16EF16F0D890373228A0EC
:102C2E001BEF16F01DEF16F01EEF16F0378E2B343D
:102C3E002B322A3229322832362AB3EF16F02C5094
:102C4E00285C2D5029582E502A582B50800A306E51
:102C5E002F50800A3058D8B037EF16F039EF16F0F3
:102C6E0064EF16F028502C5C306E29502D58316EC2
:102C7E002A502E58326E2B502F58336EFF0E3024A2
:102C8E00286EFF0E3120296EFF0E32202A6EFF0EA7
:102C9E0033202B6E800E341A376C3750D8A45AEF6F
:102CAE0016F05CEF16F06CEF16F0010E2826000EF3
:102CBE0029222A222B226CEF16F02C50285E2D5042
:102CCE00295A2E502A5A2F502B5A285029102A1082
:102CDE002B10D8A475EF16F077EF16F0ACEF16F0B8
:102CEE003750D8A47DEF16F07FEF16F0ACEF16F04C
:102CFE00000E286E000E296E000E2A6E000E2B6E30
:102D0E0047EF17F0D890283629362A362B3637AEAD
:102D1E0093EF16F095EF16F096EF16F0288037A089
:102D2E009BEF16F09DEF16F0A1EF16F0D880373618
:102D3E00A3EF16F0D89037363650D8B4A9EF16F068
:102D4E00ABEF16F0ACEF16F036062AAEB1EF16F07A
:102D5E00B3EF16F089EF16F0000E356E37AEBAEF00
:102D6E0016F0BCEF16F0D4EF16F037C530F57F0E27
:102D7E003016D8B4C5EF16F0C7EF16F0CBEF16F03D
:102D8E00010E356ED4EF16F028A0D0EF16F0D2EF6C
:102D9E0016F0D4EF16F0C7EF16F03550D8B4DAEFC0
:102DAE0016F0DCEF16F007EF17F0010E2826000ED6
:102DBE0029222A222B222BA0E7EF16F0E9EF16F09C
:102DCE0007EF17F028C530F529C531F52AC532F5BC
:102DDE002BC533F53334333232323132303230C5E3
:102DEE0028F531C529F532C52AF533C52BF5362818
:102DFE00D8B404EF17F006EF17F007EF17F0362AE6
:102E0E003628D8B40DEF17F00FEF17F017EF17F0B5
:102E1E003650D8A415EF17F017EF17F029EF17F06B
:102E2E00000E286E000E296E000E2A6E000E2B6EFE
:102E3E003650D8A425EF17F027EF17F029EF17F02B
:102E4E00000E346E36A02EEF17F030EF17F033EF82
:102E5E0017F02A8E34EF17F02A9ED89036302B6E4C
:102E6E0034AE3CEF17F03EEF17F03FEF17F02B8E1E
:102E7E0028C528F529C529F52AC52AF52BC52BF510
:102E8E0012001250800B1B6E12501224216E11AEC6
:102E9E0053EF17F055EF17F056EF17F02180215032
:102EAE00D8B45CEF17F05EEF17F071EF17F0212832
:102EBE00D8A464EF17F066EF17F06EEF17F0000E60
:102ECE000F6E000E106E000E116E000E126E118E31
:102EDE0079EF17F0000E0F6E000E106E000E116ED1
:102EEE00000E126E1650800B1B1A16501624206EF2
:102EFE0015AE84EF17F086EF17F087EF17F02080EE
:102F0E002050D8B48DEF17F08FEF17F0A2EF17F017
:102F1E002028D8A495EF17F097EF17F09FEF17F032
:102F2E00000E136E000E146E000E156E000E166E51
:102F3E00158EAAEF17F0000E136E000E146E000E13
:102F4E00156E000E166E2050D8B4B0EF17F0B2EF1B
:102F5E0017F0BAEF17F02150D8A4B8EF17F0BAEF68
:102F6E0017F0C4EF17F0000E0F6E000E106E000E6D
:102F7E00116E000E126E6EEF19F015500F026100F9
:102F8E00CCF326F56100D0F327F526501C6E1D6A92
:102F9E001E6A1F6A2750226E236A246A256A1450FD
:102FAE0010026100CCF326F56100D0F327F5265010
:102FBE001C26000E1D221E221F2227502226000E26
:102FCE00232224222522135011026100CCF326F570
:102FDE006100D0F327F526501C26000E1D221E225E
:102FEE001F2227502226000E2322242225221EC510
:102FFE001FF51DC51EF51CC51DF51C6A13501002CC
:10300E006100CCF326F56100D0F327F526501C267F
:10301E0027501D22000E1E22000E1F2214500F02DA
:10302E006100CCF326F56100D0F327F526501C265F
:10303E0027501D22000E1E22000E1F221EC51FF538
:10304E001DC51EF51CC51DF51C6A13500F0261002F
:10305E00CCF326F56100D0F327F526501C26275019
:10306E001D22000E1E22000E1F221550100261009E
:10307E00CCF326F56100D0F327F5265022262750F3
:10308E002322000E2422000E25221450110261006C
:10309E00CCF326F56100D0F327F5265022262750D3
:1030AE002322000E2422000E25221550110261004B
:1030BE00CCF326F56100D0F327F52650176E275076
:1030CE00186E196A1A6A19C51AF518C519F517C5B1
:1030DE0018F5176A17502226185023221950242249
:1030EE001A5025221CC517F51DC518F51EC519F554
:1030FE001FC51AF5190E89EF18F0D8901A32193229
:10310E0018321732E82E84EF18F017502226185076
:10311E002322195024221A5025221EC51FF51DC523
:10312E001EF51CC51DF51C6A205021C517F5186A21
:10313E001726000E1822820E1724266EFF0E182058
:10314E00276EBFEF18F0D890223623362436253658
:10315E001FAEB4EF18F0B6EF18F0B7EF18F02280EC
:10316E00D8901C361D361E361F362606D8A02706CA
:10317E0024AEC4EF18F0C6EF18F0AAEF18F0000E48
:10318E00206E1FAECDEF18F0CFEF18F0F3EF18F062
:10319E00FF0E1C14176EFF0E1D14186EFF0E1E145C
:1031AE00196E7F0E1F141A6E1750181019101A1060
:1031BE00D8B4E4EF18F0E6EF18F0EAEF18F0010ECD
:1031CE00206EF3EF18F022A0EFEF18F0F1EF18F0E9
:1031DE00F3EF18F0E6EF18F02050D8B4F9EF18F02E
:1031EE00FBEF18F01FEF19F0010E2226000E23221E
:1031FE002422252225A006EF19F008EF19F01FEF63
:10320E0019F022C517F523C518F524C519F525C5DE
:10321E001AF51A341A3219321832173217C522F526
:10322E0018C523F519C524F51AC525F5264A272AEA
:10323E0027BE2AEF19F0275008E12628D8A02AEF3A
:10324E0019F02CEF19F036EF19F0000E226E000E69
:10325E00236E800E246E7F0E256E64EF19F027BE4E
:10326E0043EF19F0275006E12604D8B041EF19F0CC
:10327E0043EF19F04FEF19F0000E226E000E236E81
:10328E00000E246E000E256E000E1B6E64EF19F0FC
:10329E0026C521F5FF0E2216FF0E23167F0E2416CD
:1032AE00000E251621A05EEF19F060EF19F061EF08
:1032BE0019F0248ED8902130256E1B50251222C570
:1032CE000FF523C510F524C511F525C512F512000D
:1032DE00446ED7EF19F02FEC2FF0000E19EC2FF0F3
:1032EE00000E4BEC2CF001C547F502C548F52CEC51
:1032FE002FF0010E466EFCEF19F02FEC2FF0010EA1
:10330E0019EC2FF0010E4BEC2CF001C547F502C560
:10331E0048F57EEF19F02FEC2FF0020E19EC2FF07E
:10332E00170E4BEC2CF001C547F502C548F52CECF9
:10333E002FF0020E466EFCEF19F02FEC2FF0030E5D
:10334E0019EC2FF0160E4BEC2CF001C547F502C50B
:10335E0048F59EEF19F0D0B8B7EF19F0BBEF19F0A2
:10336E00426A422ABCEF19F0426A4250476E486ADE
:10337E00020E466EFCEF19F0D0B6C8EF19F0CCEF86
:10338E0019F0426A422ACDEF19F0426A4250476E56
:10339E00486A020E466EFCEF19F04668FCEF19F013
:1033AE004450426E436A4350000AD8B4E1EF19F01C
:1033BE00D4EF19F04250000AD8B472EF19F0010A96
:1033CE00D8B484EF19F0030AD8B492EF19F0010AB9
:1033DE00D8B4A4EF19F0070AD8B4B2EF19F0010A65
:1033EE00D8B4C3EF19F0D4EF19F000F04604D8A406
:1033FE0003EF1AF005EF1AF062EF1AF0485007E1EA
:10340E00070E475CD8B00EEF1AF010EF1AF016EF59
:10341E001AF0000E4A6E000E496E20EF1AF047C5E4
:10342E0049F548C54AF5FB0E4924496EFF0E4A2060
:10343E004A6E890E495C130E4A58D8A029EF1AF02D
:10344E002BEF1AF02DEF1AF0D1EF1AF049C501F556
:10345E004AC502F5000E046E050E036E05EC2AF049
:10346E0001C54BF502C54CF59C0E4B244B6EFF0E61
:10347E004C204C6E4BC501F54CC502F5000E046E8A
:10348E000A0E036E5FEC2DF001C54BF502C54CF52F
:10349E004BC501F54CC502F5000E046EE80E036E29
:1034AE0005EC2AF001C54BF502C54CF54BC545F5AB
:1034BE004550D1EF1AF0020E4618D8A469EF1AF053
:1034CE006BEF1AF0D1EF1AF06F0E2C6E810E2D6E7F
:1034DE00A80E2E6EC00E2F6EB30E136E7B0E146ED4
:1034EE00920E156E3F0E166E47C501F548C502F5D4
:1034FE00036A046A000E4CEC20F001C50FF502C5FC
:10350E0010F503C511F504C512F548EC17F00FC5FB
:10351E0028F510C529F511C52AF512C52BF5E8ECCD
:10352E0014F028C538F529C539F52AC53AF52BC545
:10353E003BF5E7EC23F038C549F539C54AF5890E58
:10354E00495C130E4A58D8A0AFEF1AF0B1EF1AF03B
:10355E00B3EF1AF0D1EF1AF0D89049344B6E4A34CB
:10356E004C6E4BC501F54CC502F5000E046E640E93
:10357E00036E05EC2AF001C54BF502C54CF54BC5A3
:10358E0045F56E0E4564CEEF1AF0D0EF1AF05FEFF0
:10359E001AF0000E12002CEC27F00009D8B4DAEF66
:1035AE001AF0DCEF1AF019EF1CF0B40E226E050EB5
:1035BE00236E2FEC2BF0E806D8A4E8EF1AF0EAEF12
:1035CE001AF019EF1CF000F0B4C553F5B5C554F55B
:1035DE00B6C555F5B7C556F56100E4F6D9F46100E8
:1035EE00E8F6DAF4DF505D6E050120EE01F0B95118
:1035FE00D926BA51DA22DF505E6E20EE02F0B951B2
:10360E00D926BA51DA22DF505C6E20EE03F0B951A2
:10361E00D926BA51DA22DF505A6E20EE04F0B95193
:10362E00D926BA51DA22DF505B6E20EE05F0B95181
:10363E00D926BA51DA22DF50596E20EE06F0B95172
:10364E00D926BA51DA22DF50576E20EE07F0B95163
:10365E00D926BA51DA22DF50586ED3EF1BF05DC572
:10366E00ACF55EC5ABF55CC5AFF55AC5AAF55BC545
:10367E00A9F5B005D8A446EF1BF048EF1BF019EFE3
:10368E001CF0010EAD6F19EF1CF05D50070BA86F0B
:10369E005D50180BA76F5D50E00BA66F5E50010BCF
:1036AE00A56F5E50060BA46F5E50780BA36F5CC5C2
:1036BE004CF57F0E4C164D6A5EAE01D04D2A4D3044
:1036CE004C34A26F5A504C6E4D6AD8904C364D36D3
:1036DE005B504F6E4E6A4C504E124D504F12506A08
:1036EE005CAE01D0502A010E501650504E100601FD
:1036FE00206F4F50216F19EF1CF05DC5A1F55EC50F
:10370E00A0F55CC59FF55AC59EF55BC59DF559C5DF
:10371E009CF557C59BF558C59AF519EF1CF05D50F1
:10372E005EC54CF54D6A4CC54DF54C6A4C10060104
:10373E001E6F4D501F6F5C505AC54CF54D6A4CC5EF
:10374E004DF54C6A4C101C6F4D501D6F5B5059C59A
:10375E004CF54D6A4CC54DF54C6A4C101A6F4D50D8
:10376E001B6F19EF1CF05DC5B0F5B051D8A4C2EFB8
:10377E001BF0C4EF1BF019EF1CF0000E436E000E91
:10378E00426E010E456E2C0E446ED4EC25F019EFF0
:10379E001CF000F019EF1CF053C54CF554C54DF557
:1037AE0055C54EF556C54FF54F50000AD8B412EF19
:1037BE001CF0D0EF1BF04D50030AD8B4F1EF1BF004
:1037CE00070AD8B4FCEF1BF0010AD8B403EF1CF0C3
:1037DE00D0EF1BF04C50200AD8B436EF1BF0670A1E
:1037EE00D8B4BAEF1BF0D0EF1BF04C50120AD8B47D
:1037FE0019EF1CF0D0EF1BF04C50000AD8B44CEF70
:10380E001BF0010AD8B484EF1BF0030AD8B496EF6C
:10381E001BF0D0EF1BF04E50000AD8B4E2EF1BF0B5
:10382E00D0EF1BF01200610038F4D9F461003CF4C3
:10383E00DAF4610078F314F5610078F315F56100A0
:10384E0078F316F5610078F317F520EE04F00E50BC
:10385E00D9260F50DA22DFA037EF1CF039EF1CF01B
:10386E0073EF1CF020EE01F00C50D9260D50DA2229
:10387E001438E842F80BF80BDF6E050E106ED89078
:10388E001732163215321432102E46EF1CF020EE7F
:10389E0002F00C50D9260D50DA22610050F4DFF4FC
:1038AE0015C514F516C515F517C516F5176A20EECC
:1038BE0003F00C50D9260D50DA2214501F0BDF6E78
:1038CE00050E106ED8901732163215321432102E95
:1038DE0069EF1CF08BEF1CF020EE03F00C50D92694
:1038EE000D50DA22000EDF6E10EE02F00C50E126C3
:1038FE000D50E222DFC4E7F420EE01F00C50D92681
:10390E000D50DA22E7C4DFF4610030F4D9F461001F
:10391E0034F4DAF4610050F4DFF415C514F516C56D
:10392E0015F517C516F5176A14C510F5070E1016FE
:10393E0020EE01F00C50D9260D50DA221050DF1275
:10394E0020EE04F00E50D9260F50DA22DF30E83286
:10395E000F0B136E20EE04F00E50D9260F50DA2204
:10396E00DFB0BCEF1CF0C0EF1CF0106A102AC1EFE4
:10397E001CF0106A1038F00B131220EE04F00E50EB
:10398E00D9260F50DA22DFB2CFEF1CF0D3EF1CF0A6
:10399E00200E106ED4EF1CF0106A1050131220EE91
:1039AE0004F00E50D9260F50DA22DFBEE1EF1CF0E4
:1039BE00E5EF1CF0400E106EE6EF1CF0106A105092
:1039CE00131220EE04F00E50D9260F50DA22DFBC6F
:1039DE00F3EF1CF0F7EF1CF0800E106EF8EF1CF0FA
:1039EE00106A1050131220EE04F00C50D9260D5010
:1039FE00DA2261004CF4DFF420EE04F00E50D926EA
:103A0E000F50DA22DFB20EEF1DF010EF1DF03CEF7B
:103A1E001DF0080E0C24016E000E0D20026E20EE1D
:103A2E0005F00E50D9260F50DA22610078F303F517
:103A3E00610074F304F520EE04F00E50D9260F50F9
:103A4E00DA22DF30E8320F0B106E116A010E1024ED
:103A5E00F66E250E1120F76EF86A000EF822080099
:103A6E00F550056E066A02EC2BF0120020EE04F003
:103A7E000C50D9260D50DA22DF50176E17C510F5EF
:103A8E0020EE04F00E50D9260F50DA2210461046C2
:103A9E00DF501018C30B1018DF6E17B859EF1DF05A
:103AAE005DEF1DF0106A102A5EEF1DF0106A20EE19
:103ABE0004F00E50D9260F50DA22DF501018FE0BEC
:103ACE001018DF6E17BA6EEF1DF072EF1DF0106A50
:103ADE00102A73EF1DF0106A20EE04F00E50D92656
:103AEE000F50DA221046DF501018FD0B1018DF6E43
:103AFE0017BC84EF1DF088EF1DF0106A102A89EFB5
:103B0E001DF0106A20EE04F00E50D9260F50DA2266
:103B1E0010321032DF5010187F0B1018DF6E17BEE8
:103B2E009BEF1DF09FEF1DF0106A102AA0EF1DF005
:103B3E00106A20EE04F00E50D9260F50DA22103AF9
:103B4E0010461046DF501018BF0B1018DF6E20EE17
:103B5E0001F00C50D9260D50DA22DF50106E070EF0
:103B6E0010161050136E146A156A166A15C516F5DE
:103B7E0014C515F513C514F5136A610030F4D9F4A4
:103B8E00610034F4DAF4DF50106E1050131220EE90
:103B9E0004F00E50D9260F50DA22DFA0D9EF1DF017
:103BAE00DBEF1DF01CEF1EF0050ED8901336143609
:103BBE0015361636E82EDCEF1DF020EE03F00C5015
:103BCE00D9260D50DA22DF50106E1F0E101610502F
:103BDE00131215C516F514C515F513C514F5136A8C
:103BEE0020EE02F00C50D9260D50DA22DF50106E66
:103BFE0010501312050ED89013361436153616368D
:103C0E00E82E02EF1EF020EE01F00C50D9260D50DA
:103C1E00DA22DF50106ED8901032D8901032D89031
:103C2E0010321F0E101610501312610038F4D9F412
:103C3E0061003CF4DAF461004CF4DEF4610050F4FF
:103C4E00DEF4610054F4DEF4610058F4DEF42A0E62
:103C5E00016E060E026E080E0C24036E000E0D2071
:103C6E00046E20EE04F00E50D9260F50DA22DF300B
:103C7E00E8320F0B106E116A010E1024F66E250E2F
:103C8E001120F76EF86A000EF8220800F550056E46
:103C9E00066A02EC2BF020EE05F00E50D9260F50DE
:103CAE00DA222A0EDE6E060EDD6E1200000E030103
:103CBE00F96F3F0EFA6F000ED86F000EFB6F000EFD
:103CCE00D96F000EDA6F000EDB6F000EDC6F000E88
:103CDE00DF6F000EE06F000EE36F000EE46F000E5C
:103CEE00E56F000EE66F000EE76F000EEA6F000E36
:103CFE00EB6F000EEC6FE80EEE6F030EEF6F000E23
:103D0E00F06F000EF16F000EF26F000EF36F000EEB
:103D1E00F46F100EF56F000EF66F000EF76F000EBB
:103D2E00F86F000EFC6F010EFB6F000ED96F000EC8
:103D3E00DA6F000EDB6F000EDC6F000EDF6F000E11
:103D4E00E06F000EE36F000EE46F000EE56F000EE5
:103D5E00E66F000EE76F000EEA6F000EEB6F010EBE
:103D6E00EC6FE80EEE6F030EEF6F000EF06F000EAD
:103D7E00F16F000EF26F000EF36F000EF46F100E67
:103D8E00F56F000EF66F000EF76F000EF86F000E57
:103D9E00FD6F020EFB6F000ED96F000EDA6F000E74
:103DAE00DB6F000EDC6F000EDF6F000EE06F000E9B
:103DBE00E36F000EE46F000EE56F000EE66F000E6F
:103DCE00E76F000EEA6F000EEB6F170EEC6FE80E4A
:103DDE00EE6F030EEF6F000EF06F000EF16F000E20
:103DEE00F26F000EF36F000EF46F100EF56F000EF3
:103DFE00F66F000EF76F000EF86F000EFE6F030EDB
:103E0E00FB6F000ED96F000EDA6F000EDB6F000E27
:103E1E00DC6F000EDF6F000EE06F000EE36F000E22
:103E2E00E46F000EE56F000EE66F000EE76F000EFA
:103E3E00EA6F000EEB6F160EEC6FE80EEE6F030ED0
:103E4E00EF6F000EF06F000EF16F000EF26F000EAE
:103E5E00F36F000EF46F100EF56F000EF66F000E7E
:103E6E00F76F000EF86F000EFF6FAF94AF96B09025
:103E7E00B092B094B096000E0501C66F000EC76FDB
:103E8E000FEC2FF0000E0501C66F000EC76F05EC8C
:103E9E002FF0000E0501C66F000EC76F00EC2FF05D
:103EAE00000E0501C66F000EC76FFBEC2EF0000E64
:103EBE000501C66F000EC76FF6EC2EF0000E050161
:103ECE00C66F000EC76F0AEC2FF0840E0301F36F5E
:103EDE0012000501CE6F0501CE51D8B479EF1FF057
:103EEE007BEF1FF09DEF1FF0C9BF82EF1FF080EF39
:103EFE001FF09DEF1FF0C6C5CAF5C7C5CBF5C8C5E7
:103F0E00CCF5C9C5CDF5CA1FCB1FCC1FCD1FCA2BF3
:103F1E00000ECB23CC23CD23CAC5D0F5CBC5D1F50E
:103F2E00CCC5D2F5CDC5D3F5A5EF1FF0C6C5D0F5DE
:103F3E00C7C5D1F5C8C5D2F5C9C5D3F5C651C71188
:103F4E00C811C911D8A4AEEF1FF0B0EF1FF0BAEF31
:103F5E001FF0000EC66F000EC76F000EC86F000E6A
:103F6E00C96F4BEF20F0960ECF6FC4EF1FF0CF2B23
:103F7E00D890D333D233D133D033000ED015CA6F8D
:103F8E00000ED115CB6F000ED215CC6FFE0ED315D1
:103F9E00CD6FCA51CB11CC11CD11D8A4D9EF1FF0D2
:103FAE00DBEF1FF0BEEF1FF0E9EF1FF0CF2B010E7E
:103FBE00D027000ED123D223D323D890D333D2339C
:103FCE00D133D033000ED015CA6F000ED115CB6F82
:103FDE00000ED215CC6FFF0ED315CD6FCA51CB117B
:103FEE00CC11CD11D8A4FEEF1FF000EF20F0DDEFC5
:103FFE001FF008EF20F0CF07D890D037D137D23747
:10400E00D337D2BF0DEF20F00FEF20F017EF20F0D7
:10401E00020ECF6115EF20F017EF20F002EF20F027
:10402E00CFB11CEF20F01EEF20F01FEF20F0D29F3B
:10403E00D890CF33CFC5CAF5CB6BCC6BCD6BCAC581
:10404E00CDF5CC6BCB6BCA6BCA51D013CB51D11300
:10405E00CC51D213CD51D313CE51D8B439EF20F069
:10406E003BEF20F043EF20F0C9BF42EF20F040EFCE
:10407E0020F043EF20F0D38FD0C5C6F5D1C5C7F5DC
:10408E00D2C5C8F5D3C5C9F51200096E0950D8B40A
:10409E0053EF20F055EF20F077EF20F004BE5CEFE9
:1040AE0020F05AEF20F077EF20F001C505F502C59C
:1040BE0006F503C507F504C508F5051E061E071E01
:1040CE00081E052A000E06220722082205C50BF53A
:1040DE0006C50CF507C50DF508C50EF57FEF20F0EA
:1040EE0001C50BF502C50CF503C50DF504C50EF59E
:1040FE000150021003100410D8A488EF20F08AEFAC
:10410E0020F094EF20F0000E016E000E026E000EF5
:10411E00036E000E046E25EF21F0960E0A6E9EEFD2
:10412E0020F00A2AD8900E320D320C320B32000ECD
:10413E000B14056E000E0C14066E000E0D14076E99
:10414E00FE0E0E14086E0550061007100810D8A4A7
:10415E00B3EF20F0B5EF20F098EF20F0C3EF20F092
:10416E000A2A010E0B26000E0C220D220E22D890CA
:10417E000E320D320C320B32000E0B14056E000E89
:10418E000C14066E000E0D14076EFF0E0E14086E44
:10419E000550061007100810D8A4D8EF20F0DAEF5B
:1041AE0020F0B7EF20F0E2EF20F00A06D8900B36A1
:1041BE000C360D360E360DBEE7EF20F0E9EF20F08F
:1041CE00F1EF20F0020E0A60EFEF20F0F1EF20F099
:1041DE00DCEF20F00AB0F6EF20F0F8EF20F0F9EF68
:1041EE0020F00D9ED8900A320AC505F5066A076AB8
:1041FE00086A05C508F5076A066A056A05500B12B6
:10420E0006500C1207500D1208500E120950D8B459
:10421E0013EF21F015EF21F01DEF21F004BE1CEF7E
:10422E0021F01AEF21F01DEF21F00E8E0BC501F5D6
:10423E000CC502F50DC503F50EC504F512000101FE
:10424E001DAF2CEF21F02EEF21F03DEF21F002D823
:10425E003BEF21F00500FA6E05018451FD6E85518C
:10426E00FE6EFF6AFA50120001011D9F1DAD42EF56
:10427E0021F044EF21F053EF21F002D851EF21F05D
:10428E000500FA6E05018251FD6E8351FE6EFF6AC6
:10429E00FA50120001011D9D1DAB58EF21F05AEF8F
:1042AE0021F069EF21F002D867EF21F00500FA6ED8
:1042BE0005018051FD6E8151FE6EFF6AFA501200AB
:1042CE0001011D9B1CA76EEF21F070EF21F07FEF17
:1042DE0021F002D87DEF21F00500FA6E05017E5126
:1042EE00FD6E7F51FE6EFF6AFA50120001011C979F
:1042FE001DA984EF21F086EF21F095EF21F002D871
:10430E0093EF21F00500FA6E05017C51FD6E7D5193
:10431E00FE6EFF6AFA50120001011D991DA59AEF5B
:10432E0021F09CEF21F0B2EF21F002D8A9EF21F09D
:10433E000500FA6E05017A51FD6E7B51FE6EFF6A25
:10434E00FA501200010154A9AFEF21F0B1EF21F0A4
:10435E00B2EF21F054991DA7B7EF21F0B9EF21F07C
:10436E00CFEF21F002D8C6EF21F00500FA6E05015D
:10437E007851FD6E7951FE6EFF6AFA5012000101FE
:10438E0060A7CCEF21F0CEEF21F0CFEF21F06097B8
:10439E00AE9C1200000E0501CF6FCDBFDBEF21F0FA
:1043AE00D9EF21F0E5EF21F0CD1FCC1FCB1FCA6D49
:1043BE00000ECB23CC23CD23010ECF6FC9BFECEF64
:1043CE0021F0EAEF21F0F6EF21F0C91FC81FC71F39
:1043DE00C66D000EC723C823C923010ECF1B000EC6
:1043EE00D06F000ED16F000ED26F000ED36FCA5178
:1043FE00CB11CC11CD11D8B407EF22F009EF22F07A
:10440E003FEF22F0010ECE6F13EF22F0D890CA3795
:10441E00CB37CC37CD37CE2BCDAF18EF22F01AEFEE
:10442E0022F00DEF22F0D890D037D137D237D337D4
:10443E00CA51C65DCB51C759CC51C859CD51C95976
:10444E00D8A02CEF22F02EEF22F037EF22F0CA5137
:10445E00C65FCB51C75BCC51C85BCD51C95BD08118
:10446E00D890CD33CC33CB33CA33CE2F1AEF22F0C4
:10447E00CF51D8B445EF22F047EF22F04FEF22F0A4
:10448E00D31FD21FD11FD06D000ED123D223D32321
:10449E00D0C5C6F5D1C5C7F5D2C5C8F5D3C5C9F5C2
:1044AE001200000E0A6E08BE61EF22F05FEF22F0DE
:1044BE006BEF22F0081E071E061E056C000E06226C
:1044CE0007220822010E0A6E04BE72EF22F070EF70
:1044DE0022F07CEF22F0041E031E021E016C000E61
:1044EE00022203220422010E0A1A000E0B6E000E87
:1044FE000C6E000E0D6E000E0E6E0550061007109F
:10450E000810D8B48DEF22F08FEF22F0C5EF22F015
:10451E00010E096E99EF22F0D89005360636073651
:10452E000836092A08AE9EEF22F0A0EF22F093EF94
:10453E0022F0D8900B360C360D360E360550015C37
:10454E00065002580750035808500458D8A0B2EF2E
:10455E0022F0B4EF22F0BDEF22F00550015E0650BE
:10456E00025A0750035A0850045A0B80D89008324A
:10457E00073206320532092EA0EF22F00A50D8B4C7
:10458E00CBEF22F0CDEF22F0D5EF22F00E1E0D1E56
:10459E000C1E0B6C000E0C220D220E220BC501F50B
:1045AE000CC502F50DC503F50EC504F5120061002C
:1045BE00D8F3C2F56100DCF3C3F56100E0F3C4F596
:1045CE006100D4F3C5F5A1AEEFEF22F0F1EF22F0CA
:1045DE00FCEF22F0B1AEF6EF22F0F8EF22F0FCEF96
:1045EE0022F01EEC2FF056EF23F09FA001EF23F0E8
:1045FE0003EF23F00EEF23F0AFA008EF23F00AEF46
:10460E0023F00EEF23F022EC2FF056EF23F0A1A6AD
:10461E0013EF23F015EF23F020EF23F0B1A61AEFDE
:10462E0023F01CEF23F020EF23F085EC2EF056EF55
:10463E0023F09EAC25EF23F027EF23F032EF23F08B
:10464E00AEAC2CEF23F02EEF23F032EF23F026EC5E
:10465E0021F056EF23F0A2A837EF23F039EF23F025
:10466E0044EF23F0B2A83EEF23F040EF23F044EFE7
:10467E0023F034EC2DF056EF23F0A1A849EF23F0F0
:10468E004BEF23F056EF23F0B1A850EF23F052EF8B
:10469E0023F056EF23F091EC27F056EF23F0610054
:1046AE0014F7F5F4610010F7F8F461000CF7F7F465
:1046BE00610008F7F6F411000501E635E735ED6FF8
:1046CE00ED51D8A46DEF23F06FEF23F079EF23F0C7
:1046DE00000EE46F000EE56F000EE66F000EE76F42
:1046EE00E6EF23F0E4C5E8F5E5C5E9F5E6C5EAF53C
:1046FE00E7C5EBF5200E89EF23F0D890EB33EA33C4
:10470E00E933E833E82E84EF23F0E851EC6FE68FBF
:10471E00FF0EE417FF0EE517FF0EE617000EE71764
:10472E00960EED5FEDBFA0EF23F09EEF23F0B6EFF8
:10473E0023F0ED51800A970FD8B0A8EF23F0AAEF1F
:10474E0023F0ACEF23F06FEF23F0D890E733E6338E
:10475E00E533E433ED3FACEF23F0CEEF23F01F0E45
:10476E00ED65BCEF23F0BEEF23F0C6EF23F06FEF45
:10477E0023F0D890E437E537E637E737ED07ED510C
:10478E00D8A4CCEF23F0CEEF23F0C0EF23F0EC5102
:10479E00D8B4D4EF23F0D6EF23F0DEEF23F0E71FEB
:1047AE00E61FE51FE46D000EE523E623E723E4C5CF
:1047BE00E4F5E5C5E5F5E6C5E6F5E7C5E7F512006E
:1047CE003A343B34416E4150D8A4F0EF23F0F2EF6F
:1047DE0023F0FCEF23F0000E386E000E396E000E43
:1047EE003A6E000E3B6E69EF24F038C53CF539C5C4
:1047FE003DF53AC53EF53BC53FF5200E0CEF24F0D6
:10480E00D8903F323E323D323C32E82E07EF24F054
:10481E003C50406E3A8EFF0E3816FF0E3916FF0EC4
:10482E003A16000E3B16960E415E41BE23EF24F063
:10483E0021EF24F039EF24F04150800A970FD8B0C1
:10484E002BEF24F02DEF24F02FEF24F0F2EF23F0D6
:10485E00D8903B323A3239323832413E2FEF24F083
:10486E0051EF24F01F0E41643FEF24F041EF24F08E
:10487E0049EF24F0F2EF23F0D890383639363A3635
:10488E003B3641064150D8A44FEF24F051EF24F0AF
:10489E0043EF24F04050D8B457EF24F059EF24F0F2
:1048AE0061EF24F03B1E3A1E391E386C000E392281
:1048BE003A223B2238C538F539C539F53AC53AF5AD
:1048CE003BC53BF51200490E0501C66F990EC76F29
:1048DE00000EC86F000EC96FF0C5CAF5F1C5CBF555
:1048EE00CC6BCD6BD1EC21F0C6C5F4F5C7C5F5F593
:1048FE006A0E0501D86F4D0ED96F930EDA6FBF0E8B
:10490E00DB6FF4C5C6F5F5C5C7F5C86BC96B000EF0
:10491E0070EC1FF0C6C5D4F5C7C5D5F5C8C5D6F51C
:10492E00C9C5D7F587EC12F0D4C5E4F5D5C5E5F5C4
:10493E00D6C5E6F5D7C5E7F563EC23F0E4C5F4F587
:10494E00E5C5F5F5EEC5F2F5EFC5F3F50501D89021
:10495E00F237F337D890F237F337F2C5F6F5F3C5E1
:10496E00F7F5F6C5C6F5F7C5C7F5000EC96F640EA7
:10497E00C86F1EEC2DF0C6C5F6F5C7C5F7F5F6C522
:10498E00C6F5F7C5C7F5F0C5C8F5F1C5C9F51CECF8
:10499E0029F0C6C5F6F5C7C5F7F5F6C5C6F5F7C5D0
:1049AE00C7F570EC2EF0F4C5C6F5F5C5C7F569EC84
:1049BE002EF037EC2FF01200490E0501C66F990E3E
:1049CE00C76F000EC86F000EC96FF0C5CAF5F1C5EE
:1049DE00CBF5CC6BCD6BD1EC21F0C6C5F4F5C7C5CC
:1049EE00F5F56A0E0501D86F4D0ED96F930EDA6F7D
:1049FE00BF0EDB6FF4C5C6F5F5C5C7F5C86BC96B41
:104A0E00000E70EC1FF0C6C5D4F5C7C5D5F5C8C5E8
:104A1E00D6F5C9C5D7F587EC12F0D4C5E4F5D5C5E2
:104A2E00E5F5D6C5E6F5D7C5E7F563EC23F0E4C5A5
:104A3E00F4F5E5C5F5F5EEC5F2F5EFC5F3F50501AF
:104A4E00D890F237F337D890F237F337F2C5F6F540
:104A5E00F3C5F7F5F6C5C6F5F7C5C7F5000EC96F70
:104A6E00640EC86F1EEC2DF0C6C5F6F5C7C5F7F57A
:104A7E00F6C5C6F5F7C5C7F5F0C5C8F5F1C5C9F554
:104A8E001CEC29F0C6C5F6F5C7C5F7F5F6C5C6F593
:104A9E00F7C5C7F57EEC2EF0F4C5C6F5F5C5C7F51E
:104AAE0077EC2EF03DEC2FF0120023C522F624C534
:104ABE0023F625C524F626C525F627C526F628C5D0
:104ACE0027F629C528F62AC529F61EC5BBF51FC52A
:104ADE00BCF520C5BDF521C5BEF50501BF9DBF9F27
:104AEE00BF93BF8122C52BF50F0E2B162B462B46DF
:104AFE00BF512B18C30B2B18BF6F220EC06F060EA3
:104B0E00C16F42EC2EF0E806D8A490EF25F092EF9C
:104B1E0025F096EF25F000F0010E0501AE6F37EC93
:104B2E002EF0E806D8A49EEF25F0A0EF25F0A4EF16
:104B3E0025F000F0010E0501AE6F2CEC2EF0E8060C
:104B4E00D8A4ACEF25F0AEEF25F0B2EF25F000F0D3
:104B5E00010E0501AE6FF0EC2DF0E806D8A4BAEF09
:104B6E0025F0BCEF25F0C0EF25F000F0010E050199
:104B7E00AE6F000E9CEC2DF02B6E2BA0C9EF25F026
:104B8E00CBEF25F0D3EF25F0BB0E186E050E196E88
:104B9E00000E95EC28F000F01200490E016E990EF1
:104BAE00026E000E036E000E046E44C505F545C57B
:104BBE0006F5076A086A58EC22F001C548F502C5E9
:104BCE0049F56A0E2C6E4D0E2D6E930E2E6EBF0E87
:104BDE002F6E48C501F549C502F5036A046A000E39
:104BEE004CEC20F001C528F502C529F503C52AF5C0
:104BFE0004C52BF5E8EC14F028C538F529C539F5B0
:104C0E002AC53AF52BC53BF5E7EC23F038C548F538
:104C1E0039C549F542C546F543C547F5D8904636E0
:104C2E004736D8904636473646C54AF547C54BF502
:104C3E004AC501F54BC502F5000E046E640E036EF7
:104C4E005FEC2DF001C54AF502C54BF54AC501F5DD
:104C5E004BC502F544C503F545C504F505EC2AF030
:104C6E0001C54AF502C54BF54AC501F54BC502F51E
:104C7E0091EC2EF048C501F549C502F58BEC2EF0EE
:104C8E003FEC2FF01200216E000E1D6E185015EC29
:104C9E002EF0206E20A056EF26F058EF26F0BEEF35
:104CAE0026F018500C0D580EF324D96E010EF42078
:104CBE00DA6E610078F31EF5610074F31FF51E5075
:104CCE001F10D8B46DEF26F06FEF26F0BEEF26F072
:104CDE001EC50CF51FC50DF519C50EF51AC50FF538
:104CEE003DEC1DF018500C0D510EF324D96E010E33
:104CFE00F420DA6E000EDB802150020DFB0EF32441
:104D0E00D96E050EF420DA6EDF2A1850E1EC2DF084
:104D1E001B6E2150020DFB0EF324D96E050EF420EE
:104D2E00DA6E1B50DE5CD8A09FEF26F0A1EF26F0C6
:104D3E00ABEF26F02150020DFB0EF324D96E050EBB
:104D4E00F420DA6E000EDF6E20A6B0EF26F0B2EF82
:104D5E0026F0BCEF26F018500C0D540EF324D96E2D
:104D6E00010EF420DA6EF70EDF16010E1D6E1D50C9
:104D7E001200076E000E096E20EE04F00250D926C6
:104D8E000350DA22DF500A6E0AAED0EF26F0D2EFD1
:104D9E0026F0DDEF26F014EC2FF0060AD8A4DAEF99
:104DAE0026F0DCEF26F0DDEF26F009820A30E8323D
:104DBE000F0B046E080E0464E7EF26F0E9EF26F001
:104DCE00FBEF26F00AACEEEF26F0F0EF26F0FAEF4E
:104DDE0026F014EC2FF0060AD8A4F8EF26F0FAEF1E
:104DEE0026F0FBEF26F00980090EF66E250EF76E03
:104DFE00F86A08006100D4F304F50A30E8320F0BAC
:104E0E00056E066A010E0524F66E250E0620F76E57
:104E1E00F86A000EF8220800F550045CD8B01AEFBC
:104E2E0027F01CEF27F01DEF27F00980075009EC43
:104E3E002EF00009D8A426EF27F028EF27F02AEF4E
:104E4E0027F0030E091209501200000E036E000E19
:104E5E000A6E0A50020DFA0EF324D96E050EF420D6
:104E6E00DA6EDF50066E065015EC2EF0056E05A0BC
:104E7E0043EF27F045EF27F086EF27F00650E1ECE1
:104E8E002DF0076E05A64EEF27F050EF27F054EFEA
:104E9E0027F007C504F584EF27F006500C0D550ECC
:104EAE00F324D96E010EF420DA6EDF501F0B086E5C
:104EBE000A50020DFB0EF324D96E050EF420DA6EA5
:104ECE00DF50096E0950085CD8B070EF27F072EF12
:104EDE0027F078EF27F00950085C0724046E84EF62
:104EEE0027F00850095CD8B07FEF27F081EF27F04C
:104EFE0050EF27F00950085C046E045003260A2A6E
:104F0E000A50D8B48DEF27F08FEF27F030EF27F04F
:104F1E0003501200B198F8C501F5F9C502F5C2ECBF
:104F2E002CF0D9EC2CF029EC2FF00501B32B060E4A
:104F3E00B319D8A4A5EF27F0A7EF27F0ABEF27F012
:104F4E00000EB36FA1EC2BF00501B22B0B0EB219B4
:104F5E00D8A4B4EF27F0B6EF27F0BAEF27F0000E83
:104F6E00B26FD4EC2AF00501B12B650EB119D8A49D
:104F7E00C3EF27F0C5EF27F0C9EF27F0000EB16F92
:104F8E0047EC2FF00501764B772B2D0E761906E1A7
:104F9E007705D8A4D5EF27F0D7EF27F0DDEF27F070
:104FAE00000E776F000E766F45EC2FF00501744BF7
:104FBE00752B590E741907E1020E7519D8A4EAEF74
:104FCE0027F0ECEF27F0F2EF27F0000E756F000ED2
:104FDE00746F46EC2FF01200000E6FEC19F04D6E50
:104FEE004D5005016E6F6F6B000E026E0A0E016E54
:104FFE00F0EC2CF0010E6FEC19F04D6E4D500501DA
:10500E006C6F6D6B000E026E0A0E016EF0EC2CF0E2
:10501E00020E6FEC19F04D6E4D5005016A6F6B6B01
:10502E00000E026E0A0E016EF0EC2CF0030E6FEC09
:10503E0019F04D6E4D500501686F696B000E026ED2
:10504E000A0E016EF0EC2CF0040E6FEC19F04D6EA2
:10505E004D500501666F676B000E026E0A0E016EF3
:10506E00F0EC2CF0050E6FEC19F04D6E4D50050165
:10507E00646F656B000E026E0A0E016EF0EC2CF082
:10508E0000F012000501C86F000E0501C76FCEECCF
:10509E002EF00501C66F040EC619D8B459EF28F0CC
:1050AE005BEF28F06CEF28F0C805D8B461EF28F05C
:1050BE0063EF28F06CEF28F0040EC819D8A46AEF3D
:1050CE0028F06CEF28F091EF28F001010351050153
:1050DE00C819F80BC8190101036F83EF28F00101FD
:1050EE001DA97CEF28F07EEF28F083EF28F0020E4A
:1050FE000501C76F93EF28F00239E832070B05015F
:10510E00C819D8A48DEF28F08FEF28F076EF28F08D
:10511E0093EF28F0010EC76FC75112001D6E1D5080
:10512E00C3EC2BF00009D8B49FEF28F0A1EF28F0C4
:10513E00DEEF28F018C502F519C503F51D50C0ECB9
:10514E0026F01A6E1A50D8A4AFEF28F0B1EF28F05F
:10515E00DEEF28F01D500C0D580EF324D96E010E03
:10516E00F420DA6E610078F31BF5610074F31CF520
:10517E001B501C10D8B4C6EF28F0C8EF28F0DEEF95
:10518E0028F01BC50CF51CC50DF518C50EF519C577
:10519E000FF51AEC1CF01D500C0D510EF324D96EA8
:1051AE00010EF420DA6E030EDF12DEEF28F012008D
:1051BE009C0E0501C66F5E0EC76FE7EC2EF09E0EBD
:1051CE000501C66F5E0EC76FECEC2EF0A00E05014A
:1051DE00C66F5E0EC76FF1EC2EF09A0E0501C66F0C
:1051EE005E0EC76FE2EC2EF0960E0501C66F5E0ED8
:1051FE00C76FD8EC2EF0940E0501C66F5E0EC76F0A
:10520E00D3EC2EF0980E0501C66F5E0EC76FDDEC67
:10521E002EF0AE9C000E01011C6F000E1D6F0A0ECB
:10522E001E6FFC0E1F6F9E8C1200000E0501CC6FC0
:10523E00000ECB6FC851C911D8B428EF29F02AEF50
:10524E0029F052EF29F0010ECA6F32EF29F0D890F3
:10525E00C837C937CA2BC9AF37EF29F039EF29F054
:10526E002EEF29F0D890CB37CC37C851C65DC95137
:10527E00C759D8A045EF29F047EF29F04CEF29F098
:10528E00C851C65FC951C75BCB81D890C933C833EB
:10529E00CA2F39EF29F0CBC5C6F5CCC5C7F512001C
:1052AE00000E6F6E020E706E000E716E500E726EEC
:1052BE000F0E736EFE0E746E000E756E000E766E11
:1052CE00000E776E000E796E0D0E7A6E050E7B6EE9
:1052DE00A80E7C6E070E7D6EB39CB39E7690769272
:1052EE00A39EA39C000E0501C66F000EC76FABEC0C
:1052FE002EF0000E0501C66F000EC76FA6EC2EF045
:10530E00000E0501C66F000EC76FB0EC2EF0800EBA
:10531E00786E1200000E606E020E616E000E626EEE
:10532E003D0E636E000E646EFE0E656E000E666EB2
:10533E00000E676E000E686E000E6A6E1F0E6B6EAC
:10534E00000E6C6E1F0E6D6E000E6E6EB29CB29ED7
:10535E0067906792A29EA29C000E0501C66F000E7A
:10536E00C76FBAEC2EF0000E0501C66F000EC76FA8
:10537E00B5EC2EF0000E0501C66F000EC76FBFEC28
:10538E002EF0800E696E12000601326F0501910536
:10539E00D8A4D4EF29F0D6EF29F004EF2AF0B00507
:1053AE00D8A4DCEF29F0DEEF29F004EF2AF0060195
:1053BE0032513C0D6100CCF370F56100D0F371F504
:1053CE0070C5C6F571C5C7F5000E0501C96F640E2F
:1053DE00C86F1CEC29F0C6C570F5C7C571F505017F
:1053EE007051706F716B70C5EEF571C5EFF5010EF2
:1053FE00F16F2C0EF06F6AEC24F01200000E066EA8
:10540E00000E056E03500410D8B410EF2AF012EF00
:10541E002AF03AEF2AF0010E076E1AEF2AF0D89012
:10542E0003360436072A04AE1FEF2AF021EF2AF0C6
:10543E0016EF2AF0D890053606360350015C04505C
:10544E000258D8A02DEF2AF02FEF2AF034EF2AF0D1
:10545E000350015E0450025A0580D8900432033284
:10546E00072E21EF2AF005C501F506C502F512003B
:10547E00000EBE6E000EBF6E000EC06E080ECA6E1F
:10548E00EF0EC66EC80EC76EDC0EC86ED80E0401C7
:10549E00106F400E086FCF0E006F000E216F000EC2
:1054AE00096F000E016F000E116F000E026F000EDD
:1054BE000A6F000E126F03690B69136904690C6998
:1054CE001469080E246F180E0201116F0F0E696F0A
:1054DE00050E3E6F1A0E126F0B0E3D6F460E0D6FC0
:1054EE0012000101018F040E49EC28F00009D8A426
:1054FE0083EF2AF085EF2AF0A5EF2AF0000E0101C6
:10550E004C6F260E4D6F000E4E6F000E4F6F600EDD
:10551E00006F970E016F100E026F57EC2EF04DECD0
:10552E002EF04AEC2DF0B0EC2DF094EC2CF0DFECDC
:10553E0028F0060E49EC28F0C79ABF9A1200060111
:10554E00346FBDEF2AF03BEC2FF0D3EF2AF039EC9D
:10555E002FF0000E0501EF6F320EEE6F000EF16FA1
:10556E001E0EF06FE3EC24F0D3EF2AF00601345157
:10557E00326F336B3351000AD8B4C8EF2AF0D3EF31
:10558E002AF03251000AD8B4AAEF2AF0010AD8B490
:10559E00AEEF2AF0D3EF2AF01200BEB8D9EF2AF000
:1055AE00DCEF2AF0010EDDEF2AF0000EFF0A2C6E62
:1055BE002C3ABE502C18EF0B2C18BE6E600E1E6EC1
:1055CE00030E1F6E000E206E000E216E080E226E50
:1055DE006EC523F56CC524F56AC525F568C526F597
:1055EE0066C527F564C528F562C529F560C52AF597
:1055FE005CEC25F0120003C509F504C50AF501C5DA
:10560E0007F502C508F521EF2BF0610024F4D9F45B
:10561E00610028F4DAF4DF500B6E094A0A2A6100A1
:10562E001CF4D9F4610020F4DAF461002CF4DFF4F8
:10563E00074A082A0506D8A00606052806E1062808
:10564E00D8A42CEF2BF02EEF2BF00CEF2BF012003A
:10565E00000E256E2550020DFA0EF324D96E050E9E
:10566E00F420DA6EDF50186E22C519F523C51AF52F
:10567E0025504AEC26F0246E2450D8B449EF2BF076
:10568E004BEF2BF04DEF2BF056EF2BF0252A25503C
:10569E00D8B454EF2BF056EF2BF031EF2BF0245003
:1056AE001200820EF66E5E0EF76E000EF86E090098
:1056BE006100D4F3FAF509006100D4F3FBF501EEB5
:1056CE001AF2180EEE6AE806FDE101EE60F1620EC6
:1056DE00EE6AE806FDE15F6A0401080E5D6F000EDA
:1056EE005E6F000E5F6F0001E2EF2BF0000E030104
:1056FE001F6F000E206F010E216F850E1D6FEE0EB7
:10570E001C6FB1981C51600074FCC8F50501C96B83
:10571E00C8C5C9F5C86BC811F86FC951F96FA18812
:10572E00880EC66F5E0EC76F9CEC2EF0310E030115
:10573E001E6F1200C1EC2DF0000E0501AD6F610E53
:10574E001E6E030E1F6E000E206E000E216E080ED2
:10575E00226E000E236E000E246E000E256E000EBD
:10576E00266E000E276E000E286E000E296E96C550
:10577E002AF55CEC25F01200026E000E016E040E8E
:10578E000260CCEF2BF0CEEF2BF0E0EF2BF00250BF
:10579E000C0D500EF324D96E010EF420DA6E0101B9
:1057AE00DFAEDCEF2BF0DEEF2BF0E0EF2BF0010E97
:1057BE00016E0150120019EC2CF0D68E000E7CEC0E
:1057CE002CF0D2EC2DF026EC2FF061EC2EF000F048
:1057DE000501B005D8A4F6EF2BF0F8EF2BF0EEEFA5
:1057EE002BF0AF51CBEC29F0EEEF2BF00DEF00F0DC
:1057FE00000ECEBA010E0501966F9605D8A40AEFDB
:10580E002CF00CEF2CF018EF2CF0000E6FEC19F0C2
:10581E000501956F010E6FEC19F00501946F70C5BF
:10582E0097F5120035EC2FF088EC2DF05DEC1EF0A4
:10583E003FEC2AF0FDEC2DF064EC2CF07DEC2BF01F
:10584E0021EC2EF074EC2DF057EC29F078EC2AF0C8
:10585E0091EC29F01200FFEC2BF0060118511911F2
:10586E00D8B43CEF2CF03EEF2CF04AEF2CF002D8DF
:10587E004AEF2CF00500FA6E1851FD6E1951FE6EAE
:10588E00FF6AFA5012001200056E610014F4ECF378
:10589E000301F38FF39DF381F3B158EF2CF05AEF20
:1058AE002CF053EF2CF0EB51046E036AEA510324F3
:1058BE00016E000E0420026E1200010E0301266F0F
:1058CE00000E256F000E276FC20E236F000E226F83
:1058DE00B196A186840E0501C66F5E0EC76F97EC5A
:1058EE002EF0F00E0301246F12000501C66F0501A4
:1058FE00C605D8A485EF2CF087EF2CF08AEF2CF09C
:10590E009E8C93EF2CF0C651D8A490EF2CF092EF12
:10591E002CF093EF2CF09E9C1200000E0501C66F2A
:10592E00C651020DFB0EF324D96E050EF420DA6E6D
:10593E00000EDF6EC62BC651D8B4A8EF2CF0AAEF1E
:10594E002CF097EF2CF01200060102510311D8B47F
:10595E00B3EF2CF0B5EF2CF0C1EF2CF002D8C1EF65
:10596E002CF00500FA6E0251FD6E0351FE6EFF6AB9
:10597E00FA501200120003011EA5C8EF2CF0CAEF58
:10598E002CF0D3EF2CF01E9102501D6F610004F429
:10599E001CF31E81D8EF2CF002501D6F610004F431
:1059AE001CF31200060104510511D8B4E1EF2CF0DE
:1059BE00E3EF2CF0EFEF2CF002D8EFEF2CF0050018
:1059CE00FA6E0451FD6E0551FE6EFF6AFA5012001A
:1059DE001200F9EF2CF0040E036E3E0EE82EFED7E9
:1059EE00032EFCD70106D8A00206012806E10228E4
:1059FE00D8A404EF2DF006EF2DF0F2EF2CF01200EC
:105A0E00060100510111D8B40FEF2DF011EF2DF05A
:105A1E001DEF2DF002D81DEF2DF00500FA6E00518E
:105A2E00FD6E0151FE6EFF6AFA5012001200050162
:105A3E00C651C8036100CCF3CAF56100D0F3CBF5B3
:105A4E00C651C903F350CB27C751C803F350CB2718
:105A5E00CAC5C6F5CBC5C7F51200010160A13AEF64
:105A6E002DF03CEF2DF049EF2DF002D849EF2DF03F
:105A7E000500FA6E05018651FD6E8751FE6EFF6AB6
:105A8E00FA5012001200190E01015C6F040E5D6FC8
:105A9E00600E5E6F050E5F6F640E0501C66F5E0EC3
:105AAE00C76FC9EC2EF001011E83B298A2881200B6
:105ABE00015003026100CCF305F56100D0F306F549
:105ACE0001500402F350062602500302F35006263C
:105ADE0005C501F506C502F51200440E03011B6F44
:105AEE009B0E196F000E186FB19EA18E900E0501C0
:105AFE00C66F5E0EC76FA1EC2EF0800E03011A6FFB
:105B0E001200000E0001606F000E616F000E626FDA
:105B1E00000E636F000E646F000E656F000E666FF1
:105B2E00000E676F000E686F1200046E000E036E9B
:105B3E000450C3EC2BF00009D8B4A8EF2DF0AAEF57
:105B4E002DF0AEEF2DF0045009EC2EF0036E035045
:105B5E0012005F0E0101946F956996699769000EA8
:105B6E00986F000E996F000E9A6F000E9B6F810E4C
:105B7E00816F120000F00501AD05D8A4C9EF2DF01C
:105B8E00CBEF2DF0CFEF2DF0010E916FD1EF2DF069
:105B9E00000E916F1200040100810083108F108D92
:105BAE0010891087C698C790C794C792C79AC884A1
:105BBE00C89A1200026E02500C0D530EF324D96EC9
:105BCE00010EF420DA6EDF50016E1F0E0116012851
:105BDE00120037EC2EF00009D8B4F8EF2DF0FBEFE1
:105BEE002DF0010EFCEF2DF0000E1200700E0001D4
:105BFE00AD6F000EAF6F000EB36F020EB16F000EE1
:105C0E00B06F1200016E01500C0D540EF324D96EBC
:105C1E00010EF420DA6EDF50010B1200016E0150FE
:105C2E000C0D540EF324D96E010EF420DA6EDF50F3
:105C3E00090B1200AF90D680920E0501C66F5E0E54
:105C4E00C76FC4EC2EF09F801200010136B532EF03
:105C5E002EF035EF2EF0010E36EF2EF0000E120064
:105C6E00010136B93DEF2EF040EF2EF0010E41EF5F
:105C7E002EF0000E1200010136BB48EF2EF04BEF56
:105C8E002EF0010E4CEF2EF0000E1200100E010140
:105C9E00506F040E516F610E526F050E536F12004E
:105CAE00010E0101046F010E056F060E066F000E48
:105CBE00076F1200BF84BF82010EA6EC2AF0C08AC5
:105CCE00BF801200610018F763F40501C751646EBE
:105CDE001200610018F76BF40501C7516C6E1200CB
:105CEE00610018F772F40501C751736E120061005E
:105CFE0018F77AF40501C7517B6E1200B196ABEC22
:105D0E002CF043EC2FF01200610004F463F4025007
:105D1E00646E1200610004F46BF402506C6E12009B
:105D2E00C6C502F6C7C503F61200C6C504F6C7C53A
:105D3E0005F61200C6C500F6C7C501F61200C6C5A7
:105D4E0008F6C7C509F61200C6C50AF6C7C50BF692
:105D5E001200C6C506F6C7C507F61200C6C58AF5F7
:105D6E00C7C58BF51200C6C58CF5C7C58DF51200DB
:105D7E00C6C588F5C7C589F51200C6C518F6C7C5CC
:105D8E0019F61200C6C586F5C7C587F512000101C2
:105D9E000239E832070B1200C6C57AF5C7C57BF586
:105DAE001200C6C57CF5C7C57DF51200C6C578F5CF
:105DBE00C7C579F51200C6C57EF5C7C57FF51200B9
:105DCE00C6C584F5C7C585F51200C6C582F5C7C51B
:105DDE0083F51200C6C580F5C7C581F51200C6C58C
:105DEE000EF6C7C50FF61200C6C510F6C7C511F6DA
:105DFE001200C6C512F6C7C513F61200C6C514F6B4
:105E0E00C7C515F61200C6C50CF6C7C50DF61200AD
:105E1E00C6C516F6C7C517F6120001010239E832DB
:105E2E00070B1200016E610004F4FBF31200B19E29
:105E3E0007EC2DF01200AF9032EC2CF012000301A3
:105E4E001A9F1200F3EC27F012000301F3911200D7
:105E5E000301F39B1200D2EC1AF01200D69A120034
:105E6E0069841200788E1200789E120078841200D7
:105E7E0069841200010012001200120012001200BA
:105E8E001200120012001200120012001200120074
:045E9E0012001200DC
:020000040020DA
:10000000FF0FFF0FFF0FFF0FFF0FFF0FFF0FFF0F80
:10001000FF0FFF0FFF0FFF0FFF0FFF0FFF0FFF0F70
:10002000FF0FFF0FFF0FFF0FFF0FFF0FFF0FFF0F60
:10003000FF0FFF0FFF0FFF0FFF0FFF0FFF0FFF0F50
:020000040030CA
:10000000FAEFF7DF9FFFFFFFFFFFFFFFFFFFFFFF9D
:10001000FFFFFFFFFFFFFFFFFFFFFFFFFFFFFFFFF0
:04002000FFFFFFFFE0
:00000001FF
