:020000040000FA
:040000000DEF00F010
:0400080082EF1FF074
:06001800FF00B4EF25F02B
:0D2600000000010203040506070850010058
:10260E002B50800B346E2B502B24366E2AAE12EFCD
:10261E0013F014EF13F015EF13F036803650D8B4D4
:10262E001BEF13F01DEF13F032EF13F03628D8A482
:10263E0023EF13F025EF13F02DEF13F0000E286E9D
:10264E00000E296E000E2A6E000E2B6E2A8E000EC4
:10265E002B6E3AEF13F0000E286E000E296E000E50
:10266E002A6E000E2B6E2F50800B356E345035189F
:10267E00D8B444EF13F046EF13F047EF13F0348C59
:10268E002F502F24356E2EAE4FEF13F051EF13F067
:10269E0052EF13F035803550D8B458EF13F05AEF8F
:1026AE0013F06FEF13F03528D8A460EF13F062EF3C
:1026BE0013F06AEF13F0000E2C6E000E2D6E000E4E
:1026CE002E6E000E2F6E2E8E000E2F6E77EF13F0E5
:1026DE00000E2C6E000E2D6E000E2E6E000E2F6E46
:1026EE003650355CD8B07EEF13F080EF13F0A7EFC5
:1026FE0013F034AC85EF13F087EF13F089EF13F07E
:10270E00800E341A36C537F535C536F537C535F56D
:10271E0028C537F52CC528F537C52CF529C537F54D
:10272E002DC529F537C52DF52AC537F52EC52AF540
:10273E0037C52EF52BC537F52FC52BF537C52FF51C
:10274E00000E376E365035C530F5316A305E000EEC
:10275E00315A31BEBCEF13F0315009E11A0E305C24
:10276E00D8A0BCEF13F0BEEF13F0F5EF13F0285026
:10277E0029102A102B10D8A4C7EF13F0CAEF13F0AC
:10278E00010ECBEF13F0000E376E000E286E000E0A
:10279E00296E000E2A6E000E2B6E35C536F5FEEF35
:1027AE0013F037A0DDEF13F0DFEF13F0E5EF13F0CA
:1027BE00D89037300109376EE7EF13F0D8903732E3
:1027CE0028A0ECEF13F0EEEF13F0EFEF13F0378ECF
:1027DE002B342B322A3229322832362A3550365CA7
:1027EE00D8A0FCEF13F0FEEF13F0D8EF13F034BCCB
:1027FE0003EF14F005EF14F045EF14F03650D8A4A3
:10280E000BEF14F00DEF14F017EF14F0000E286E0E
:10281E00000E296E000E2A6E000E2B6E66EF15F05E
:10282E002C5028262D5029222E502A222F502B2272
:10283E002BA024EF14F026EF14F0D2EF14F037A0F3
:10284E002BEF14F02DEF14F033EF14F0D890373047
:10285E000109376E35EF14F0D890373228A03AEFD1
:10286E0014F03CEF14F03DEF14F0378E2B342B3276
:10287E002A3229322832362AD2EF14F02C50285C14
:10288E002D5029582E502A582B50800A306E2F501A
:10289E00800A3058D8B056EF14F058EF14F083EF8A
:1028AE0014F028502C5C306E29502D58316E2A5061
:1028BE002E58326E2B502F58336EFF0E3024286E4A
:1028CE00FF0E3120296EFF0E32202A6EFF0E3320AE
:1028DE002B6E800E341A376C3750D8A479EF14F063
:1028EE007BEF14F08BEF14F0010E2826000E292238
:1028FE002A222B228BEF14F02C50285E2D50295AB1
:10290E002E502A5A2F502B5A285029102A102B108D
:10291E00D8A494EF14F096EF14F0CBEF14F03750D8
:10292E00D8A49CEF14F09EEF14F0CBEF14F0000E31
:10293E00286E000E296E000E2A6E000E2B6E66EFAC
:10294E0015F0D890283629362A362B3637AEB2EF08
:10295E0014F0B4EF14F0B5EF14F0288037A0BAEFEE
:10296E0014F0BCEF14F0C0EF14F0D8803736C2EF7D
:10297E0014F0D89037363650D8B4C8EF14F0CAEFEA
:10298E0014F0CBEF14F036062AAED0EF14F0D2EFDF
:10299E0014F0A8EF14F0000E356E37AED9EF14F028
:1029AE00DBEF14F0F3EF14F037C530F57F0E301671
:1029BE00D8B4E4EF14F0E6EF14F0EAEF14F0010EE1
:1029CE00356EF3EF14F028A0EFEF14F0F1EF14F0E2
:1029DE00F3EF14F0E6EF14F03550D8B4F9EF14F02D
:1029EE00FBEF14F026EF15F0010E2826000E29221B
:1029FE002A222B222BA006EF15F008EF15F026EF5A
:102A0E0015F028C530F529C531F52AC532F52BC587
:102A1E0033F53334333232323132303230C528F579
:102A2E0031C529F532C52AF533C52BF53628D8B46C
:102A3E0023EF15F025EF15F026EF15F0362A362880
:102A4E00D8B42CEF15F02EEF15F036EF15F03650FA
:102A5E00D8A434EF15F036EF15F048EF15F0000E50
:102A6E00286E000E296E000E2A6E000E2B6E36504A
:102A7E00D8A444EF15F046EF15F048EF15F0000E10
:102A8E00346E36A04DEF15F04FEF15F052EF15F0F6
:102A9E002A8E53EF15F02A9ED89036302B6E34AE18
:102AAE005BEF15F05DEF15F05EEF15F02B8E28C580
:102ABE0028F529C529F52AC52AF52BC52BF51200AF
:102ACE001250800B1B6E12501224216E11AE72EF3B
:102ADE0015F074EF15F075EF15F021802150D8B474
:102AEE007BEF15F07DEF15F090EF15F02128D8A4AF
:102AFE0083EF15F085EF15F08DEF15F0000E0F6ECC
:102B0E00000E106E000E116E000E126E118E98EFEA
:102B1E0015F0000E0F6E000E106E000E116E000EF0
:102B2E00126E1650800B1B1A16501624206E15AE00
:102B3E00A3EF15F0A5EF15F0A6EF15F020802050AD
:102B4E00D8B4ACEF15F0AEEF15F0C1EF15F02028AC
:102B5E00D8A4B4EF15F0B6EF15F0BEEF15F0000ED9
:102B6E00136E000E146E000E156E000E166E158E80
:102B7E00C9EF15F0000E136E000E146E000E156EDA
:102B8E00000E166E2050D8B4CFEF15F0D1EF15F021
:102B9E00D9EF15F02150D8A4D7EF15F0D9EF15F0D5
:102BAE00E3EF15F0000E0F6E000E106E000E116E9C
:102BBE00000E126E8DEF17F015500F026100CCF360
:102BCE0026F56100D0F327F526501C6E1D6A1E6A8D
:102BDE001F6A2750226E236A246A256A1450100237
:102BEE006100CCF326F56100D0F327F526501C26A4
:102BFE00000E1D221E221F2227502226000E2322E7
:102C0E0024222522135011026100CCF326F5610017
:102C1E00D0F327F526501C26000E1D221E221F2241
:102C2E0027502226000E2322242225221EC51FF500
:102C3E001DC51EF51CC51DF51C6A13501002610042
:102C4E00CCF326F56100D0F327F526501C2627502D
:102C5E001D22000E1E22000E1F2214500F026100B4
:102C6E00CCF326F56100D0F327F526501C2627500D
:102C7E001D22000E1E22000E1F221EC51FF51DC591
:102C8E001EF51CC51DF51C6A13500F026100CCF316
:102C9E0026F56100D0F327F526501C2627501D225D
:102CAE00000E1E22000E1F22155010026100CCF3E2
:102CBE0026F56100D0F327F5265022262750232231
:102CCE00000E2422000E2522145011026100CCF3B6
:102CDE0026F56100D0F327F5265022262750232211
:102CEE00000E2422000E2522155011026100CCF395
:102CFE0026F56100D0F327F52650176E2750186E73
:102D0E00196A1A6A19C51AF518C519F517C518F5ED
:102D1E00176A1750222618502322195024221A50AF
:102D2E0025221CC517F51DC518F51EC519F51FC59D
:102D3E001AF5190EA8EF16F0D8901A321932183269
:102D4E001732E82EA3EF16F0175022261850232222
:102D5E00195024221A5025221EC51FF51DC51EF519
:102D6E001CC51DF51C6A205021C517F5186A1726BB
:102D7E00000E1822820E1724266EFF0E1820276EC4
:102D8E00DEEF16F0D89022362336243625361FAEC7
:102D9E00D3EF16F0D5EF16F0D6EF16F02280D890BE
:102DAE001C361D361E361F362606D8A0270624AE24
:102DBE00E3EF16F0E5EF16F0C9EF16F0000E206EF9
:102DCE001FAEECEF16F0EEEF16F012EF17F0FF0E4F
:102DDE001C14176EFF0E1D14186EFF0E1E14196EA6
:102DEE007F0E1F141A6E1750181019101A10D8B41F
:102DFE0003EF17F005EF17F009EF17F0010E206E35
:102E0E0012EF17F022A00EEF17F010EF17F012EFDF
:102E1E0017F005EF17F02050D8B418EF17F01AEF8F
:102E2E0017F03EEF17F0010E2226000E2322242269
:102E3E00252225A025EF17F027EF17F03EEF17F00C
:102E4E0022C517F523C518F524C519F525C51AF59C
:102E5E001A341A3219321832173217C522F518C51C
:102E6E0023F519C524F51AC525F5264A272A27BEA6
:102E7E0049EF17F0275008E12628D8A049EF17F0A0
:102E8E004BEF17F055EF17F0000E226E000E236E6B
:102E9E00800E246E7F0E256E83EF17F027BE62EF35
:102EAE0017F0275006E12604D8B060EF17F062EF56
:102EBE0017F06EEF17F0000E226E000E236E000E4E
:102ECE00246E000E256E000E1B6E83EF17F026C5C6
:102EDE0021F5FF0E2216FF0E23167F0E2416000E6E
:102EEE00251621A07DEF17F07FEF17F080EF17F07A
:102EFE00248ED8902130256E1B50251222C50FF539
:102F0E0023C510F524C511F525C512F51200446E22
:102F1E00F6EF17F055EC29F0000E42EC29F0000EFA
:102F2E00B9EC26F001C547F502C548F552EC29F07B
:102F3E00010E466E1BEF18F055EC29F0010E42EC17
:102F4E0029F0010EB9EC26F001C547F502C548F58A
:102F5E009DEF17F055EC29F0020E42EC29F0170EFA
:102F6E00B9EC26F001C547F502C548F552EC29F03B
:102F7E00020E466E1BEF18F055EC29F0030E42ECD4
:102F8E0029F0160EB9EC26F001C547F502C548F535
:102F9E00BDEF17F0D0B8D6EF17F0DAEF17F0426AA0
:102FAE00422ADBEF17F0426A4250476E486A020E21
:102FBE00466E1BEF18F0D0B6E7EF17F0EBEF17F0F9
:102FCE00426A422AECEF17F0426A4250476E486A54
:102FDE00020E466E1BEF18F046681BEF18F04450B9
:102FEE00426E436A4350000AD8B400EF18F0F3EF74
:102FFE0017F04250000AD8B491EF17F0010AD8B476
:10300E00A3EF17F0030AD8B4B1EF17F0010AD8B442
:10301E00C3EF17F0070AD8B4D1EF17F0010AD8B4EE
:10302E00E2EF17F0F3EF17F000F04604D8A422EF0A
:10303E0018F024EF18F08BEF18F0485007E1070E48
:10304E00475CD8B02DEF18F02FEF18F035EF18F0D1
:10305E00000E4C6E000E4B6E3FEF18F047C54BF551
:10306E0048C54CF5FB0E4B244B6EFF0E4C204C6EA0
:10307E00890E4B5C130E4C58D8A048EF18F04AEF4F
:10308E0018F04CEF18F0F1EF18F04BC501F54CC5E8
:10309E0002F5000E046E050E036EB8EC24F001C5A9
:1030AE0049F502C54AF59C0E4924496EFF0E4A2089
:1030BE004A6E49C501F54AC502F5000E046E0A0EA8
:1030CE00036E9FEC27F001C549F502C54AF549C5C7
:1030DE0001F54AC502F5000E046EE80E036EB8EC5B
:1030EE0024F001C549F502C54AF54BC501F54CC59D
:1030FE0002F5000E046E640E036EB8EC24F001505F
:10310E00456E4550F1EF18F0020E4618D8A492EF16
:10311E0018F094EF18F0F1EF18F06F0E2C6E810E80
:10312E002D6EA80E2E6EC00E2F6EB30E136E7B0E6E
:10313E00146E920E156E3F0E166E47C501F548C5FC
:10314E0002F5036A046A000E77EC1DF001C50FF557
:10315E0002C510F503C511F504C512F567EC15F09F
:10316E000FC528F510C529F511C52AF512C52BF581
:10317E0007EC13F028C538F529C539F52AC53AF5F7
:10318E002BC53BF507EC20F038C54BF539C54CF592
:10319E00890E4B5C130E4C58D8A0D8EF18F0DAEF0E
:1031AE0018F0DCEF18F0F1EF18F0D8904B34496EB0
:1031BE004C344A6E49C501F54AC502F5000E046E3F
:1031CE00640E036EB8EC24F001C549F502C54AF54C
:1031DE007CEF18F0120056EC22F00009D8B4FAEF8A
:1031EE0018F0FCEF18F020EF1AF0BB0E226E050E51
:1031FE00236EDEEC25F0E806D8A408EF19F00AEFEE
:10320E0019F020EF1AF000F0BBC5E7F5BCC5E8F5E4
:10321E00BDC5E9F5BEC5EAF5610000F7D9F4610058
:10322E0004F7DAF4DF500501F26F20EE01F0C05121
:10323E00D926C151DA22DF50F16F20EE02F0C051D3
:10324E00D926C151DA22DF50F06F20EE03F0C051C3
:10325E00D926C151DA22DF50EE6F20EE04F0C051B4
:10326E00D926C151DA22DF50EF6F20EE05F0C051A2
:10327E00D926C151DA22DF50ED6F20EE06F0C05193
:10328E00D926C151DA22DF50EB6F20EE07F0C05184
:10329E00D926C151DA22DF50EC6FDAEF19F0F2C500
:1032AE00B1F5F1C5B0F5F0C5AFF5EEC5AEF5EFC5AC
:1032BE00ADF5AF5159EC25F020EF1AF0F251070B96
:1032CE00AC6FF251180BAB6FF251E00BAA6FF151CC
:1032DE00010BA96FF151060BA86FF151780BA76F77
:1032EE00F0C54DF57F0E4D164E6AF1AF01D04E2A48
:1032FE004E304D34A66FEE514D6E4E6AD8904D360F
:10330E004E36EF51506E4F6A4D504F124E50501276
:10331E00516AF0AF01D0512A010E511651504F1083
:10332E00766F5050776F20EF1AF0F2C5A5F5F1C504
:10333E00A4F5F0C5A3F5EEC5A2F5EFC5A1F5EDC553
:10334E00A0F5EBC59FF5ECC59EF520EF1AF0F251F6
:10335E00F1C54DF54E6A4DC54EF54D6A4D10746F63
:10336E004E50756FF051EEC54DF54E6A4DC54EF58A
:10337E004D6A4D10726F4E50736FEF51EDC54DF596
:10338E004E6A4DC54EF54D6A4D10706F4E50716FB1
:10339E0020EF1AF0F2C5AFF5F2C59BF520EF1AF04B
:1033AE0000F020EF1AF0E7C54DF5E8C54EF5E9C57A
:1033BE004FF5EAC550F55050000AD8B419EF1AF07F
:1033CE00D7EF19F04E50030AD8B4F8EF19F0070AE8
:1033DE00D8B403EF1AF0010AD8B40AEF1AF0D7EFF7
:1033EE0019F04D50200AD8B456EF19F0650AD8B42A
:1033FE00D3EF19F0D7EF19F04D50120AD8B4D1EF20
:10340E0019F0D7EF19F04D50000AD8B465EF19F046
:10341E00010AD8B49CEF19F0030AD8B4AEEF19F034
:10342E00D7EF19F04F50000AD8B4E9EF19F0D7EFE3
:10343E0019F01200610038F4D9F461003CF4DAF4AA
:10344E00610078F314F5610078F315F5610078F3F7
:10345E0016F5610078F317F520EE04F00E50D9261C
:10346E000F50DA22DFA03EEF1AF040EF1AF07AEF9B
:10347E001AF020EE01F00C50D9260D50DA22143835
:10348E00E842F80BF80BDF6E050E106ED89017326F
:10349E00163215321432102E4DEF1AF020EE02F0C5
:1034AE000C50D9260D50DA22610050F4DFF415C508
:1034BE0014F516C515F517C516F5176A20EE03F0A7
:1034CE000C50D9260D50DA2214501F0BDF6E050E4C
:1034DE00106ED8901732163215321432102E70EF3D
:1034EE001AF092EF1AF020EE03F00C50D9260D5080
:1034FE00DA22000EDF6E10EE02F00C50E1260D50B7
:10350E00E222DFC4E7F420EE01F00C50D9260D5074
:10351E00DA22E7C4DFF4610030F4D9F4610034F448
:10352E00DAF4610050F4DFF415C514F516C515F57F
:10353E0017C516F5176A14C510F5070E101620EEEE
:10354E0001F00C50D9260D50DA221050DF1220EE69
:10355E0004F00E50D9260F50DA22DF30E8320F0B6E
:10356E00136E20EE04F00E50D9260F50DA22DFB083
:10357E00C3EF1AF0C7EF1AF0106A102AC8EF1AF04C
:10358E00106A1038F00B131220EE04F00E50D926EC
:10359E000F50DA22DFB2D6EF1AF0DAEF1AF0200E61
:1035AE00106EDBEF1AF0106A1050131220EE04F0BA
:1035BE000E50D9260F50DA22DFBEE8EF1AF0ECEFEC
:1035CE001AF0400E106EEDEF1AF0106A1050131232
:1035DE0020EE04F00E50D9260F50DA22DFBCFAEF9F
:1035EE001AF0FEEF1AF0800E106EFFEF1AF0106A4E
:1035FE001050131220EE04F00C50D9260D50DA2282
:10360E0061004CF4DFF420EE04F00E50D9260F507A
:10361E00DA22DFB215EF1BF017EF1BF043EF1BF0B2
:10362E00080E0C24016E000E0D20026E20EE05F029
:10363E000E50D9260F50DA22610078F303F561009F
:10364E0074F304F520EE04F00E50D9260F50DA2252
:10365E00DF30E8320F0B106E116A010E1024F66E79
:10366E00260E1120F76EF86A000EF8220800F550AB
:10367E00056E066A87EC25F0120020EE04F00C5061
:10368E00D9260D50DA22DF50176E17C510F520EE31
:10369E0004F00E50D9260F50DA2210461046DF5095
:1036AE001018C30B1018DF6E17B860EF1BF064EF25
:1036BE001BF0106A102A65EF1BF0106A20EE04F062
:1036CE000E50D9260F50DA22DF501018FE0B1018AC
:1036DE00DF6E17BA75EF1BF079EF1BF0106A102A28
:1036EE007AEF1BF0106A20EE04F00E50D9260F5020
:1036FE00DA221046DF501018FD0B1018DF6E17BCC3
:10370E008BEF1BF08FEF1BF0106A102A90EF1BF05F
:10371E00106A20EE04F00E50D9260F50DA22103225
:10372E001032DF5010187F0B1018DF6E17BEA2EF8D
:10373E001BF0A6EF1BF0106A102AA7EF1BF0106A01
:10374E0020EE04F00E50D9260F50DA22103A104611
:10375E001046DF501018BF0B1018DF6E20EE01F070
:10376E000C50D9260D50DA22DF50106E070E1016AF
:10377E001050136E146A156A166A15C516F514C51F
:10378E0015F513C514F5136A610030F4D9F4610010
:10379E0034F4DAF4DF50106E1050131220EE04F0F1
:1037AE000E50D9260F50DA22DFA0E0EF1BF0E2EF29
:1037BE001BF023EF1CF0050ED89013361436153679
:1037CE001636E82EE3EF1BF020EE03F00C50D92650
:1037DE000D50DA22DF50106E1F0E101610501312FD
:1037EE0015C516F514C515F513C514F5136A20EE97
:1037FE0002F00C50D9260D50DA22DF50106E105008
:10380E001312050ED8901336143615361636E82ECA
:10381E0009EF1CF020EE01F00C50D9260D50DA22E3
:10382E00DF50106ED8901032D8901032D8901032DF
:10383E001F0E101610501312610038F4D9F46100E7
:10384E003CF4DAF461004CF4DEF4610050F4DEF482
:10385E00610054F4DEF4610058F4DEF4000E016EE3
:10386E00060E026E080E0C24036E000E0D20046E62
:10387E0020EE04F00E50D9260F50DA22DF30E83257
:10388E000F0B106E116A010E1024F66E260E11200B
:10389E00F76EF86A000EF8220800F550056E066AFB
:1038AE0087EC25F020EE05F00E50D9260F50DA22C7
:1038BE00000EDE6E060EDD6E1200000E0301F96FB5
:1038CE003F0EFA6F000ED86F000EFB6F000ED96F11
:1038DE00000EDA6F000EDB6F000EDC6F000EDF6F76
:1038EE00000EE06F000EE36F000EE46F000EE56F4A
:1038FE00000EE66F000EE76F000EEA6F000EEB6F24
:10390E00000EEC6FE80EEE6F030EEF6F000EF06F11
:10391E00000EF16F000EF26F000EF36F000EF46FDB
:10392E00100EF56F000EF66F000EF76F000EF86FAB
:10393E00000EFC6F010EFB6F000ED96F000EDA6FDA
:10394E00000EDB6F000EDC6F000EDF6F000EE06FFF
:10395E00000EE36F000EE46F000EE56F000EE66FD3
:10396E00000EE76F000EEA6F000EEB6F010EEC6FAC
:10397E00E80EEE6F030EEF6F000EF06F000EF16F9C
:10398E00000EF26F000EF36F000EF46F100EF56F57
:10399E00000EF66F000EF76F000EF86F000EFD6F43
:1039AE00020EFB6F000ED96F000EDA6F000EDB6F8A
:1039BE00000EDC6F000EDF6F000EE06F000EE36F87
:1039CE00000EE46F000EE56F000EE66F000EE76F5F
:1039DE00000EEA6F000EEB6F170EEC6FE80EEE6F37
:1039EE00030EEF6F000EF06F000EF16F000EF26F10
:1039FE00000EF36F000EF46F100EF56F000EF66FE3
:103A0E00000EF76F000EF86F000EFE6F030EFB6FC9
:103A1E00000ED96F000EDA6F000EDB6F000EDC6F3A
:103A2E00000EDF6F000EE06F000EE36F000EE46F0E
:103A3E00000EE56F000EE66F000EE76F000EEA6FE8
:103A4E00000EEB6F160EEC6FE80EEE6F030EEF6FBF
:103A5E00000EF06F000EF16F000EF26F000EF36F9E
:103A6E00000EF46F100EF56F000EF66F000EF76F6E
:103A7E00000EF86F000EFF6FAF94AF96B090B0923D
:103A8E00B094B096000E0601086F000E096F38EC68
:103A9E0029F0000E0601086F000E096F2EEC29F0BA
:103AAE00000E0601086F000E096F29EC29F0000EBA
:103ABE000601086F000E096F24EC29F0000E0601B6
:103ACE00086F000E096F1FEC29F0000E0601086F3B
:103ADE00000E096F33EC29F0840E0301F36F120010
:103AEE00096E0950D8B47EEF1DF080EF1DF0A2EFE5
:103AFE001DF004BE87EF1DF085EF1DF0A2EF1DF047
:103B0E0001C505F502C506F503C507F504C508F59B
:103B1E00051E061E071E081E052A000E0622072277
:103B2E00082205C50BF506C50CF507C50DF508C52C
:103B3E000EF5AAEF1DF001C50BF502C50CF503C578
:103B4E000DF504C50EF50150021003100410D8A493
:103B5E00B3EF1DF0B5EF1DF0BFEF1DF0000E016EBF
:103B6E00000E026E000E036E000E046E50EF1EF07D
:103B7E00960E0A6EC9EF1DF00A2AD8900E320D323B
:103B8E000C320B32000E0B14056E000E0C14066E6A
:103B9E00000E0D14076EFE0E0E14086E0550061064
:103BAE0007100810D8A4DEEF1DF0E0EF1DF0C3EFF4
:103BBE001DF0EEEF1DF00A2A010E0B26000E0C2250
:103BCE000D220E22D8900E320D320C320B32000E18
:103BDE000B14056E000E0C14066E000E0D14076EFF
:103BEE00FF0E0E14086E0550061007100810D8A40C
:103BFE0003EF1EF005EF1EF0E2EF1DF00DEF1EF0CD
:103C0E000A06D8900B360C360D360E360DBE12EF58
:103C1E001EF014EF1EF01CEF1EF0020E0A601AEFDB
:103C2E001EF01CEF1EF007EF1EF00AB021EF1EF083
:103C3E0023EF1EF024EF1EF00D9ED8900A320AC517
:103C4E0005F5066A076A086A05C508F5076A066A71
:103C5E00056A05500B1206500C1207500D12085033
:103C6E000E120950D8B43EEF1EF040EF1EF048EF92
:103C7E001EF004BE47EF1EF045EF1EF048EF1EF09B
:103C8E000E8E0BC501F50CC502F50DC503F50EC55F
:103C9E0004F5120001011DAF57EF1EF059EF1EF093
:103CAE0068EF1EF002D866EF1EF00500FA6E0501F1
:103CBE008A51FD6E8B51FE6EFF6AFA5012000101A1
:103CCE001D9F1DAD6DEF1EF06FEF1EF07EEF1EF00F
:103CDE0002D87CEF1EF00500FA6E05018851FD6ECC
:103CEE008951FE6EFF6AFA50120001011D9D1DAB37
:103CFE0083EF1EF085EF1EF094EF1EF002D892EFC8
:103D0E001EF00500FA6E05018651FD6E8751FE6E9E
:103D1E00FF6AFA50120001011D9B1CA799EF1EF0BD
:103D2E009BEF1EF0AAEF1EF002D8A8EF1EF00500C2
:103D3E00FA6E05018451FD6E8551FE6EFF6AFA50D2
:103D4E00120001011C971DA9AFEF1EF0B1EF1EF07E
:103D5E00C0EF1EF002D8BEEF1EF00500FA6E050190
:103D6E008251FD6E8351FE6EFF6AFA501200010100
:103D7E001D991DA5C5EF1EF0C7EF1EF0DDEF1EF05D
:103D8E0002D8D4EF1EF00500FA6E05018051FD6ECB
:103D9E008151FE6EFF6AFA501200010154A9DAEF4A
:103DAE001EF0DCEF1EF0DDEF1EF054991DA7E2EFC2
:103DBE001EF0E4EF1EF0FAEF1EF002D8F1EF1EF047
:103DCE000500FA6E05017E51FD6E7F51FE6EFF6A93
:103DDE00FA501200010160A7F7EF1EF0F9EF1EF086
:103DEE00FAEF1EF06097AE9C1200000E0A6E08BE2F
:103DFE0005EF1FF003EF1FF00FEF1FF0081E071E59
:103E0E00061E056C000E062207220822010E0A6EFF
:103E1E0004BE16EF1FF014EF1FF020EF1FF0041E6C
:103E2E00031E021E016C000E022203220422010E4A
:103E3E000A1A000E0B6E000E0C6E000E0D6E000EAA
:103E4E000E6E0550061007100810D8B431EF1FF093
:103E5E0033EF1FF069EF1FF0010E096E3DEF1FF0FB
:103E6E00D8900536063607360836092A08AE42EFD0
:103E7E001FF044EF1FF037EF1FF0D8900B360C36C3
:103E8E000D360E360550015C065002580750035889
:103E9E0008500458D8A056EF1FF058EF1FF061EFEE
:103EAE001FF00550015E0650025A0750035A085083
:103EBE00045A0B80D8900832073206320532092E8A
:103ECE0044EF1FF00A50D8B46FEF1FF071EF1FF0E0
:103EDE0079EF1FF00E1E0D1E0C1E0B6C000E0C2229
:103EEE000D220E220BC501F50CC502F50DC503F50D
:103EFE000EC504F512006100D8F352F56100DCF333
:103F0E0053F56100E0F354F56100D4F355F5A1AE1D
:103F1E0093EF1FF095EF1FF0A0EF1FF0B1AE9AEFE9
:103F2E001FF09CEF1FF0A0EF1FF047EC29F0FAEF07
:103F3E001FF09FA0A5EF1FF0A7EF1FF0B2EF1FF02D
:103F4E00AFA0ACEF1FF0AEEF1FF0B2EF1FF04BECD7
:103F5E0029F0FAEF1FF0A1A6B7EF1FF0B9EF1FF08F
:103F6E00C4EF1FF0B1A6BEEF1FF0C0EF1FF0C4EFFD
:103F7E001FF0AEEC28F0FAEF1FF09EACC9EF1FF069
:103F8E00CBEF1FF0D6EF1FF0AEACD0EF1FF0D2EF9D
:103F9E001FF0D6EF1FF051EC1EF0FAEF1FF0A2A8A3
:103FAE00DBEF1FF0DDEF1FF0E8EF1FF0B2A8E2EF3E
:103FBE001FF0E4EF1FF0E8EF1FF074EC27F0FAEFBC
:103FCE001FF0A1A8EDEF1FF0EFEF1FF0FAEF1FF0BB
:103FDE00B1A8F4EF1FF0F6EF1FF0FAEF1FF0BBECF5
:103FEE0022F0FAEF1FF0610054F5F5F4610050F580
:103FFE00F8F461004CF5F7F4610048F5F6F41100A1
:10400E003A343B34416E4150D8A410EF20F012EFF9
:10401E0020F01CEF20F0000E386E000E396E000EF0
:10402E003A6E000E3B6E89EF20F038C53CF539C56F
:10403E003DF53AC53EF53BC53FF5200E2CEF20F081
:10404E00D8903F323E323D323C32E82E27EF20F000
:10405E003C50406E3A8EFF0E3816FF0E3916FF0E8C
:10406E003A16000E3B16960E415E41BE43EF20F00F
:10407E0041EF20F059EF20F04150800A970FD8B051
:10408E004BEF20F04DEF20F04FEF20F012EF20F02D
:10409E00D8903B323A3239323832413E4FEF20F02F
:1040AE0071EF20F01F0E41645FEF20F061EF20F002
:1040BE0069EF20F012EF20F0D890383639363A36C4
:1040CE003B3641064150D8A46FEF20F071EF20F03F
:1040DE0063EF20F04050D8B477EF20F079EF20F066
:1040EE0081EF20F03B1E3A1E391E386C000E39222D
:1040FE003A223B2238C538F539C539F53AC53AF575
:10410E003BC53BF51200490E016E990E026E000E74
:10411E00036E000E046E44C505F545C506F5076A27
:10412E00086AFCEC1EF001C548F502C549F56A0E99
:10413E002C6E4D0E2D6E930E2E6EBF0E2F6E48C52D
:10414E0001F549C502F5036A046A000E77EC1DF00D
:10415E0001C528F502C529F503C52AF504C52BF5B9
:10416E0007EC13F028C538F529C539F52AC53AF5F7
:10417E002BC53BF507EC20F038C548F539C549F598
:10418E0042C546F543C547F5D89046364736D890D2
:10419E004636473646C54AF547C54BF54AC501F57D
:1041AE004BC502F5000E046E640E036E9FEC27F0F5
:1041BE0001C54AF502C54BF54AC501F54BC502F5D9
:1041CE0044C503F545C504F5B8EC24F001C54AF520
:1041DE0002C54BF54AC501F54BC502F5BAEC28F000
:1041EE0048C501F549C502F5B4EC28F05DEC29F09F
:1041FE001200216E000E1D6E185062EC28F0206E1B
:10420E0020A00CEF21F00EEF21F074EF21F01850EA
:10421E000C0D580EF324D96E010EF420DA6E6100E7
:10422E0078F31EF5610074F31FF51E501F10D8B4FD
:10423E0023EF21F025EF21F074EF21F01EC50CF5D0
:10424E001FC50DF519C50EF51AC50FF544EC1BF07B
:10425E0018500C0D510EF324D96E010EF420DA6EA7
:10426E00000EDB802150020DF40EF324D96E050EE4
:10427E00F420DA6EDF2A185022EC28F01B6E215043
:10428E00020DF40EF324D96E050EF420DA6E1B50D7
:10429E00DE5CD8A055EF21F057EF21F061EF21F051
:1042AE002150020DF40EF324D96E050EF420DA6EB1
:1042BE00000EDF6E20A666EF21F068EF21F072EFA0
:1042CE0021F018500C0D540EF324D96E010EF4206B
:1042DE00DA6EF70EDF16010E1D6E1D50120023C58D
:1042EE00B3F524C5B4F525C5B5F526C5B6F527C570
:1042FE00B7F528C5B8F529C5B9F52AC5BAF51EC54D
:10430E00C2F51FC5C3F520C5C4F521C5C5F5050108
:10431E00C69DC69FC693C68122C52BF50F0E2B16C2
:10432E002B462B46C6512B18C30B2B18C66FB30E3C
:10433E00C76F050EC86F8FEC28F0E806D8A4AAEF59
:10434E0021F0ACEF21F0AFEF21F000F0010E5B6E2B
:10435E0084EC28F0E806D8A4B7EF21F0B9EF21F0ED
:10436E00BCEF21F000F0010E5B6E79EC28F0E80650
:10437E00D8A4C4EF21F0C6EF21F0C9EF21F000F070
:10438E00010E5B6E31EC28F0E806D8A4D1EF21F0D7
:10439E00D3EF21F0D6EF21F000F0010E5B6E000E90
:1043AE00DCEC27F02B6E2BA0DFEF21F0E1EF21F0FC
:1043BE00E9EF21F0C20E186E050E196E000EBDEC5F
:1043CE0023F000F01200076E000E096E20EE04F0CE
:1043DE000250D9260350DA22DF500A6E0AAEFAEFE7
:1043EE0021F0FCEF21F007EF22F03DEC29F0060A58
:1043FE00D8A404EF22F006EF22F007EF22F0098294
:10440E000A30E8320F0B046E080E046411EF22F02E
:10441E0013EF22F025EF22F00AAC18EF22F01AEF7C
:10442E0022F024EF22F03DEC29F0060AD8A422EF68
:10443E0022F024EF22F025EF22F00980090EF66E0D
:10444E00260EF76EF86A08006100D4F304F50A3000
:10445E00E8320F0B056E066A010E0524F66E260E67
:10446E000620F76EF86A000EF8220800F550045C7C
:10447E00D8B044EF22F046EF22F047EF22F0098049
:10448E00075056EC28F00009D8A450EF22F052EF56
:10449E0022F054EF22F0030E091209501200000E02
:1044AE00036E000E0A6E0A50020DF30EF324D96E3F
:1044BE00050EF420DA6EDF50066E065062EC28F020
:1044CE00056E05A06DEF22F06FEF22F0B0EF22F037
:1044DE00065022EC28F0076E05A678EF22F07AEF50
:1044EE0022F07EEF22F007C504F5AEEF22F0065063
:1044FE000C0D550EF324D96E010EF420DA6EDF503A
:10450E001F0B086E0A50020DF40EF324D96E050E21
:10451E00F420DA6EDF50096E0950085CD8B09AEFBD
:10452E0022F09CEF22F0A2EF22F00950085C072443
:10453E00046EAEEF22F00850095CD8B0A9EF22F05D
:10454E00ABEF22F07AEF22F00950085C046E0450B3
:10455E0003260A2A0A50D8B4B7EF22F0B9EF22F098
:10456E005AEF22F003501200B198CFC501F5D0C515
:10457E0002F518EC27F02FEC27F02FEC26F05D2A31
:10458E00060E5D18D8A4CEEF22F0D0EF22F0D4EFB5
:10459E0022F0000E5D6E63EC29F05C2A0B0E5C18A7
:1045AE00D8A4DCEF22F0DEEF22F0E2EF22F0000ED4
:1045BE005C6EF0EC27F00501B22B650EB219D8A493
:1045CE00EBEF22F0EDEF22F0F1EF22F0000EB26FE2
:1045DE0066EC29F005017C4B7D2B2D0E7C1906E136
:1045EE007D05D8A4FDEF22F0FFEF22F005EF23F0BA
:1045FE00000E7D6F000E7C6F64EC29F005017A4B86
:10460E007B2B590E7A1907E1020E7B19D8A412EFF3
:10461E0023F014EF23F01AEF23F0000E7B6F000E41
:10462E007A6F65EC29F01200000E8EEC17F04D6ECD
:10463E004D5005016E6F6F6B000E026E0A0E016E0D
:10464E0046EC27F0010E8EEC17F04D6E4D50050125
:10465E006C6F6D6B000E026E0A0E016E46EC27F04B
:10466E00020E8EEC17F04D6E4D5005016A6F6B6B9E
:10467E00000E026E0A0E016E46EC27F0030E8EEC53
:10468E0017F04D6E4D500501686F696B000E026E8E
:10469E000A0E016E46EC27F0040E8EEC17F04D6EEE
:1046AE004D500501666F676B000E026E0A0E016EAD
:1046BE0046EC27F0050E8EEC17F04D6E4D500501B1
:1046CE00646F656B000E026E0A0E016E46EC27F0EB
:1046DE0000F0120006010A6F000E0601096FF7ECDA
:1046EE0028F00601086F040E0819D8B481EF23F0E4
:1046FE0083EF23F094EF23F00A05D8B489EF23F06B
:10470E008BEF23F094EF23F0040E0A19D8A492EF46
:10471E0023F094EF23F0B9EF23F0010103510601CA
:10472E000A19F80B0A190101036FABEF23F001010F
:10473E001DA9A4EF23F0A6EF23F0ABEF23F0020E9A
:10474E000601096FBBEF23F00239E832070B0601B1
:10475E000A19D8A4B5EF23F0B7EF23F09EEF23F09C
:10476E00BBEF23F0010E096F095112001D6E1D5093
:10477E004EEC26F00009D8B4C7EF23F0C9EF23F0B2
:10478E0006EF24F018C502F519C503F51D50EAEC25
:10479E0021F01A6E1A50D8A4D7EF23F0D9EF23F0D8
:1047AE0006EF24F01D500C0D580EF324D96E010E99
:1047BE00F420DA6E610078F31BF5610074F31CF5DA
:1047CE001B501C10D8B4EEEF23F0F0EF23F006EFE1
:1047DE0024F01BC50CF51CC50DF518C50EF519C535
:1047EE000FF521EC1AF01D500C0D510EF324D96E5D
:1047FE00010EF420DA6E030EDF1206EF24F0120023
:10480E00DA0E0601086F520E096F10EC29F0DC0E5D
:10481E000601086F520E096F15EC29F0DE0E060127
:10482E00086F520E096F1AEC29F0D80E0601086FA8
:10483E00520E096F0BEC29F0D40E0601086F520EC2
:10484E00096F01EC29F0D20E0601086F520E096FA6
:10485E00FCEC28F0D60E0601086F520E096F06EC1E
:10486E0029F0AE9C000E01011C6F000E1D6F0A0E8A
:10487E001E6FFC0E1F6F9E8C1200000E6F6E020ECE
:10488E00706E000E716E500E726E0F0E736EFE0E07
:10489E00746E000E756E000E766E000E776E000E44
:1048AE00796E0D0E7A6E050E7B6EA80E7C6E070E5F
:1048BE007D6EB39CB39E76907692A39EA39C000EC3
:1048CE000601086F000E096FD4EC28F0000E0601E9
:1048DE00086F000E096FCFEC28F0000E0601086F6E
:1048EE00000E096FD9EC28F0800E786E1200000EC3
:1048FE00606E020E616E000E626E3D0E636E000EF5
:10490E00646EFE0E656E000E666E000E676E000E15
:10491E00686E000E6A6E1F0E6B6E000E6C6E1F0EB2
:10492E006D6E000E6E6EB29CB29E67906792A29EE6
:10493E00A29C000E0601086F000E096FE3EC28F032
:10494E00000E0601086F000E096FDEEC28F0000E57
:10495E000601086F000E096FE8EC28F0800E696EF4
:10496E001200000E066E000E056E03500410D8B431
:10497E00C3EF24F0C5EF24F0EDEF24F0010E076E27
:10498E00CDEF24F0D89003360436072A04AED2EFCA
:10499E0024F0D4EF24F0C9EF24F0D8900536063673
:1049AE000350015C04500258D8A0E0EF24F0E2EF6F
:1049BE0024F0E7EF24F00350015E0450025A058004
:1049CE00D89004320332072ED4EF24F005C501F53A
:1049DE0006C502F51200000EBE6E000EBF6E000E72
:1049EE00C06E080ECA6EEF0EC66EC80EC76EDC0E17
:1049FE00C86ED80E0401106F400E086FCF0E006FF8
:104A0E00000E216F000E096F000E016F000E116F68
:104A1E00000E026F000E0A6F000E126F03690B6913
:104A2E00136904690C691469080E246F180E0201CB
:104A3E00116F0F0E696F050E3E6F1A0E126F0B0E71
:104A4E003D6F460E0D6F12000101018F040E71ECC9
:104A5E0023F00009D8A436EF25F038EF25F058EFF3
:104A6E0025F0000E01014C6F260E4D6F000E4E6F9D
:104A7E00000E4F6F600E006F970E016F100E026FDB
:104A8E00A4EC28F09AEC28F08AEC27F002EC28F03F
:104A9E00EAEC26F007EC24F0060E71EC23F0C79A30
:104AAE00BF9A12004C6E05019B05D8A461EF25F04C
:104ABE0063EF25F086EF25F04C503C0D6100CCF3F2
:104ACE0056F56100D0F357F556C501F557C502F5F9
:104ADE00000E046E640E036EB8EC24F001C556F59C
:104AEE0002C557F55650566E576A56C542F557C50C
:104AFE0043F5010E456E2C0E446E8AEC20F012002A
:104B0E0003C509F504C50AF501C507F502C508F583
:104B1E00A6EF25F0610024F4D9F4610028F4DAF44C
:104B2E00DF500B6E094A0A2A61001CF4D9F46100A9
:104B3E0020F4DAF461002CF4DFF4074A082A0506A3
:104B4E00D8A00606052806E10628D8A4B1EF25F060
:104B5E00B3EF25F091EF25F01200BE0EF66E520E59
:104B6E00F76E000EF86E09006100D4F3F3F509003C
:104B7E006100D4F3F4F501EE00F2080EEE6AE806D9
:104B8E00FDE101EE60F1690EEE6AE806FDE101EE6F
:104B9E0056F1080EEE6AE806FDE10401080E5D6F9F
:104BAE00000E5E6F000E5F6F00013EEF28F0000EEC
:104BBE00256E2550020DF30EF324D96E050EF4204A
:104BCE00DA6EDF50186E22C519F523C51AF5255079
:104BDE0000EC21F0246E2450D8B4F8EF25F0FAEF53
:104BEE0025F0FCEF25F005EF26F0252A2550D8B448
:104BFE0003EF26F005EF26F0E0EF25F0245012002B
:104C0E00000E03011F6F000E206F010E216F850E27
:104C1E001D6FEE0E1C6FB1981C51600074FC0AF6ED
:104C2E0006010B6B0AC60BF60A6B0A110501CF6F54
:104C3E0006010B510501D06FA188C40E0601086F45
:104C4E00520E096FC5EC28F0310E03011E6F1200D3
:104C5E001BEC23F0600E1E6E030E1F6E000E206EF8
:104C6E00000E216E080E226E6EC523F56CC524F55E
:104C7E006AC525F568C526F566C527F564C528F508
:104C8E0062C529F560C52AF576EC21F01200026E98
:104C9E00000E016E040E026057EF26F059EF26F05B
:104CAE006BEF26F002500C0D500EF324D96E010E50
:104CBE00F420DA6E0101DFAE67EF26F069EF26F021
:104CCE006BEF26F0010E016E01501200000ECEBAEF
:104CDE00010E0501996F9905D8A478EF26F07AEFA9
:104CEE0026F086EF26F0000E8EEC17F00501986F79
:104CFE00010E8EEC17F00501976F56C59AF512004E
:104D0E005BEC29F0C8EC27F064EC1CF0F2EC24F01C
:104D1E004AEC28F0D2EC26F007EC26F06EEC28F0E8
:104D2E00B4EC27F044EC24F02BEC25F07EEC24F0D0
:104D3E0012006DEC26F00501E351E411D8B4AAEF90
:104D4E0026F0ACEF26F0B8EF26F002D8B8EF26F03A
:104D5E000500FA6EE351FD6EE451FE6EFF6AFA50E5
:104D6E0012001200056E610014F4ECF30301F38FD0
:104D7E00F39DF381F3B1C6EF26F0C8EF26F0C1EF35
:104D8E0026F0EB51046E036AEA510324016E000E05
:104D9E000420026E1200010E0301266F000E256F15
:104DAE00000E276FC20E236F000E226FB196A186E2
:104DBE00C00E0601086F520E096FC0EC28F0F00EFF
:104DCE000301246F1200000E0601086F0851020D38
:104DDE00F40EF324D96E050EF420DA6E000EDF6E9B
:104DEE00082B0851D8B4FEEF26F000EF27F0EDEFB8
:104DFE0026F012000501CB51CC11D8B409EF27F0E3
:104E0E000BEF27F017EF27F002D817EF27F005006A
:104E1E00FA6ECB51FD6ECC51FE6EFF6AFA50120047
:104E2E00120003011EA51EEF27F020EF27F029EF39
:104E3E0027F01E9102501D6F610004F41CF31E81B9
:104E4E002EEF27F002501D6F610004F41CF31200C8
:104E5E000501CD51CE11D8B437EF27F039EF27F039
:104E6E0045EF27F002D845EF27F00500FA6ECD5139
:104E7E00FD6ECE51FE6EFF6AFA50120012004FEF19
:104E8E0027F0040E036E3E0EE82EFED7032EFCD73F
:104E9E000106D8A00206012806E10228D8A45AEF7E
:104EAE0027F05CEF27F048EF27F012000501C951FB
:104EBE00CA11D8B465EF27F067EF27F073EF27F02C
:104ECE0002D873EF27F00500FA6EC951FD6ECA5174
:104EDE00FE6EFF6AFA5012001200010160A17AEF15
:104EEE0027F07CEF27F089EF27F002D889EF27F023
:104EFE000500FA6E05018C51FD6E8D51FE6EFF6A36
:104F0E00FA5012001200190E01015C6F040E5D6F53
:104F1E00600E5E6F050E5F6FB00E0601086F520ECB
:104F2E00096FF2EC28F001011E83B298A2881200DC
:104F3E00015003026100CCF305F56100D0F306F5D4
:104F4E0001500402F350062602500302F3500626C7
:104F5E0005C501F506C502F51200440E03011B6FCF
:104F6E009B0E196F000E186FB19EA18ECE0E06010C
:104F7E00086F520E096FCAEC28F0800E03011A6FEB
:104F8E001200000E0001606F000E616F000E626F66
:104F9E00000E636F000E646F000E656F000E666F7D
:104FAE00000E676F000E686F1200046E000E036E27
:104FBE0004504EEC26F00009D8B4E8EF27F0EAEFE3
:104FCE0027F0EEEF27F0045056EC28F0036E035056
:104FDE001200BEB8F5EF27F0F8EF27F0010EF9EF4B
:104FEE0027F0000EFF0A016E013ABE500118EF0BBA
:104FFE000118BE6E12005F0E0101946F95699669DD
:10500E009769000E986F000E996F000E9A6F000E42
:10501E009B6F810E816F1200040100810083108F3F
:10502E00108D10891087C698C790C794C792C79ADB
:10503E00C884C89A1200026E02500C0D530EF3244F
:10504E00D96E010EF420DA6EDF50016E1F0E0116BE
:10505E000128120084EC28F00009D8B439EF28F0AA
:10506E003CEF28F0010E3DEF28F0000E120087EC09
:10507E0026F0D68E13EC28F04FEC29F000F045EF19
:10508E0028F00DEF00F0700E0001AD6F000EAF6F47
:10509E00000EB36F020EB16F000EB06F1200016EF4
:1050AE0001500C0D540EF324D96E010EF420DA6E5D
:1050BE00DF50010B1200016E01500C0D540EF32443
:1050CE00D96E010EF420DA6EDF50090B1200AF908C
:1050DE00D680D00E0601086F520E096FEDEC28F047
:1050EE009F801200010136B57FEF28F082EF28F085
:1050FE00010E83EF28F0000E1200010136B98AEF7F
:10510E0028F08DEF28F0010E8EEF28F0000E120021
:10511E00010136BB95EF28F098EF28F0010E99EFBC
:10512E0028F0000E1200100E0101506F040E516F88
:10513E00610E526F050E536F1200010E0101046FC6
:10514E00010E056F060E066F000E076F1200B19668
:10515E0001EC27F061EC29F01200610004F463F415
:10516E000250646E1200610004F46BF402506C6E17
:10517E00120008C6CBF509C6CCF5120008C6CDF54F
:10518E0009C6CEF5120008C6C9F509C6CAF5120041
:10519E0008C6D3F509C6D4F5120008C6D5F509C65A
:1051AE00D6F5120008C6D1F509C6D2F5120008C60A
:1051BE0090F509C691F5120008C692F509C693F549
:1051CE00120008C68EF509C68FF5120008C6E3F563
:1051DE0009C6E4F5120008C68CF509C68DF5120055
:1051EE0001010239E832070B120008C680F509C624
:1051FE0081F5120008C682F509C683F5120008C6AD
:10520E007EF509C67FF5120008C684F509C685F538
:10521E00120008C68AF509C68BF5120008C688F575
:10522E0009C689F5120008C686F509C687F512006B
:10523E0008C6D9F509C6DAF5120008C6DBF509C6A7
:10524E00DCF5120008C6DDF509C6DEF5120008C64B
:10525E00DFF509C6E0F5120008C6D7F509C6D8F580
:10526E00120008C6E1F509C6E2F512000101023985
:10527E00E832070B1200016E610004F4FBF312001A
:10528E00B19E5DEC27F01200AF90A0EC26F012005C
:10529E0003011A9F12000301F39112000301F39B05
:1052AE001200F2EC18F01200D69A12006984120065
:1052BE000100120012001200120012001200120061
:1052CE001200120012001200120012001200120040
:0252DE001200BC
:020000040020DA
:10000000FF0FFF0FFF0FFF0FFF0FFF0FFF0FFF0F80
:10001000FF0FFF0FFF0FFF0FFF0FFF0FFF0FFF0F70
:020000040030CA
:10000000FAEFF7DF9FFFFFFFFFFFFFFFFFFFFFFF9D
:10001000FFFFFFFFFFFFFFFFFFFFFFFFFFFFFFFFF0
:04002000FFFFFFFFE0
:00000001FF
