:020000040000FA
:040000000DEF00F010
:0400080073EF13F08F
:06001800FF00ADEF16F041
:0D2600000000010203040506070850010058
:10260E0001011DAF0DEF13F00FEF13F01DEF13F0DF
:10261E0002D81BEF13F00500FA6E2150FD6E22500A
:10262E00FE6EFF6AFA50120001011D9F1DAD22EFD2
:10263E0013F024EF13F032EF13F002D830EF13F053
:10264E000500FA6E1F50FD6E2050FE6EFF6AFA50A6
:10265E00120001011D9D1DAB37EF13F039EF13F082
:10266E0047EF13F002D845EF13F00500FA6E1D5038
:10267E00FD6E1E50FE6EFF6AFA50120001011D9B88
:10268E001CA74CEF13F04EEF13F05CEF13F002D8D3
:10269E005AEF13F00500FA6E1B50FD6E1C50FE6EC5
:1026AE00FF6AFA50120001011C971DA961EF13F089
:1026BE0063EF13F071EF13F002D86FEF13F0050014
:1026CE00FA6E1950FD6E1A50FE6EFF6AFA50120025
:1026DE0001011D99AE9C1200A1AE78EF13F07AEFB6
:1026EE0013F085EF13F0B1AE7FEF13F081EF13F01F
:1026FE0085EF13F046EC17F0CDEF13F09FA08AEFA5
:10270E0013F08CEF13F097EF13F0AFA091EF13F0DF
:10271E0093EF13F097EF13F04AEC17F0CDEF13F0A1
:10272E00A1A69CEF13F09EEF13F0A9EF13F0B1A644
:10273E00A3EF13F0A5EF13F0A9EF13F071EC16F061
:10274E00CDEF13F09EACAEEF13F0B0EF13F0BBEF86
:10275E0013F0AEACB5EF13F0B7EF13F0BBEF13F011
:10276E0007EC13F0CDEF13F0A1A8C0EF13F0C2EFFA
:10277E0013F0CDEF13F0B1A8C7EF13F0C9EF13F0BC
:10278E00CDEF13F0DDEC16F0CDEF13F01100040ECB
:10279E000301F96F000EFA6F000ED86F000EFB6F7B
:1027AE00000ED96F000EDA6F000EDB6F000EDC6FBD
:1027BE00000EDF6F000EE06F000EE36F000EE46F91
:1027CE00000EE56F000EE66F000EE76F000EEA6F6B
:1027DE00000EEB6F000EEC6F000EEE6F000EEF6F43
:1027EE00000EF06F000EF16F000EF26F000EF36F21
:1027FE00000EF46F100EF56F000EF66F000EF76FF1
:10280E00120EF86F000EFC6FAF94AF96B090000EE4
:10281E002B6E000E2C6E41EC17F0000E2B6E000E80
:10282E002C6E37EC17F0000E2B6E000E2C6E3CEC5F
:10283E0017F0840E0301F36F1200BBEC15F0BEB857
:10284E002BEF14F02EEF14F0010E2FEF14F0000EFC
:10285E00FF0A2F6E2F3ABE502F18EF0B2F18BE6E99
:10286E00BFB43CEF14F03FEF14F0010E40EF14F044
:10287E00000EFF0A2F6E2F462F46BF502F18FB0B50
:10288E002F18BF6EBFB24EEF14F051EF14F0010EC1
:10289E0052EF14F0000EFF0A2F6E2F46BF502F1866
:1028AE00FD0B2F18BF6EC0BA5FEF14F062EF14F07D
:1028BE00010E63EF14F0000EFF0A2F6E2F3A2F4613
:1028CE00C0502F18DF0B2F18C06E030E2C6EE80EA3
:1028DE002B6EEBEC15F000F026EF14F00DEF00F080
:1028EE00000EBE6E000EBF6E000EC06E080ECA6EDB
:1028FE00EF0EC66EC90EC76EDC0EC86EFB0E04015F
:10290E00106F770E086FDF0E006F000E216F000E36
:10291E00096F000E016F000E116F000E026F000E98
:10292E000A6F100E126F03690B69136904690C6943
:10293E001469080E246F180E0201116F0F0E696FC5
:10294E00050E3E6F1A0E126F0B0E3D6F460E0D6F7B
:10295E001200000E6F6E020E706E000E716E500E33
:10296E00726E0F0E736EFE0E746E000E756E000E8E
:10297E00766E000E776E000E796E0D0E7A6E050E67
:10298E007B6EA80E7C6E070E7D6EB39CB39E76900A
:10299E007692A39EA39C000E2B6E000E2C6EFBEC6B
:1029AE0016F0000E2B6E000E2C6EF6EC16F0000ECE
:1029BE002B6E000E2C6E00EC17F0800E786E12004F
:1029CE00000E606E020E616E000E626E3D0E636E44
:1029DE00000E646EFE0E656E000E666E000E676E65
:1029EE00000E686E000E6A6E1F0E6B6E000E6C6E21
:1029FE001F0E6D6E000E6E6EB29CB29E6790679249
:102A0E00A29EA29C000E2B6E000E2C6E0AEC17F0EE
:102A1E00000E2B6E000E2C6E05EC17F0000E2B6EBA
:102A2E00000E2C6E0FEC17F0800E696E12002D6EDC
:102A3E00000E2C6E19EC17F02B6E040E2B18D8B45A
:102A4E002BEF15F02DEF15F03EEF15F02D04D8B449
:102A5E0033EF15F035EF15F03EEF15F0040E2D188F
:102A6E00D8A43CEF15F03EEF15F046EF15F001013E
:102A7E0003512D18F80B2D18036F48EF15F0010EAA
:102A8E002C6E2C501200AC0E2B6E2E0E2C6E28ECD3
:102A9E0017F0AE0E2B6E2E0E2C6E2DEC17F0B00E18
:102AAE002B6E2E0E2C6E32EC17F0AA0E2B6E2E0EF7
:102ABE002C6E23EC17F0A80E2B6E2E0E2C6E1EEC29
:102ACE0017F0AE9C000E01011C6F000E1D6F080E5C
:102ADE001E6FFC0E1F6F9E8C12000101018F040EE3
:102AEE001EEC15F00009D8A47FEF15F081EF15F05C
:102AFE0097EF15F0000E01014C6F380E4D6F000E62
:102B0E004E6F000E4F6F600E006F970E016F000E2E
:102B1E00026FD3EC16F04AEC15F0060E1EEC15F013
:102B2E001200000E03011F6F000E206F010E216FA9
:102B3E00CF0E1D6F2C0E1C6FB1981C51600074FCD3
:102B4E002DF52E6A2DC52EF52D6A2D10076E2E50E1
:102B5E00086EA188A20E2B6E2E0E2C6EECEC16F0CB
:102B6E00110E03011E6F12004EEC17F086EC16F0DC
:102B7E00CEEC13F077EC14F0BDEC16F0D4EC15F0AF
:102B8E00C9EC16F098EC15F09AEC16F0B0EC14F0C7
:102B9E0074EC15F0E7EC14F01200010E0301266F31
:102BAE00000E256F000E276FC20E236F000E226FD0
:102BBE00B196A186A00E2B6E2E0E2C6EE7EC16F0A3
:102BCE00F00E0301246F1200F4EF15F0040E2D6EBB
:102BDE003E0EE82EFED72D2EFCD72B06D8A02C06A7
:102BEE002B2806E12C28D8A4FFEF15F001EF16F0E4
:102BFE00EDEF15F0120003011EA508EF16F00AEF17
:102C0E0016F013EF16F01E912A501D6F6100A4F4FA
:102C1E001CF31E8118EF16F02A501D6F6100A4F4EC
:102C2E001CF3120003500410D8B420EF16F022EF5C
:102C3E0016F02EEF16F002D82EEF16F00500FA6EF3
:102C4E000350FD6E0450FE6EFF6AFA501200120021
:102C5E0005500610D8B436EF16F038EF16F044EFE4
:102C6E0016F002D844EF16F00500FA6E0550FD6E10
:102C7E000650FE6EFF6AFA5012001200015002104A
:102C8E00D8B44CEF16F04EEF16F05AEF16F002D8FD
:102C9E005AEF16F00500FA6E0150FD6E0250FE6EF0
:102CAE00FF6AFA501200120015501610D8B462EFD7
:102CBE0016F064EF16F070EF16F002D870EF16F003
:102CCE000500FA6E1550FD6E1650FE6EFF6AFA5034
:102CDE0012001200B196174A182A185009E10A0E6E
:102CEE00175CD8A07DEF16F07FEF16F085EF16F08B
:102CFE0019EC16F0000E186E000E176E1200000E74
:102D0E000001606F000E616F000E626F000E636F48
:102D1E00000E646F000E656F000E666F000E676F1B
:102D2E00000E686F1200440E03011B6F9B0E196F8D
:102D3E00000E186FB19EA18EA40E2B6E2E0E2C6E51
:102D4E00F1EC16F0800E03011A6F120001EE17F16E
:102D5E00120EEE6AE806FDE10401080E5D6F000E2C
:102D6E005E6F000E5F6F000124EF14F0700E000115
:102D7E00AD6F000EAF6F000EB36F020EB16F000E8F
:102D8E00B06F1200AF90D680A60E2B6E2E0E2C6E4C
:102D9E0014EC17F09F801200010E0101046F010E5A
:102DAE00056F060E066F000E076F1200B19807C56D
:102DBE0029F508C52AF502EC16F02FEC16F01200D4
:102DCE002BC503F52CC504F512002BC505F52CC536
:102DDE0006F512002BC501F52CC502F512002BC508
:102DEE000BF52CC50CF512002BC50DF52CC50EF5EB
:102DFE0012002BC509F52CC50AF512002BC525F5B9
:102E0E002CC526F512002BC527F52CC528F512006A
:102E1E002BC523F52CC524F512002BC515F52CC595
:102E2E0016F5120001010239E832070B12002BC50C
:102E3E0019F52CC51AF512002BC51BF52CC51CF562
:102E4E0012002BC521F52CC522F512002BC51FF53E
:102E5E002CC520F512002BC51DF52CC51EF5120034
:102E6E002BC511F52CC512F512002BC50FF52CC56F
:102E7E0010F512002BC513F52CC514F51200B19EDA
:102E8E0045EC16F01200AF905BEC16F01200D69ADD
:102E9E001200120012001200120012001200120094
:042EAE0012001200FC
:020000040020DA
:10000000FF0FFF0FFF0FFF0FFF0FFF0FFF0FFF0F80
:10001000FF0FFF0FFF0FFF0FFF0FFF0FFF0FFF0F70
:020000040030CA
:10000000FAFFF7FF9FFFFFFFFFFFFFFFFFFFFFFF6D
:10001000FFFFFFFFFFFFFFFFFFFFFFFFFFFFFFFFF0
:04002000FFFFFFFFE0
:00000001FF
