:020000040000FA
:040000000DEF00F010
:040008004FEF23F0A3
:06001800FF0040EF2BF099
:0D2600000000010203040506070850010058
:10260E0005019651800B9F6F96519625A16F95AF40
:10261E0013EF13F015EF13F016EF13F0A181A15184
:10262E00D8B41CEF13F01EEF13F033EF13F0A12903
:10263E00D8A424EF13F026EF13F02EEF13F0000EB4
:10264E00936F000E946F000E956F000E966F958F20
:10265E00000E966F3BEF13F0000E936F000E946F0B
:10266E00000E956F000E966F9A51800BA06F9F51C2
:10267E00A019D8B445EF13F047EF13F048EF13F05D
:10268E009F8D9A519A25A06F99AF50EF13F052EF8C
:10269E0013F053EF13F0A081A051D8B459EF13F0FB
:1026AE005BEF13F070EF13F0A029D8A461EF13F0D5
:1026BE0063EF13F06BEF13F0000E976F000E986F31
:1026CE00000E996F000E9A6F998F000E9A6F78EF29
:1026DE0013F0000E976F000E986F000E996F000E9C
:1026EE009A6FA151A05DD8B07FEF13F081EF13F078
:1026FE00A8EF13F09FAD86EF13F088EF13F08AEF7B
:10270E0013F0800E9F1BA1C5A2F5A0C5A1F5A2C511
:10271E00A0F593C5A2F597C593F5A2C597F594C5F7
:10272E00A2F598C594F5A2C598F595C5A2F599C5DB
:10273E0095F5A2C599F596C5A2F59AC596F5A2C5C9
:10274E009AF5000EA26FA151A0C59BF59C6B9B5FE5
:10275E00000E9C5B9CBFBDEF13F09C5109E11A0E5D
:10276E009B5DD8A0BDEF13F0BFEF13F0F6EF13F0A3
:10277E009351941195119611D8A4C8EF13F0CBEF85
:10278E0013F0010ECCEF13F0000EA26F000E936F3C
:10279E00000E946F000E956F000E966FA0C5A1F5FA
:1027AE00FFEF13F0A2A1DEEF13F0E0EF13F0E6EF70
:1027BE0013F0D890A2310109A26FE8EF13F0D89070
:1027CE00A23393A1EDEF13F0EFEF13F0F0EF13F050
:1027DE00A28F96359633953394339333A12BA05114
:1027EE00A15DD8A0FDEF13F0FFEF13F0D9EF13F0BA
:1027FE009FBD04EF14F006EF14F046EF14F0A15154
:10280E00D8A40CEF14F00EEF14F018EF14F0000E25
:10281E00936F000E946F000E956F000E966F67EF1C
:10282E0015F09751932798519423995195239A51C6
:10283E00962396A125EF14F027EF14F0D3EF14F0A2
:10284E00A2A12CEF14F02EEF14F034EF14F0D89068
:10285E00A2310109A26F36EF14F0D890A23393A1E2
:10286E003BEF14F03DEF14F03EEF14F0A28F9635CF
:10287E009633953394339333A12BD3EF14F09751B2
:10288E00935D98519459995195599651800A9B6F21
:10289E009A51800A9B59D8B057EF14F059EF14F0A3
:1028AE0084EF14F09351975D9B6F945198599C6FE0
:1028BE00955199599D6F96519A599E6FFF0E9B2572
:1028CE00936FFF0E9C21946FFF0E9D21956FFF0E4F
:1028DE009E21966F800E9F1BA26DA251D8A47AEFF7
:1028EE0014F07CEF14F08CEF14F0010E9327000E11
:1028FE009423952396238CEF14F09751935F985160
:10290E00945B9951955B9A51965B935194119511E5
:10291E009611D8A495EF14F097EF14F0CCEF14F0B5
:10292E00A251D8A49DEF14F09FEF14F0CCEF14F049
:10293E00000E936F000E946F000E956F000E966F43
:10294E0067EF15F0D8909337943795379637A2AF37
:10295E00B3EF14F0B5EF14F0B6EF14F09381A2A11B
:10296E00BBEF14F0BDEF14F0C1EF14F0D880A23716
:10297E00C3EF14F0D890A237A151D8B4C9EF14F018
:10298E00CBEF14F0CCEF14F0A10795AFD1EF14F00C
:10299E00D3EF14F0A9EF14F0000EA06FA2AFDAEF90
:1029AE0014F0DCEF14F0F4EF14F0A2C59BF57F0EDB
:1029BE009B17D8B4E5EF14F0E7EF14F0EBEF14F03B
:1029CE00010EA06FF4EF14F093A1F0EF14F0F2EFFC
:1029DE0014F0F4EF14F0E7EF14F0A051D8B4FAEFBE
:1029EE0014F0FCEF14F027EF15F0010E9327000EF4
:1029FE0094239523962396A107EF15F009EF15F072
:102A0E0027EF15F093C59BF594C59CF595C59DF5DF
:102A1E0096C59EF59E359E339D339C339B339BC549
:102A2E0093F59CC594F59DC595F59EC596F5A12982
:102A3E00D8B424EF15F026EF15F027EF15F0A12BE3
:102A4E00A129D8B42DEF15F02FEF15F037EF15F0B3
:102A5E00A151D8A435EF15F037EF15F049EF15F069
:102A6E00000E936F000E946F000E956F000E966F12
:102A7E00A151D8A445EF15F047EF15F049EF15F029
:102A8E00000E9F6FA1A14EEF15F050EF15F053EF12
:102A9E0015F0958F54EF15F0959FD890A131966F44
:102AAE009FAF5CEF15F05EEF15F05FEF15F0968FB0
:102ABE0093C593F594C594F595C595F596C596F57C
:102ACE0012003950800B426E39503924446E38AEA4
:102ADE0073EF15F075EF15F076EF15F04480445056
:102AEE00D8B47CEF15F07EEF15F093EF15F0442877
:102AFE00D8A484EF15F086EF15F08EEF15F0000ECA
:102B0E00366E000E376E000E386E000E396E388E31
:102B1E00000E396E9BEF15F0000E366E000E376EFE
:102B2E00000E386E000E396E3D50800B436E4250D3
:102B3E004318D8B4A5EF15F0A7EF15F0A8EF15F0D0
:102B4E00428C3D503D24436E3CAEB0EF15F0B2EFDB
:102B5E0015F0B3EF15F043804350D8B4B9EF15F02C
:102B6E00BBEF15F0D0EF15F04328D8A4C1EF15F048
:102B7E00C3EF15F0CBEF15F0000E3A6E000E3B6E64
:102B8E00000E3C6E000E3D6E3C8E000E3D6ED8EF7C
:102B9E0015F0000E3A6E000E3B6E000E3C6E000EEF
:102BAE003D6E4450435CD8B0DFEF15F0E1EF15F009
:102BBE0008EF16F042ACE6EF15F0E8EF15F0EAEF8D
:102BCE0015F0800E421A44C545F543C544F545C57A
:102BDE0043F536C545F53AC536F545C53AF537C51B
:102BEE0045F53BC537F545C53BF538C545F53CC5FF
:102BFE0038F545C53CF539C545F53DC539F545C5ED
:102C0E003DF5000E456E445043C53EF53F6A3E5EAF
:102C1E00000E3F5A3FBE1DEF16F03F5009E11A0E4F
:102C2E003E5CD8A01DEF16F01FEF16F056EF16F013
:102C3E003650371038103910D8A428EF16F02BEF75
:102C4E0016F0010E2CEF16F0000E456E000E366ECD
:102C5E00000E376E000E386E000E396E43C544F509
:102C6E005FEF16F045A03EEF16F040EF16F046EF80
:102C7E0016F0D89045300109456E48EF16F0D89001
:102C8E00453236A04DEF16F04FEF16F050EF16F01E
:102C9E00458E39343932383237323632442A43503F
:102CAE00445CD8A05DEF16F05FEF16F039EF16F02A
:102CBE0042BC64EF16F066EF16F0A6EF16F0445025
:102CCE00D8A46CEF16F06EEF16F078EF16F0000E3B
:102CDE00366E000E376E000E386E000E396EC7EF70
:102CEE0017F03A5036263B5037223C5038223D5092
:102CFE00392239A085EF16F087EF16F033EF17F073
:102D0E0045A08CEF16F08EEF16F094EF16F0D890DB
:102D1E0045300109456E96EF16F0D890453236A033
:102D2E009BEF16F09DEF16F09EEF16F0458E3934A0
:102D3E003932383237323632442A33EF17F03A50BE
:102D4E00365C3B5037583C5038583950800A3E6EEE
:102D5E003D50800A3E58D8B0B7EF16F0B9EF16F0D6
:102D6E00E4EF16F036503A5C3E6E37503B583F6EED
:102D7E0038503C58406E39503D58416EFF0E3E243F
:102D8E00366EFF0E3F20376EFF0E4020386EFF0E60
:102D9E004120396E800E421A456C4550D8A4DAEFA8
:102DAE0016F0DCEF16F0ECEF16F0010E3626000EE4
:102DBE00372238223922ECEF16F03A50365E3B506D
:102DCE00375A3C50385A3D50395A36503710381011
:102DDE003910D8A4F5EF16F0F7EF16F02CEF17F028
:102DEE004550D8A4FDEF16F0FFEF16F02CEF17F0BC
:102DFE00000E366E000E376E000E386E000E396EF7
:102E0E00C7EF17F0D890363637363836393645AEE6
:102E1E0013EF17F015EF17F016EF17F0368045A0E9
:102E2E001BEF17F01DEF17F021EF17F0D880453686
:102E3E0023EF17F0D89045364450D8B429EF17F049
:102E4E002BEF17F02CEF17F0440638AE31EF17F0DA
:102E5E0033EF17F009EF17F0000E436E45AE3AEF61
:102E6E0017F03CEF17F054EF17F045C53EF57F0E07
:102E7E003E16D8B445EF17F047EF17F04BEF17F0AB
:102E8E00010E436E54EF17F036A050EF17F052EFCD
:102E9E0017F054EF17F047EF17F04350D8B45AEF2E
:102EAE0017F05CEF17F087EF17F0010E3626000EC5
:102EBE0037223822392239A067EF17F069EF17F061
:102ECE0087EF17F036C53EF537C53FF538C540F5E7
:102EDE0039C541F54134413240323F323E323EC572
:102EEE0036F53FC537F540C538F541C539F54428A7
:102EFE00D8B484EF17F086EF17F087EF17F0442A57
:102F0E004428D8B48DEF17F08FEF17F097EF17F026
:102F1E004450D8A495EF17F097EF17F0A9EF17F0DC
:102F2E00000E366E000E376E000E386E000E396EC5
:102F3E004450D8A4A5EF17F0A7EF17F0A9EF17F09C
:102F4E00000E426E44A0AEEF17F0B0EF17F0B3EFE5
:102F5E0017F0388EB4EF17F0389ED8904430396E93
:102F6E0042AEBCEF17F0BEEF17F0BFEF17F0398E81
:102F7E0036C536F537C537F538C538F539C539F59F
:102F8E0012002050800B296E205020242F6E1FAE71
:102F9E00D3EF17F0D5EF17F0D6EF17F02F802F5095
:102FAE00D8B4DCEF17F0DEEF17F0F1EF17F02F28A3
:102FBE00D8A4E4EF17F0E6EF17F0EEEF17F0000EDF
:102FCE001D6E000E1E6E000E1F6E000E206E1F8EEA
:102FDE00F9EF17F0000E1D6E000E1E6E000E1F6E26
:102FEE00000E206E2450800B291A245024242E6E9D
:102FFE0023AE04EF18F006EF18F007EF18F02E804E
:10300E002E50D8B40DEF18F00FEF18F022EF18F085
:10301E002E28D8A415EF18F017EF18F01FEF18F0A0
:10302E00000E216E000E226E000E236E000E246E18
:10303E00238E2AEF18F0000E216E000E226E000E67
:10304E00236E000E246E2E50D8B430EF18F032EFEF
:10305E0018F03AEF18F02F50D8A438EF18F03AEFD6
:10306E0018F044EF18F0000E1D6E000E1E6E000ECE
:10307E001F6E000E206EEEEF19F023501D02610040
:10308E00CCF334F56100D0F335F534502A6E2B6A4B
:10309E002C6A2D6A3550306E316A326A336A22508C
:1030AE001E026100CCF334F56100D0F335F53450D7
:1030BE002A26000E2B222C222D2235503026000ED1
:1030CE0031223222332221501F026100CCF334F51B
:1030DE006100D0F335F534502A26000E2B222C2217
:1030EE002D2235503026000E3122322233222CC5AD
:1030FE002DF52BC52CF52AC52BF52A6A21501E025B
:10310E006100CCF334F56100D0F335F534502A2646
:10311E0035502B22000E2C22000E2D2222501D0285
:10312E006100CCF334F56100D0F335F534502A2626
:10313E0035502B22000E2C22000E2D222CC52DF5E3
:10314E002BC52CF52AC52BF52A6A21501D026100CC
:10315E00CCF334F56100D0F335F534502A263550D2
:10316E002B22000E2C22000E2D2223501E02610057
:10317E00CCF334F56100D0F335F5345030263550AC
:10318E003122000E3222000E332222501F02610025
:10319E00CCF334F56100D0F335F53450302635508C
:1031AE003122000E3222000E332223501F02610004
:1031BE00CCF334F56100D0F335F53450256E35502F
:1031CE00266E276A286A27C528F526C527F525C540
:1031DE0026F5256A255030262650312227503222D8
:1031EE00285033222AC525F52BC526F52CC527F5E3
:1031FE002DC528F5190E09EF19F0D890283227326F
:10320E0026322532E82E04EF19F0255030262650AE
:10321E00312227503222285033222CC52DF52BC5B2
:10322E002CF52AC52BF52A6A2E502FC525F5266AB0
:10323E002526000E2622820E2524346EFF0E262011
:10324E00356E3FEF19F0D890303631363236333690
:10325E002DAE34EF19F036EF19F037EF19F030804C
:10326E00D8902A362B362C362D363406D8A0350675
:10327E0032AE44EF19F046EF19F02AEF19F0000EB6
:10328E002E6E2DAE4DEF19F04FEF19F073EF19F0C2
:10329E00FF0E2A14256EFF0E2B14266EFF0E2C1415
:1032AE00276E7F0E2D14286E2550261027102810FD
:1032BE00D8B464EF19F066EF19F06AEF19F0010E49
:1032CE002E6E73EF19F030A06FEF19F071EF19F049
:1032DE0073EF19F066EF19F02E50D8B479EF19F09C
:1032EE007BEF19F09FEF19F0010E3026000E312200
:1032FE003222332233A086EF19F088EF19F09FEFB8
:10330E0019F030C525F531C526F532C527F533C57B
:10331E0028F52834283227322632253225C530F5B5
:10332E0026C531F527C532F528C533F5344A352A79
:10333E0035BEAAEF19F0355008E13428D8A0AAEF0F
:10334E0019F0ACEF19F0B6EF19F0000E306E000E5A
:10335E00316E800E326E7F0E336EE4EF19F035BE95
:10336E00C3EF19F0355006E13404D8B0C1EF19F0AF
:10337E00C3EF19F0CFEF19F0000E306E000E316E64
:10338E00000E326E000E336E000E296EE4EF19F051
:10339E0034C52FF5FF0E3016FF0E31167F0E321686
:1033AE00000E33162FA0DEEF19F0E0EF19F0E1EF6B
:1033BE0019F0328ED8902F30336E2950331230C51B
:1033CE001DF531C51EF532C51FF533C520F51200AA
:1033DE00526E57EF1AF01FEC2FF0000E0CEC2FF080
:1033EE00000E3AEC2CF001C555F502C556F51CEC55
:1033FE002FF0010E546E7CEF1AF01FEC2FF0010E21
:10340E000CEC2FF0010E3AEC2CF001C555F502C56F
:10341E0056F5FEEF19F01FEC2FF0020E0CEC2FF00C
:10342E00170E3AEC2CF001C555F502C556F51CECFD
:10343E002FF0020E546E7CEF1AF01FEC2FF0030EDD
:10344E000CEC2FF0160E3AEC2CF001C555F502C51A
:10345E0056F51EEF1AF0D0B837EF1AF03BEF1AF010
:10346E00506A502A3CEF1AF0506A5050556E566A08
:10347E00020E546E7CEF1AF0D0B648EF1AF04CEFF5
:10348E001AF0506A502A4DEF1AF0506A5050556E8D
:10349E00566A020E546E7CEF1AF054687CEF1AF0E6
:1034AE005250506E516A5150000AD8B461EF1AF062
:1034BE0054EF1AF05050000AD8B4F2EF19F0010A86
:1034CE00D8B404EF1AF0030AD8B412EF1AF0010AB6
:1034DE00D8B424EF1AF0070AD8B432EF1AF0010A62
:1034EE00D8B443EF1AF054EF1AF000F05404D8A4F5
:1034FE0083EF1AF085EF1AF0ECEF1AF0565007E151
:10350E00070E555CD8B08EEF1AF090EF1AF096EFCA
:10351E001AF0000E5A6E000E596EA0EF1AF055C535
:10352E0059F556C55AF5FB0E5924596EFF0E5A2001
:10353E005A6E890E595C130E5A58D8A0A9EF1AF07C
:10354E00ABEF1AF0ADEF1AF052EF1BF059C501F5C3
:10355E005AC502F5000E046E050E036E1AEC2AF023
:10356E0001C557F502C558F59C0E5724576EFF0E30
:10357E005820586E57C508F558C509F5000E0B6E44
:10358E000A0E0A6E36EC2DF008C557F509C558F52A
:10359E0057C501F558C502F5000E046EE80E036E10
:1035AE001AEC2AF001C557F502C558F559C501F5B3
:1035BE005AC502F5000E046E640E036E1AEC2AF064
:1035CE000150536E535052EF1BF0020E5418D8A4F4
:1035DE00F3EF1AF0F5EF1AF052EF1BF06F0E3A6E92
:1035EE00810E3B6EA80E3C6EC00E3D6EB30E216E6C
:1035FE007B0E226E920E236E3F0E246E55C50FF576
:10360E0056C510F5116A126A000EBDEC20F00FC5FA
:10361E001DF510C51EF511C51FF512C520F5C8EC18
:10362E0017F01DC536F51EC537F51FC538F520C573
:10363E0039F568EC15F036C546F537C547F538C58A
:10364E0048F539C549F558EC24F046C559F547C536
:10365E005AF5890E595C130E5A58D8A039EF1BF043
:10366E003BEF1BF03DEF1BF052EF1BF0D89059349F
:10367E00576E5A34586E57C501F558C502F5000EEF
:10368E00046E640E036E1AEC2AF001C557F502C5DE
:10369E0058F5DDEF1AF012007BEC27F00009D8B4D4
:1036AE005BEF1BF05DEF1BF08AEF1CF0DE0E226E5F
:1036BE00050E236E17EC2BF0E806D8A469EF1BF06D
:1036CE006BEF1BF08AEF1CF000F0DEC567F5DFC56F
:1036DE0068F5E0C569F5E1C56AF561008CF7D9F4C6
:1036EE00610090F7DAF4DF500501716F20EE01F002
:1036FE00E351D926E451DA22DF50726F20EE02F048
:10370E00E351D926E451DA22DF50706F20EE03F038
:10371E00E351D926E451DA22DF506E6F20EE04F029
:10372E00E351D926E451DA22DF506F6F20EE05F017
:10373E00E351D926E451DA22DF506D6F20EE06F008
:10374E00E351D926E451DA22DF506B6F20EE07F0F9
:10375E00E351D926E451DA22DF506C6F48EF1CF0AA
:10376E0071C5DAF572C5D9F570C5D8F56EC5D7F540
:10377E006FC5D6F5D85166EC2BF08AEF1CF071515F
:10378E00070BD56F7151180BD46F7151E00BD36FBE
:10379E007251010BD26F7251060BD16F7251780BB1
:1037AE00D06F70C560F57F0E6017616B72AF01D080
:1037BE00612B61316035CF6F6E51606F616BD89048
:1037CE00603761376F51636F626B60516213615185
:1037DE006313646B70AF01D0642B010E64176451D8
:1037EE0062110601166F050163510601176F8AEF0C
:1037FE001CF071C5CEF572C5CDF570C5CCF56EC594
:10380E00CBF56FC5CAF56DC5C9F56BC5C8F56CC5E9
:10381E00C7F58AEF1CF0715172C560F5616B60C51A
:10382E0061F5606B60110601146F050161510601AF
:10383E00156F050170516EC560F5616B60C561F560
:10384E00606B60110601126F050161510601136F65
:10385E0005016F516DC560F5616B60C561F5606BFB
:10386E0060110601106F050161510601116F8AEF9B
:10387E001CF071C5D8F5D85166EC2BF000F08AEF2C
:10388E001CF067C560F568C561F569C562F56AC566
:10389E0063F56351000AD8B483EF1CF045EF1CF0BA
:1038AE006151030AD8B466EF1CF0070AD8B46DEF65
:1038BE001CF0010AD8B474EF1CF045EF1CF06051F7
:1038CE00200AD8B4B7EF1BF045EF1CF06051120A76
:1038DE00D8B440EF1CF045EF1CF06051000AD8B48C
:1038EE00C6EF1BF0010AD8B400EF1CF0030AD8B4DF
:1038FE0012EF1CF045EF1CF06251000AD8B457EFDE
:10390E001CF045EF1CF01200610038F4D9F4610090
:10391E003CF4DAF4610078F314F5610078F315F5F0
:10392E00610078F316F5610078F317F520EE04F0D8
:10393E000E50D9260F50DA22DFA0A8EF1CF0AAEF06
:10394E001CF0E4EF1CF020EE01F00C50D9260D50C7
:10395E00DA221438E842F80BF80BDF6E050E106E03
:10396E00D8901732163215321432102EB7EF1CF0D3
:10397E0020EE02F00C50D9260D50DA22610050F4E0
:10398E00DFF415C514F516C515F517C516F5176A26
:10399E0020EE03F00C50D9260D50DA2214501F0BD6
:1039AE00DF6E050E106ED8901732163215321432A5
:1039BE00102EDAEF1CF0FCEF1CF020EE03F00C5092
:1039CE00D9260D50DA22000EDF6E10EE02F00C50EA
:1039DE00E1260D50E222DFC4E7F420EE01F00C5098
:1039EE00D9260D50DA22E7C4DFF4610030F4D9F4A1
:1039FE00610034F4DAF4610050F4DFF415C514F507
:103A0E0016C515F517C516F5176A14C510F5070E68
:103A1E00101620EE01F00C50D9260D50DA2210505F
:103A2E00DF1220EE04F00E50D9260F50DA22DF30CE
:103A3E00E8320F0B136E20EE04F00E50D9260F5005
:103A4E00DA22DFB02DEF1DF031EF1DF0106A102AD3
:103A5E0032EF1DF0106A1038F00B131220EE04F046
:103A6E000E50D9260F50DA22DFB240EF1DF044EF90
:103A7E001DF0200E106E45EF1DF0106A105013123F
:103A8E0020EE04F00E50D9260F50DA22DFBE52EF90
:103A9E001DF056EF1DF0400E106E57EF1DF0106A20
:103AAE001050131220EE04F00E50D9260F50DA22C9
:103ABE00DFBC64EF1DF068EF1DF0800E106E69EF35
:103ACE001DF0106A1050131220EE04F00C50D9267F
:103ADE000D50DA2261004CF4DFF420EE04F00E50AB
:103AEE00D9260F50DA22DFB27FEF1DF081EF1DF0E5
:103AFE00ADEF1DF0080E0C24016E000E0D20026EAF
:103B0E0020EE05F00E50D9260F50DA22610078F320
:103B1E0003F5610074F304F520EE04F00E50D9267F
:103B2E000F50DA22DF30E8320F0B106E116A010EE1
:103B3E001024F66E260E1120F76EF86A000EF8228B
:103B4E000800F550056E066AEAEC2AF0120020EE27
:103B5E0004F00C50D9260D50DA22DF50176E17C51F
:103B6E0010F520EE04F00E50D9260F50DA22104632
:103B7E001046DF501018C30B1018DF6E17B8CAEFBF
:103B8E001DF0CEEF1DF0106A102ACFEF1DF0106A57
:103B9E0020EE04F00E50D9260F50DA22DF50101806
:103BAE00FE0B1018DF6E17BADFEF1DF0E3EF1DF0FE
:103BBE00106A102AE4EF1DF0106A20EE04F00E5089
:103BCE00D9260F50DA221046DF501018FD0B1018B0
:103BDE00DF6E17BCF5EF1DF0F9EF1DF0106A102A1D
:103BEE00FAEF1DF0106A20EE04F00E50D9260F5099
:103BFE00DA2210321032DF5010187F0B1018DF6EE1
:103C0E0017BE0CEF1EF010EF1EF0106A102A11EF07
:103C1E001EF0106A20EE04F00E50D9260F50DA2254
:103C2E00103A10461046DF501018BF0B1018DF6EFA
:103C3E0020EE01F00C50D9260D50DA22DF50106E16
:103C4E00070E10161050136E146A156A166A15C5F3
:103C5E0016F514C515F513C514F5136A610030F485
:103C6E00D9F4610034F4DAF4DF50106E10501312F0
:103C7E0020EE04F00E50D9260F50DA22DFA04AEFC4
:103C8E001EF04CEF1EF08DEF1EF0050ED890133681
:103C9E00143615361636E82E4DEF1EF020EE03F0D4
:103CAE000C50D9260D50DA22DF50106E1F0E101652
:103CBE001050131215C516F514C515F513C514F5C8
:103CCE00136A20EE02F00C50D9260D50DA22DF5086
:103CDE00106E10501312050ED8901336143615367A
:103CEE001636E82E73EF1EF020EE01F00C50D9269A
:103CFE000D50DA22DF50106ED8901032D89010325C
:103D0E00D89010321F0E101610501312610038F496
:103D1E00D9F461003CF4DAF461004CF4DEF4610095
:103D2E0050F4DEF4610054F4DEF4610058F4DEF475
:103D3E00260E016E060E026E080E0C24036E000E89
:103D4E000D20046E20EE04F00E50D9260F50DA220C
:103D5E00DF30E8320F0B106E116A010E1024F66E72
:103D6E00260E1120F76EF86A000EF8220800F550A4
:103D7E00056E066AEAEC2AF020EE05F00E50D92602
:103D8E000F50DA22260EDE6E060EDD6E1200000ECB
:103D9E000301F96F3F0EFA6F000ED86F000EFB6F26
:103DAE00000ED96F000EDA6F000EDB6F000EDC6FA7
:103DBE00000EDF6F000EE06F000EE36F000EE46F7B
:103DCE00000EE56F000EE66F000EE76F000EEA6F55
:103DDE00000EEB6F000EEC6FE80EEE6F030EEF6F42
:103DEE00000EF06F000EF16F000EF26F000EF36F0B
:103DFE00000EF46F100EF56F000EF66F000EF76FDB
:103E0E00000EF86F000EFC6F010EFB6F000ED96FE7
:103E1E00000EDA6F000EDB6F000EDC6F000EDF6F30
:103E2E00000EE06F000EE36F000EE46F000EE56F04
:103E3E00000EE66F000EE76F000EEA6F000EEB6FDE
:103E4E00010EEC6FE80EEE6F030EEF6F000EF06FCB
:103E5E00000EF16F000EF26F000EF36F000EF46F96
:103E6E00100EF56F000EF66F000EF76F000EF86F66
:103E7E00000EFD6F020EFB6F000ED96F000EDA6F93
:103E8E00000EDB6F000EDC6F000EDF6F000EE06FBA
:103E9E00000EE36F000EE46F000EE56F000EE66F8E
:103EAE00000EE76F000EEA6F000EEB6F170EEC6F51
:103EBE00E80EEE6F030EEF6F000EF06F000EF16F57
:103ECE00000EF26F000EF36F000EF46F100EF56F12
:103EDE00000EF66F000EF76F000EF86F000EFE6FFD
:103EEE00030EFB6F000ED96F000EDA6F000EDB6F44
:103EFE00000EDC6F000EDF6F000EE06F000EE36F42
:103F0E00000EE46F000EE56F000EE66F000EE76F19
:103F1E00000EEA6F000EEB6F160EEC6FE80EEE6FF2
:103F2E00030EEF6F000EF06F000EF16F000EF26FCA
:103F3E00000EF36F000EF46F100EF56F000EF66F9D
:103F4E00000EF76F000EF86F000EFF6FAF94AF9676
:103F5E00B090B092B094B096000E0501776F000E3F
:103F6E00786F02EC2FF0000E0501776F000E786F60
:103F7E00F8EC2EF0000E0501776F000E786FF3EC63
:103F8E002EF0000E0501776F000E786FEEEC2EF01E
:103F9E00000E0501776F000E786FE9EC2EF0000E23
:103FAE000501776F000E786FFDEC2EF0840E030185
:103FBE00F36F120005018D6F05018D51D8B4EAEF34
:103FCE001FF0ECEF1FF00EEF20F088BFF3EF1FF0A5
:103FDE00F1EF1FF00EEF20F085C589F586C58AF545
:103FEE0087C58BF588C58CF5891F8A1F8B1F8C1F83
:103FFE00892B000E8A238B238C2389C58FF58AC5C6
:10400E0090F58BC591F58CC592F516EF20F085C510
:10401E008FF586C590F587C591F588C592F58551C2
:10402E00861187118811D8A41FEF20F021EF20F000
:10403E002BEF20F0000E856F000E866F000E876F3F
:10404E00000E886FBCEF20F0960E8E6F35EF20F0CD
:10405E008E2BD8909233913390338F33000E8F1571
:10406E00896F000E90158A6F000E91158B6FFE0EE4
:10407E0092158C6F89518A118B118C11D8A44AEF2D
:10408E0020F04CEF20F02FEF20F05AEF20F08E2B87
:10409E00010E8F27000E902391239223D8909233F6
:1040AE00913390338F33000E8F15896F000E90155C
:1040BE008A6F000E91158B6FFF0E92158C6F8951C2
:1040CE008A118B118C11D8A46FEF20F071EF20F0B4
:1040DE004EEF20F079EF20F08E07D8908F37903783
:1040EE009137923791BF7EEF20F080EF20F088EF6E
:1040FE0020F0020E8E6186EF20F088EF20F073EF35
:10410E0020F08EB18DEF20F08FEF20F090EF20F0A9
:10411E00919FD8908E338EC589F58A6B8B6B8C6B85
:10412E0089C58CF58B6B8A6B896B89518F138A517C
:10413E0090138B5191138C5192138D51D8B4AAEFC9
:10414E0020F0ACEF20F0B4EF20F088BFB3EF20F0FA
:10415E00B1EF20F0B4EF20F0928F8FC585F590C5AA
:10416E0086F591C587F592C588F51200176E175022
:10417E00D8B4C4EF20F0C6EF20F0E8EF20F012BE66
:10418E00CDEF20F0CBEF20F0E8EF20F00FC513F5C8
:10419E0010C514F511C515F512C516F5131E141E0E
:1041AE00151E161E132A000E14221522162213C5D2
:1041BE0019F514C51AF515C51BF516C51CF5F0EF46
:1041CE0020F00FC519F510C51AF511C51BF512C54E
:1041DE001CF50F50101011101210D8A4F9EF20F08A
:1041EE00FBEF20F005EF21F0000E0F6E000E106EAB
:1041FE00000E116E000E126E96EF21F0960E186ED6
:10420E000FEF21F0182AD8901C321B321A321932B5
:10421E00000E1914136E000E1A14146E000E1B14D9
:10422E00156EFE0E1C14166E13501410151016106B
:10423E00D8A424EF21F026EF21F009EF21F034EF7E
:10424E0021F0182A010E1926000E1A221B221C22FA
:10425E00D8901C321B321A321932000E1914136EFA
:10426E00000E1A14146E000E1B14156EFF0E1C1485
:10427E00166E1350141015101610D8A449EF21F015
:10428E004BEF21F028EF21F053EF21F01806D890D4
:10429E0019361A361B361C361BBE58EF21F05AEF54
:1042AE0021F062EF21F0020E186060EF21F062EF54
:1042BE0021F04DEF21F018B067EF21F069EF21F0FA
:1042CE006AEF21F01B9ED890183218C513F5146AA8
:1042DE00156A166A13C516F5156A146A136A135011
:1042EE00191214501A1215501B1216501C12175078
:1042FE00D8B484EF21F086EF21F08EEF21F012BEBC
:10430E008DEF21F08BEF21F08EEF21F01C8E19C571
:10431E000FF51AC510F51BC511F51CC512F51200C7
:10432E0001011DAF9DEF21F09FEF21F0AEEF21F0C7
:10433E0002D8ACEF21F00500FA6E0501B251FD6E08
:10434E00B351FE6EFF6AFA50120001011D9F1DADA2
:10435E00B3EF21F0B5EF21F0C4EF21F002D8C2EF98
:10436E0021F00500FA6E0501B051FD6EB151FE6EE1
:10437E00FF6AFA50120001011D9D1DABC9EF21F01D
:10438E00CBEF21F0DAEF21F002D8D8EF21F00500C3
:10439E00FA6E0501AE51FD6EAF51FE6EFF6AFA5018
:1043AE00120001011D9B1CA7DFEF21F0E1EF21F0B0
:1043BE00F0EF21F002D8EEEF21F00500FA6E0501C4
:1043CE00AC51FD6EAD51FE6EFF6AFA501200010146
:1043DE001C971DA9F5EF21F0F7EF21F006EF22F063
:1043EE0002D804EF22F00500FA6E0501AA51FD6E07
:1043FE00AB51FE6EFF6AFA50120001011D991DA508
:10440E000BEF22F00DEF22F023EF22F002D81AEF7D
:10441E0022F00500FA6E0501A851FD6EA951FE6E3F
:10442E00FF6AFA501200010154A920EF22F022EF88
:10443E0022F023EF22F054991DA728EF22F02AEF45
:10444E0022F040EF22F002D837EF22F00500FA6E8C
:10445E000501A651FD6EA751FE6EFF6AFA501200BD
:10446E00010160A73DEF22F03FEF22F040EF22F076
:10447E006097AE9C1200000E0501806F7EBF4CEF60
:10448E0022F04AEF22F056EF22F07E1F7D1F7C1F96
:10449E007B6D000E7C237D237E23010E806F7ABF01
:1044AE005DEF22F05BEF22F067EF22F07A1F791FAB
:1044BE00781F776D000E782379237A23010E801BE7
:1044CE00000E816F000E826F000E836F000E846FE0
:1044DE007B517C117D117E11D8B478EF22F07AEFEA
:1044EE0022F0B0EF22F0010E7F6F84EF22F0D89011
:1044FE007B377C377D377E377F2B7EAF89EF22F07F
:10450E008BEF22F07EEF22F0D890813782378337FF
:10451E0084377B51775D7C5178597D5179597E5125
:10452E007A59D8A09DEF22F09FEF22F0A8EF22F04B
:10453E007B51775F7C51785B7D51795B7E517A5BE5
:10454E008181D8907E337D337C337B337F2F8BEF0D
:10455E0022F08051D8B4B6EF22F0B8EF22F0C0EFBF
:10456E0022F0841F831F821F816D000E82238323FE
:10457E00842381C577F582C578F583C579F584C521
:10458E007AF51200000E0A6E08BED2EF22F0D0EFBE
:10459E0022F0DCEF22F0081E071E061E056C000E30
:1045AE00062207220822010E0A6E04BEE3EF22F055
:1045BE00E1EF22F0EDEF22F0041E031E021E016C4D
:1045CE00000E022203220422010E0A1A000E0B6EA6
:1045DE00000E0C6E000E0D6E000E0E6E05500610C7
:1045EE0007100810D8B4FEEF22F000EF23F036EFDC
:1045FE0023F0010E096E0AEF23F0D8900536063629
:10460E0007360836092A08AE0FEF23F011EF23F014
:10461E0004EF23F0D8900B360C360D360E360550BF
:10462E00015C065002580750035808500458D8A091
:10463E0023EF23F025EF23F02EEF23F00550015E3C
:10464E000650025A0750035A0850045A0B80D8904D
:10465E000832073206320532092E11EF23F00A50C6
:10466E00D8B43CEF23F03EEF23F046EF23F00E1EBE
:10467E000D1E0C1E0B6C000E0C220D220E220BC5F5
:10468E0001F50CC502F50DC503F50EC504F51200B6
:10469E006100D8F373F56100DCF374F56100E0F3AB
:1046AE0075F56100D4F376F5A1AE60EF23F062EFFD
:1046BE0023F06DEF23F0B1AE67EF23F069EF23F037
:1046CE006DEF23F011EC2FF0C7EF23F09FA072EFE8
:1046DE0023F074EF23F07FEF23F0AFA079EF23F0F8
:1046EE007BEF23F07FEF23F015EC2FF0C7EF23F0D5
:1046FE009EAC84EF23F086EF23F091EF23F0AEAC67
:10470E008BEF23F08DEF23F091EF23F097EC21F058
:10471E00C7EF23F0A2A896EF23F098EF23F0A3EFB4
:10472E0023F0B2A89DEF23F09FEF23F0A3EF23F029
:10473E000BEC2DF0C7EF23F0A1A6A8EF23F0AAEF04
:10474E0023F0B5EF23F0B1A6AFEF23F0B1EF23F0D6
:10475E00B5EF23F078EC2EF0C7EF23F0A1A8BAEF57
:10476E0023F0BCEF23F0C7EF23F0B1A8C1EF23F085
:10477E00C3EF23F0C7EF23F0E0EC27F0C7EF23F0F1
:10478E006100D8F5F5F46100D4F5F8F46100D0F5C8
:10479E00F7F46100CCF5F6F41100060151355235EF
:1047AE00586F5851D8A4DEEF23F0E0EF23F0EAEF74
:1047BE0023F0000E4F6F000E506F000E516F000E63
:1047CE00526F57EF24F04FC653F650C654F651C6EB
:1047DE0055F652C656F6200EFAEF23F0D890563301
:1047EE00553354335333E82EF5EF23F05351576FAF
:1047FE00518FFF0E4F17FF0E5017FF0E5117000E61
:10480E005217960E585F58BF11EF24F00FEF24F099
:10481E0027EF24F05851800A970FD8B019EF24F0E3
:10482E001BEF24F01DEF24F0E0EF23F0D89052336D
:10483E00513350334F33583F1DEF24F03FEF24F0E8
:10484E001F0E58652DEF24F02FEF24F037EF24F0D4
:10485E00E0EF23F0D8904F37503751375237580783
:10486E005851D8A43DEF24F03FEF24F031EF24F05F
:10487E005751D8B445EF24F047EF24F04FEF24F012
:10488E00521F511F501F4F6D000E502351235223A4
:10489E004FC64FF650C650F651C651F652C652F696
:1048AE001200483449344F6E4F50D8A461EF24F0B3
:1048BE0063EF24F06DEF24F0000E466E000E476E8F
:1048CE00000E486E000E496EDAEF24F046C54AF52A
:1048DE0047C54BF548C54CF549C54DF5200E7DEF46
:1048EE0024F0D8904D324C324B324A32E82E78EFCB
:1048FE0024F04A504E6E488EFF0E4616FF0E471697
:10490E00FF0E4816000E4916960E4F5E4FBE94EFE0
:10491E0024F092EF24F0AAEF24F04F50800A970F64
:10492E00D8B09CEF24F09EEF24F0A0EF24F063EFBC
:10493E0024F0D89049324832473246324F3EA0EFEB
:10494E0024F0C2EF24F01F0E4F64B0EF24F0B2EF4C
:10495E0024F0BAEF24F063EF24F0D89046364736B1
:10496E00483649364F064F50D8A4C0EF24F0C2EF58
:10497E0024F0B4EF24F04E50D8B4C8EF24F0CAEFB0
:10498E0024F0D2EF24F0491E481E471E466C000E3E
:10499E0047224822492246C546F547C547F548C530
:1049AE0048F549C549F51200216E000E1D6E1850CE
:1049BE000AEC2EF0206E20A0E7EF24F0E9EF24F0B1
:1049CE004FEF25F018500C0D580EF324D96E010E32
:1049DE00F420DA6E610078F31EF5610074F31FF5B2
:1049EE001E501F10D8B4FEEF24F000EF25F04FEF4D
:1049FE0025F01EC50CF51FC50DF519C50EF51AC50A
:104A0E000FF5AEEC1DF018500C0D510EF324D96EAF
:104A1E00010EF420DA6E000EDB802150020DE80E3E
:104A2E00F324D96E050EF420DA6EDF2A1850CAEC84
:104A3E002DF01B6E2150020DE80EF324D96E050EDB
:104A4E00F420DA6E1B50DE5CD8A030EF25F032EF8A
:104A5E0025F03CEF25F02150020DE80EF324D96E1F
:104A6E00050EF420DA6E000EDF6E20A641EF25F063
:104A7E0043EF25F04DEF25F018500C0D540EF32496
:104A8E00D96E010EF420DA6EF70EDF16010E1D6ED2
:104A9E001D50120023C51EF624C51FF625C520F68F
:104AAE0026C521F627C522F628C523F629C524F6E4
:104ABE002AC525F61EC52EF61FC52FF620C530F6C3
:104ACE0021C531F60601329D329F3293328122C5C5
:104ADE002BF50F0E2B162B462B4632512B18C30BD4
:104AEE002B18326F1E0E336F060E346F37EC2EF00E
:104AFE00E806D8A485EF25F087EF25F08AEF25F09C
:104B0E0000F0010E5D6E2CEC2EF0E806D8A492EFAC
:104B1E0025F094EF25F097EF25F000F0010E5D6E75
:104B2E0021EC2EF0E806D8A49FEF25F0A1EF25F09A
:104B3E00A4EF25F000F0010E5D6ED9EC2DF0E80625
:104B4E00D8A4ACEF25F0AEEF25F0B1EF25F000F0D4
:104B5E00010E5D6E000E73EC2DF02B6E2BA0BAEFD6
:104B6E0025F0BCEF25F0C4EF25F02E0E186E060EC4
:104B7E00196E000EE4EC28F000F012006A0E05012A
:104B8E00976F4D0E986F930E996FBF0E9A6F5BC60F
:104B9E007BF55CC67CF57D6B7E6B490E776F990E4F
:104BAE00786F000E796F000E7A6F42EC22F077C5A7
:104BBE0085F578C586F579C587F57AC588F5010E30
:104BCE00E1EC1FF085C593F586C594F587C595F57F
:104BDE0088C596F507EC13F093C54FF694C550F6BD
:104BEE0095C551F696C552F6D4EC23F04FC65FF636
:104BFE0050C660F659C65DF65AC65EF60601D890E6
:104C0E005D375E37D8905D375E375DC67EF55EC622
:104C1E007FF55BC679F55CC67AF5000E0501786FF7
:104C2E00640E776F6BEC29F077C580F578C581F54A
:104C3E00F5EC2CF07EC561F67FC562F661C677F5A0
:104C4E0062C678F55DEC2EF05FC677F560C678F536
:104C5E0056EC2EF027EC2FF012006A0E0501976F1E
:104C6E004D0E986F930E996FBF0E9A6F5BC67BF5C4
:104C7E005CC67CF57D6B7E6B490E776F990E786FF7
:104C8E00000E796F000E7A6F42EC22F077C585F533
:104C9E0078C586F579C587F57AC588F5010EE1ECFC
:104CAE001FF085C593F586C594F587C595F588C51E
:104CBE0096F507EC13F093C54FF694C550F695C5CF
:104CCE0051F696C552F6D4EC23F04FC65FF650C699
:104CDE0060F659C65DF65AC65EF60601D8905D3787
:104CEE005E37D8905D375E375DC67EF55EC67FF562
:104CFE005BC679F55CC67AF5000E0501786F640E19
:104D0E00776F6BEC29F077C580F578C581F5F5ECFA
:104D1E002CF07EC561F67FC562F661C677F562C678
:104D2E0078F56BEC2EF05FC677F560C678F564EC1F
:104D3E002EF02DEC2FF01200076E000E096E20EEF5
:104D4E0004F00250D9260350DA22DF500A6E0AAE62
:104D5E00B3EF26F0B5EF26F0C0EF26F007EC2FF0FC
:104D6E00060AD8A4BDEF26F0BFEF26F0C0EF26F05E
:104D7E0009820A30E8320F0B046E080E0464CAEF83
:104D8E0026F0CCEF26F0DEEF26F00AACD1EF26F0BF
:104D9E00D3EF26F0DDEF26F007EC2FF0060AD8A4AD
:104DAE00DBEF26F0DDEF26F0DEEF26F00980090EB0
:104DBE00F66E260EF76EF86A08006100D4F304F55D
:104DCE000A30E8320F0B056E066A010E0524F66EE8
:104DDE00260E0620F76EF86A000EF8220800F5502F
:104DEE00045CD8B0FDEF26F0FFEF26F000EF27F0C1
:104DFE0009800750FEEC2DF00009D8A409EF27F02A
:104E0E000BEF27F00DEF27F0030E091209501200D9
:104E1E006A0E3A6E4D0E3B6E930E3C6EBF0E3D6E9D
:104E2E0052C505F553C506F5076A086A490E016EA7
:104E3E00990E026E000E036E000E046EC9EC22F087
:104E4E0001C50FF502C510F503C511F504C512F520
:104E5E00010EBDEC20F00FC536F510C537F511C5A6
:104E6E0038F512C539F568EC15F036C546F537C577
:104E7E0047F538C548F539C549F558EC24F046C50F
:104E8E0056F547C557F550C554F551C555F5D8904B
:104E9E0054365536D8905436553654C508F555C542
:104EAE0009F552C503F553C504F5000E026E640EE6
:104EBE00016E1AEC2AF001C50AF502C50BF536ECA7
:104ECE002DF008C558F509C559F558C501F559C550
:104EDE0002F584EC2EF056C501F557C502F57EECB1
:104EEE002EF02FEC2FF01200000E036E000E0A6E45
:104EFE000A50020DE70EF324D96E050EF420DA6E79
:104F0E00DF50066E06500AEC2EF0056E05A092EFED
:104F1E0027F094EF27F0D5EF27F00650CAEC2DF0CE
:104F2E00076E05A69DEF27F09FEF27F0A3EF27F062
:104F3E0007C504F5D3EF27F006500C0D550EF324DC
:104F4E00D96E010EF420DA6EDF501F0B086E0A5078
:104F5E00020DE80EF324D96E050EF420DA6EDF5042
:104F6E00096E0950085CD8B0BFEF27F0C1EF27F0EB
:104F7E00C7EF27F00950085C0724046ED3EF27F023
:104F8E000850095CD8B0CEEF27F0D0EF27F09FEF96
:104F9E0027F00950085C046E045003260A2A0A50B2
:104FAE00D8B4DCEF27F0DEEF27F07FEF27F00350C9
:104FBE001200B198E5C501F5E6C502F599EC2CF0A5
:104FCE00B0EC2CF0B0EC2BF00501DD2B060EDD194C
:104FDE00D8A4F4EF27F0F6EF27F0FAEF27F0000E43
:104FEE00DD6F35EC2FF00501DC2B0B0EDC19D8A490
:104FFE0003EF28F005EF28F009EF28F0000EDC6F24
:10500E0087EC2DF00501DB2B650EDB19D8A412EF12
:10501E0028F014EF28F018EF28F0000EDB6F38ECB4
:10502E002FF006011C4B1D2B2D0E1C1906E11D0524
:10503E00D8A424EF28F026EF28F02CEF28F0000E4D
:10504E001D6F000E1C6F36EC2FF006011A4B1B2B3A
:10505E00590E1A1907E1020E1B19D8A439EF28F0C0
:10506E003BEF28F041EF28F0000E1B6F000E1A6F79
:10507E0037EC2FF01200000EEFEC19F05B6E5B5068
:10508E0006010E6F0F6B000E026E0A0E016EC7EC5C
:10509E002CF0010EEFEC19F05B6E5B5006010C6FFD
:1050AE000D6B000E026E0A0E016EC7EC2CF0020E96
:1050BE00EFEC19F05B6E5B5006010A6F0B6B000E86
:1050CE00026E0A0E016EC7EC2CF0030EEFEC19F017
:1050DE005B6E5B500601086F096B000E026E0A0EC6
:1050EE00016EC7EC2CF0040EEFEC19F05B6E5B500A
:1050FE000601066F076B000E026E0A0E016EC7ECFC
:10510E002CF0050EEFEC19F05B6E5B500601046F90
:10511E00056B000E026E0A0E016EC7EC2CF000F04D
:10512E0012000501796F000E0501786FC1EC2EF0AB
:10513E000501776F040E7719D8B4A8EF28F0AAEFFF
:10514E0028F0BBEF28F07905D8B4B0EF28F0B2EF15
:10515E0028F0BBEF28F0040E7919D8A4B9EF28F087
:10516E00BBEF28F0E0EF28F001010351050179199A
:10517E00F80B79190101036FD2EF28F001011DA977
:10518E00CBEF28F0CDEF28F0D2EF28F0020E05017C
:10519E00786FE2EF28F00239E832070B0501791932
:1051AE00D8A4DCEF28F0DEEF28F0C5EF28F0E2EF10
:1051BE0028F0010E786F785112001D6E1D50CFEC45
:1051CE002BF00009D8B4EEEF28F0F0EF28F02DEF19
:1051DE0029F018C502F519C503F51D50A3EC26F0EC
:1051EE001A6E1A50D8A4FEEF28F000EF29F02DEF1A
:1051FE0029F01D500C0D580EF324D96E010EF4201B
:10520E00DA6E610078F31BF5610074F31CF51B5028
:10521E001C10D8B415EF29F017EF29F02DEF29F057
:10522E001BC50CF51CC50DF518C50EF519C50FF5EA
:10523E008BEC1CF01D500C0D510EF324D96E010E8B
:10524E00F420DA6E030EDF122DEF29F012007E0E1F
:10525E000501776F5E0E786FDAEC2EF0800E050189
:10526E00776F5E0E786FDFEC2EF0820E0501776F92
:10527E005E0E786FE4EC2EF07C0E0501776F5E0EFD
:10528E00786FD5EC2EF0780E0501776F5E0E786F85
:10529E00CBEC2EF0760E0501776F5E0E786FC6ECB6
:1052AE002EF07A0E0501776F5E0E786FD0EC2EF031
:1052BE00AE9C000E01011C6F000E1D6F0A0E1E6FBC
:1052CE00FC0E1F6F9E8C1200000E05017D6F000EEE
:1052DE007C6F79517A11D8B477EF29F079EF29F0F4
:1052EE00A1EF29F0010E7B6F81EF29F0D89079376D
:1052FE007A377B2B7AAF86EF29F088EF29F07DEF96
:10530E0029F0D8907C377D377951775D7A5178596D
:10531E00D8A094EF29F096EF29F09BEF29F0795160
:10532E00775F7A51785B7C81D8907A3379337B2F93
:10533E0088EF29F07CC577F57DC578F51200000E53
:10534E006F6E020E706E000E716E500E726E0F0E3C
:10535E00736EFE0E746E000E756E000E766E000E7F
:10536E00776E000E796E0D0E7A6E050E7B6EA80EA0
:10537E007C6E070E7D6EB39CB39E76907692A39E46
:10538E00A39C000E0501776F000E786F9EEC2EF039
:10539E00000E0501776F000E786F99EC2EF0000E5F
:1053AE000501776F000E786FA3EC2EF0800E786EED
:1053BE001200000E606E020E616E000E626E3D0EE9
:1053CE00636E000E646EFE0E656E000E666E000E4F
:1053DE00676E000E686E000E6A6E1F0E6B6E000E0C
:1053EE006C6E1F0E6D6E000E6E6EB29CB29E67904E
:1053FE006792A29EA29C000E0501776F000E786F39
:10540E00ADEC2EF0000E0501776F000E786FA8EC54
:10541E002EF0000E0501776F000E786FB2EC2EF0B5
:10542E00800E696E1200000E066E000E056E0350A1
:10543E000410D8B425EF2AF027EF2AF04FEF2AF008
:10544E00010E076E2FEF2AF0D89003360436072A86
:10545E0004AE34EF2AF036EF2AF02BEF2AF0D89074
:10546E00053606360350015C04500258D8A042EFB0
:10547E002AF044EF2AF049EF2AF00350015E04505F
:10548E00025A0580D89004320332072E36EF2AF0E6
:10549E0005C501F506C502F51200000EBE6E000E22
:1054AE00BF6E000EC06E080ECA6EEF0EC66EC80E30
:1054BE00C76EDC0EC86ED80E0401106F400E086F5A
:1054CE00CF0E006F000E216F000E096F000E016FE0
:1054DE00000E116F000E026F000E0A6F000E126F9B
:1054EE0003690B69136904690C691469080E246F4A
:1054FE00180E0201116F0F0E696F050E3E6F1A0E18
:10550E00126F0B0E3D6F460E0D6F12000501A36F4D
:10551E00A4EF2AF02BEC2FF0BBEF2AF029EC2FF0A2
:10552E00000E06015A6F320E596F000E5C6F640E3C
:10553E005B6F34EC26F0BBEF2AF00501A351060198
:10554E00636F646B6451000AD8B4B0EF2AF0BBEFFE
:10555E002AF06351000AD8B491EF2AF0010AD8B4A8
:10556E0095EF2AF0BBEF2AF012000101018F040E15
:10557E0098EC28F00009D8A4C7EF2AF0C9EF2AF05A
:10558E00E9EF2AF0000E01014C6F260E4D6F000E52
:10559E004E6F000E4F6F600E006F970E016F100E64
:1055AE00026F4CEC2EF042EC2EF021EC2DF0AAEC1A
:1055BE002DF06BEC2CF02EEC29F0060E98EC28F06A
:1055CE00C79ABF9A120003C509F504C50AF501C5AD
:1055DE0007F502C508F509EF2BF0610024F4D9F4A4
:1055EE00610028F4DAF4DF500B6E094A0A2A6100D2
:1055FE001CF4D9F4610020F4DAF461002CF4DFF429
:10560E00074A082A0506D8A00606052806E1062838
:10561E00D8A414EF2BF016EF2BF0F4EF2AF01200B3
:10562E00000E256E2550020DE70EF324D96E050EE1
:10563E00F420DA6EDF50186E22C519F523C51AF55F
:10564E002550DBEC24F0246E2450D8B431EF2BF02F
:10565E0033EF2BF035EF2BF03EEF2BF0252A2550B4
:10566E00D8B43CEF2BF03EEF2BF019EF2BF024507B
:10567E001200620EF66E5E0EF76E000EF86E0900E8
:10568E006100D4F3E7F509006100D4F3E8F501EE0B
:10569E0000F2350EEE6AE806FDE101EEA4F1410ED0
:1056AE00EE6AE806FDE15D6A5C6A0401080E5D6F54
:1056BE00000E5E6F000E5F6F000199EF2DF05A6EB7
:1056CE005A503C0D6100CCF3A4F56100D0F3A5F562
:1056DE00A4C501F5A5C502F5000E046E640E036E99
:1056EE001AEC2AF001C5A4F502C5A5F50501A451D1
:1056FE00A46FA56BA4C550F5A5C551F5010E536E4B
:10570E002C0E526E0FEC27F01200000E03011F6FCD
:10571E00000E206F010E216F850E1D6FEE0E1C6F99
:10572E00B1981C51600074FC79F505017A6B79C54E
:10573E007AF5796B7911E56F7A51E66FA188680E6B
:10574E00776F5E0E786F8FEC2EF0310E03011E6FA9
:10575E00120042EC28F0600E1E6E030E1F6E000E3D
:10576E00206E000E216E080E226E0EC623F50CC69C
:10577E0024F50AC625F508C626F506C627F504C67D
:10578E0028F502C629F500C62AF551EC25F01200BF
:10579E00026E000E016E040E0260D8EF2BF0DAEFEF
:1057AE002BF0ECEF2BF002500C0D500EF324D96EB3
:1057BE00010EF420DA6E0101DFAEE8EF2BF0EAEF16
:1057CE002BF0ECEF2BF0010E016E01501200000ECB
:1057DE00CEBA010E0501C36FC305D8A4F9EF2BF0A5
:1057EE00FBEF2BF007EF2CF0000EEFEC19F005019C
:1057FE00C26F010EEFEC19F00501C16FA4C5C4F51F
:10580E00120025EC2FF05FEC2DF0CEEC1EF054ECD8
:10581E002AF0E6EC2DF053EC2CF08CEC2BF016EC81
:10582E002EF04BEC2DF0A6EC29F0BCEC2AF0E0ECBF
:10583E0029F01200EEEC2BF006014D514E11D8B4AA
:10584E002BEF2CF02DEF2CF039EF2CF002D839EF96
:10585E002CF00500FA6E4D51FD6E4E51FE6EFF6A34
:10586E00FA5012001200056E610014F4ECF30301FD
:10587E00F38FF39DF381F3B147EF2CF049EF2CF04A
:10588E0042EF2CF0EB51046E036AEA510324016ED1
:10589E00000E0420026E1200010E0301266F000E90
:1058AE00256F000E276FC20E236F000E226FB1966A
:1058BE00A186640E0501776F5E0E786F8AEC2EF06E
:1058CE00F00E0301246F1200000E0501776F775161
:1058DE00020DE80EF324D96E050EF420DA6E000EDA
:1058EE00DF6E772B7751D8B47FEF2CF081EF2CF051
:1058FE006EEF2CF01200060137513811D8B48AEF32
:10590E002CF08CEF2CF098EF2CF002D898EF2CF0B6
:10591E000500FA6E3751FD6E3851FE6EFF6AFA5071
:10592E001200120003011EA59FEF2CF0A1EF2CF028
:10593E00AAEF2CF01E9102501D6F610004F41CF3AF
:10594E001E81AFEF2CF002501D6F610004F41CF3AA
:10595E001200060139513A11D8B4B8EF2CF0BAEF53
:10596E002CF0C6EF2CF002D8C6EF2CF00500FA6E24
:10597E003951FD6E3A51FE6EFF6AFA501200120056
:10598E00D0EF2CF0040E036E3E0EE82EFED7032E43
:10599E00FCD70106D8A00206012806E10228D8A4E9
:1059AE00DBEF2CF0DDEF2CF0C9EF2CF0120006012E
:1059BE0035513611D8B4E6EF2CF0E8EF2CF0F4EFB9
:1059CE002CF002D8F4EF2CF00500FA6E3551FD6E76
:1059DE003651FE6EFF6AFA501200120005017E511A
:1059EE0080036100CCF382F56100D0F383F57E5124
:1059FE008103F35083277F518003F350832782C5A1
:105A0E007EF583C57FF51200010160A111EF2DF027
:105A1E0013EF2DF020EF2DF002D820EF2DF0050022
:105A2E00FA6E0501B451FD6EB551FE6EFF6AFA5065
:105A3E0012001200190E01015C6F040E5D6F600EF4
:105A4E005E6F050E5F6F440E0501776F5E0E786F09
:105A5E00BCEC2EF001011E83B298A28812000850F1
:105A6E000A026100CCF30CF56100D0F30DF508507D
:105A7E000B02F3500D2609500A02F3500D260CC5E9
:105A8E0008F50DC509F51200440E03011B6F9B0EA0
:105A9E00196F000E186FB19EA18E720E0501776FF1
:105AAE005E0E786F94EC2EF0800E03011A6F1200CA
:105ABE00000E0001606F000E616F000E626F000E2F
:105ACE00636F000E646F000E656F000E666F000E42
:105ADE00676F000E686F1200046E000E036E0450A6
:105AEE00CFEC2BF00009D8B47FEF2DF081EF2DF025
:105AFE0085EF2DF00450FEEC2DF0036E03501200D6
:105B0E00BEB88CEF2DF08FEF2DF0010E90EF2DF033
:105B1E00000EFF0A016E013ABE500118EF0B01187C
:105B2E00BE6E120008EC2CF0D68EBBEC2DF0BF8AA8
:105B3E0019EC2FF072EC2EF0F2EC2DF000F0A5EF38
:105B4E002DF00DEF00F05F0E0101946F95699669CF
:105B5E009769000E986F000E996F000E9A6F000EE7
:105B6E009B6F810E816F1200040100810083108FE4
:105B7E00108D10891087C698C790C794C792C79A80
:105B8E00C884C89A1200026E02500C0D530EF324F4
:105B9E00D96E010EF420DA6EDF50016E1F0E011663
:105BAE00012812002CEC2EF00009D8B4E1EF2DF0F4
:105BBE00E4EF2DF0010EE5EF2DF0000E1200700E49
:105BCE000001AD6F000EAF6F000EB36F020EB16F1E
:105BDE00000EB06F1200000E06015A6F000E596FC4
:105BEE00000E5C6F320E5B6FC5EC25F01200016E7D
:105BFE0001500C0D540EF324D96E010EF420DA6E02
:105C0E00DF50010B1200016E01500C0D540EF324E7
:105C1E00D96E010EF420DA6EDF50090B1200AF9030
:105C2E00D680740E0501776F5E0E786FB7EC2EF08E
:105C3E009F801200010136B527EF2EF02AEF2EF0CD
:105C4E00010E2BEF2EF0000E1200010136B932EFCD
:105C5E002EF035EF2EF0010E36EF2EF0000E120064
:105C6E00010136BB3DEF2EF040EF2EF0010E41EF5D
:105C7E002EF0000E1200100E0101506F040E516F27
:105C8E00610E526F050E536F1200010E0101046F6B
:105C9E00010E056F060E066F000E076F12006100F3
:105CAE00DCF563F405017851646E12006100DCF5D9
:105CBE006BF4050178516C6E12006100DCF572F424
:105CCE0005017851736E12006100DCF57AF405015E
:105CDE0078517B6E1200BF84BF82010E8DEC2AF0CC
:105CEE001200B19682EC2CF033EC2FF01200610012
:105CFE0004F463F40250646E1200610004F46BF459
:105D0E0002506C6E120077C537F678C538F6120061
:105D1E0077C539F678C53AF6120077C535F678C5E7
:105D2E0036F6120077C53DF678C53EF6120077C5F9
:105D3E003FF678C540F6120077C53BF678C53CF6BF
:105D4E00120077C5B8F578C5B9F5120077C5BAF562
:105D5E0078C5BBF5120077C5B6F578C5B7F5120054
:105D6E0077C54DF678C54EF6120077C5B4F578C5F1
:105D7E00B5F5120001010239E832070B120077C5A2
:105D8E00A8F578C5A9F5120077C5AAF578C5ABF5C3
:105D9E00120077C5A6F578C5A7F5120077C5ACF544
:105DAE0078C5ADF5120077C5B2F578C5B3F512001A
:105DBE0077C5B0F578C5B1F5120077C5AEF578C5E3
:105DCE00AFF5120077C543F678C544F6120077C5D5
:105DDE0045F678C546F6120077C547F678C548F6FB
:105DEE00120077C549F678C54AF6120077C541F616
:105DFE0078C542F6120077C54BF678C54CF6120000
:105E0E0001010239E832070B1200016E610004F441
:105E1E00FBF31200B19EDEEC2CF01200AF9021ECE1
:105E2E002CF0120003011A9F12000301F3911200CD
:105E3E000301F39B120053EC1BF01200D69A1200D2
:105E4E0069841200788E1200789E120078841200F7
:105E5E0069841200010012001200120012001200DA
:105E6E001200120012001200120012001200120094
:065E7E00120012001200E8
:020000040020DA
:10000000FF0FFF0FFF0FFF0FFF0FFF0FFF0FFF0F80
:10001000FF0FFF0FFF0FFF0FFF0FFF0FFF0FFF0F70
:020000040030CA
:10000000FAEFF7DF9FFFFFFFFFFFFFFFFFFFFFFF9D
:10001000FFFFFFFFFFFFFFFFFFFFFFFFFFFFFFFFF0
:04002000FFFFFFFFE0
:00000001FF
