:020000040000FA
:040000000DEF00F010
:040008002CEF29F0C0
:06001800FF00DCEF2BF0FD
:0D2600000000010203040506070850010058
:10260E0005019851800BA16F98519825A36F97AF34
:10261E0013EF13F015EF13F016EF13F0A381A35180
:10262E00D8B41CEF13F01EEF13F033EF13F0A32901
:10263E00D8A424EF13F026EF13F02EEF13F0000EB4
:10264E00956F000E966F000E976F000E986F978F16
:10265E00000E986F3BEF13F0000E956F000E966F05
:10266E00000E976F000E986F9C51800BA26FA151B8
:10267E00A219D8B445EF13F047EF13F048EF13F05B
:10268E00A18D9C519C25A26F9BAF50EF13F052EF82
:10269E0013F053EF13F0A281A251D8B459EF13F0F7
:1026AE005BEF13F070EF13F0A229D8A461EF13F0D3
:1026BE0063EF13F06BEF13F0000E996F000E9A6F2D
:1026CE00000E9B6F000E9C6F9B8F000E9C6F78EF21
:1026DE0013F0000E996F000E9A6F000E9B6F000E96
:1026EE009C6FA351A25DD8B07FEF13F081EF13F072
:1026FE00A8EF13F0A1AD86EF13F088EF13F08AEF79
:10270E0013F0800EA11BA3C5A4F5A2C5A3F5A4C505
:10271E00A2F595C5A4F599C595F5A4C599F596C5E7
:10272E00A4F59AC596F5A4C59AF597C5A4F59BC5CB
:10273E0097F5A4C59BF598C5A4F59CC598F5A4C5B9
:10274E009CF5000EA46FA351A2C59DF59E6B9D5FD7
:10275E00000E9E5B9EBFBDEF13F09E5109E11A0E57
:10276E009D5DD8A0BDEF13F0BFEF13F0F6EF13F0A1
:10277E009551961197119811D8A4C8EF13F0CBEF7D
:10278E0013F0010ECCEF13F0000EA46F000E956F38
:10279E00000E966F000E976F000E986FA2C5A3F5F0
:1027AE00FFEF13F0A4A1DEEF13F0E0EF13F0E6EF6E
:1027BE0013F0D890A4310109A46FE8EF13F0D8906C
:1027CE00A43395A1EDEF13F0EFEF13F0F0EF13F04C
:1027DE00A48F98359833973396339533A32BA25104
:1027EE00A35DD8A0FDEF13F0FFEF13F0D9EF13F0B8
:1027FE00A1BD04EF14F006EF14F046EF14F0A35150
:10280E00D8A40CEF14F00EEF14F018EF14F0000E25
:10281E00956F000E966F000E976F000E986F67EF14
:10282E0015F0995195279A5196239B5197239C51B8
:10283E00982398A125EF14F027EF14F0D3EF14F09E
:10284E00A4A12CEF14F02EEF14F034EF14F0D89066
:10285E00A4310109A46F36EF14F0D890A43395A1DA
:10286E003BEF14F03DEF14F03EEF14F0A48F9835CB
:10287E009833973396339533A32BD3EF14F09951A6
:10288E00955D9A5196599B5197599851800A9D6F13
:10289E009C51800A9D59D8B057EF14F059EF14F09F
:1028AE0084EF14F09551995D9D6F96519A599E6FD4
:1028BE0097519B599F6F98519C59A06FFF0E9D2564
:1028CE00956FFF0E9E21966FFF0E9F21976FFF0E45
:1028DE00A021986F800EA11BA46DA451D8A47AEFED
:1028EE0014F07CEF14F08CEF14F0010E9527000E0F
:1028FE009623972398238CEF14F09951955F9A5154
:10290E00965B9B51975B9C51985B955196119711D5
:10291E009811D8A495EF14F097EF14F0CCEF14F0B3
:10292E00A451D8A49DEF14F09FEF14F0CCEF14F047
:10293E00000E956F000E966F000E976F000E986F3B
:10294E0067EF15F0D8909537963797379837A4AF2D
:10295E00B3EF14F0B5EF14F0B6EF14F09581A4A117
:10296E00BBEF14F0BDEF14F0C1EF14F0D880A43714
:10297E00C3EF14F0D890A437A351D8B4C9EF14F014
:10298E00CBEF14F0CCEF14F0A30797AFD1EF14F008
:10299E00D3EF14F0A9EF14F0000EA26FA4AFDAEF8C
:1029AE0014F0DCEF14F0F4EF14F0A4C59DF57F0ED7
:1029BE009D17D8B4E5EF14F0E7EF14F0EBEF14F039
:1029CE00010EA26FF4EF14F095A1F0EF14F0F2EFF8
:1029DE0014F0F4EF14F0E7EF14F0A251D8B4FAEFBC
:1029EE0014F0FCEF14F027EF15F0010E9527000EF2
:1029FE0096239723982398A107EF15F009EF15F06A
:102A0E0027EF15F095C59DF596C59EF597C59FF5D3
:102A1E0098C5A0F5A035A0339F339E339D339DC539
:102A2E0095F59EC596F59FC597F5A0C598F5A32972
:102A3E00D8B424EF15F026EF15F027EF15F0A32BE1
:102A4E00A329D8B42DEF15F02FEF15F037EF15F0B1
:102A5E00A351D8A435EF15F037EF15F049EF15F067
:102A6E00000E956F000E966F000E976F000E986F0A
:102A7E00A351D8A445EF15F047EF15F049EF15F027
:102A8E00000EA16FA3A14EEF15F050EF15F053EF0E
:102A9E0015F0978F54EF15F0979FD890A331986F3C
:102AAE00A1AF5CEF15F05EEF15F05FEF15F0988FAC
:102ABE0095C595F596C596F597C597F598C598F56C
:102ACE0012002B50800B346E2B502B24366E2AAEF8
:102ADE0073EF15F075EF15F076EF15F03680365072
:102AEE00D8B47CEF15F07EEF15F093EF15F0362885
:102AFE00D8A484EF15F086EF15F08EEF15F0000ECA
:102B0E00286E000E296E000E2A6E000E2B6E2A8E77
:102B1E00000E2B6E9BEF15F0000E286E000E296E28
:102B2E00000E2A6E000E2B6E2F50800B356E345019
:102B3E003518D8B4A5EF15F0A7EF15F0A8EF15F0DE
:102B4E00348C2F502F24356E2EAEB0EF15F0B2EF21
:102B5E0015F0B3EF15F035803550D8B4B9EF15F048
:102B6E00BBEF15F0D0EF15F03528D8A4C1EF15F056
:102B7E00C3EF15F0CBEF15F0000E2C6E000E2D6E80
:102B8E00000E2E6E000E2F6E2E8E000E2F6ED8EFB4
:102B9E0015F0000E2C6E000E2D6E000E2E6E000E19
:102BAE002F6E3650355CD8B0DFEF15F0E1EF15F033
:102BBE0008EF16F034ACE6EF15F0E8EF15F0EAEF9B
:102BCE0015F0800E341A36C537F535C536F537C5CE
:102BDE0035F528C537F52CC528F537C52CF529C58B
:102BEE0037F52DC529F537C52DF52AC537F52EC56F
:102BFE002AF537C52EF52BC537F52FC52BF537C55D
:102C0E002FF5000E376E365035C530F5316A305E11
:102C1E00000E315A31BE1DEF16F0315009E11A0E79
:102C2E00305CD8A01DEF16F01FEF16F056EF16F021
:102C3E00285029102A102B10D8A428EF16F02BEFAD
:102C4E0016F0010E2CEF16F0000E376E000E286EE9
:102C5E00000E296E000E2A6E000E2B6E35C536F54F
:102C6E005FEF16F037A03EEF16F040EF16F046EF8E
:102C7E0016F0D89037300109376E48EF16F0D8901D
:102C8E00373228A04DEF16F04FEF16F050EF16F03A
:102C9E00378E2B342B322A3229322832362A3550AF
:102CAE00365CD8A05DEF16F05FEF16F039EF16F038
:102CBE0034BC64EF16F066EF16F0A6EF16F0365041
:102CCE00D8A46CEF16F06EEF16F078EF16F0000E3B
:102CDE00286E000E296E000E2A6E000E2B6EC7EFA8
:102CEE0017F02C5028262D5029222E502A222F50F4
:102CFE002B222BA085EF16F087EF16F033EF17F08F
:102D0E0037A08CEF16F08EEF16F094EF16F0D890E9
:102D1E0037300109376E96EF16F0D890373228A06B
:102D2E009BEF16F09DEF16F09EEF16F0378E2B34BC
:102D3E002B322A3229322832362A33EF17F02C5012
:102D4E00285C2D5029582E502A582B50800A306E50
:102D5E002F50800A3058D8B0B7EF16F0B9EF16F0F2
:102D6E00E4EF16F028502C5C306E29502D58316E41
:102D7E002A502E58326E2B502F58336EFF0E3024A1
:102D8E00286EFF0E3120296EFF0E32202A6EFF0EA6
:102D9E0033202B6E800E341A376C3750D8A4DAEFEE
:102DAE0016F0DCEF16F0ECEF16F0010E2826000EF2
:102DBE0029222A222B22ECEF16F02C50285E2D50C1
:102DCE00295A2E502A5A2F502B5A285029102A1081
:102DDE002B10D8A4F5EF16F0F7EF16F02CEF17F036
:102DEE003750D8A4FDEF16F0FFEF16F02CEF17F0CA
:102DFE00000E286E000E296E000E2A6E000E2B6E2F
:102E0E00C7EF17F0D890283629362A362B3637AE2C
:102E1E0013EF17F015EF17F016EF17F0288037A005
:102E2E001BEF17F01DEF17F021EF17F0D880373694
:102E3E0023EF17F0D89037363650D8B429EF17F065
:102E4E002BEF17F02CEF17F036062AAE31EF17F0F6
:102E5E0033EF17F009EF17F0000E356E37AE3AEF7D
:102E6E0017F03CEF17F054EF17F037C530F57F0E23
:102E7E003016D8B445EF17F047EF17F04BEF17F0B9
:102E8E00010E356E54EF17F028A050EF17F052EFE9
:102E9E0017F054EF17F047EF17F03550D8B45AEF3C
:102EAE0017F05CEF17F087EF17F0010E2826000ED3
:102EBE0029222A222B222BA067EF17F069EF17F099
:102ECE0087EF17F028C530F529C531F52AC532F53B
:102EDE002BC533F53334333232323132303230C5E2
:102EEE0028F531C529F532C52AF533C52BF5362817
:102EFE00D8B484EF17F086EF17F087EF17F0362A65
:102F0E003628D8B48DEF17F08FEF17F097EF17F034
:102F1E003650D8A495EF17F097EF17F0A9EF17F0EA
:102F2E00000E286E000E296E000E2A6E000E2B6EFD
:102F3E003650D8A4A5EF17F0A7EF17F0A9EF17F0AA
:102F4E00000E346E36A0AEEF17F0B0EF17F0B3EF01
:102F5E0017F02A8EB4EF17F02A9ED89036302B6ECB
:102F6E0034AEBCEF17F0BEEF17F0BFEF17F02B8E9D
:102F7E0028C528F529C529F52AC52AF52BC52BF50F
:102F8E00120005017F51800B886F7F517F258E6F58
:102F9E007EAFD4EF17F0D6EF17F0D7EF17F08E8184
:102FAE008E51D8B4DDEF17F0DFEF17F0F2EF17F018
:102FBE008E29D8A4E5EF17F0E7EF17F0EFEF17F033
:102FCE00000E7C6F000E7D6F000E7E6F000E7F6F09
:102FDE007E8FFAEF17F0000E7C6F000E7D6F000EE5
:102FEE007E6F000E7F6F8351800B881B835183256C
:102FFE008D6F82AF05EF18F007EF18F008EF18F09D
:10300E008D818D51D8B40EEF18F010EF18F023EF1C
:10301E0018F08D29D8A416EF18F018EF18F020EF3D
:10302E0018F0000E806F000E816F000E826F000E82
:10303E00836F828F2BEF18F0000E806F000E816F62
:10304E00000E826F000E836F8D51D8B431EF18F0E1
:10305E0033EF18F03BEF18F08E51D8A439EF18F07B
:10306E003BEF18F045EF18F0000E7C6F000E7D6FF1
:10307E00000E7E6F000E7F6FEFEF19F082517C0312
:10308E006100CCF393F56100D0F394F59351896F01
:10309E008A6B8B6B8C6B94518F6F906B916B926B69
:1030AE0081517D036100CCF393F56100D0F394F56B
:1030BE0093518927000E8A238B238C2394518F27BB
:1030CE00000E90239123922380517E036100CCF356
:1030DE0093F56100D0F394F593518927000E8A235E
:1030EE008B238C2394518F27000E902391239223B0
:1030FE008BC58CF58AC58BF589C58AF5896B805190
:10310E007D036100CCF393F56100D0F394F59351F8
:10311E00892794518A23000E8B23000E8C23815114
:10312E007C036100CCF393F56100D0F394F59351D9
:10313E00892794518A23000E8B23000E8C238BC576
:10314E008CF58AC58BF589C58AF5896B80517C0310
:10315E006100CCF393F56100D0F394F59351892778
:10316E0094518A23000E8B23000E8C2382517D03F3
:10317E006100CCF393F56100D0F394F593518F2752
:10318E0094519023000E9123000E922381517E03C1
:10319E006100CCF393F56100D0F394F593518F2732
:1031AE0094519023000E9123000E922382517E03A0
:1031BE006100CCF393F56100D0F394F59351846FD5
:1031CE009451856F866B876B86C587F585C586F5A9
:1031DE0084C585F5846B84518F2785519023865144
:1031EE0091238751922389C584F58AC585F58BC5B0
:1031FE0086F58CC587F5190E0AEF19F0D89087332E
:10320E00863385338433E82E05EF19F084518F27EA
:10321E008551902386519123875192238BC58CF52E
:10322E008AC58BF589C58AF5896B8D518EC584F556
:10323E00856B8427000E8523820E8425936FFF0EE7
:10324E008521946F40EF19F0D8908F3790379137D2
:10325E0092378CAF35EF19F037EF19F038EF19F0D0
:10326E008F81D89089378A378B378C379307D8A0C0
:10327E00940791AF45EF19F047EF19F02BEF19F0C6
:10328E00000E8D6F8CAF4EEF19F050EF19F074EFFA
:10329E0019F0FF0E8915846FFF0E8A15856FFF0ECC
:1032AE008B15866F7F0E8C15876F84518511861155
:1032BE008711D8B465EF19F067EF19F06BEF19F0BD
:1032CE00010E8D6F74EF19F08FA170EF19F072EF80
:1032DE0019F074EF19F067EF19F08D51D8B47AEF39
:1032EE0019F07CEF19F0A0EF19F0010E8F27000EE8
:1032FE0090239123922392A187EF19F089EF19F071
:10330E00A0EF19F08FC584F590C585F591C586F5AA
:10331E0092C587F58735873386338533843384C5E5
:10332E008FF585C590F586C591F587C592F5934BBA
:10333E00942B94BFABEF19F0945108E19329D8A0C8
:10334E00ABEF19F0ADEF19F0B7EF19F0000E8F6F6C
:10335E00000E906F800E916F7F0E926FE5EF19F059
:10336E0094BFC4EF19F0945106E19305D8B0C2EFA3
:10337E0019F0C4EF19F0D0EF19F0000E8F6F000E98
:10338E00906F000E916F000E926F000E886FE5EF3A
:10339E0019F093C58EF5FF0E8F17FF0E90177F0E47
:1033AE009117000E92178EA1DFEF19F0E1EF19F0D1
:1033BE00E2EF19F0918FD8908E31926F885192135F
:1033CE008FC57CF590C57DF591C57EF592C57FF5CF
:1033DE0012001250800B1B6E12501224216E11AE71
:1033EE00FBEF19F0FDEF19F0FEEF19F021802150DF
:1033FE00D8B404EF1AF006EF1AF019EF1AF02128DC
:10340E00D8A40CEF1AF00EEF1AF016EF1AF0000E09
:10341E000F6E000E106E000E116E000E126E118EDB
:10342E0021EF1AF0000E0F6E000E106E000E116ED0
:10343E00000E126E1650800B1B1A16501624206E9C
:10344E0015AE2CEF1AF02EEF1AF02FEF1AF0208097
:10345E002050D8B435EF1AF037EF1AF04AEF1AF0C1
:10346E002028D8A43DEF1AF03FEF1AF047EF1AF0DC
:10347E00000E136E000E146E000E156E000E166EFC
:10348E00158E52EF1AF0000E136E000E146E000E13
:10349E00156E000E166E2050D8B458EF1AF05AEF73
:1034AE001AF062EF1AF02150D8A460EF1AF062EF12
:1034BE001AF06CEF1AF0000E0F6E000E106E000E6A
:1034CE00116E000E126E16EF1CF015500F026100F9
:1034DE00CCF326F56100D0F327F526501C6E1D6A3D
:1034EE001E6A1F6A2750226E236A246A256A1450A8
:1034FE0010026100CCF326F56100D0F327F52650BB
:10350E001C26000E1D221E221F2227502226000ED0
:10351E00232224222522135011026100CCF326F51A
:10352E006100D0F327F526501C26000E1D221E2208
:10353E001F2227502226000E2322242225221EC5BA
:10354E001FF51DC51EF51CC51DF51C6A1350100276
:10355E006100CCF326F56100D0F327F526501C262A
:10356E0027501D22000E1E22000E1F2214500F0285
:10357E006100CCF326F56100D0F327F526501C260A
:10358E0027501D22000E1E22000E1F221EC51FF5E3
:10359E001DC51EF51CC51DF51C6A13500F026100DA
:1035AE00CCF326F56100D0F327F526501C262750C4
:1035BE001D22000E1E22000E1F2215501002610049
:1035CE00CCF326F56100D0F327F52650222627509E
:1035DE002322000E2422000E252214501102610017
:1035EE00CCF326F56100D0F327F52650222627507E
:1035FE002322000E2422000E2522155011026100F6
:10360E00CCF326F56100D0F327F52650176E275020
:10361E00186E196A1A6A19C51AF518C519F517C55B
:10362E0018F5176A175022261850232219502422F3
:10363E001A5025221CC517F51DC518F51EC519F5FE
:10364E001FC51AF5190E31EF1BF0D8901A32193228
:10365E0018321732E82E2CEF1BF017502226185076
:10366E002322195024221A5025221EC51FF51DC5CE
:10367E001EF51CC51DF51C6A205021C517F5186ACC
:10368E001726000E1822820E1724266EFF0E182003
:10369E00276E67EF1BF0D890223623362436253658
:1036AE001FAE5CEF1BF05EEF1BF05FEF1BF0228096
:1036BE00D8901C361D361E361F362606D8A0270675
:1036CE0024AE6CEF1BF06EEF1BF052EF1BF0000EF2
:1036DE00206E1FAE75EF1BF077EF1BF09BEF1BF00C
:1036EE00FF0E1C14176EFF0E1D14186EFF0E1E1407
:1036FE00196E7F0E1F141A6E1750181019101A100B
:10370E00D8B48CEF1BF08EEF1BF092EF1BF0010E76
:10371E00206E9BEF1BF022A097EF1BF099EF1BF092
:10372E009BEF1BF08EEF1BF02050D8B4A1EF1BF0D7
:10373E00A3EF1BF0C7EF1BF0010E2226000E232273
:10374E002422252225A0AEEF1BF0B0EF1BF0C7EF11
:10375E001BF022C517F523C518F524C519F525C587
:10376E001AF51A341A3219321832173217C522F5D1
:10377E0018C523F519C524F51AC525F5264A272A95
:10378E0027BED2EF1BF0275008E12628D8A0D2EF93
:10379E001BF0D4EF1BF0DEEF1BF0000E226E000EBE
:1037AE00236E800E246E7F0E256E0CEF1CF027BE4E
:1037BE00EBEF1BF0275006E12604D8B0E9EF1BF023
:1037CE00EBEF1BF0F7EF1BF0000E226E000E236ED8
:1037DE00000E246E000E256E000E1B6E0CEF1CF0FC
:1037EE0026C521F5FF0E2216FF0E23167F0E241678
:1037FE00000E251621A006EF1CF008EF1CF009EFB5
:10380E001CF0248ED8902130256E1B50251222C517
:10381E000FF523C510F524C511F525C512F51200B7
:10382E0005017F51800B8C6F7F517F25936F7EAF8B
:10383E0023EF1CF025EF1CF026EF1CF09381935123
:10384E00D8B42CEF1CF02EEF1CF043EF1CF0932994
:10385E00D8A434EF1CF036EF1CF03EEF1CF0000E37
:10386E007C6F000E7D6F000E7E6F000E7F6F7E8F61
:10387E00000E7F6F4BEF1CF0000E7C6F000E7D6F05
:10388E00000E7E6F000E7F6F8351800B8C1B835159
:10389E008325946F82AF56EF1CF058EF1CF059EF52
:1038AE001CF094819451D8B45FEF1CF061EF1CF0C2
:1038BE0076EF1CF09429D8A467EF1CF069EF1CF08A
:1038CE0071EF1CF0000E806F000E816F000E826F84
:1038DE00000E836F828F000E836F7EEF1CF0000E42
:1038EE00806F000E816F000E826F000E836F80510D
:1038FE00811182118311D8A487EF1CF089EF1CF07F
:10390E00A1EF1CF0000E7C6F000E7D6F000E7E6F1F
:10391E00000E7F6F800E7E137F0E7F138C517F13F0
:10392E007CC57CF57DC57DF57EC57EF57FC57FF5B5
:10393E00E4EF1DF09351D8A4A7EF1CF0A9EF1CF0F3
:10394E00B3EF1CF0000E7C6F000E7D6F000E7E6FCD
:10395E00000E7F6FE4EF1DF0945193C584F5856BD7
:10396E00845F000E855B7F0E84258D6F000E852192
:10397E008E6F7CC588F57DC589F57EC58AF57FC5B8
:10398E008BF5000E7C6F000E7D6F000E7E6F000EAD
:10399E007F6F000E8F6F000E906F000E916F000EF6
:1039AE00926F000E946F14EF1DF09451D8B4E2EFA5
:1039BE001CF0E4EF1CF0FBEF1CF0D8908837893731
:1039CE008A378B37D8907C377D377E377F3792AFEB
:1039DE00F3EF1CF0F5EF1CF0F6EF1CF07C81D890A5
:1039EE008F379037913792378051885D8151895941
:1039FE0082518A5983518B59D8A008EF1DF00AEFD6
:103A0E001DF013EF1DF0928D8051885F8151895BFF
:103A1E0082518A5B83518B5B942B190E94651AEF3E
:103A2E001DF01CEF1DF0DCEF1CF0885189118A117E
:103A3E008B11D8B425EF1DF027EF1DF03FEF1DF0D1
:103A4E008F813FEF1DF0D8907C377D377E377F37E3
:103A5E0092AF34EF1DF036EF1DF037EF1DF07C8185
:103A6E00D8908F379037913792378D07D8A08E0721
:103A7E007EAF44EF1DF046EF1DF02AEF1DF0000E55
:103A8E00946F92AF4DEF1DF04FEF1DF073EF1DF0E1
:103A9E00FF0E8F15846FFF0E9015856FFF0E91151B
:103AAE00866F7F0E9215876F84518511861187114F
:103ABE00D8B464EF1DF066EF1DF06AEF1DF0010E35
:103ACE00946F73EF1DF07CA16FEF1DF071EF1DF081
:103ADE0073EF1DF066EF1DF09451D8B479EF1DF021
:103AEE007BEF1DF09FEF1DF0010E7C27000E7D2356
:103AFE007E237F237FA186EF1DF088EF1DF09FEFC1
:103B0E001DF07CC584F57DC585F57EC586F57FC522
:103B1E0087F58735873386338533843384C57CF5C3
:103B2E0085C57DF586C57EF587C57FF58D4B8E2BBC
:103B3E008EBFAAEF1DF08E5108E18D29D8A0AAEFF5
:103B4E001DF0ACEF1DF0B7EF1DF0000E8E6F8D69FE
:103B5E00000E7C6F000E7D6F000E7E6F000E7F6F6D
:103B6E008EBFC4EF1DF08E5106E18D05D8B0C2EFA9
:103B7E001DF0C4EF1DF0D2EF1DF0000E8E6F000E83
:103B8E008D6F000E7C6F000E7D6F000E7E6F000E2F
:103B9E007F6F000E8C6F8DC593F593A1D9EF1DF03D
:103BAE00DBEF1DF0DEEF1DF07E8FDFEF1DF07E9F51
:103BBE00D89093317F6F95EF1CF012001250800B4E
:103BCE001F6E12501224266E11AEF0EF1DF0F2EFA2
:103BDE001DF0F3EF1DF026802650D8B4F9EF1DF03E
:103BEE00FBEF1DF010EF1EF02628D8A401EF1EF0FB
:103BFE0003EF1EF00BEF1EF0000E0F6E000E106E98
:103C0E00000E116E000E126E118E000E126E18EF57
:103C1E001EF0000E0F6E000E106E000E116E000ED6
:103C2E00126E1650800B1F1A16501624276E15AEE4
:103C3E0023EF1EF025EF1EF026EF1EF027802750F3
:103C4E00D8B42CEF1EF02EEF1EF043EF1EF02728F7
:103C5E00D8A434EF1EF036EF1EF03EEF1EF0000E2D
:103C6E00136E000E146E000E156E000E166E158E6F
:103C7E00000E166E4BEF1EF0000E136E000E146E3D
:103C8E00000E156E000E166E135014101510161031
:103C9E00D8A454EF1EF056EF1EF06EEF1EF0000E7D
:103CAE000F6E000E106E000E116E000E126E800E54
:103CBE0011127F0E12121F5012120FC50FF510C5E2
:103CCE0010F511C511F512C512F5B1EF1FF0265002
:103CDE00D8A474EF1EF076EF1EF080EF1EF0000EEB
:103CEE000F6E000E106E000E116E000E126EB1EF02
:103CFE001FF0275026C517F5186A175E000E185AC2
:103D0E007F0E1724206E000E1820216E0FC51BF596
:103D1E0010C51CF511C51DF512C51EF5000E0F6E52
:103D2E00000E106E000E116E000E126E000E226E40
:103D3E00000E236E000E246E000E256E000E276EF2
:103D4E00E1EF1EF02750D8B4AFEF1EF0B1EF1EF02A
:103D5E00C8EF1EF0D8901B361C361D361E36D89076
:103D6E000F3610361136123625AEC0EF1EF0C2EFEA
:103D7E001EF0C3EF1EF00F80D89022362336243665
:103D8E00253613501B5C14501C5815501D581650D8
:103D9E001E58D8A0D5EF1EF0D7EF1EF0E0EF1EF0A4
:103DAE00258C13501B5E14501C5A15501D5A16505C
:103DBE001E5A272A190E2764E7EF1EF0E9EF1EF0B0
:103DCE00A9EF1EF01B501C101D101E10D8B4F2EFE0
:103DDE001EF0F4EF1EF00CEF1FF022800CEF1FF020
:103DEE00D8900F3610361136123625AE01EF1FF071
:103DFE0003EF1FF004EF1FF00F80D890223623360A
:103E0E00243625362006D8A0210611AE11EF1FF05C
:103E1E0013EF1FF0F7EF1EF0000E276E25AE1AEF10
:103E2E001FF01CEF1FF040EF1FF0FF0E2214176E55
:103E3E00FF0E2314186EFF0E2414196E7F0E251418
:103E4E001A6E1750181019101A10D8B431EF1FF03F
:103E5E0033EF1FF037EF1FF0010E276E40EF1FF00C
:103E6E000FA03CEF1FF03EEF1FF040EF1FF033EFBF
:103E7E001FF02750D8B446EF1FF048EF1FF06CEF3D
:103E8E001FF0010E0F26000E10221122122212A078
:103E9E0053EF1FF055EF1FF06CEF1FF00FC517F526
:103EAE0010C518F511C519F512C51AF51A341A32BE
:103EBE0019321832173217C50FF518C510F519C576
:103ECE0011F51AC512F5204A212A21BE77EF1FF0EF
:103EDE00215008E12028D8A077EF1FF079EF1FF0CE
:103EEE0084EF1FF0000E216E2068000E0F6E000E84
:103EFE00106E000E116E000E126E21BE91EF1FF0AD
:103F0E00215006E12004D8B08FEF1FF091EF1FF083
:103F1E009FEF1FF0000E216E000E206E000E0F6E32
:103F2E00000E106E000E116E000E126E000E1F6E41
:103F3E0020C526F526A0A6EF1FF0A8EF1FF0ABEFC9
:103F4E001FF0118EACEF1FF0119ED8902630126E1E
:103F5E0062EF1EF012006100B4F5D9F46100B8F5FD
:103F6E00DAF4610078F373F5610078F374F56100AB
:103F7E0078F375F5610078F376F5050120EE04F01F
:103F8E006D51D9266E51DA22DFA0D0EF1FF0D2EF9D
:103F9E001FF00CEF20F020EE01F06B51D9266C5182
:103FAE00DA227339E842F80BF80BDF6E050E6F6FED
:103FBE00D89076337533743373336F2FDFEF1FF072
:103FCE0020EE02F06B51D9266C51DA226100CCF54D
:103FDE00DFF474C573F575C574F576C575F5766B36
:103FEE0020EE03F06B51D9266C51DA2273511F0B60
:103FFE00DF6E050E6F6FD89076337533743373336F
:10400E006F2F02EF20F024EF20F020EE03F06B5123
:10401E00D9266C51DA22000EDF6E10EE02F06B51D3
:10402E00E1266C51E222DFC4E7F420EE01F06B5181
:10403E00D9266C51DA22E7C4DFF46100ACF5D9F46D
:10404E006100B0F5DAF46100CCF5DFF474C573F5F8
:10405E0075C574F576C575F5766B73C56FF5070E78
:10406E006F1720EE01F06B51D9266C51DA226F5189
:10407E00DF1220EE04F06D51D9266E51DA22DF30B8
:10408E00E8320F0B726F20EE04F06D51D9266E518F
:10409E00DA22DFB055EF20F059EF20F06F6B6F2B67
:1040AE005BEF20F005016F6B6F39F00B721320EE92
:1040BE0004F06D51D9266E51DA22DFB269EF20F08D
:1040CE006DEF20F0200E6F6F6FEF20F005016F6B1C
:1040DE006F51721320EE04F06D51D9266E51DA2213
:1040EE00DFBE7CEF20F080EF20F0400E6F6F82EF8E
:1040FE0020F005016F6B6F51721320EE04F06D51BD
:10410E00D9266E51DA22DFBC8FEF20F093EF20F02C
:10411E00800E6F6F95EF20F005016F6B6F5172136C
:10412E0020EE04F06B51D9266C51DA226100C8F5ED
:10413E00DFF420EE04F06D51D9266E51DA22DFB293
:10414E00ABEF20F0ADEF20F0D9EF20F0080E6B258D
:10415E00606F000E6C21616F20EE05F06D51D92657
:10416E006E51DA22610078F362F5610074F363F543
:10417E0020EE04F06D51D9266E51DA22DF30E8328E
:10418E000F0B6F6F706B010E6F25F66E260E702182
:10419E00F76EF86A000EF8220800F550646F656B32
:1041AE0082EC2BF01200040E0301F96F000EFA6F71
:1041BE00000ED86F000EFB6F000ED96F000EDA6F77
:1041CE00000EDB6F000EDC6F000EDF6F000EE06F77
:1041DE00000EE36F000EE46F000EE56F000EE66F4B
:1041EE00000EE76F000EEA6F000EEB6F000EEC6F25
:1041FE00000EEE6F000EEF6F000EF06F000EF16FFF
:10420E00000EF26F000EF36F000EF46F100EF56FCE
:10421E00000EF66F000EF76F120EF86F000EFC6FA9
:10422E00010EFB6F000ED96F000EDA6F000EDB6F02
:10423E00000EDC6F000EDF6F000EE06F000EE36FFE
:10424E00000EE46F000EE56F000EE66F000EE76FD6
:10425E00000EEA6F000EEB6F010EEC6F000EEE6FAC
:10426E00000EEF6F000EF06F000EF16F000EF26F8A
:10427E00000EF36F000EF46F100EF56F000EF66F5A
:10428E00000EF76F000EF86F000EFD6F020EFB6F43
:10429E00000ED96F000EDA6F000EDB6F000EDC6FB2
:1042AE00000EDF6F000EE06F000EE36F000EE46F86
:1042BE00000EE56F000EE66F000EE76F000EEA6F60
:1042CE00000EEB6F160EEC6F000EEE6F000EEF6F22
:1042DE00000EF06F000EF16F000EF26F000EF36F16
:1042EE00000EF46F100EF56F000EF66F000EF76FE6
:1042FE00000EF86F000EFE6F030EFB6F000ED96FEF
:10430E00000EDA6F000EDB6F000EDC6F000EDF6F3B
:10431E00000EE06F000EE36F000EE46F000EE56F0F
:10432E00000EE66F000EE76F000EEA6F000EEB6FE9
:10433E00170EEC6F000EEE6F000EEF6F000EF06FAB
:10434E00000EF16F000EF26F000EF36F000EF46FA1
:10435E00100EF56F000EF66F000EF76F000EF86F71
:10436E00000EFF6FAF94AF96B090B092B094B0962F
:10437E00000E0501606F000E616F0EEC2FF0000E47
:10438E000501606F000E616F04EC2FF0000E050149
:10439E00606F000E616FFFEC2EF0000E0501606F76
:1043AE00000E616FFAEC2EF0000E0501606F000E2C
:1043BE00616FF5EC2EF0000E0501606F000E616F5F
:1043CE0009EC2FF0840E0301F36F12000501B16F9B
:1043DE0030EF22F025EC2FF0000E9AEC2EF0000EAE
:1043EE0096EC2CF060C5B4F561C5B5F5010E05016E
:1043FE00B66F5EEF22F025EC2FF0010E9AEC2EF048
:10440E00010E96EC2CF060C5B4F561C5B5F5FDEF67
:10441E0021F025EC2FF0020E9AEC2EF0170E96ECF2
:10442E002CF060C5B4F561C5B5F5FDEF21F025ECB6
:10443E002FF0020E9AEC2EF0160E96EC2CF060C5B4
:10444E00B4F561C5B5F5FDEF21F0020EB66F5EEF66
:10445E0022F00501B151AF6FB06BB051000AD8B464
:10446E003BEF22F02CEF22F0AF51000AD8B4F1EF5F
:10447E0021F0010AD8B402EF22F0030AD8B410EFEB
:10448E0022F0010AD8B41EEF22F0070AD8B42CEF9E
:10449E0022F0010AD8B42CEF22F0030AD8B42CEF84
:1044AE0022F0010AD8B42CEF22F02CEF22F0B60540
:1044BE00D8A464EF22F066EF22F0E9EF22F0B551B6
:1044CE0007E1070EB45DD8B06FEF22F071EF22F066
:1044DE0077EF22F0000EB36F000EB26FB2EF22F044
:1044EE006F0E996F810E9A6FA80E9B6FC00E9C6F08
:1044FE00B30E806F7B0E816F920E826F3F0E836FB5
:10450E00B4C56EF5B5C56FF5706B716B000EE2EC50
:10451E0023F06EC57CF56FC57DF570C57EF571C552
:10452E007FF5C8EC17F07CC595F57DC596F57EC573
:10453E0097F57FC598F507EC13F095C5A5F596C5CB
:10454E00A6F597C5A7F598C5A8F5CAEC26F0A5C59A
:10455E00B2F5A6C5B3F5890E0501B25D130EB359BA
:10456E00D8A0BCEF22F0BEEF22F0C0EF22F0E9EFB0
:10457E0022F02F0E806FDD0E816F9C0E826F410E2A
:10458E00836FB2C56EF5B3C56FF5706B716B000EB0
:10459E00E2EC23F06EC57CF56FC57DF570C57EF53A
:1045AE0071C57FF517EC1CF07CC5A5F57DC5A6F58C
:1045BE007EC5A7F57FC5A8F5CAEC26F00501A55165
:1045CE00E9EF22F01200446E2BEF23F028EC2FF0CF
:1045DE00000E18EC2FF0000E1AEC2DF001C547F569
:1045EE0002C548F5010E496E58EF23F028EC2FF066
:1045FE00010E18EC2FF0010E1AEC2DF001C547F547
:10460E0002C548F5F9EF22F028EC2FF0020E18EC57
:10461E002FF0170E1AEC2DF001C547F502C548F51F
:10462E00F9EF22F028EC2FF0020E18EC2FF0160EF8
:10463E001AEC2DF001C547F502C548F5F9EF22F049
:10464E00020E496E58EF23F04450426E436A4350B7
:10465E00000AD8B435EF23F027EF23F04250000ABA
:10466E00D8B4EDEF22F0010AD8B4FDEF22F0030A20
:10467E00D8B40BEF23F0010AD8B419EF23F0070AD0
:10468E00D8B427EF23F0010AD8B427EF23F0030A9A
:10469E00D8B427EF23F0010AD8B427EF23F027EF81
:1046AE0023F04904D8A45EEF23F060EF23F0E1EF8E
:1046BE0023F0485007E1070E475CD8B069EF23F0AE
:1046CE006BEF23F071EF23F0000E466E000E456E79
:1046DE00ACEF23F06F0E2C6E810E2D6EA80E2E6E8B
:1046EE00C00E2F6EB30E136E7B0E146E920E156EE1
:1046FE003F0E166E47C501F548C502F5036A046AFA
:10470E00000EBEEC24F001C50FF502C510F503C571
:10471E0011F504C512F5F0EC19F00FC528F510C50A
:10472E0029F511C52AF512C52BF568EC15F028C52B
:10473E0038F529C539F52AC53AF52BC53BF54EECAA
:10474E0027F038C545F539C546F5890E455C130E7B
:10475E004658D8A0B5EF23F0B7EF23F0B9EF23F00A
:10476E00E1EF23F02F0E136EDD0E146E9C0E156E00
:10477E00410E166E45C501F546C502F5036A046A7B
:10478E00000EBEEC24F001C50FF502C510F503C5F1
:10479E0011F504C512F5E5EC1DF00FC538F510C581
:1047AE0039F511C53AF512C53BF54EEC27F03850E8
:1047BE00E1EF23F012000501766F05017651D8B4B2
:1047CE00EBEF23F0EDEF23F00FEF24F071BFF4EFDA
:1047DE0023F0F2EF23F00FEF24F06EC572F56FC5E4
:1047EE0073F570C574F571C575F5721F731F741F5F
:1047FE00751F722B000E73237423752372C578F503
:10480E0073C579F574C57AF575C57BF517EF24F088
:10481E006EC578F56FC579F570C57AF571C57BF5FE
:10482E006E516F1170117111D8A420EF24F022EF88
:10483E0024F02CEF24F0000E6E6F000E6F6F000E42
:10484E00706F000E716FBDEF24F0960E776F36EF1E
:10485E0024F0772BD8907B337A3379337833000E6C
:10486E007815726F000E7915736F000E7A15746FCE
:10487E00FE0E7B15756F7251731174117511D8A4DC
:10488E004BEF24F04DEF24F030EF24F05BEF24F0EB
:10489E00772B010E7827000E79237A237B23D8906D
:1048AE007B337A3379337833000E7815726F000EBE
:1048BE007915736F000E7A15746FFF0E7B15756F79
:1048CE007251731174117511D8A470EF24F072EF38
:1048DE0024F04FEF24F07AEF24F07707D890783752
:1048EE0079377A377B377ABF7FEF24F081EF24F068
:1048FE0089EF24F0020E776187EF24F089EF24F020
:10490E0074EF24F077B18EEF24F090EF24F091EF56
:10491E0024F07A9FD890773377C572F5736B746BEA
:10492E00756B72C575F5746B736B726B7251781310
:10493E007351791374517A1375517B137651D8B420
:10494E00ABEF24F0ADEF24F0B5EF24F071BFB4EF70
:10495E0024F0B2EF24F0B5EF24F07B8F78C56EF51E
:10496E0079C56FF57AC570F57BC571F51200096EC4
:10497E000950D8B4C5EF24F0C7EF24F0E9EF24F0C6
:10498E0004BECEEF24F0CCEF24F0E9EF24F001C505
:10499E0005F502C506F503C507F504C508F5051EA0
:1049AE00061E071E081E052A000E062207220822D2
:1049BE0005C50BF506C50CF507C50DF508C50EF5B5
:1049CE00F1EF24F001C50BF502C50CF503C50DF58D
:1049DE0004C50EF50150021003100410D8A4FAEF0E
:1049EE0024F0FCEF24F006EF25F0000E016E000E11
:1049FE00026E000E036E000E046E97EF25F0960EFB
:104A0E000A6E10EF25F00A2AD8900E320D320C32B3
:104A1E000B32000E0B14056E000E0C14066E000EFB
:104A2E000D14076EFE0E0E14086E055006100710BC
:104A3E000810D8A425EF25F027EF25F00AEF25F072
:104A4E0035EF25F00A2A010E0B26000E0C220D2240
:104A5E000E22D8900E320D320C320B32000E0B1489
:104A6E00056E000E0C14066E000E0D14076EFF0E72
:104A7E000E14086E0550061007100810D8A44AEF41
:104A8E0025F04CEF25F029EF25F054EF25F00A061E
:104A9E00D8900B360C360D360E360DBE59EF25F06E
:104AAE005BEF25F063EF25F0020E0A6061EF25F053
:104ABE0063EF25F04EEF25F00AB068EF25F06AEFB0
:104ACE0025F06BEF25F00D9ED8900A320AC505F53C
:104ADE00066A076A086A05C508F5076A066A056A5E
:104AEE0005500B1206500C1207500D1208500E12E4
:104AFE000950D8B485EF25F087EF25F08FEF25F01C
:104B0E0004BE8EEF25F08CEF25F08FEF25F00E8E84
:104B1E000BC501F50CC502F50DC503F50EC504F563
:104B2E00120001011DAF9EEF25F0A0EF25F0AFEFB3
:104B3E0025F002D8ADEF25F00500FA6E0501D5512E
:104B4E00FD6ED651FE6EFF6AFA50120001011D9FD6
:104B5E001DADB4EF25F0B6EF25F0C5EF25F002D868
:104B6E00C3EF25F00500FA6E0501D351FD6ED45149
:104B7E00FE6EFF6AFA50120001011D9D1DABCAEFB9
:104B8E0025F0CCEF25F0DBEF25F002D8D9EF25F09C
:104B9E000500FA6E0501D151FD6ED251FE6EFF6A0F
:104BAE00FA50120001011D9B1CA7E0EF25F0E2EF69
:104BBE0025F0F1EF25F002D8EFEF25F00500FA6EA3
:104BCE000501CF51FD6ED051FE6EFF6AFA501200F4
:104BDE0001011C971DA9F6EF25F0F8EF25F007EF60
:104BEE0026F002D805EF26F00500FA6E0501CD512C
:104BFE00FD6ECE51FE6EFF6AFA50120001011D9934
:104C0E001DA50CEF26F00EEF26F024EF26F002D8AD
:104C1E001BEF26F00500FA6E0501CB51FD6ECC514F
:104C2E00FE6EFF6AFA501200010154A921EF26F020
:104C3E0023EF26F024EF26F054991DA729EF26F036
:104C4E002BEF26F041EF26F002D838EF26F00500C4
:104C5E00FA6E0501C951FD6ECA51FE6EFF6AFA5019
:104C6E001200010160A73EEF26F040EF26F041EF63
:104C7E0026F06097AE9C1200000E0501696F67BFAB
:104C8E004DEF26F04BEF26F057EF26F0671F661F0D
:104C9E00651F646D000E652366236723010E696F21
:104CAE0063BF5EEF26F05CEF26F068EF26F0631F21
:104CBE00621F611F606D000E612362236323010E6C
:104CCE00691B000E6A6F000E6B6F000E6C6F000E8C
:104CDE006D6F6451651166116711D8B479EF26F0C6
:104CEE007BEF26F0B1EF26F0010E686F85EF26F010
:104CFE00D8906437653766376737682B67AF8AEFAA
:104D0E0026F08CEF26F07FEF26F0D8906A376B37BF
:104D1E006C376D376451605D6551615966516259EA
:104D2E0067516359D8A09EEF26F0A0EF26F0A9EFA9
:104D3E0026F06451605F6551615B6651625B67513D
:104D4E00635B6A81D8906733663365336433682F4B
:104D5E008CEF26F06951D8B4B7EF26F0B9EF26F0F4
:104D6E00C1EF26F06D1F6C1F6B1F6A6D000E6B235B
:104D7E006C236D236AC560F56BC561F56CC562F574
:104D8E006DC563F512000501A735A835AE6FAE519E
:104D9E00D8A4D4EF26F0D6EF26F0E0EF26F0000EE2
:104DAE00A56F000EA66F000EA76F000EA86F4DEF39
:104DBE0027F0A5C5A9F5A6C5AAF5A7C5ABF5A8C543
:104DCE00ACF5200EF0EF26F0D890AC33AB33AA330F
:104DDE00A933E82EEBEF26F0A951AD6FA78FFF0E8A
:104DEE00A517FF0EA617FF0EA717000EA817960EF3
:104DFE00AE5FAEBF07EF27F005EF27F01DEF27F0F0
:104E0E00AE51800A970FD8B00FEF27F011EF27F0B1
:104E1E0013EF27F0D6EF26F0D890A833A733A6339A
:104E2E00A533AE3F13EF27F035EF27F01F0EAE651B
:104E3E0023EF27F025EF27F02DEF27F0D6EF26F002
:104E4E00D890A537A637A737A837AE07AE51D8A446
:104E5E0033EF27F035EF27F027EF27F0AD51D8B419
:104E6E003BEF27F03DEF27F045EF27F0A81FA71FD8
:104E7E00A61FA56D000EA623A723A823A5C5A5F5DD
:104E8E00A6C5A6F5A7C5A7F5A8C5A8F512003A347C
:104E9E003B34416E4150D8A457EF27F059EF27F01D
:104EAE0063EF27F0000E386E000E396E000E3A6E6C
:104EBE00000E3B6ED0EF27F038C53CF539C53DF5F9
:104ECE003AC53EF53BC53FF5200E73EF27F0D8905F
:104EDE003F323E323D323C32E82E6EEF27F03C50F0
:104EEE00406E3A8EFF0E3816FF0E3916FF0E3A162A
:104EFE00000E3B16960E415E41BE8AEF27F088EFFC
:104F0E0027F0A0EF27F04150800A970FD8B092EF0C
:104F1E0027F094EF27F096EF27F059EF27F0D8906F
:104F2E003B323A3239323832413E96EF27F0B8EF03
:104F3E0027F01F0E4164A6EF27F0A8EF27F0B0EF81
:104F4E0027F059EF27F0D890383639363A363B36B7
:104F5E0041064150D8A4B6EF27F0B8EF27F0AAEFDC
:104F6E0027F04050D8B4BEEF27F0C0EF27F0C8EFBF
:104F7E0027F03B1E3A1E391E386C000E39223A229B
:104F8E003B2238C538F539C539F53AC53AF53BC532
:104F9E003BF5120082C500F683C501F684C502F604
:104FAE0085C503F686C504F687C505F688C506F6DB
:104FBE0089C507F67DC5DEF57EC5DFF57FC5E0F553
:104FCE0080C5E1F50501E29DE29FE293E28181C594
:104FDE008AF50F0E8A178A478A47E2518A19C30B40
:104FEE008A19E26F000EE36F060EE46F59EC2EF095
:104FFE00E806D8A405EF28F007EF28F00BEF28F00D
:10500E0000F0010E0501DD6F4EEC2EF0E806D8A47F
:10501E0013EF28F015EF28F019EF28F000F0010E2D
:10502E000501DD6F43EC2EF0E806D8A421EF28F041
:10503E0023EF28F027EF28F000F0010E0501DD6FB9
:10504E001FEC2EF0E806D8A42FEF28F031EF28F051
:10505E0035EF28F000F0010E0501DD6F000EE8ECD3
:10506E002CF005018A6F8AA13FEF28F041EF28F05E
:10507E0049EF28F0DE0E776F050E786F000E87EC85
:10508E0029F000F012000501666F000E0501686F31
:10509E0020EE04F06151D9266251DA22DF50696F99
:1050AE0069AF5CEF28F05EEF28F06AEF28F013ECA2
:1050BE002FF0060AD8A466EF28F068EF28F06AEF02
:1050CE0028F00501688305016931E8320F0B636F23
:1050DE00080E636575EF28F077EF28F08AEF28F059
:1050EE0069AD7CEF28F07EEF28F088EF28F013EC06
:1050FE002FF0060AD8A486EF28F088EF28F08AEF62
:10510E0028F005016881090EF66E260EF76EF86A14
:10511E0008006100D4F363F505016931E8320F0B25
:10512E00646F656B010E6425F66E260E6521F76EB3
:10513E00F86A000EF8220800F550635DD8B0AAEFA9
:10514E0028F0ACEF28F0ADEF28F06881665111EC35
:10515E002EF00009D8A4B6EF28F0B8EF28F0BBEF78
:10516E0028F0030E050168130501685112006A0E3E
:10517E000501996F4D0E9A6F930E9B6FBF0E9C6F2C
:10518E00B1C564F5B2C565F5666B676B490E606FA8
:10519E00990E616F000E626F000E636F43EC26F086
:1051AE0060C56EF561C56FF562C570F563C571F5C5
:1051BE00010EE2EC23F06EC595F56FC596F570C540
:1051CE0097F571C598F507EC13F095C5A5F596C53D
:1051DE00A6F597C5A7F598C5A8F5CAEC26F0A5C5FE
:1051EE00B5F5A6C5B6F5AFC5B3F5B0C5B4F50501B1
:1051FE00D890B337B437D890B337B437B3C567F553
:10520E00B4C568F5B1C562F5B2C563F5000E616F40
:10521E00640E606F9AEC2AF060C569F561C56AF597
:10522E00BEEC2DF067C5B7F568C5B8F5B7C560F526
:10523E00B8C561F593EC2EF0B5C560F5B6C561F550
:10524E008CEC2EF02DEC2FF01200A1AE31EF29F0E8
:10525E0033EF29F03EEF29F0B1AE38EF29F03AEFF7
:10526E0029F03EEF29F01DEC2FF086EF29F09FA0DC
:10527E0043EF29F045EF29F050EF29F0AFA04AEFA8
:10528E0029F04CEF29F050EF29F021EC2FF086EFAA
:10529E0029F09EAC55EF29F057EF29F062EF29F077
:1052AE00AEAC5CEF29F05EEF29F062EF29F098ECDE
:1052BE0025F086EF29F0A1A667EF29F069EF29F016
:1052CE0074EF29F0B1A66EEF29F070EF29F074EFAC
:1052DE0029F0D4EC2DF086EF29F0A1A879EF29F072
:1052EE007BEF29F086EF29F0B1A880EF29F082EF4D
:1052FE0029F086EF29F082EC2EF086EF29F01100CE
:10530E0005017C6F05017C5152EC2CF00009D8B4DC
:10531E0093EF29F095EF29F0D5EF29F077C561F5D8
:10532E0078C562F505017C514AEC28F00501796FCC
:10533E007951D8A4A5EF29F0A7EF29F0D5EF29F0E0
:10534E007C510C0D580EF324D96E010EF420DA6E3A
:10535E00610078F37AF5610074F37BF57A517B1175
:10536E00D8B4BCEF29F0BEEF29F0D5EF29F07AC5FD
:10537E006BF57BC56CF577C56DF578C56EF5B2EC42
:10538E001FF005017C510C0D510EF324D96E010E48
:10539E00F420DA6E030EDF12D5EF29F012000501AC
:1053AE00626F000E0501616F13EC2FF00501606F47
:1053BE00040E6019D8B4E6EF29F0E8EF29F0F9EF02
:1053CE0029F06205D8B4EEEF29F0F0EF29F0F9EFED
:1053DE0029F0040E6219D8A4F7EF29F0F9EF29F09D
:1053EE001EEF2AF00101035105016219F80B621933
:1053FE000101036F10EF2AF001011DA909EF2AF038
:10540E000BEF2AF010EF2AF0020E0501616F20EF6C
:10541E002AF00239E832070B05016219D8A41AEFF7
:10542E002AF01CEF2AF003EF2AF020EF2AF0010EEB
:10543E00616F61511200720E0501606F5E0E616F39
:10544E00E6EC2EF0740E0501606F5E0E616FEBECF4
:10545E002EF0760E0501606F5E0E616FF0EC2EF091
:10546E00700E0501606F5E0E616FE1EC2EF06C0E3A
:10547E000501606F5E0E616FD7EC2EF06A0E0501AE
:10548E00606F5E0E616FD2EC2EF06E0E0501606FD6
:10549E005E0E616FDCEC2EF0AE9C000E01011C6FF7
:1054AE00000E1D6F080E1E6FFC0E1F6F9E8C1200DD
:1054BE00CFEC2CF0D68EC79ABF8A030E0501616F12
:1054CE00E80E606FB5EC2CF000F0000E0501B06F29
:1054DE00190EAF6F000EB26F0A0EB16FBEEC28F050
:1054EE0075EC2CF0600E05017D6F030E7E6F000EC5
:1054FE007F6F000E806F080E816FC7C582F5C5C520
:10550E0083F5C3C584F5C1C585F5000E866F000E03
:10551E00876F000E886F000E896FD1EC27F064EF55
:10552E002AF00DEF00F0000E0501656F000E646F9E
:10553E0062516311D8B4A6EF2AF0A8EF2AF0D0EF8B
:10554E002AF0010E666FB0EF2AF0D89062376337FB
:10555E00662B63AFB5EF2AF0B7EF2AF0ACEF2AF067
:10556E00D890643765376251605D63516159D8A038
:10557E00C3EF2AF0C5EF2AF0CAEF2AF06251605F3E
:10558E006351615B6481D89063336233662FB7EFEA
:10559E002AF064C560F565C561F51200000E6F6EE8
:1055AE00020E706E000E716E500E726E0F0E736ED6
:1055BE00FE0E746E000E756E000E766E000E776E19
:1055CE00000E796E0D0E7A6E050E7B6EA80E7C6E39
:1055DE00070E7D6EB39CB39E76907692A39EA39C8F
:1055EE00000E0501606F000E616FB4EC2EF0000E20
:1055FE000501606F000E616FAFEC2EF0000E05011D
:10560E00606F000E616FB9EC2EF0800E786E120096
:10561E00000E606E020E616E000E626E3D0E636EC7
:10562E00000E646EFE0E656E000E666E000E676EE8
:10563E00000E686E000E6A6E1F0E6B6E000E6C6EA4
:10564E001F0E6D6E000E6E6EB29CB29E67906792CC
:10565E00A29EA29C000E0501606F000E616FC3EC4E
:10566E002EF0000E0501606F000E616FBEEC2EF085
:10567E00000E0501606F000E616FC8EC2EF0800EFB
:10568E00696E1200000EBE6E000EBF6E000EC06E72
:10569E00080ECA6EEF0EC66EC80EC76EDC0EC86E52
:1056AE00F30E0401106F770E086FDF0E006F000E01
:1056BE00216F000E096F000E016F000E116F000EAC
:1056CE00026F000E0A6F000E126F03690B691369E9
:1056DE0004690C691469080E246F180E0201116F0B
:1056EE000F0E696F050E3E6F1A0E126F0B0E3D6F89
:1056FE00460E0D6F120062C568F563C569F560C58B
:10570E0066F561C567F5A1EF2BF06100A0F5D9F440
:10571E006100A4F5DAF4DF506A6F684B692B610003
:10572E0098F5D9F461009CF5DAF46100A8F5DFF480
:10573E00664B672B05016407D8A06507642906E14F
:10574E006529D8A4ADEF2BF0AFEF2BF08CEF2BF03B
:10575E0012000101018F040ED6EC29F00009D8A425
:10576E00BBEF2BF0BDEF2BF0DBEF2BF0000E0101AA
:10577E004C6F260E4D6F000E4E6F000E4F6F600E6B
:10578E00006F970E016F100E026F78EC2EF064EC26
:10579E002EF06EEC2EF030EC2FF04BEC2DF022ECC8
:1057AE002AF0060ED6EC29F012005E0EF66E5E0E94
:1057BE00F76E000EF86E09006100D4F3FDF50900D6
:1057CE006100D4F3FEF501EE00F2100EEE6AE8066B
:1057DE00FDE101EEB9F12C0EEE6AE806FDE101EEF7
:1057EE004AF1140EEE6AE806FDE10401080E5D6F43
:1057FE00000E5E6F000E5F6F00015FEF2AF0BEB805
:10580E000BEF2CF00EEF2CF0010E0FEF2CF0000E24
:10581E00FF0A016E013ABE500118EF0B0118BE6E61
:10582E000501E551E611D8B41FEF2CF021EF2CF055
:10583E002DEF2CF002D82DEF2CF00500FA6EE5516D
:10584E00FD6EE651FE6EFF6AFA5012001200000E57
:10585E0003011F6F000E206F010E216FCF0E1D6F03
:10586E002C0E1C6FB1981C51600074FC62F5050182
:10587E00636B62C563F5626B62115E6E63515F6E40
:10588E00A188640E606F5E0E616FA5EC2EF0110E96
:10589E0003011E6F12000501616F000E0501606F9E
:1058AE00040E61615DEF2CF05FEF2CF072EF2CF0C7
:1058BE0061510C0D500EF324D96E010EF420DA6EE8
:1058CE000101DFAE6DEF2CF06FEF2CF072EF2CF0CC
:1058DE00010E0501606F050160511200000EEDEC26
:1058EE0021F00501B76FB751C76FC86B010EEDEC14
:1058FE0021F00501B76FB751C56FC66B020EEDEC07
:10590E0021F00501B76FB751C36FC46B030EEDECF9
:10591E0021F00501B76FB751C16FC26B12000501BF
:10592E00646F610090F5ECF30301F38FF39DF38147
:10593E00F3B1A4EF2CF0A6EF2CF09FEF2CF0EB516F
:10594E000501636F626B0301EA5105016225606F09
:10595E000301000E05016321616F1200C0EF2CF0F0
:10596E00040E0501626F3D0EE82EFED7622FFCD7A6
:10597E0000D005016007D8A06107602906E1612902
:10598E00D8A4CCEF2CF0CEEF2CF0B7EF2CF0120009
:10599E002BEC2FF0FDEC2DF0DAEC20F049EC2BF097
:1059AE002CEC2EF033EC2DF038EC2EF02EEC2CF0FF
:1059BE00E9EC2DF0D5EC2AF0B0EC2BF00FEC2BF03F
:1059CE0012000501636F000E0501626F635152EC08
:1059DE002CF00009D8B4F6EF2CF0F8EF2CF0FEEF17
:1059EE002CF00501635111EC2EF00501626F0501DB
:1059FE0062511200A7EC2DF00501FB51FC11D8B439
:105A0E000BEF2DF00DEF2DF019EF2DF002D819EF51
:105A1E002DF00500FA6EFB51FD6EFC51FE6EFF6A15
:105A2E00FA5012001200056E610014F4ECF303013B
:105A3E00F38FF39DF381F3B127EF2DF029EF2DF0C6
:105A4E0022EF2DF0EB51046E036AEA510324016E2E
:105A5E00000E0420026E1200010E0301266F000ECE
:105A6E00256F000E276FC20E236F000E226FB196A8
:105A7E00A186620E0501606F5E0E616FA0EC2EF0C6
:105A8E00F00E0301246F1200000E0501606F6051CD
:105A9E00020DFE0EF324D96E050EF420DA6E000E02
:105AAE00DF6E602B6051D8B45FEF2DF061EF2DF0FB
:105ABE004EEF2DF0120003011EA568EF2DF06AEFD8
:105ACE002DF073EF2DF01E9102501D6F610004F446
:105ADE001CF31E8178EF2DF002501D6F610004F44F
:105AEE001CF312000501E751E811D8B481EF2DF037
:105AFE0083EF2DF08FEF2DF002D88FEF2DF00500F4
:105B0E00FA6EE751FD6EE851FE6EFF6AFA50120012
:105B1E001200060110511111D8B498EF2DF09AEF22
:105B2E002DF0A6EF2DF002D8A6EF2DF00500FA6E9F
:105B3E001051FD6E1151FE6EFF6AFA5012001200E6
:105B4E00000ECEBA010E4F6E4F04D8A4B1EF2DF059
:105B5E00B3EF2DF0BDEF2DF0000EEAEC22F04E6EFD
:105B6E00010EEAEC22F04D6E50C551F51200050102
:105B7E00675169036100CCF36BF56100D0F36CF5EE
:105B8E0067516A03F3506C2768516903F3506C2711
:105B9E006BC567F56CC568F51200B1964A4A4B2A7B
:105BAE004B5009E10A0E4A5CD8A0E0EF2DF0E2EF6F
:105BBE002DF0E8EF2DF006EC2CF0000E4B6E000EE3
:105BCE004A6E1200440E03011B6F9B0E196F000EDE
:105BDE00186FB19EA18E660E0501606F5E0E616F2D
:105BEE00AAEC2EF0800E03011A6F1200000E0001B7
:105BFE00606F000E616F000E626F000E636F000E1D
:105C0E00646F000E656F000E666F000E676F000EFC
:105C1E00686F12000501606F050160510C0D540E86
:105C2E00F324D96E010EF420DA6EDF50010B120050
:105C3E004EEC2EF00009D8B427EF2EF02AEF2EF0FE
:105C4E00010E2BEF2EF0000E1200700E0001AD6F44
:105C5E00000EAF6F000EB36F020EB16F000EB06F7D
:105C6E001200AF90D680680E0501606F5E0E616FF8
:105C7E00CDEC2EF09F801200010136B549EF2EF0CB
:105C8E004CEF2EF0010E4DEF2EF0000E1200010122
:105C9E0036B954EF2EF057EF2EF0010E58EF2EF0CE
:105CAE00000E1200010136BB5FEF2EF062EF2EF0F8
:105CBE00010E63EF2EF0000E1200100E0101506F58
:105CCE00040E516F600E526F050E536F1200080EC8
:105CDE0001015C6F040E5D6F600E5E6F050E5F6FEF
:105CEE001200010E0101046F010E056F060E066F04
:105CFE00000E076F1200B1985EC501F55FC502F583
:105D0E0062EC2DF079EC2DF01200610080F572F44A
:105D1E0005016151736E1200610080F57AF4050180
:105D2E0061517B6E12000501606F610080F5FBF31F
:105D3E00120060C5E5F561C5E6F5120060C5E7F530
:105D4E0061C5E8F5120060C510F661C511F61200C6
:105D5E0060C5EBF561C5ECF5120060C5EDF561C5EA
:105D6E00EEF5120060C5E9F561C5EAF5120060C5F1
:105D7E00D9F561C5DAF5120060C5DBF561C5DCF554
:105D8E00120060C5D7F561C5D8F5120060C5FBF5E8
:105D9E0061C5FCF5120060C5CBF561C5CCF51200EE
:105DAE0060C5CDF561C5CEF5120060C5C9F561C5FA
:105DBE00CAF5120060C5CFF561C5D0F5120060C5F9
:105DCE00D5F561C5D6F5120060C5D3F561C5D4F51C
:105DDE00120060C5D1F561C5D2F5120060C5F1F5AE
:105DEE0061C5F2F5120060C5F3F561C5F4F5120058
:105DFE0060C5F5F561C5F6F5120060C5F7F561C52C
:105E0E00F8F5120060C5EFF561C5F0F5120060C53A
:105E1E00F9F561C5FAF5120001010239E832070BF6
:105E2E001200016E610004F4FBF31200B19E90ECBF
:105E3E002DF01200AF9001EC2DF012000301F39B38
:105E4E0012000301F39B1200D69A120078841200FE
:105E5E0001001200120012001200120012001200B5
:0A5E6E0012001200120012001200D0
:020000040020DA
:10000000FF0FFF0FFF0FFF0FFF0FFF0FFF0FFF0F80
:10001000FF0FFF0FFF0FFF0FFF0FFF0FFF0FFF0F70
:020000040030CA
:10000000FAEFF7DF9FFFFFFFFFFFFFFFFFFFFFFF9D
:10001000FFFFFFFFFFFFFFFFFFFFFFFFFFFFFFFFF0
:04002000FFFFFFFFE0
:00000001FF
