:040000000DEF00F010
:0400080067EF23F08B
:06001800FF00F6EF27F0E7
:0D2600000000010203040506070850010058
:10260E000501D851800BE16FD851D825E36FD7AFB4
:10261E0013EF13F015EF13F016EF13F0E381E35100
:10262E00D8B41CEF13F01EEF13F033EF13F0E329C1
:10263E00D8A424EF13F026EF13F02EEF13F0000EB4
:10264E00D56F000ED66F000ED76F000ED86FD78FD6
:10265E00000ED86F3BEF13F0000ED56F000ED66F45
:10266E00000ED76F000ED86FDC51800BE26FE15178
:10267E00E219D8B445EF13F047EF13F048EF13F01B
:10268E00E18DDC51DC25E26FDBAF50EF13F052EF42
:10269E0013F053EF13F0E281E251D8B459EF13F077
:1026AE005BEF13F070EF13F0E229D8A461EF13F093
:1026BE0063EF13F06BEF13F0000ED96F000EDA6FAD
:1026CE00000EDB6F000EDC6FDB8F000EDC6F78EF21
:1026DE0013F0000ED96F000EDA6F000EDB6F000ED6
:1026EE00DC6FE351E25DD8B07FEF13F081EF13F0B2
:1026FE00A8EF13F0E1AD86EF13F088EF13F08AEF39
:10270E0013F0800EE11BE3C5E4F5E2C5E3F5E4C585
:10271E00E2F5D5C5E4F5D9C5D5F5E4C5D9F5D6C5E7
:10272E00E4F5DAC5D6F5E4C5DAF5D7C5E4F5DBC5CB
:10273E00D7F5E4C5DBF5D8C5E4F5DCC5D8F5E4C5B9
:10274E00DCF5000EE46FE351E2C5DDF5DE6BDD5F17
:10275E00000EDE5BDEBFBDEF13F0DE5109E11A0E97
:10276E00DD5DD8A0BDEF13F0BFEF13F0F6EF13F061
:10277E00D551D611D711D811D8A4C8EF13F0CBEF7D
:10278E0013F0010ECCEF13F0000EE46F000ED56FB8
:10279E00000ED66F000ED76F000ED86FE2C5E3F5B0
:1027AE00FFEF13F0E4A1DEEF13F0E0EF13F0E6EF2E
:1027BE0013F0D890E4310109E46FE8EF13F0D890EC
:1027CE00E433D5A1EDEF13F0EFEF13F0F0EF13F0CC
:1027DE00E48FD835D833D733D633D533E32BE25104
:1027EE00E35DD8A0FDEF13F0FFEF13F0D9EF13F078
:1027FE00E1BD04EF14F006EF14F046EF14F0E351D0
:10280E00D8A40CEF14F00EEF14F018EF14F0000E25
:10281E00D56F000ED66F000ED76F000ED86F67EF14
:10282E0015F0D951D527DA51D623DB51D723DC51F8
:10283E00D823D8A125EF14F027EF14F0D3EF14F01E
:10284E00E4A12CEF14F02EEF14F034EF14F0D89026
:10285E00E4310109E46F36EF14F0D890E433D5A1DA
:10286E003BEF14F03DEF14F03EEF14F0E48FD8354B
:10287E00D833D733D633D533E32BD3EF14F0D95126
:10288E00D55DDA51D659DB51D759D851800ADD6F53
:10289E00DC51800ADD59D8B057EF14F059EF14F01F
:1028AE0084EF14F0D551D95DDD6FD651DA59DE6F54
:1028BE00D751DB59DF6FD851DC59E06FFF0EDD25A4
:1028CE00D56FFF0EDE21D66FFF0EDF21D76FFF0E05
:1028DE00E021D86F800EE11BE46DE451D8A47AEFAD
:1028EE0014F07CEF14F08CEF14F0010ED527000ECF
:1028FE00D623D723D8238CEF14F0D951D55FDA51D4
:10290E00D65BDB51D75BDC51D85BD551D611D711D5
:10291E00D811D8A495EF14F097EF14F0CCEF14F073
:10292E00E451D8A49DEF14F09FEF14F0CCEF14F007
:10293E00000ED56F000ED66F000ED76F000ED86F3B
:10294E0067EF15F0D890D537D637D737D837E4AFED
:10295E00B3EF14F0B5EF14F0B6EF14F0D581E4A197
:10296E00BBEF14F0BDEF14F0C1EF14F0D880E437D4
:10297E00C3EF14F0D890E437E351D8B4C9EF14F094
:10298E00CBEF14F0CCEF14F0E307D7AFD1EF14F088
:10299E00D3EF14F0A9EF14F0000EE26FE4AFDAEF0C
:1029AE0014F0DCEF14F0F4EF14F0E4C5DDF57F0E57
:1029BE00DD17D8B4E5EF14F0E7EF14F0EBEF14F0F9
:1029CE00010EE26FF4EF14F0D5A1F0EF14F0F2EF78
:1029DE0014F0F4EF14F0E7EF14F0E251D8B4FAEF7C
:1029EE0014F0FCEF14F027EF15F0010ED527000EB2
:1029FE00D623D723D823D8A107EF15F009EF15F06A
:102A0E0027EF15F0D5C5DDF5D6C5DEF5D7C5DFF553
:102A1E00D8C5E0F5E035E033DF33DE33DD33DDC539
:102A2E00D5F5DEC5D6F5DFC5D7F5E0C5D8F5E32972
:102A3E00D8B424EF15F026EF15F027EF15F0E32BA1
:102A4E00E329D8B42DEF15F02FEF15F037EF15F071
:102A5E00E351D8A435EF15F037EF15F049EF15F027
:102A6E00000ED56F000ED66F000ED76F000ED86F0A
:102A7E00E351D8A445EF15F047EF15F049EF15F0E7
:102A8E00000EE16FE3A14EEF15F050EF15F053EF8E
:102A9E0015F0D78F54EF15F0D79FD890E331D86F3C
:102AAE00E1AF5CEF15F05EEF15F05FEF15F0D88F2C
:102ABE00D5C5D5F5D6C5D6F5D7C5D7F5D8C5D8F56C
:102ACE0012002B50800B346E2B502B24366E2AAEF8
:102ADE0073EF15F075EF15F076EF15F03680365072
:102AEE00D8B47CEF15F07EEF15F093EF15F0362885
:102AFE00D8A484EF15F086EF15F08EEF15F0000ECA
:102B0E00286E000E296E000E2A6E000E2B6E2A8E77
:102B1E00000E2B6E9BEF15F0000E286E000E296E28
:102B2E00000E2A6E000E2B6E2F50800B356E345019
:102B3E003518D8B4A5EF15F0A7EF15F0A8EF15F0DE
:102B4E00348C2F502F24356E2EAEB0EF15F0B2EF21
:102B5E0015F0B3EF15F035803550D8B4B9EF15F048
:102B6E00BBEF15F0D0EF15F03528D8A4C1EF15F056
:102B7E00C3EF15F0CBEF15F0000E2C6E000E2D6E80
:102B8E00000E2E6E000E2F6E2E8E000E2F6ED8EFB4
:102B9E0015F0000E2C6E000E2D6E000E2E6E000E19
:102BAE002F6E3650355CD8B0DFEF15F0E1EF15F033
:102BBE0008EF16F034ACE6EF15F0E8EF15F0EAEF9B
:102BCE0015F0800E341A36C537F535C536F537C5CE
:102BDE0035F528C537F52CC528F537C52CF529C58B
:102BEE0037F52DC529F537C52DF52AC537F52EC56F
:102BFE002AF537C52EF52BC537F52FC52BF537C55D
:102C0E002FF5000E376E365035C530F5316A305E11
:102C1E00000E315A31BE1DEF16F0315009E11A0E79
:102C2E00305CD8A01DEF16F01FEF16F056EF16F021
:102C3E00285029102A102B10D8A428EF16F02BEFAD
:102C4E0016F0010E2CEF16F0000E376E000E286EE9
:102C5E00000E296E000E2A6E000E2B6E35C536F54F
:102C6E005FEF16F037A03EEF16F040EF16F046EF8E
:102C7E0016F0D89037300109376E48EF16F0D8901D
:102C8E00373228A04DEF16F04FEF16F050EF16F03A
:102C9E00378E2B342B322A3229322832362A3550AF
:102CAE00365CD8A05DEF16F05FEF16F039EF16F038
:102CBE0034BC64EF16F066EF16F0A6EF16F0365041
:102CCE00D8A46CEF16F06EEF16F078EF16F0000E3B
:102CDE00286E000E296E000E2A6E000E2B6EC7EFA8
:102CEE0017F02C5028262D5029222E502A222F50F4
:102CFE002B222BA085EF16F087EF16F033EF17F08F
:102D0E0037A08CEF16F08EEF16F094EF16F0D890E9
:102D1E0037300109376E96EF16F0D890373228A06B
:102D2E009BEF16F09DEF16F09EEF16F0378E2B34BC
:102D3E002B322A3229322832362A33EF17F02C5012
:102D4E00285C2D5029582E502A582B50800A306E50
:102D5E002F50800A3058D8B0B7EF16F0B9EF16F0F2
:102D6E00E4EF16F028502C5C306E29502D58316E41
:102D7E002A502E58326E2B502F58336EFF0E3024A1
:102D8E00286EFF0E3120296EFF0E32202A6EFF0EA6
:102D9E0033202B6E800E341A376C3750D8A4DAEFEE
:102DAE0016F0DCEF16F0ECEF16F0010E2826000EF2
:102DBE0029222A222B22ECEF16F02C50285E2D50C1
:102DCE00295A2E502A5A2F502B5A285029102A1081
:102DDE002B10D8A4F5EF16F0F7EF16F02CEF17F036
:102DEE003750D8A4FDEF16F0FFEF16F02CEF17F0CA
:102DFE00000E286E000E296E000E2A6E000E2B6E2F
:102E0E00C7EF17F0D890283629362A362B3637AE2C
:102E1E0013EF17F015EF17F016EF17F0288037A005
:102E2E001BEF17F01DEF17F021EF17F0D880373694
:102E3E0023EF17F0D89037363650D8B429EF17F065
:102E4E002BEF17F02CEF17F036062AAE31EF17F0F6
:102E5E0033EF17F009EF17F0000E356E37AE3AEF7D
:102E6E0017F03CEF17F054EF17F037C530F57F0E23
:102E7E003016D8B445EF17F047EF17F04BEF17F0B9
:102E8E00010E356E54EF17F028A050EF17F052EFE9
:102E9E0017F054EF17F047EF17F03550D8B45AEF3C
:102EAE0017F05CEF17F087EF17F0010E2826000ED3
:102EBE0029222A222B222BA067EF17F069EF17F099
:102ECE0087EF17F028C530F529C531F52AC532F53B
:102EDE002BC533F53334333232323132303230C5E2
:102EEE0028F531C529F532C52AF533C52BF5362817
:102EFE00D8B484EF17F086EF17F087EF17F0362A65
:102F0E003628D8B48DEF17F08FEF17F097EF17F034
:102F1E003650D8A495EF17F097EF17F0A9EF17F0EA
:102F2E00000E286E000E296E000E2A6E000E2B6EFD
:102F3E003650D8A4A5EF17F0A7EF17F0A9EF17F0AA
:102F4E00000E346E36A0AEEF17F0B0EF17F0B3EF01
:102F5E0017F02A8EB4EF17F02A9ED89036302B6ECB
:102F6E0034AEBCEF17F0BEEF17F0BFEF17F02B8E9D
:102F7E0028C528F529C529F52AC52AF52BC52BF50F
:102F8E0012001250800B1B6E12501224216E11AEC5
:102F9E00D3EF17F0D5EF17F0D6EF17F021802150B1
:102FAE00D8B4DCEF17F0DEEF17F0F1EF17F02128B1
:102FBE00D8A4E4EF17F0E6EF17F0EEEF17F0000EDF
:102FCE000F6E000E106E000E116E000E126E118E30
:102FDE00F9EF17F0000E0F6E000E106E000E116E50
:102FEE00000E126E1650800B1B1A16501624206EF1
:102FFE0015AE04EF18F006EF18F007EF18F020806A
:10300E002050D8B40DEF18F00FEF18F022EF18F093
:10301E002028D8A415EF18F017EF18F01FEF18F0AE
:10302E00000E136E000E146E000E156E000E166E50
:10303E00158E2AEF18F0000E136E000E146E000E91
:10304E00156E000E166E2050D8B430EF18F032EF19
:10305E0018F03AEF18F02150D8A438EF18F03AEFE4
:10306E0018F044EF18F0000E0F6E000E106E000EEA
:10307E00116E000E126EEEEF19F015500F02610078
:10308E00CCF326F56100D0F327F526501C6E1D6A91
:10309E001E6A1F6A2750226E236A246A256A1450FC
:1030AE0010026100CCF326F56100D0F327F526500F
:1030BE001C26000E1D221E221F2227502226000E25
:1030CE00232224222522135011026100CCF326F56F
:1030DE006100D0F327F526501C26000E1D221E225D
:1030EE001F2227502226000E2322242225221EC50F
:1030FE001FF51DC51EF51CC51DF51C6A13501002CB
:10310E006100CCF326F56100D0F327F526501C267E
:10311E0027501D22000E1E22000E1F2214500F02D9
:10312E006100CCF326F56100D0F327F526501C265E
:10313E0027501D22000E1E22000E1F221EC51FF537
:10314E001DC51EF51CC51DF51C6A13500F0261002E
:10315E00CCF326F56100D0F327F526501C26275018
:10316E001D22000E1E22000E1F221550100261009D
:10317E00CCF326F56100D0F327F5265022262750F2
:10318E002322000E2422000E25221450110261006B
:10319E00CCF326F56100D0F327F5265022262750D2
:1031AE002322000E2422000E25221550110261004A
:1031BE00CCF326F56100D0F327F52650176E275075
:1031CE00186E196A1A6A19C51AF518C519F517C5B0
:1031DE0018F5176A17502226185023221950242248
:1031EE001A5025221CC517F51DC518F51EC519F553
:1031FE001FC51AF5190E09EF19F0D8901A321932A7
:10320E0018321732E82E04EF19F0175022261850F4
:10321E002322195024221A5025221EC51FF51DC522
:10322E001EF51CC51DF51C6A205021C517F5186A20
:10323E001726000E1822820E1724266EFF0E182057
:10324E00276E3FEF19F0D8902236233624362536D6
:10325E001FAE34EF19F036EF19F037EF19F0228068
:10326E00D8901C361D361E361F362606D8A02706C9
:10327E0024AE44EF19F046EF19F02AEF19F0000EC4
:10328E00206E1FAE4DEF19F04FEF19F073EF19F0DE
:10329E00FF0E1C14176EFF0E1D14186EFF0E1E145B
:1032AE00196E7F0E1F141A6E1750181019101A105F
:1032BE00D8B464EF19F066EF19F06AEF19F0010E49
:1032CE00206E73EF19F022A06FEF19F071EF19F065
:1032DE0073EF19F066EF19F02050D8B479EF19F0AA
:1032EE007BEF19F09FEF19F0010E2226000E23221C
:1032FE002422252225A086EF19F088EF19F09FEFE2
:10330E0019F022C517F523C518F524C519F525C5DD
:10331E001AF51A341A3219321832173217C522F525
:10332E0018C523F519C524F51AC525F5264A272AE9
:10333E0027BEAAEF19F0275008E12628D8A0AAEF39
:10334E0019F0ACEF19F0B6EF19F0000E226E000E68
:10335E00236E800E246E7F0E256EE4EF19F027BECD
:10336E00C3EF19F0275006E12604D8B0C1EF19F0CB
:10337E00C3EF19F0CFEF19F0000E226E000E236E80
:10338E00000E246E000E256E000E1B6EE4EF19F07B
:10339E0026C521F5FF0E2216FF0E23167F0E2416CC
:1033AE00000E251621A0DEEF19F0E0EF19F0E1EF87
:1033BE0019F0248ED8902130256E1B50251222C56F
:1033CE000FF523C510F524C511F525C512F512000C
:1033DE001250800B1F6E12501224266E11AEFAEF91
:1033EE0019F0FCEF19F0FDEF19F026802650D8B435
:1033FE0003EF1AF005EF1AF01AEF1AF02628D8A4E8
:10340E000BEF1AF00DEF1AF015EF1AF0000E0F6E0B
:10341E00000E106E000E116E000E126E118E000E4A
:10342E00126E22EF1AF0000E0F6E000E106E000ECE
:10343E00116E000E126E1650800B1F1A16501624A7
:10344E00276E15AE2DEF1AF02FEF1AF030EF1AF09F
:10345E0027802750D8B436EF1AF038EF1AF04DEF18
:10346E001AF02728D8A43EEF1AF040EF1AF048EFD2
:10347E001AF0000E136E000E146E000E156E000E76
:10348E00166E158E000E166E55EF1AF0000E136E98
:10349E00000E146E000E156E000E166E13501410E4
:1034AE0015101610D8A45EEF1AF060EF1AF078EF30
:1034BE001AF0000E0F6E000E106E000E116E000E42
:1034CE00126E800E11127F0E12121F5012120FC5A5
:1034DE000FF510C510F511C511F512C512F5BBEF9C
:1034EE001BF02650D8A47EEF1AF080EF1AF08AEF68
:1034FE001AF0000E0F6E000E106E000E116E000E02
:10350E00126EBBEF1BF0275026C517F5186A175E13
:10351E00000E185A7F0E1724206E000E1820216EF2
:10352E000FC51BF510C51CF511C51DF512C51EF5F1
:10353E00000E0F6E000E106E000E116E000E126E4B
:10354E00000E226E000E236E000E246E000E256EEF
:10355E00000E276EEBEF1AF02750D8B4B9EF1AF021
:10356E00BBEF1AF0D2EF1AF0D8901B361C361D3670
:10357E001E36D8900F3610361136123625AECAEFDB
:10358E001AF0CCEF1AF0CDEF1AF00F80D890223649
:10359E0023362436253613501B5C14501C581550F8
:1035AE001D5816501E58D8A0DFEF1AF0E1EF1AF092
:1035BE00EAEF1AF0258C13501B5E14501C5A15504E
:1035CE001D5A16501E5A272A190E2764F1EF1AF0AB
:1035DE00F3EF1AF0B3EF1AF01B501C101D101E1053
:1035EE00D8B4FCEF1AF0FEEF1AF016EF1BF02280A3
:1035FE0016EF1BF0D8900F3610361136123625AE58
:10360E000BEF1BF00DEF1BF00EEF1BF00F80D890A1
:10361E0022362336243625362006D8A0210611AEB2
:10362E001BEF1BF01DEF1BF001EF1BF0000E276EC2
:10363E0025AE24EF1BF026EF1BF04AEF1BF0FF0E1A
:10364E002214176EFF0E2314186EFF0E2414196E1B
:10365E007F0E25141A6E1750181019101A10D8B4A0
:10366E003BEF1BF03DEF1BF041EF1BF0010E276E01
:10367E004AEF1BF00FA046EF1BF048EF1BF04AEF8E
:10368E001BF03DEF1BF02750D8B450EF1BF052EF5C
:10369E001BF076EF1BF0010E0F26000E10221122EA
:1036AE00122212A05DEF1BF05FEF1BF076EF1BF006
:1036BE000FC517F510C518F511C519F512C51AF570
:1036CE001A341A3219321832173217C50FF518C5B7
:1036DE0010F519C511F51AC512F5204A212A21BE79
:1036EE0081EF1BF0215008E12028D8A081EF1BF0BC
:1036FE0083EF1BF08EEF1BF0000E216E2068000E84
:10370E000F6E000E106E000E116E000E126E21BEA8
:10371E009BEF1BF0215006E12004D8B099EF1BF06F
:10372E009BEF1BF0A9EF1BF0000E216E000E206E1A
:10373E00000E0F6E000E106E000E116E000E126E49
:10374E00000E1F6E20C526F526A0B0EF1BF0B2EFBF
:10375E001BF0B5EF1BF0118EB6EF1BF0119ED8903B
:10376E002630126E6CEF1AF01200610038F4D9F4A4
:10377E0061003CF4DAF4610078F313F5610078F33C
:10378E0014F5610078F315F5610078F316F520EE67
:10379E0004F00E50D9260F50DA22DFA0D9EF1BF01D
:1037AE00DBEF1BF015EF1CF020EE01F00C50D926CC
:1037BE000D50DA221338E842F80BF80BDF6E050EC7
:1037CE00106ED8901632153214321332102EE8EFD6
:1037DE001BF020EE02F00C50D9260D50DA226100BB
:1037EE004CF4DFF414C513F515C514F516C515F50F
:1037FE00166A20EE03F00C50D9260D50DA22135023
:10380E001F0BDF6E050E106ED89016321532143265
:10381E001332102E0BEF1CF02DEF1CF020EE03F0E8
:10382E000C50D9260D50DA22000EDF6E10EE02F08B
:10383E000C50E1260D50E222DFC4E7F420EE01F039
:10384E000C50D9260D50DA22E7C4DFF4610030F4B3
:10385E00D9F4610034F4DAF461004CF4DFF414C5E9
:10386E0013F515C514F516C515F5166A13C510F51D
:10387E00070E101620EE01F00C50D9260D50DA224C
:10388E001050DF1220EE04F00E50D9260F50DA221F
:10389E00DF30E8320F0B126E20EE04F00E50D926F8
:1038AE000F50DA22DFB05EEF1CF062EF1CF0106AF0
:1038BE00102A63EF1CF0106A1038F00B121220EE73
:1038CE0004F00E50D9260F50DA22DFB271EF1CF041
:1038DE0075EF1CF0200E106E76EF1CF0106A105073
:1038EE00121220EE04F00E50D9260F50DA22DFBE4F
:1038FE0083EF1CF087EF1CF0400E106E88EF1CF06B
:10390E00106A1050121220EE04F00E50D9260F50ED
:10391E00DA22DFBC95EF1CF099EF1CF0800E106ED2
:10392E009AEF1CF0106A1050121220EE04F00C5098
:10393E00D9260D50DA22610048F4DFF420EE04F0AF
:10394E000E50D9260F50DA22DFB2B0EF1CF0B2EFD4
:10395E001CF0DEEF1CF0080E0C24016E000E0D2084
:10396E00026E20EE05F00E50D9260F50DA226100BD
:10397E0078F303F5610074F304F520EE04F00E50B5
:10398E00D9260F50DA22DF30E8320F0B106E116A93
:10399E00010E1024F66E260E1120F76EF86A000E38
:1039AE00F8220800F550056E066AC9EC27F01200E1
:1039BE00040E0301F96F000EFA6F000ED86F000EA1
:1039CE00FB6F000ED96F000EDA6F000EDB6F000E6C
:1039DE00DC6F000EDF6F000EE06F000EE36F000E67
:1039EE00E46F000EE56F000EE66F000EE76F000E3F
:1039FE00EA6F000EEB6F000EEC6F000EEE6F000E16
:103A0E00EF6F000EF06F000EF16F000EF26F000EF2
:103A1E00F36F000EF46F100EF56F000EF66F000EC2
:103A2E00F76F120EF86F000EFC6F010EFB6F000E9B
:103A3E00D96F000EDA6F000EDB6F000EDC6F000E1A
:103A4E00DF6F000EE06F000EE36F000EE46F000EEE
:103A5E00E56F000EE66F000EE76F000EEA6F000EC8
:103A6E00EB6F010EEC6F000EEE6F000EEF6F000E9F
:103A7E00F06F000EF16F000EF26F000EF36F000E7E
:103A8E00F46F100EF56F000EF66F000EF76F000E4E
:103A9E00F86F000EFD6F020EFB6F000ED96F000E59
:103AAE00DA6F000EDB6F000EDC6F000EDF6F000EA4
:103ABE00E06F000EE36F000EE46F000EE56F000E78
:103ACE00E66F000EE76F000EEA6F000EEB6F160E3C
:103ADE00EC6F000EEE6F000EEF6F000EF06F000E2B
:103AEE00F16F000EF26F000EF36F000EF46F100EFA
:103AFE00F56F000EF66F000EF76F000EF86F000EEA
:103B0E00FE6F030EFB6F000ED96F000EDA6F000E04
:103B1E00DB6F000EDC6F000EDF6F000EE06F000E2D
:103B2E00E36F000EE46F000EE56F000EE66F000E01
:103B3E00E76F000EEA6F000EEB6F170EEC6F000EC4
:103B4E00EE6F000EEF6F000EF06F000EF16F000EB5
:103B5E00F26F000EF36F000EF46F100EF56F000E85
:103B6E00F66F000EF76F000EF86F000EFF6FAF943A
:103B7E00AF96B090B092B094B096000E0501B96FAA
:103B8E00000EBA6F2CEC2BF0000E0501B96F000E73
:103B9E00BA6F22EC2BF0000E0501B96F000EBA6F52
:103BAE001DEC2BF0000E0501B96F000EBA6F18EC6C
:103BBE002BF0000E0501B96F000EBA6F13EC2BF04F
:103BCE00000E0501B96F000EBA6F27EC2BF0840EB4
:103BDE000301F36F1200446E55EF1EF046EC2BF00E
:103BEE00000E36EC2BF0000ECDEC28F001C547F59B
:103BFE0002C548F5010E496E7AEF1EF046EC2BF029
:103C0E00010E36EC2BF0010ECDEC28F001C547F578
:103C1E0002C548F501EF1EF046EC2BF0020E36EC15
:103C2E002BF0170ECDEC28F001C547F502C548F56F
:103C3E0001EF1EF046EC2BF0020E36EC2BF0160EBA
:103C4E00CDEC28F001C547F502C548F501EF1EF091
:103C5E00D0B634EF1EF038EF1EF0426A422A39EF2A
:103C6E001EF0426A4250476E486A010E496E7AEF64
:103C7E001EF0D0B845EF1EF049EF1EF0426A422A00
:103C8E004AEF1EF0426A4250476E486A010E496E74
:103C9E007AEF1EF0020E496E7AEF1EF04450426E1D
:103CAE00436A4350000AD8B45FEF1EF051EF1EF086
:103CBE004250000AD8B4F5EF1DF0010AD8B405EF52
:103CCE001EF0030AD8B413EF1EF0010AD8B421EF88
:103CDE001EF0070AD8B42FEF1EF0010AD8B440EF39
:103CEE001EF051EF1EF04904D8A480EF1EF082EFB3
:103CFE001EF003EF1FF0485007E1070E475CD8B0E7
:103D0E008BEF1EF08DEF1EF093EF1EF0000E466E41
:103D1E00000E456ECEEF1EF06F0E2C6E810E2D6EC8
:103D2E00A80E2E6EC00E2F6EB30E136E7B0E146E7B
:103D3E00920E156E3F0E166E47C501F548C502F57B
:103D4E00036A046A000EE0EC1FF001C50FF502C510
:103D5E0010F503C511F504C512F5C8EC17F00FC523
:103D6E0028F510C529F511C52AF512C52BF568ECF5
:103D7E0015F028C538F529C539F52AC53AF52BC5EC
:103D8E003BF570EC22F038C545F539C546F5890E80
:103D9E00455C130E4658D8A0D7EF1EF0D9EF1EF093
:103DAE00DBEF1EF003EF1FF02F0E136EDD0E146E01
:103DBE009C0E156E410E166E45C501F546C502F5F3
:103DCE00036A046A000EE0EC1FF001C50FF502C590
:103DDE0010F503C511F504C512F5EFEC19F00FC57A
:103DEE0038F510C539F511C53AF512C53BF570EC2D
:103DFE0022F0385003EF1FF012000501CF6F0501BE
:103E0E00CF51D8B40DEF1FF00FEF1FF031EF1FF0B1
:103E1E00CABF16EF1FF014EF1FF031EF1FF0C7C52A
:103E2E00CBF5C8C5CCF5C9C5CDF5CAC5CEF5CB1FEA
:103E3E00CC1FCD1FCE1FCB2B000ECC23CD23CE23DC
:103E4E00CBC5D1F5CCC5D2F5CDC5D3F5CEC5D4F500
:103E5E0039EF1FF0C7C5D1F5C8C5D2F5C9C5D3F521
:103E6E00CAC5D4F5C751C811C911CA11D8A442EF99
:103E7E001FF044EF1FF04EEF1FF0000EC76F000E45
:103E8E00C86F000EC96F000ECA6FDFEF1FF0960EDF
:103E9E00D06F58EF1FF0D02BD890D433D333D2330A
:103EAE00D133000ED115CB6F000ED215CC6F000E94
:103EBE00D315CD6FFE0ED415CE6FCB51CC11CD11C7
:103ECE00CE11D8A46DEF1FF06FEF1FF052EF1FF061
:103EDE007DEF1FF0D02B010ED127000ED223D3235E
:103EEE00D423D890D433D333D233D133000ED1155B
:103EFE00CB6F000ED215CC6F000ED315CD6FFF0E0B
:103F0E00D415CE6FCB51CC11CD11CE11D8A492EFCA
:103F1E001FF094EF1FF071EF1FF09CEF1FF0D00712
:103F2E00D890D137D237D337D437D3BFA1EF1FF0C4
:103F3E00A3EF1FF0ABEF1FF0020ED061A9EF1FF041
:103F4E00ABEF1FF096EF1FF0D0B1B0EF1FF0B2EF56
:103F5E001FF0B3EF1FF0D39FD890D033D0C5CBF561
:103F6E00CC6BCD6BCE6BCBC5CEF5CD6BCC6BCB6BA3
:103F7E00CB51D113CC51D213CD51D313CE51D41327
:103F8E00CF51D8B4CDEF1FF0CFEF1FF0D7EF1FF00A
:103F9E00CABFD6EF1FF0D4EF1FF0D7EF1FF0D48FAC
:103FAE00D1C5C7F5D2C5C8F5D3C5C9F5D4C5CAF5AF
:103FBE001200096E0950D8B4E7EF1FF0E9EF1FF0B9
:103FCE000BEF20F004BEF0EF1FF0EEEF1FF00BEF43
:103FDE0020F001C505F502C506F503C507F504C5B4
:103FEE0008F5051E061E071E081E052A000E0622CF
:103FFE000722082205C50BF506C50CF507C50DF5FC
:10400E0008C50EF513EF20F001C50BF502C50CF532
:10401E0003C50DF504C50EF5015002100310041072
:10402E00D8A41CEF20F01EEF20F028EF20F0000E99
:10403E00016E000E026E000E036E000E046EB9EFDE
:10404E0020F0960E0A6E32EF20F00A2AD8900E3229
:10405E000D320C320B32000E0B14056E000E0C14CA
:10406E00066E000E0D14076EFE0E0E14086E055031
:10407E00061007100810D8A447EF20F049EF20F0E3
:10408E002CEF20F057EF20F00A2A010E0B26000E1F
:10409E000C220D220E22D8900E320D320C320B3223
:1040AE00000E0B14056E000E0C14066E000E0D1491
:1040BE00076EFF0E0E14086E05500610071008103E
:1040CE00D8A46CEF20F06EEF20F04BEF20F076EFDF
:1040DE0020F00A06D8900B360C360D360E360DBE75
:1040EE007BEF20F07DEF20F085EF20F0020E0A60CE
:1040FE0083EF20F085EF20F070EF20F00AB08AEF0A
:10410E0020F08CEF20F08DEF20F00D9ED8900A322B
:10411E000AC505F5066A076A086A05C508F5076A3D
:10412E00066A056A05500B1206500C1207500D1246
:10413E0008500E120950D8B4A7EF20F0A9EF20F0C6
:10414E00B1EF20F004BEB0EF20F0AEEF20F0B1EFF3
:10415E0020F00E8E0BC501F50CC502F50DC503F54D
:10416E000EC504F5120001011DAFC0EF20F0C2EF25
:10417E0020F0D1EF20F002D8CFEF20F00500FA6E3C
:10418E0005018A51FD6E8B51FE6EFF6AFA501200C8
:10419E0001011D9F1DADD6EF20F0D8EF20F0E7EF07
:1041AE0020F002D8E5EF20F00500FA6E05018851E7
:1041BE00FD6E8951FE6EFF6AFA50120001011D9DBF
:1041CE001DABECEF20F0EEEF20F0FDEF20F002D86B
:1041DE00FBEF20F00500FA6E05018651FD6E87514A
:1041EE00FE6EFF6AFA50120001011D9B1CA702EF22
:1041FE0021F004EF21F013EF21F002D811EF21F09E
:10420E000500FA6E05018451FD6E8551FE6EFF6A42
:10421E00FA50120001011C971DA918EF21F01AEF98
:10422E0021F029EF21F002D827EF21F00500FA6ED8
:10423E0005018251FD6E8351FE6EFF6AFA50120027
:10424E0001011D991DA52EEF21F030EF21F046EF53
:10425E0021F002D83DEF21F00500FA6E05018051E4
:10426E00FD6E8151FE6EFF6AFA501200010154A9D3
:10427E0043EF21F045EF21F046EF21F054991DA7B1
:10428E004BEF21F04DEF21F063EF21F002D85AEF02
:10429E0021F00500FA6E05017E51FD6E7F51FE6E16
:1042AE00FF6AFA501200010160A760EF21F062EF81
:1042BE0021F063EF21F06097AE9C1200000E050115
:1042CE00C26FC0BF6FEF21F06DEF21F079EF21F0DB
:1042DE00C01FBF1FBE1FBD6D000EBE23BF23C02358
:1042EE00010EC26FBCBF80EF21F07EEF21F08AEF8E
:1042FE0021F0BC1FBB1FBA1FB96D000EBA23BB2322
:10430E00BC23010EC21B000EC36F000EC46F000E45
:10431E00C56F000EC66FBD51BE11BF11C011D8B40E
:10432E009BEF21F09DEF21F0D3EF21F0010EC16F35
:10433E00A7EF21F0D890BD37BE37BF37C037C12B9E
:10434E00C0AFACEF21F0AEEF21F0A1EF21F0D8908D
:10435E00C337C437C537C637BD51B95DBE51BA591B
:10436E00BF51BB59C051BC59D8A0C0EF21F0C2EF0C
:10437E0021F0CBEF21F0BD51B95FBE51BA5BBF51F9
:10438E00BB5BC051BC5BC381D890C033BF33BE335F
:10439E00BD33C12FAEEF21F0C251D8B4D9EF21F009
:1043AE00DBEF21F0E3EF21F0C61FC51FC41FC36D65
:1043BE00000EC423C523C623C3C5B9F5C4C5BAF5BB
:1043CE00C5C5BBF5C6C5BCF512000501E735E83518
:1043DE00EE6FEE51D8A4F6EF21F0F8EF21F002EFD8
:1043EE0022F0000EE56F000EE66F000EE76F000E76
:1043FE00E86F6FEF22F0E5C5E9F5E6C5EAF5E7C52A
:10440E00EBF5E8C5ECF5200E12EF22F0D890EC3368
:10441E00EB33EA33E933E82E0DEF22F0E951ED6F7D
:10442E00E78FFF0EE517FF0EE617FF0EE717000EDC
:10443E00E817960EEE5FEEBF29EF22F027EF22F07F
:10444E003FEF22F0EE51800A970FD8B031EF22F0F5
:10445E0033EF22F035EF22F0F8EF21F0D890E83369
:10446E00E733E633E533EE3F35EF22F057EF22F038
:10447E001F0EEE6545EF22F047EF22F04FEF22F0D0
:10448E00F8EF21F0D890E537E637E737E837EE0753
:10449E00EE51D8A455EF22F057EF22F049EF22F05B
:1044AE00ED51D8B45DEF22F05FEF22F067EF22F00E
:1044BE00E81FE71FE61FE56D000EE623E723E8235E
:1044CE00E5C5E5F5E6C5E6F5E7C5E7F5E8C5E8F5C2
:1044DE0012003A343B34416E4150D8A479EF22F0A9
:1044EE007BEF22F085EF22F0000E386E000E396E53
:1044FE00000E3A6E000E3B6EF2EF22F038C53CF520
:10450E0039C53DF53AC53EF53BC53FF5200E95EF55
:10451E0022F0D8903F323E323D323C32E82E90EFC0
:10452E0022F03C50406E3A8EFF0E3816FF0E3916B2
:10453E00FF0E3A16000E3B16960E415E41BEACEFD4
:10454E0022F0AAEF22F0C2EF22F04150800A970F1C
:10455E00D8B0B4EF22F0B6EF22F0B8EF22F07BEF36
:10456E0022F0D8903B323A3239323832413EB8EFEF
:10457E0022F0DAEF22F01F0E4164C8EF22F0CAEFEC
:10458E0022F0D2EF22F07BEF22F0D8903836393677
:10459E003A363B3641064150D8A4D8EF22F0DAEF36
:1045AE0022F0CCEF22F04050D8B4E0EF22F0E2EF50
:1045BE0022F0EAEF22F03B1E3A1E391E386C000E36
:1045CE0039223A223B2238C538F539C539F53AC574
:1045DE003AF53BC53BF5120022C51AF623C51BF66C
:1045EE0024C51CF625C51DF626C51EF627C51FF6C5
:1045FE0028C520F629C521F61DC5B2F51EC5B3F591
:10460E001FC5B4F520C5B5F50501B69DB69FB69389
:10461E00B68121C52AF50F0E2A162A462A46B6510C
:10462E002A18C30B2A18B66F1A0EB76F060EB86F7C
:10463E006DEC2AF0E806D8A427EF23F029EF23F03B
:10464E002CEF23F000F0010E5A6E62EC2AF0E80611
:10465E00D8A434EF23F036EF23F039EF23F000F037
:10466E00010E5A6E57EC2AF0E806D8A441EF23F05B
:10467E0043EF23F046EF23F000F0010E5A6E1BECD1
:10468E002AF0E806D8A44EEF23F050EF23F053EFB4
:10469E0023F000F0010E5A6E000EC4EC29F02A6EC3
:1046AE002AA05CEF23F05EEF23F066EF23F0B20E4C
:1046BE00176E050E186E000ECDEC25F000F01200F0
:1046CE006100D8F34BF56100DCF34CF56100E0F3CB
:1046DE004DF56100D4F34EF5A1AE78EF23F07AEFED
:1046EE0023F085EF23F0B1AE7FEF23F081EF23F0BF
:1046FE0085EF23F03BEC2BF0CDEF23F09FA08AEF5C
:10470E0023F08CEF23F097EF23F0AFA091EF23F07F
:10471E0093EF23F097EF23F03FEC2BF0CDEF23F048
:10472E00A1A69CEF23F09EEF23F0A9EF23F0B1A6F4
:10473E00A3EF23F0A5EF23F0A9EF23F0AEEC2AF0C0
:10474E00CDEF23F09EACAEEF23F0B0EF23F0BBEF36
:10475E0023F0AEACB5EF23F0B7EF23F0BBEF23F0B1
:10476E00BAEC20F0CDEF23F0A1A8C0EF23F0C2EFFA
:10477E0023F0CDEF23F0B1A8C7EF23F0C9EF23F05C
:10478E00CDEF23F022EC25F0CDEF23F0610038F5CC
:10479E00F5F4610034F5F8F4610030F5F7F46100DA
:1047AE002CF5F6F411006A0E0501D96F4D0EDA6F75
:1047BE00930EDB6FBF0EDC6FF1C5BDF5F2C5BEF516
:1047CE00BF6BC06B490EB96F990EBA6F000EBB6FFF
:1047DE00000EBC6F65EC21F0B9C5C7F5BAC5C8F5BA
:1047EE00BBC5C9F5BCC5CAF5010E04EC1FF0C7C5A3
:1047FE00D5F5C8C5D6F5C9C5D7F5CAC5D8F507ECE0
:10480E0013F0D5C5E5F5D6C5E6F5D7C5E7F5D8C598
:10481E00E8F5ECEC21F0E5C5F5F5E6C5F6F5EFC5E6
:10482E00F3F5F0C5F4F50501D890F337F437D890C9
:10483E00F337F437F3C5C0F5F4C5C1F5F1C5BBF5D3
:10484E00F2C5BCF5000EBA6F640EB96F54EC26F0CB
:10485E00B9C5C2F5BAC5C3F571EC29F0C0C5F7F5F7
:10486E00C1C5F8F5F7C5B9F5F8C5BAF593EC2AF058
:10487E00F5C5B9F5F6C5BAF58CEC2AF04BEC2BF074
:10488E0012006A0E0501D96F4D0EDA6F930EDB6FB3
:10489E00BF0EDC6FF1C5BDF5F2C5BEF5BF6BC06BCB
:1048AE00490EB96F990EBA6F000EBB6F000EBC6F3A
:1048BE0065EC21F0B9C5C7F5BAC5C8F5BBC5C9F5D4
:1048CE00BCC5CAF5010E04EC1FF0C7C5D5F5C8C5A9
:1048DE00D6F5C9C5D7F5CAC5D8F507EC13F0D5C5B9
:1048EE00E5F5D6C5E6F5D7C5E7F5D8C5E8F5ECECA0
:1048FE0021F0E5C5F5F5E6C5F6F5EFC5F3F5F0C51E
:10490E00F4F50501D890F337F437D890F337F43730
:10491E00F3C5C0F5F4C5C1F5F1C5BBF5F2C5BCF5DF
:10492E00000EBA6F640EB96F54EC26F0B9C5C2F51D
:10493E00BAC5C3F571EC29F0C0C5F7F5C1C5F8F5D8
:10494E00F7C5B9F5F8C5BAF5A1EC2AF0F5C5B9F574
:10495E00F6C5BAF59AEC2AF051EC2BF01200076E60
:10496E00000E086E20EE04F00250D9260350DA2213
:10497E00DF50096E09AEC6EF24F0C8EF24F0D3EF76
:10498E0024F031EC2BF0060AD8A4D0EF24F0D2EFAD
:10499E0024F0D3EF24F008820930E8320F0B046EB6
:1049AE00080E0464DDEF24F0DFEF24F0F1EF24F0C5
:1049BE0009ACE4EF24F0E6EF24F0F0EF24F031EC54
:1049CE002BF0060AD8A4EEEF24F0F0EF24F0F1EF6E
:1049DE0024F00880090EF66E260EF76EF86A0800AF
:1049EE006100D4F304F50930E8320F0B056E066A48
:1049FE00010E0524F66E260E0620F76EF86A000EDE
:104A0E00F8220800F550045CD8B010EF25F012EF34
:104A1E0025F013EF25F00880075040EC2AF000092E
:104A2E00D8A41CEF25F01EEF25F020EF25F0030E85
:104A3E00081208501200B198FCC501F5FDC502F52B
:104A4E002CEC29F043EC29F044EC28F05D2A060EFC
:104A5E005D18D8A435EF25F037EF25F03BEF25F0A4
:104A6E00000E5D6E57EC2BF05C2A0B0E5C18D8A472
:104A7E0043EF25F045EF25F049EF25F0000E5C6E73
:104A8E00D8EC29F05B2A650E5B18D8A451EF25F0FF
:104A9E0053EF25F057EF25F0000E5B6E5AEC2BF01E
:104AAE0005017C4B7D2B2D0E7C1906E17D05D8A4CE
:104ABE0063EF25F065EF25F06BEF25F0000E7D6FAF
:104ACE00000E7C6F58EC2BF005017A4B7B2B590EA8
:104ADE007A1907E1020E7B19D8A478EF25F07AEF48
:104AEE0025F080EF25F0000E7B6F000E7A6F59ECEB
:104AFE002BF012000501BB6F000E0501BA6FEBEC37
:104B0E002AF00501B96F040EB919D8B491EF25F04A
:104B1E0093EF25F0A4EF25F0BB05D8B499EF25F05F
:104B2E009BEF25F0A4EF25F0040EBB19D8A4A2EF3D
:104B3E0025F0A4EF25F0C9EF25F001010351050181
:104B4E00BB19F80BBB190101036FBBEF25F0010177
:104B5E001DA9B4EF25F0B6EF25F0BBEF25F0020E40
:104B6E000501BA6FCBEF25F00239E832070B0501CC
:104B7E00BB19D8A4C5EF25F0C7EF25F0AEEF25F091
:104B8E00CBEF25F0010EBA6FBA5112001C6E1C50FD
:104B9E0063EC28F00009D8B4D7EF25F0D9EF25F053
:104BAE0016EF26F017C502F518C503F51C50B6EC26
:104BBE0024F0196E1950D8A4E7EF25F0E9EF25F08F
:104BCE0016EF26F01C500C0D580EF324D96E010E64
:104BDE00F420DA6E610078F31AF5610074F31BF5B8
:104BEE001A501B10D8B4FEEF25F000EF26F016EF8A
:104BFE0026F01AC50CF51BC50DF517C50EF518C513
:104C0E000FF5BCEC1BF01C500C0D510EF324D96E9D
:104C1E00010EF420DA6E030EDF1216EF26F01200EC
:104C2E00C20E0501B96F560EBA6F04EC2BF0C40E0E
:104C3E000501B96F560EBA6F09EC2BF0C60E0501C1
:104C4E00B96F560EBA6F0EEC2BF0C00E0501B96F90
:104C5E00560EBA6FFFEC2AF0BC0E0501B96F560E58
:104C6E00BA6FF5EC2AF0BA0E0501B96F560EBA6F8F
:104C7E00F0EC2AF0BE0E0501B96F560EBA6FFAECC3
:104C8E002AF0AE9C000E01011C6F000E1D6F0A0E65
:104C9E001E6FFC0E1F6F9E8C1200000E0501BE6F64
:104CAE00000EBD6FBB51BC11D8B460EF26F062EFA1
:104CBE0026F08AEF26F0010EBF6F6AEF26F0D8902D
:104CCE00BB37BC37BF2BBCAF6FEF26F071EF26F0B2
:104CDE0066EF26F0D890BD37BE37BB51B95DBC51DB
:104CEE00BA59D8A07DEF26F07FEF26F084EF26F09C
:104CFE00BB51B95FBC51BA5BBD81D890BC33BB33DD
:104D0E00BF2F71EF26F0BDC5B9F5BEC5BAF51200BD
:104D1E00000E6F6E020E706E000E716E500E726E81
:104D2E000F0E736EFE0E746E000E756E000E766EA6
:104D3E00000E776E000E796E0D0E7A6E050E7B6E7E
:104D4E00A80E7C6E070E7D6EB39CB39E7690769207
:104D5E00A39EA39C000E0501B96F000EBA6FC8EC9E
:104D6E002AF0000E0501B96F000EBA6FC3EC2AF0DF
:104D7E00000E0501B96F000EBA6FCDEC2AF0800E51
:104D8E00786E1200000E606E020E616E000E626E84
:104D9E003D0E636E000E646EFE0E656E000E666E48
:104DAE00000E676E000E686E000E6A6E1F0E6B6E42
:104DBE00000E6C6E1F0E6D6E000E6E6EB29CB29E6D
:104DCE0067906792A29EA29C000E0501B96F000E1D
:104DDE00BA6FD7EC2AF0000E0501B96F000EBA6F4C
:104DEE00D2EC2AF0000E0501B96F000EBA6FDCECA2
:104DFE002AF0800E696E1200000EBE6E000EBF6E9F
:104E0E00000EC06E080ECA6EEF0EC66EC80EC76ECE
:104E1E00DC0EC86ED80E0401106F400E086FCF0E58
:104E2E00006F000E216F000E096F000E016F000E55
:104E3E00116F000E026F000E0A6F000E126F0369E3
:104E4E000B69136904690C691469080E246F180E36
:104E5E000201116F0F0E696F050E3E6F1A0E126F63
:104E6E000B0E3D6F460E0D6F1200000EF2EC1DF094
:104E7E004A6E4A5005016E6F6F6B010EF2EC1DF01B
:104E8E004A6E4A5005016C6F6D6B020EF2EC1DF00E
:104E9E004A6E4A5005016A6F6B6B030EF2EC1DF001
:104EAE004A6E4A500501686F696B040EF2EC1DF0F4
:104EBE004A6E4A500501666F676B050EF2EC1DF0E7
:104ECE004A6E4A500501646F656B12000101018F35
:104EDE00040E81EC25F00009D8A478EF27F07AEFC4
:104EEE0027F09AEF27F0000E01014C6F260E4D6F42
:104EFE00000E4E6F000E4F6F600E006F970E016F1B
:104F0E00100E026F82EC2AF078EC2AF087EC29F072
:104F1E00FBEC29F0FEEC28F017EC26F0060E81ECE7
:104F2E0025F0C79ABF9A12000501FB6FB2EF27F06A
:104F3E004FEC2BF0C8EF27F04DEC2BF0000E0501D7
:104F4E00F06F320EEF6F000EF26F640EF16F48ECE1
:104F5E0024F0C8EF27F00501FB51F96FFA6BFA51F7
:104F6E00000AD8B4BDEF27F0C8EF27F0F951000AB8
:104F7E00D8B49FEF27F0010AD8B4A3EF27F0C8EFFB
:104F8E0027F0120003C509F504C50AF501C507F59A
:104F9E0002C508F5E8EF27F0610024F4D9F46100AA
:104FAE0028F4DAF4DF500B6E094A0A2A61001CF469
:104FBE00D9F4610020F4DAF461002CF4DFF4074A2E
:104FCE00082A0506D8A00606052806E10628D8A454
:104FDE00F3EF27F0F5EF27F0D3EF27F01200A60E30
:104FEE00F66E560EF76E000EF86E09006100D4F3E1
:104FFE00FEF509006100D4F3FFF501EE1AF2100E72
:10500E00EE6AE806FDE101EE60F1590EEE6AE80681
:10501E00FDE101EE4FF10F0EEE6AE806FDE104012F
:10502E00080E5D6F000E5E6F000E5F6F0001EAEFFF
:10503E0029F0000E03011F6F000E206F010E216F6D
:10504E00850E1D6FEE0E1C6FB1981C51600074FC26
:10505E00BBF50501BC6BBBC5BCF5BB6BBB11FC6FD7
:10506E00BC51FD6FA188AC0EB96F560EBA6FB9EC7C
:10507E002AF0310E03011E6F12003CEC27F0600E79
:10508E001D6E030E1E6E000E1F6E000E206E080E9D
:10509E00216E6EC522F56CC523F56AC524F568C56B
:1050AE0025F566C526F564C527F562C528F560C5E4
:1050BE0029F5F3EC22F01200026E000E016E040EC2
:1050CE0002606CEF28F06EEF28F080EF28F00250AF
:1050DE000C0D500EF324D96E010EF420DA6E010180
:1050EE00DFAE7CEF28F07EEF28F080EF28F0010E87
:1050FE00016E0150120049EC2BF0B0EC29F0DFEC00
:10510E001CF003EC27F028EC2AF0E6EC28F04CEC2F
:10511E002AF020EC28F09CEC29F08FEC26F06DECB8
:10512E0027F0C9EC26F01200B4EC28F00601185155
:10513E001911D8B4A5EF28F0A7EF28F0B3EF28F097
:10514E0002D8B3EF28F00500FA6E1851FD6E195112
:10515E00FE6EFF6AFA5012001200000ECEBA010E59
:10516E00546E5404D8A4BEEF28F0C0EF28F0CCEF54
:10517E0028F0000EF2EC1DF00501986F010EF2EC16
:10518E001DF00501976F4FC599F51200056E610070
:10519E0014F4ECF30301F38FF39DF381F3B1DAEF23
:1051AE0028F0DCEF28F0D5EF28F0EB51046E036AFF
:1051BE00EA510324016E000E0420026E1200010E4D
:1051CE000301266F000E256F000E276FC20E236F90
:1051DE00000E226FB196A186A80E0501B96F560E6C
:1051EE00BA6FB4EC2AF0F00E0301246F1200000E19
:1051FE000501B96FB951020DFF0EF324D96E050EDC
:10520E00F420DA6E000EDF6EB92BB951D8B412EF5E
:10521E0029F014EF29F001EF29F0120006010251D6
:10522E000311D8B41DEF29F01FEF29F02BEF29F051
:10523E0002D82BEF29F00500FA6E0251FD6E0351D4
:10524E00FE6EFF6AFA501200120003011EA532EF25
:10525E0029F034EF29F03DEF29F01E9102501D6F19
:10526E00610004F41CF31E8142EF29F002501D6F01
:10527E00610004F41CF31200060104510511D8B4A8
:10528E004BEF29F04DEF29F059EF29F002D859EFE5
:10529E0029F00500FA6E0451FD6E0551FE6EFF6A8F
:1052AE00FA5012001200060100510111D8B462EF3B
:1052BE0029F064EF29F070EF29F002D870EF29F091
:1052CE000500FA6E0051FD6E0151FE6EFF6AFA5036
:1052DE00120012000501C051C2036100CCF3C4F5E7
:1052EE006100D0F3C5F5C051C303F350C527C151BA
:1052FE00C203F350C527C4C5C0F5C5C5C1F512001C
:10530E00190E01015C6F040E5D6F600E5E6F050E6F
:10531E005F6F000E0501B96F000EBA6FE6EC2AF052
:10532E0001011E83B298A2881200440E03011B6F66
:10533E009B0E196F000E186FB19EA18EB60E050151
:10534E00B96F560EBA6FBEEC2AF0800E03011A6FBB
:10535E001200000E0001606F000E616F000E626F92
:10536E00000E636F000E646F000E656F000E666FA9
:10537E00000E676F000E686F1200046E000E036E53
:10538E00045063EC28F00009D8B4D0EF29F0D2EF26
:10539E0029F0D6EF29F0045040EC2AF0036E0350AA
:1053AE001200BEB8DDEF29F0E0EF29F0010EE1EFBB
:1053BE0029F0000EFF0A016E013ABE500118EF0BE4
:1053CE000118BE6E120082EC28F0D68E0CEC2AF07C
:1053DE00BF8A43EC2BF0A8EC2AF034EC2AF000F054
:1053EE00F6EF29F00DEF00F05F0E0101946F956955
:1053FE0096699769000E986F000E996F000E9A6F5E
:10540E00000E9B6F810E816F1200040100810083DC
:10541E00108F108D10871089C698C790C794C792A9
:10542E00C79AC884C89A120062EC2AF00009D8B450
:10543E0023EF2AF026EF2AF0010E27EF2AF0000EB6
:10544E001200700E0001AD6F000EAF6F000EB36F45
:10545E00020EB16F000EB06F1200000E0501F06F5C
:10546E00000EEF6F000EF26F320EF16FDAEC23F0DA
:10547E001200016E01500C0D540EF324D96E010E64
:10548E00F420DA6EDF50010B1200AF90D680B80E0A
:10549E000501B96F560EBA6FE1EC2AF09F8012002B
:1054AE00010136B55DEF2AF060EF2AF0010E61EFD3
:1054BE002AF0000E1200010136B968EF2AF06BEFE8
:1054CE002AF0010E6CEF2AF0000E1200010136BB1D
:1054DE0073EF2AF076EF2AF0010E77EF2AF0000E26
:1054EE001200100E0101506F040E516F610E526FBB
:1054FE00050E536F1200010E0101046F010E056FB0
:10550E00060E066F000E076F12006100E4F663F4DC
:10551E000501BA51646E12006100E4F66BF40501E8
:10552E00BA516C6E12006100E4F672F40501BA51C4
:10553E00736E12006100E4F67AF40501BA517B6EC7
:10554E001200BF84BF82010E9BEC27F01200B196B1
:10555E0015EC29F055EC2BF01200B9C502F6BAC5C0
:10556E0003F61200B9C504F6BAC505F61200B9C5A0
:10557E0000F6BAC501F61200B9C508F6BAC509F6A5
:10558E001200B9C50AF6BAC50BF61200B9C506F671
:10559E00BAC507F61200B9C590F5BAC591F5120055
:1055AE00B9C592F5BAC593F51200B9C58EF5BAC54F
:1055BE008FF51200B9C518F6BAC519F61200B9C59D
:1055CE008CF5BAC58DF5120001010239E832070BD0
:1055DE001200B9C580F5BAC581F51200B9C582F5BC
:1055EE00BAC583F51200B9C57EF5BAC57FF51200AE
:1055FE00B9C584F5BAC585F51200B9C58AF5BAC51F
:10560E008BF51200B9C588F5BAC589F51200B9C572
:10561E0086F5BAC587F51200B9C50EF6BAC50FF6EE
:10562E001200B9C510F6BAC511F61200B9C512F6B8
:10563E00BAC513F61200B9C514F6BAC515F612009E
:10564E00B9C50CF6BAC50DF61200B9C516F6BAC52F
:10565E0017F6120001010239E832070B1200016E33
:10566E00610004F4FBF31200B19E5AEC29F0120013
:10567E00AF909BEC28F0120003011A9F1200030159
:10568E00F39B1200D69A120069841200788E1200D3
:10569E00789E12007884120001001200120012008F
:1056AE00120012001200120012001200120012005C
:0A56BE001200120012001200120088
:020000040020DA
:10000000FF0FFF0FFF0FFF0FFF0FFF0FFF0FFF0F80
:10001000FF0FFF0FFF0FFF0FFF0FFF0FFF0FFF0F70
:020000040030CA
:10000000FAEFF7DF9FFFFFFFFFFFFFFFFFFFFFFF9D
:10001000FFFFFFFFFFFFFFFFFFFFFFFFFFFFFFFFF0
:04002000FFFFFFFFE0
:00000001FF
