:040000000DEF00F010
:04000800FDEF21F0F7
:06001800FF00C6EF26F018
:0D2600000000010203040506070850010058
:10260E000501D751800BE06FD751D725E26FD6AFBA
:10261E0013EF13F015EF13F016EF13F0E281E25102
:10262E00D8B41CEF13F01EEF13F033EF13F0E229C2
:10263E00D8A424EF13F026EF13F02EEF13F0000EB4
:10264E00D46F000ED56F000ED66F000ED76FD68FDB
:10265E00000ED76F3BEF13F0000ED46F000ED56F48
:10266E00000ED66F000ED76FDB51800BE16FE0517D
:10267E00E119D8B445EF13F047EF13F048EF13F01C
:10268E00E08DDB51DB25E16FDAAF50EF13F052EF47
:10269E0013F053EF13F0E181E151D8B459EF13F079
:1026AE005BEF13F070EF13F0E129D8A461EF13F094
:1026BE0063EF13F06BEF13F0000ED86F000ED96FAF
:1026CE00000EDA6F000EDB6FDA8F000EDB6F78EF25
:1026DE0013F0000ED86F000ED96F000EDA6F000ED9
:1026EE00DB6FE251E15DD8B07FEF13F081EF13F0B5
:1026FE00A8EF13F0E0AD86EF13F088EF13F08AEF3A
:10270E0013F0800EE01BE2C5E3F5E1C5E2F5E3C58B
:10271E00E1F5D4C5E3F5D8C5D4F5E3C5D8F5D5C5EF
:10272E00E3F5D9C5D5F5E3C5D9F5D6C5E3F5DAC5D3
:10273E00D6F5E3C5DAF5D7C5E3F5DBC5D7F5E3C5C1
:10274E00DBF5000EE36FE251E1C5DCF5DD6BDC5F1E
:10275E00000EDD5BDDBFBDEF13F0DD5109E11A0E9A
:10276E00DC5DD8A0BDEF13F0BFEF13F0F6EF13F062
:10277E00D451D511D611D711D8A4C8EF13F0CBEF81
:10278E0013F0010ECCEF13F0000EE36F000ED46FBA
:10279E00000ED56F000ED66F000ED76FE1C5E2F5B5
:1027AE00FFEF13F0E3A1DEEF13F0E0EF13F0E6EF2F
:1027BE0013F0D890E3310109E36FE8EF13F0D890EE
:1027CE00E333D4A1EDEF13F0EFEF13F0F0EF13F0CE
:1027DE00E38FD735D733D633D533D433E22BE1510C
:1027EE00E25DD8A0FDEF13F0FFEF13F0D9EF13F079
:1027FE00E0BD04EF14F006EF14F046EF14F0E251D2
:10280E00D8A40CEF14F00EEF14F018EF14F0000E25
:10281E00D46F000ED56F000ED66F000ED76F67EF18
:10282E0015F0D851D427D951D523DA51D623DB51FF
:10283E00D723D7A125EF14F027EF14F0D3EF14F020
:10284E00E3A12CEF14F02EEF14F034EF14F0D89027
:10285E00E3310109E36F36EF14F0D890E333D4A1DE
:10286E003BEF14F03DEF14F03EEF14F0E38FD7354D
:10287E00D733D633D533D433E22BD3EF14F0D8512C
:10288E00D45DD951D559DA51D659D751800ADC6F5A
:10289E00DB51800ADC59D8B057EF14F059EF14F021
:1028AE0084EF14F0D451D85DDC6FD551D959DD6F5A
:1028BE00D651DA59DE6FD751DB59DF6FFF0EDC25AB
:1028CE00D46FFF0EDD21D56FFF0EDE21D66FFF0E0A
:1028DE00DF21D76F800EE01BE36DE351D8A47AEFB2
:1028EE0014F07CEF14F08CEF14F0010ED427000ED0
:1028FE00D523D623D7238CEF14F0D851D45FD951DA
:10290E00D55BDA51D65BDB51D75BD451D511D611DD
:10291E00D711D8A495EF14F097EF14F0CCEF14F074
:10292E00E351D8A49DEF14F09FEF14F0CCEF14F008
:10293E00000ED46F000ED56F000ED66F000ED76F3F
:10294E0067EF15F0D890D437D537D637D737E3AFF2
:10295E00B3EF14F0B5EF14F0B6EF14F0D481E3A199
:10296E00BBEF14F0BDEF14F0C1EF14F0D880E337D5
:10297E00C3EF14F0D890E337E251D8B4C9EF14F096
:10298E00CBEF14F0CCEF14F0E207D6AFD1EF14F08A
:10299E00D3EF14F0A9EF14F0000EE16FE3AFDAEF0E
:1029AE0014F0DCEF14F0F4EF14F0E3C5DCF57F0E59
:1029BE00DC17D8B4E5EF14F0E7EF14F0EBEF14F0FA
:1029CE00010EE16FF4EF14F0D4A1F0EF14F0F2EF7A
:1029DE0014F0F4EF14F0E7EF14F0E151D8B4FAEF7D
:1029EE0014F0FCEF14F027EF15F0010ED427000EB3
:1029FE00D523D623D723D7A107EF15F009EF15F06E
:102A0E0027EF15F0D4C5DCF5D5C5DDF5D6C5DEF559
:102A1E00D7C5DFF5DF35DF33DE33DD33DC33DCC541
:102A2E00D4F5DDC5D5F5DEC5D6F5DFC5D7F5E2297A
:102A3E00D8B424EF15F026EF15F027EF15F0E22BA2
:102A4E00E229D8B42DEF15F02FEF15F037EF15F072
:102A5E00E251D8A435EF15F037EF15F049EF15F028
:102A6E00000ED46F000ED56F000ED66F000ED76F0E
:102A7E00E251D8A445EF15F047EF15F049EF15F0E8
:102A8E00000EE06FE2A14EEF15F050EF15F053EF90
:102A9E0015F0D68F54EF15F0D69FD890E231D76F40
:102AAE00E0AF5CEF15F05EEF15F05FEF15F0D78F2E
:102ABE00D4C5D4F5D5C5D5F5D6C5D6F5D7C5D7F574
:102ACE0012002B50800B346E2B502B24366E2AAEF8
:102ADE0073EF15F075EF15F076EF15F03680365072
:102AEE00D8B47CEF15F07EEF15F093EF15F0362885
:102AFE00D8A484EF15F086EF15F08EEF15F0000ECA
:102B0E00286E000E296E000E2A6E000E2B6E2A8E77
:102B1E00000E2B6E9BEF15F0000E286E000E296E28
:102B2E00000E2A6E000E2B6E2F50800B356E345019
:102B3E003518D8B4A5EF15F0A7EF15F0A8EF15F0DE
:102B4E00348C2F502F24356E2EAEB0EF15F0B2EF21
:102B5E0015F0B3EF15F035803550D8B4B9EF15F048
:102B6E00BBEF15F0D0EF15F03528D8A4C1EF15F056
:102B7E00C3EF15F0CBEF15F0000E2C6E000E2D6E80
:102B8E00000E2E6E000E2F6E2E8E000E2F6ED8EFB4
:102B9E0015F0000E2C6E000E2D6E000E2E6E000E19
:102BAE002F6E3650355CD8B0DFEF15F0E1EF15F033
:102BBE0008EF16F034ACE6EF15F0E8EF15F0EAEF9B
:102BCE0015F0800E341A36C537F535C536F537C5CE
:102BDE0035F528C537F52CC528F537C52CF529C58B
:102BEE0037F52DC529F537C52DF52AC537F52EC56F
:102BFE002AF537C52EF52BC537F52FC52BF537C55D
:102C0E002FF5000E376E365035C530F5316A305E11
:102C1E00000E315A31BE1DEF16F0315009E11A0E79
:102C2E00305CD8A01DEF16F01FEF16F056EF16F021
:102C3E00285029102A102B10D8A428EF16F02BEFAD
:102C4E0016F0010E2CEF16F0000E376E000E286EE9
:102C5E00000E296E000E2A6E000E2B6E35C536F54F
:102C6E005FEF16F037A03EEF16F040EF16F046EF8E
:102C7E0016F0D89037300109376E48EF16F0D8901D
:102C8E00373228A04DEF16F04FEF16F050EF16F03A
:102C9E00378E2B342B322A3229322832362A3550AF
:102CAE00365CD8A05DEF16F05FEF16F039EF16F038
:102CBE0034BC64EF16F066EF16F0A6EF16F0365041
:102CCE00D8A46CEF16F06EEF16F078EF16F0000E3B
:102CDE00286E000E296E000E2A6E000E2B6EC7EFA8
:102CEE0017F02C5028262D5029222E502A222F50F4
:102CFE002B222BA085EF16F087EF16F033EF17F08F
:102D0E0037A08CEF16F08EEF16F094EF16F0D890E9
:102D1E0037300109376E96EF16F0D890373228A06B
:102D2E009BEF16F09DEF16F09EEF16F0378E2B34BC
:102D3E002B322A3229322832362A33EF17F02C5012
:102D4E00285C2D5029582E502A582B50800A306E50
:102D5E002F50800A3058D8B0B7EF16F0B9EF16F0F2
:102D6E00E4EF16F028502C5C306E29502D58316E41
:102D7E002A502E58326E2B502F58336EFF0E3024A1
:102D8E00286EFF0E3120296EFF0E32202A6EFF0EA6
:102D9E0033202B6E800E341A376C3750D8A4DAEFEE
:102DAE0016F0DCEF16F0ECEF16F0010E2826000EF2
:102DBE0029222A222B22ECEF16F02C50285E2D50C1
:102DCE00295A2E502A5A2F502B5A285029102A1081
:102DDE002B10D8A4F5EF16F0F7EF16F02CEF17F036
:102DEE003750D8A4FDEF16F0FFEF16F02CEF17F0CA
:102DFE00000E286E000E296E000E2A6E000E2B6E2F
:102E0E00C7EF17F0D890283629362A362B3637AE2C
:102E1E0013EF17F015EF17F016EF17F0288037A005
:102E2E001BEF17F01DEF17F021EF17F0D880373694
:102E3E0023EF17F0D89037363650D8B429EF17F065
:102E4E002BEF17F02CEF17F036062AAE31EF17F0F6
:102E5E0033EF17F009EF17F0000E356E37AE3AEF7D
:102E6E0017F03CEF17F054EF17F037C530F57F0E23
:102E7E003016D8B445EF17F047EF17F04BEF17F0B9
:102E8E00010E356E54EF17F028A050EF17F052EFE9
:102E9E0017F054EF17F047EF17F03550D8B45AEF3C
:102EAE0017F05CEF17F087EF17F0010E2826000ED3
:102EBE0029222A222B222BA067EF17F069EF17F099
:102ECE0087EF17F028C530F529C531F52AC532F53B
:102EDE002BC533F53334333232323132303230C5E2
:102EEE0028F531C529F532C52AF533C52BF5362817
:102EFE00D8B484EF17F086EF17F087EF17F0362A65
:102F0E003628D8B48DEF17F08FEF17F097EF17F034
:102F1E003650D8A495EF17F097EF17F0A9EF17F0EA
:102F2E00000E286E000E296E000E2A6E000E2B6EFD
:102F3E003650D8A4A5EF17F0A7EF17F0A9EF17F0AA
:102F4E00000E346E36A0AEEF17F0B0EF17F0B3EF01
:102F5E0017F02A8EB4EF17F02A9ED89036302B6ECB
:102F6E0034AEBCEF17F0BEEF17F0BFEF17F02B8E9D
:102F7E0028C528F529C529F52AC52AF52BC52BF50F
:102F8E0012001250800B1B6E12501224216E11AEC5
:102F9E00D3EF17F0D5EF17F0D6EF17F021802150B1
:102FAE00D8B4DCEF17F0DEEF17F0F1EF17F02128B1
:102FBE00D8A4E4EF17F0E6EF17F0EEEF17F0000EDF
:102FCE000F6E000E106E000E116E000E126E118E30
:102FDE00F9EF17F0000E0F6E000E106E000E116E50
:102FEE00000E126E1650800B1B1A16501624206EF1
:102FFE0015AE04EF18F006EF18F007EF18F020806A
:10300E002050D8B40DEF18F00FEF18F022EF18F093
:10301E002028D8A415EF18F017EF18F01FEF18F0AE
:10302E00000E136E000E146E000E156E000E166E50
:10303E00158E2AEF18F0000E136E000E146E000E91
:10304E00156E000E166E2050D8B430EF18F032EF19
:10305E0018F03AEF18F02150D8A438EF18F03AEFE4
:10306E0018F044EF18F0000E0F6E000E106E000EEA
:10307E00116E000E126EEEEF19F015500F02610078
:10308E00CCF326F56100D0F327F526501C6E1D6A91
:10309E001E6A1F6A2750226E236A246A256A1450FC
:1030AE0010026100CCF326F56100D0F327F526500F
:1030BE001C26000E1D221E221F2227502226000E25
:1030CE00232224222522135011026100CCF326F56F
:1030DE006100D0F327F526501C26000E1D221E225D
:1030EE001F2227502226000E2322242225221EC50F
:1030FE001FF51DC51EF51CC51DF51C6A13501002CB
:10310E006100CCF326F56100D0F327F526501C267E
:10311E0027501D22000E1E22000E1F2214500F02D9
:10312E006100CCF326F56100D0F327F526501C265E
:10313E0027501D22000E1E22000E1F221EC51FF537
:10314E001DC51EF51CC51DF51C6A13500F0261002E
:10315E00CCF326F56100D0F327F526501C26275018
:10316E001D22000E1E22000E1F221550100261009D
:10317E00CCF326F56100D0F327F5265022262750F2
:10318E002322000E2422000E25221450110261006B
:10319E00CCF326F56100D0F327F5265022262750D2
:1031AE002322000E2422000E25221550110261004A
:1031BE00CCF326F56100D0F327F52650176E275075
:1031CE00186E196A1A6A19C51AF518C519F517C5B0
:1031DE0018F5176A17502226185023221950242248
:1031EE001A5025221CC517F51DC518F51EC519F553
:1031FE001FC51AF5190E09EF19F0D8901A321932A7
:10320E0018321732E82E04EF19F0175022261850F4
:10321E002322195024221A5025221EC51FF51DC522
:10322E001EF51CC51DF51C6A205021C517F5186A20
:10323E001726000E1822820E1724266EFF0E182057
:10324E00276E3FEF19F0D8902236233624362536D6
:10325E001FAE34EF19F036EF19F037EF19F0228068
:10326E00D8901C361D361E361F362606D8A02706C9
:10327E0024AE44EF19F046EF19F02AEF19F0000EC4
:10328E00206E1FAE4DEF19F04FEF19F073EF19F0DE
:10329E00FF0E1C14176EFF0E1D14186EFF0E1E145B
:1032AE00196E7F0E1F141A6E1750181019101A105F
:1032BE00D8B464EF19F066EF19F06AEF19F0010E49
:1032CE00206E73EF19F022A06FEF19F071EF19F065
:1032DE0073EF19F066EF19F02050D8B479EF19F0AA
:1032EE007BEF19F09FEF19F0010E2226000E23221C
:1032FE002422252225A086EF19F088EF19F09FEFE2
:10330E0019F022C517F523C518F524C519F525C5DD
:10331E001AF51A341A3219321832173217C522F525
:10332E0018C523F519C524F51AC525F5264A272AE9
:10333E0027BEAAEF19F0275008E12628D8A0AAEF39
:10334E0019F0ACEF19F0B6EF19F0000E226E000E68
:10335E00236E800E246E7F0E256EE4EF19F027BECD
:10336E00C3EF19F0275006E12604D8B0C1EF19F0CB
:10337E00C3EF19F0CFEF19F0000E226E000E236E80
:10338E00000E246E000E256E000E1B6EE4EF19F07B
:10339E0026C521F5FF0E2216FF0E23167F0E2416CC
:1033AE00000E251621A0DEEF19F0E0EF19F0E1EF87
:1033BE0019F0248ED8902130256E1B50251222C56F
:1033CE000FF523C510F524C511F525C512F512000C
:1033DE00446E53EF1AF02BEC2AF0000E1BEC2AF081
:1033EE00000E9DEC27F001C546F502C547F5010E0E
:1033FE00486E78EF1AF02BEC2AF0010E1BEC2AF037
:10340E00010E9DEC27F001C546F502C547F5FEEF0E
:10341E0019F02BEC2AF0020E1BEC2AF0170E9DEC85
:10342E0027F001C546F502C547F5020E486E78EF46
:10343E001AF02BEC2AF0020E1BEC2AF0160E9DEC65
:10344E0027F001C546F502C547F51CEF1AF0D0B6B8
:10345E0033EF1AF037EF1AF0426A422A38EF1AF0B9
:10346E00426A4250466E476A020E486E78EF1AF074
:10347E00D0B844EF1AF048EF1AF0426A422A49EFE8
:10348E001AF0426A4250466E476A020E486E78EF54
:10349E001AF0486878EF1AF04450426E436A43506F
:1034AE00000AD8B45DEF1AF050EF1AF04250000A3D
:1034BE00D8B4F2EF19F0010AD8B402EF1AF0030AE9
:1034CE00D8B410EF1AF0010AD8B420EF1AF0070A98
:1034DE00D8B42EEF1AF0010AD8B43FEF1AF050EF1D
:1034EE001AF04804D8A47EEF1AF080EF1AF0FDEF20
:1034FE001AF06F0E2C6E810E2D6EA80E2E6EC00E53
:10350E002F6EB30E136E7B0E146E920E156E3F0E53
:10351E00166E46C501F547C502F5036A046A000E2C
:10352E0076EC1EF001C50FF502C510F503C511F5B9
:10353E0004C512F5C8EC17F00FC528F510C529F50E
:10354E0011C52AF512C52BF568EC15F028C538F50E
:10355E0029C539F52AC53AF52BC53BF506EC21F000
:10356E0038C549F539C54AF5890E495C130E4A58D6
:10357E00D8A0C4EF1AF0C6EF1AF0C8EF1AF063EF36
:10358E001BF049C501F54AC502F5000E046E050E85
:10359E00036E99EC25F001C54BF502C54CF59C0E5A
:1035AE004B244B6EFF0E4C204C6E4BC501F54CC59B
:1035BE0002F5000E046E0A0E036E6CEC28F001C5C7
:1035CE004BF502C54CF54BC501F54CC502F5000E89
:1035DE00046EE80E036E99EC25F001C54BF502C59D
:1035EE004CF54BC545F5455063EF1BF0020E4818E0
:1035FE00D8A404EF1BF006EF1BF063EF1BF06F0E69
:10360E002C6E810E2D6EA80E2E6EC00E2F6EB30E6A
:10361E00136E7B0E146E920E156E3F0E166E46C511
:10362E0001F547C502F5036A046A000E76EC1EF03A
:10363E0001C50FF502C510F503C511F504C512F548
:10364E00C8EC17F00FC528F510C529F511C52AF5D8
:10365E0012C52BF568EC15F028C538F529C539F5D6
:10366E002AC53AF52BC53BF506EC21F038C549F5D0
:10367E0039C54AF5890E495C130E4A58D8A04AEF4F
:10368E001BF04CEF1BF04EEF1BF063EF1BF0D890CE
:10369E0049344B6E4A344C6E4BC501F54CC502F5A0
:1036AE00000E046E640E036E99EC25F001C54BF509
:1036BE0002C54CF5F8EF1AF01200610038F4D9F497
:1036CE0061003CF4DAF4610078F313F5610078F3ED
:1036DE0014F5610078F315F5610078F316F520EE18
:1036EE0004F00E50D9260F50DA22DFA081EF1BF026
:1036FE0083EF1BF0BDEF1BF020EE01F00C50D9262E
:10370E000D50DA221338E842F80BF80BDF6E050E77
:10371E00106ED8901632153214321332102E90EFDE
:10372E001BF020EE02F00C50D9260D50DA2261006B
:10373E004CF4DFF414C513F515C514F516C515F5BF
:10374E00166A20EE03F00C50D9260D50DA221350D3
:10375E001F0BDF6E050E106ED89016321532143216
:10376E001332102EB3EF1BF0D5EF1BF020EE03F04B
:10377E000C50D9260D50DA22000EDF6E10EE02F03C
:10378E000C50E1260D50E222DFC4E7F420EE01F0EA
:10379E000C50D9260D50DA22E7C4DFF4610030F464
:1037AE00D9F4610034F4DAF461004CF4DFF414C59A
:1037BE0013F515C514F516C515F5166A13C510F5CE
:1037CE00070E101620EE01F00C50D9260D50DA22FD
:1037DE001050DF1220EE04F00E50D9260F50DA22D0
:1037EE00DF30E8320F0B126E20EE04F00E50D926A9
:1037FE000F50DA22DFB006EF1CF00AEF1CF0106A51
:10380E00102A0BEF1CF0106A1038F00B121220EE7B
:10381E0004F00E50D9260F50DA22DFB219EF1CF049
:10382E001DEF1CF0200E106E1EEF1CF0106A1050D3
:10383E00121220EE04F00E50D9260F50DA22DFBEFF
:10384E002BEF1CF02FEF1CF0400E106E30EF1CF023
:10385E00106A1050121220EE04F00E50D9260F509E
:10386E00DA22DFBC3DEF1CF041EF1CF0800E106E33
:10387E0042EF1CF0106A1050121220EE04F00C50A1
:10388E00D9260D50DA22610048F4DFF420EE04F060
:10389E000E50D9260F50DA22DFB258EF1CF05AEF35
:1038AE001CF086EF1CF0080E0C24016E000E0D208D
:1038BE00026E20EE05F00E50D9260F50DA2261006E
:1038CE0078F303F5610074F304F520EE04F00E5066
:1038DE00D9260F50DA22DF30E8320F0B106E116A44
:1038EE00010E1024F66E260E1120F76EF86A000EE9
:1038FE00F8220800F550056E066A99EC26F01200C3
:10390E00040E0301F96F000EFA6F000ED86F000E51
:10391E00FB6F000ED96F000EDA6F000EDB6F000E1C
:10392E00DC6F000EDF6F000EE06F000EE36F000E17
:10393E00E46F000EE56F000EE66F000EE76F000EEF
:10394E00EA6F000EEB6F000EEC6F000EEE6F000EC6
:10395E00EF6F000EF06F000EF16F000EF26F000EA3
:10396E00F36F000EF46F100EF56F000EF66F000E73
:10397E00F76F120EF86F000EFC6F010EFB6F000E4C
:10398E00D96F000EDA6F000EDB6F000EDC6F000ECB
:10399E00DF6F000EE06F000EE36F000EE46F000E9F
:1039AE00E56F000EE66F000EE76F000EEA6F000E79
:1039BE00EB6F010EEC6F000EEE6F000EEF6F000E50
:1039CE00F06F000EF16F000EF26F000EF36F000E2F
:1039DE00F46F100EF56F000EF66F000EF76F000EFF
:1039EE00F86F000EFD6F020EFB6F000ED96F000E0A
:1039FE00DA6F000EDB6F000EDC6F000EDF6F000E55
:103A0E00E06F000EE36F000EE46F000EE56F000E28
:103A1E00E66F000EE76F000EEA6F000EEB6F160EEC
:103A2E00EC6F000EEE6F000EEF6F000EF06F000EDB
:103A3E00F16F000EF26F000EF36F000EF46F100EAA
:103A4E00F56F000EF66F000EF76F000EF86F000E9A
:103A5E00FE6F030EFB6F000ED96F000EDA6F000EB5
:103A6E00DB6F000EDC6F000EDF6F000EE06F000EDE
:103A7E00E36F000EE46F000EE56F000EE66F000EB2
:103A8E00E76F000EEA6F000EEB6F170EEC6F000E75
:103A9E00EE6F000EEF6F000EF06F000EF16F000E66
:103AAE00F26F000EF36F000EF46F100EF56F000E36
:103ABE00F66F000EF76F000EF86F000EFF6FAF94EB
:103ACE00AF96B090B092B094B096000E0501B86F5C
:103ADE00000EB96F11EC2AF0000E0501B86F000E42
:103AEE00B96F07EC2AF0000E0501B86F000EB96F22
:103AFE0002EC2AF0000E0501B86F000EB96FFDEC56
:103B0E0029F0000E0501B86F000EB96FF8EC29F020
:103B1E00000E0501B86F000EB96F0CEC2AF0840E82
:103B2E000301F36F12000501CE6F0501CE51D8B41B
:103B3E00A3EF1DF0A5EF1DF0C7EF1DF0C9BFACEF51
:103B4E001DF0AAEF1DF0C7EF1DF0C6C5CAF5C7C51B
:103B5E00CBF5C8C5CCF5C9C5CDF5CA1FCB1FCC1F3B
:103B6E00CD1FCA2B000ECB23CC23CD23CAC5D0F537
:103B7E00CBC5D1F5CCC5D2F5CDC5D3F5CFEF1DF064
:103B8E00C6C5D0F5C7C5D1F5C8C5D2F5C9C5D3F5DB
:103B9E00C651C711C811C911D8A4D8EF1DF0DAEF5C
:103BAE001DF0E4EF1DF0000EC66F000EC76F000E85
:103BBE00C86F000EC96F75EF1EF0960ECF6FEEEF49
:103BCE001DF0CF2BD890D333D233D133D033000E58
:103BDE00D015CA6F000ED115CB6F000ED215CC6F5B
:103BEE00FE0ED315CD6FCA51CB11CC11CD11D8A469
:103BFE0003EF1EF005EF1EF0E8EF1DF013EF1EF0C1
:103C0E00CF2B010ED027000ED123D223D323D89051
:103C1E00D333D233D133D033000ED015CA6F000E4A
:103C2E00D115CB6F000ED215CC6FFF0ED315CD6F05
:103C3E00CA51CB11CC11CD11D8A428EF1EF02AEF0A
:103C4E001EF007EF1EF032EF1EF0CF07D890D037E0
:103C5E00D137D237D337D2BF37EF1EF039EF1EF040
:103C6E0041EF1EF0020ECF613FEF1EF041EF1EF04E
:103C7E002CEF1EF0CFB146EF1EF048EF1EF049EFCD
:103C8E001EF0D29FD890CF33CFC5CAF5CB6BCC6B7D
:103C9E00CD6BCAC5CDF5CC6BCB6BCA6BCA51D013ED
:103CAE00CB51D113CC51D213CD51D313CE51D8B455
:103CBE0063EF1EF065EF1EF06DEF1EF0C9BF6CEFE7
:103CCE001EF06AEF1EF06DEF1EF0D38FD0C5C6F555
:103CDE00D1C5C7F5D2C5C8F5D3C5C9F51200096E51
:103CEE000950D8B47DEF1EF07FEF1EF0A1EF1EF04D
:103CFE0004BE86EF1EF084EF1EF0A1EF1EF001C58C
:103D0E0005F502C506F503C507F504C508F5051E3C
:103D1E00061E071E081E052A000E0622072208226E
:103D2E0005C50BF506C50CF507C50DF508C50EF551
:103D3E00A9EF1EF001C50BF502C50CF503C50DF577
:103D4E0004C50EF50150021003100410D8A4B2EFF2
:103D5E001EF0B4EF1EF0BEEF1EF0000E016E000E50
:103D6E00026E000E036E000E046E4FEF1FF0960EE5
:103D7E000A6EC8EF1EF00A2AD8900E320D320C329F
:103D8E000B32000E0B14056E000E0C14066E000E98
:103D9E000D14076EFE0E0E14086E05500610071059
:103DAE000810D8A4DDEF1EF0DFEF1EF0C2EF1EF0FC
:103DBE00EDEF1EF00A2A010E0B26000E0C220D222C
:103DCE000E22D8900E320D320C320B32000E0B1426
:103DDE00056E000E0C14066E000E0D14076EFF0E0F
:103DEE000E14086E0550061007100810D8A402EF26
:103DFE001FF004EF1FF0E1EF1EF00CEF1FF00A06AC
:103E0E00D8900B360C360D360E360DBE11EF1FF058
:103E1E0013EF1FF01BEF1FF0020E0A6019EF1FF0D9
:103E2E001BEF1FF006EF1FF00AB020EF1FF022EF7E
:103E3E001FF023EF1FF00D9ED8900A320AC505F52C
:103E4E00066A076A086A05C508F5076A066A056AFA
:103E5E0005500B1206500C1207500D1208500E1280
:103E6E000950D8B43DEF1FF03FEF1FF047EF1FF0A2
:103E7E0004BE46EF1FF044EF1FF047EF1FF00E8E0B
:103E8E000BC501F50CC502F50DC503F50EC504F500
:103E9E00120001011DAF56EF1FF058EF1FF067EF34
:103EAE001FF002D865EF1FF00500FA6E050186516E
:103EBE00FD6E8751FE6EFF6AFA50120001011D9FC2
:103ECE001DAD6CEF1FF06EEF1FF07DEF1FF002D8EF
:103EDE007BEF1FF00500FA6E05018451FD6E8551D2
:103EEE00FE6EFF6AFA50120001011D9D1DAB82EF9E
:103EFE001FF084EF1FF093EF1FF002D891EF1FF029
:103F0E000500FA6E05018251FD6E8351FE6EFF6A49
:103F1E00FA50120001011D9B1CA798EF1FF09AEF9B
:103F2E001FF0A9EF1FF002D8A7EF1FF00500FA6EE1
:103F3E0005018051FD6E8151FE6EFF6AFA5012002E
:103F4E0001011C971DA9AEEF1FF0B0EF1FF0BFEFE0
:103F5E001FF002D8BDEF1FF00500FA6E05017E516D
:103F6E00FD6E7F51FE6EFF6AFA50120001011D991F
:103F7E001DA5C4EF1FF0C6EF1FF0DCEF1FF002D837
:103F8E00D3EF1FF00500FA6E05017C51FD6E7D51D9
:103F9E00FE6EFF6AFA501200010154A9D9EF1FF00C
:103FAE00DBEF1FF0DCEF1FF054991DA7E1EF1FF0C0
:103FBE00E3EF1FF0F9EF1FF002D8F0EF1FF005004E
:103FCE00FA6E05017A51FD6E7B51FE6EFF6AFA5054
:103FDE001200010160A7F6EF1FF0F8EF1FF0F9EFE6
:103FEE001FF06097AE9C1200000E0501C16FBFBF9F
:103FFE0005EF20F003EF20F00FEF20F0BF1FBE1FE4
:10400E00BD1FBC6D000EBD23BE23BF23010EC16FAD
:10401E00BBBF16EF20F014EF20F020EF20F0BB1FF7
:10402E00BA1FB91FB86D000EB923BA23BB23010EF8
:10403E00C11B000EC26F000EC36F000EC46F000EC8
:10404E00C56FBC51BD11BE11BF11D8B431EF20F0F8
:10405E0033EF20F069EF20F0010EC06F3DEF20F03E
:10406E00D890BC37BD37BE37BF37C02BBFAF42EF7E
:10407E0020F044EF20F037EF20F0D890C237C3374E
:10408E00C437C537BC51B85DBD51B959BE51BA59C7
:10409E00BF51BB59D8A056EF20F058EF20F061EF7A
:1040AE0020F0BC51B85FBD51B95BBE51BA5BBF5178
:1040BE00BB5BC281D890BF33BE33BD33BC33C02F80
:1040CE0044EF20F0C151D8B46FEF20F071EF20F023
:1040DE0079EF20F0C51FC41FC31FC26D000EC3238E
:1040EE00C423C523C2C5B8F5C3C5B9F5C4C5BAF551
:1040FE00C5C5BBF512000501E635E735ED6FED518F
:10410E00D8A48CEF20F08EEF20F098EF20F0000E68
:10411E00E46F000EE56F000EE66F000EE76F05EF21
:10412E0021F0E4C5E8F5E5C5E9F5E6C5EAF5E7C52C
:10413E00EBF5200EA8EF20F0D890EB33EA33E933FD
:10414E00E833E82EA3EF20F0E851EC6FE68FFF0E78
:10415E00E417FF0EE517FF0EE617000EE717960E93
:10416E00ED5FEDBFBFEF20F0BDEF20F0D5EF20F0FB
:10417E00ED51800A970FD8B0C7EF20F0C9EF20F0AD
:10418E00CBEF20F08EEF20F0D890E733E633E53317
:10419E00E433ED3FCBEF20F0EDEF20F01F0EED6599
:1041AE00DBEF20F0DDEF20F0E5EF20F08EEF20F0DA
:1041BE00D890E437E537E637E737ED07ED51D8A469
:1041CE00EBEF20F0EDEF20F0DFEF20F0EC51D8B464
:1041DE00F3EF20F0F5EF20F0FDEF20F0E71FE61FE4
:1041EE00E51FE46D000EE523E623E723E4C5E4F5C1
:1041FE00E5C5E5F5E6C5E6F5E7C5E7F512003A349F
:10420E003B34416E4150D8A40FEF21F011EF21F055
:10421E001BEF21F0000E386E000E396E000E3A6E56
:10422E00000E3B6E88EF21F038C53CF539C53DF5E3
:10423E003AC53EF53BC53FF5200E2BEF21F0D89049
:10424E003F323E323D323C32E82E26EF21F03C50DA
:10425E00406E3A8EFF0E3816FF0E3916FF0E3A16C6
:10426E00000E3B16960E415E41BE42EF21F040EF2E
:10427E0021F058EF21F04150800A970FD8B04AEF45
:10428E0021F04CEF21F04EEF21F011EF21F0D890FC
:10429E003B323A3239323832413E4EEF21F070EF36
:1042AE0021F01F0E41645EEF21F060EF21F068EF08
:1042BE0021F011EF21F0D890383639363A363B36A8
:1042CE0041064150D8A46EEF21F070EF21F062EF5D
:1042DE0021F04050D8B476EF21F078EF21F080EF46
:1042EE0021F03B1E3A1E391E386C000E39223A223E
:1042FE003B2238C538F539C539F53AC53AF53BC5CF
:10430E003BF5120022C51EF623C51FF624C520F666
:10431E0025C521F626C522F627C523F628C524F67F
:10432E0029C525F61DC5B1F51EC5B2F51FC5B3F5D8
:10433E0020C5B4F50501B59DB59FB593B58121C5D1
:10434E002AF50F0E2A162A462A46B5512A18C30BED
:10435E002A18B56F1E0EB66F060EB76F52EC29F007
:10436E00E806D8A4BDEF21F0BFEF21F0C2EF21F097
:10437E0000F0010E5A6E47EC29F0E806D8A4CAEFF9
:10438E0021F0CCEF21F0CFEF21F000F0010E5A6EAC
:10439E003CEC29F0E806D8A4D7EF21F0D9EF21F0B4
:1043AE00DCEF21F000F0010E5A6E00EC29F0E80669
:1043BE00D8A4E4EF21F0E6EF21F0E9EF21F000F0D0
:1043CE00010E5A6E000EA9EC28F02A6E2AA0F2EF0A
:1043DE0021F0F4EF21F0FCEF21F0B10E176E050E77
:1043EE00186E000E63EC24F000F012006100D8F39A
:1043FE004EF56100DCF34FF56100E0F350F561001E
:10440E00D4F351F5A1AE0EEF22F010EF22F01BEF18
:10441E0022F0B1AE15EF22F017EF22F01BEF22F0D3
:10442E0020EC2AF063EF22F09FA020EF22F022EF83
:10443E0022F02DEF22F0AFA027EF22F029EF22F08D
:10444E002DEF22F024EC2AF063EF22F0A1A632EF3A
:10445E0022F034EF22F03FEF22F0B1A639EF22F036
:10446E003BEF22F03FEF22F093EC29F063EF22F0C6
:10447E009EAC44EF22F046EF22F051EF22F0AEACAC
:10448E004BEF22F04DEF22F051EF22F050EC1FF0E7
:10449E0063EF22F0A1A856EF22F058EF22F063EF5F
:1044AE0022F0B1A85DEF22F05FEF22F063EF22F071
:1044BE00B8EC23F063EF22F0610044F5F5F46100EF
:1044CE0040F5F8F461003CF5F7F4610038F5F6F4C8
:1044DE0011006A0E0501D86F4D0ED96F930EDA6F6B
:1044EE00BF0EDB6FF0C5BCF5F1C5BDF5BE6BBF6B86
:1044FE00490EB86F990EB96F000EBA6F000EBB6FF2
:10450E00FBEC1FF0B8C5C6F5B9C5C7F5BAC5C8F5F9
:10451E00BBC5C9F5010E9AEC1DF0C6C5D4F5C7C5CD
:10452E00D5F5C8C5D6F5C9C5D7F507EC13F0D4C572
:10453E00E4F5D5C5E5F5D6C5E6F5D7C5E7F582ECC4
:10454E0020F0E4C5F4F5E5C5F5F5EEC5F2F5EFC5D9
:10455E00F3F50501D890F237F337D890F237F337E9
:10456E00F2C5BFF5F3C5C0F5F0C5BAF5F1C5BBF59B
:10457E00000EB96F640EB86FEAEC24F0B8C5C1F541
:10458E00B9C5C2F541EC28F0BFC5F6F5C0C5F7F5C3
:10459E00F6C5B8F5F7C5B9F578EC29F0F4C5B8F558
:1045AE00F5C5B9F571EC29F030EC2AF012006A0E5F
:1045BE000501D86F4D0ED96F930EDA6FBF0EDB6FFC
:1045CE00F0C5BCF5F1C5BDF5BE6BBF6B490EB86F3E
:1045DE00990EB96F000EBA6F000EBB6FFBEC1FF099
:1045EE00B8C5C6F5B9C5C7F5BAC5C8F5BBC5C9F5D1
:1045FE00010E9AEC1DF0C6C5D4F5C7C5D5F5C8C5D4
:10460E00D6F5C9C5D7F507EC13F0D4C5E4F5D5C575
:10461E00E5F5D6C5E6F5D7C5E7F582EC20F0E4C59D
:10462E00F4F5E5C5F5F5EEC5F2F5EFC5F3F50501C3
:10463E00D890F237F337D890F237F337F2C5BFF58B
:10464E00F3C5C0F5F0C5BAF5F1C5BBF5000EB96FEF
:10465E00640EB86FEAEC24F0B8C5C1F5B9C5C2F561
:10466E0041EC28F0BFC5F6F5C0C5F7F5F6C5B8F5AF
:10467E00F7C5B9F586EC29F0F4C5B8F5F5C5B9F569
:10468E007FEC29F036EC2AF01200076E000E086E51
:10469E0020EE04F00250D9260350DA22DF50096EC4
:1046AE0009AE5CEF23F05EEF23F069EF23F016EC1A
:1046BE002AF0060AD8A466EF23F068EF23F069EF1C
:1046CE0023F008820930E8320F0B046E080E0464E2
:1046DE0073EF23F075EF23F087EF23F009AC7AEF39
:1046EE0023F07CEF23F086EF23F016EC2AF0060A77
:1046FE00D8A484EF23F086EF23F087EF23F0088011
:10470E00090EF66E260EF76EF86A08006100D4F3F5
:10471E0004F50930E8320F0B056E066A010E05240A
:10472E00F66E260E0620F76EF86A000EF8220800C6
:10473E00F550045CD8B0A6EF23F0A8EF23F0A9EF54
:10474E0023F00880075025EC29F00009D8A4B2EF19
:10475E0023F0B4EF23F0B6EF23F0030E0812085047
:10476E001200B198FBC501F5FCC502F5FCEC27F073
:10477E0013EC28F014EC27F05D2A060E5D18D8A471
:10478E00CBEF23F0CDEF23F0D1EF23F0000E5D6ED3
:10479E003CEC2AF05C2A0B0E5C18D8A4D9EF23F05F
:1047AE00DBEF23F0DFEF23F0000E5C6EBDEC28F0A4
:1047BE005B2A650E5B18D8A4E7EF23F0E9EF23F030
:1047CE00EDEF23F0000E5B6E3FEC2AF00501784B07
:1047DE00792B2D0E781906E17905D8A4F9EF23F07F
:1047EE00FBEF23F001EF24F0000E796F000E786FCF
:1047FE003DEC2AF00501764B772B590E761907E121
:10480E00020E7719D8A40EEF24F010EF24F016EF55
:10481E0024F0000E776F000E766F3EEC2AF0120039
:10482E000501BA6F000E0501B96FD0EC29F0050134
:10483E00B86F040EB819D8B427EF24F029EF24F07E
:10484E003AEF24F0BA05D8B42FEF24F031EF24F06C
:10485E003AEF24F0040EBA19D8A438EF24F03AEF48
:10486E0024F05FEF24F0010103510501BA19F80B92
:10487E00BA190101036F51EF24F001011DA94AEF8E
:10488E0024F04CEF24F051EF24F0020E0501B96F25
:10489E0061EF24F00239E832070B0501BA19D8A4EA
:1048AE005BEF24F05DEF24F044EF24F061EF24F091
:1048BE00010EB96FB95112001C6E1C5033EC27F06B
:1048CE000009D8B46DEF24F06FEF24F0ACEF24F0B4
:1048DE0017C502F518C503F51C504CEC23F0196EE4
:1048EE001950D8A47DEF24F07FEF24F0ACEF24F024
:1048FE001C500C0D580EF324D96E010EF420DA6EF6
:10490E00610078F31AF5610074F31BF51A501B1051
:10491E00D8B494EF24F096EF24F0ACEF24F01AC53F
:10492E000CF51BC50DF517C50EF518C50FF564EC86
:10493E001BF01C500C0D510EF324D96E010EF420F9
:10494E00DA6E030EDF12ACEF24F012008C0E0501AE
:10495E00B86F540EB96FE9EC29F08E0E0501B86FE1
:10496E00540EB96FEEEC29F0900E0501B86F540E8F
:10497E00B96FF3EC29F08A0E0501B86F540EB96FBA
:10498E00E4EC29F0860E0501B86F540EB96FDAEC1F
:10499E0029F0840E0501B86F540EB96FD5EC29F0CD
:1049AE00880E0501B86F540EB96FDFEC29F0AE9C7E
:1049BE00000E01011C6F000E1D6F0A0E1E6FFC0E05
:1049CE001F6F9E8C1200000E0501BD6F000EBC6F96
:1049DE00BA51BB11D8B4F6EF24F0F8EF24F020EF63
:1049EE0025F0010EBE6F00EF25F0D890BA37BB3719
:1049FE00BE2BBBAF05EF25F007EF25F0FCEF24F043
:104A0E00D890BC37BD37BA51B85DBB51B959D8A093
:104A1E0013EF25F015EF25F01AEF25F0BA51B85F18
:104A2E00BB51B95BBC81D890BB33BA33BE2F07EFF5
:104A3E0025F0BCC5B8F5BDC5B9F51200000E6F6EF8
:104A4E00020E706E000E716E500E726E0F0E736E41
:104A5E00FE0E746E000E756E000E766E000E776E84
:104A6E00000E796E0D0E7A6E050E7B6EA80E7C6EA4
:104A7E00070E7D6EB39CB39E76907692A39EA39CFA
:104A8E00000E0501B86F000EB96FADEC29F0000EE7
:104A9E000501B86F000EB96FA8EC29F0000E0501E4
:104AAE00B86F000EB96FB2EC29F0800E786E12005E
:104ABE00000E606E020E616E000E626E3D0E636E33
:104ACE00000E646EFE0E656E000E666E000E676E54
:104ADE00000E686E000E6A6E1F0E6B6E000E6C6E10
:104AEE001F0E6D6E000E6E6EB29CB29E6790679238
:104AFE00A29EA29C000E0501B86F000EB96FBCEC11
:104B0E0029F0000E0501B86F000EB96FB7EC29F051
:104B1E00000E0501B86F000EB96FC1EC29F0800EC2
:104B2E00696E1200000E066E000E056E0350041024
:104B3E00D8B4A4EF25F0A6EF25F0CEEF25F0010EA8
:104B4E00076EAEEF25F0D89003360436072A04AE72
:104B5E00B3EF25F0B5EF25F0AAEF25F0D890053686
:104B6E0006360350015C04500258D8A0C1EF25F060
:104B7E00C3EF25F0C8EF25F00350015E0450025A32
:104B8E000580D89004320332072EB5EF25F005C507
:104B9E0001F506C502F51200000EBE6E000EBF6EC8
:104BAE00000EC06E080ECA6EEF0EC66EC80EC76E31
:104BBE00DC0EC86ED80E0401106F400E086FCF0EBB
:104BCE00006F000E216F000E096F000E016F000EB8
:104BDE00116F000E026F000E0A6F000E126F036946
:104BEE000B69136904690C691469080E246F180E99
:104BFE000201116F0F0E696F050E3E6F1A0E126FC6
:104C0E000B0E3D6F460E0D6F1200000EEFEC19F0FD
:104C1E004D6E4D5005016E6F6F6B010EEFEC19F07E
:104C2E004D6E4D5005016C6F6D6B020EEFEC19F071
:104C3E004D6E4D5005016A6F6B6B030EEFEC19F064
:104C4E004D6E4D500501686F696B040EEFEC19F057
:104C5E004D6E4D500501666F676B050EEFEC19F04A
:104C6E004D6E4D500501646F656B12000101018F91
:104C7E00040E17EC24F00009D8A448EF26F04AEFF2
:104C8E0026F06AEF26F0000E01014C6F260E4D6FD6
:104C9E00000E4E6F000E4F6F600E006F970E016F7D
:104CAE00100E026F67EC29F05DEC29F057EC28F03E
:104CBE00E0EC28F0CEEC27F0ADEC24F0060E17EC6D
:104CCE0024F0C79ABF9A12000501FA6F82EF26F000
:104CDE0034EC2AF098EF26F032EC2AF0000E0501A3
:104CEE00EF6F320EEE6F000EF16F640EF06FDEECB2
:104CFE0022F098EF26F00501FA51F86FF96BF95191
:104D0E00000AD8B48DEF26F098EF26F0F851000A7D
:104D1E00D8B46FEF26F0010AD8B473EF26F098EFEF
:104D2E0026F0120003C509F504C50AF501C507F5FD
:104D3E0002C508F5B8EF26F0610024F4D9F461003D
:104D4E0028F4DAF4DF500B6E094A0A2A61001CF4CB
:104D5E00D9F4610020F4DAF461002CF4DFF4074A90
:104D6E00082A0506D8A00606052806E10628D8A4B6
:104D7E00C3EF26F0C5EF26F0A3EF26F01200700E5B
:104D8E00F66E540EF76E000EF86E09006100D4F345
:104D9E00FDF509006100D4F3FEF501EE1AF2140ED2
:104DAE00EE6AE806FDE101EE60F1580EEE6AE806E5
:104DBE00FDE101EE52F10C0EEE6AE806FDE1040192
:104DCE00080E5D6F000E5E6F000E5F6F0001CFEF7D
:104DDE0028F0000E03011F6F000E206F010E216FD1
:104DEE00850E1D6FEE0E1C6FB1981C51600074FC89
:104DFE00BAF50501BB6BBAC5BBF5BA6BBA11FB6F41
:104E0E00BB51FC6FA188760EB86F540EB96F9EEC35
:104E1E0029F0310E03011E6F12000CEC26F0600E0D
:104E2E001D6E030E1E6E000E1F6E000E206E080EFF
:104E3E00216E6EC522F56CC523F56AC524F568C5CD
:104E4E0025F566C526F564C527F562C528F560C546
:104E5E0029F589EC21F01200026E000E016E040E8F
:104E6E0002603CEF27F03EEF27F050EF27F00250A4
:104E7E000C0D500EF324D96E010EF420DA6E0101E2
:104E8E00DFAE4CEF27F04EEF27F050EF27F0010E7C
:104E9E00016E015012002EEC2AF095EC28F087ECF2
:104EAE001CF0D3EC25F00DEC29F0B6EC27F031EC2C
:104EBE0029F0F0EC26F081EC28F025EC25F03DEC05
:104ECE0026F05FEC25F0120084EC27F00601185155
:104EDE001911D8B475EF27F077EF27F083EF27F08D
:104EEE0002D883EF27F00500FA6E1851FD6E1951A6
:104EFE00FE6EFF6AFA5012001200000ECEBA010EBC
:104F0E00576E5704D8A48EEF27F090EF27F09CEF42
:104F1E0027F0000EEFEC19F00501946F010EEFEC87
:104F2E0019F00501936F52C595F51200056E6100DB
:104F3E0014F4ECF30301F38FF39DF381F3B1AAEFB5
:104F4E0027F0ACEF27F0A5EF27F0EB51046E036AC4
:104F5E00EA510324016E000E0420026E1200010EAF
:104F6E000301266F000E256F000E276FC20E236FF2
:104F7E00000E226FB196A186720E0501B86F540E07
:104F8E00B96F99EC29F0F00E0301246F1200000E98
:104F9E000501B86FB851020DFE0EF324D96E050E41
:104FAE00F420DA6E000EDF6EB82BB851D8B4E2EFF3
:104FBE0027F0E4EF27F0D1EF27F01200060102519F
:104FCE000311D8B4EDEF27F0EFEF27F0FBEF27F04A
:104FDE0002D8FBEF27F00500FA6E0251FD6E035169
:104FEE00FE6EFF6AFA501200120003011EA502EFB8
:104FFE0028F004EF28F00DEF28F01E9102501D6FDF
:10500E00610004F41CF31E8112EF28F002501D6F94
:10501E00610004F41CF31200060104510511D8B40A
:10502E001BEF28F01DEF28F029EF28F002D829EF0A
:10503E0028F00500FA6E0451FD6E0551FE6EFF6AF2
:10504E00FA5012001200060100510111D8B432EFCD
:10505E0028F034EF28F040EF28F002D840EF28F087
:10506E000500FA6E0051FD6E0151FE6EFF6AFA5098
:10507E00120012000501BF51C1036100CCF3C3F54C
:10508E006100D0F3C4F5BF51C203F350C427C05121
:10509E00C103F350C427C3C5BFF5C4C5C0F5120084
:1050AE00190E01015C6F040E5D6F600E5E6F050ED2
:1050BE005F6F000E0501B86F000EB96FCBEC29F0D3
:1050CE0001011E83B298A2881200015003026100F2
:1050DE00CCF305F56100D0F306F501500402F35050
:1050EE00062602500302F350062605C501F506C535
:1050FE0002F51200440E03011B6F9B0E196F000E7A
:10510E00186FB19EA18E800E0501B86F540EB96F47
:10511E00A3EC29F0800E03011A6F1200000E00019D
:10512E00606F000E616F000E626F000E636F000EF7
:10513E00646F000E656F000E666F000E676F000ED7
:10514E00686F1200046E000E036E045033EC27F0ED
:10515E000009D8B4B5EF28F0B7EF28F0BBEF28F070
:10516E00045025EC29F0036E03501200BEB8C2EFB6
:10517E0028F0C5EF28F0010EC6EF28F0000EFF0A4A
:10518E00016E013ABE500118EF0B0118BE6E1200EF
:10519E0052EC27F0D68EF1EC28F0BF8A28EC2AF0DC
:1051AE008DEC29F019EC29F000F0DBEF28F00DEF73
:1051BE0000F05F0E0101946F956996699769000E74
:1051CE00986F000E996F000E9A6F000E9B6F810EF6
:1051DE00816F1200040100810083108F108D1087E3
:1051EE001089C698C790C794C792C79AC884C89AA0
:1051FE00120047EC29F00009D8B408EF29F00BEFA4
:10520E0029F0010E0CEF29F0000E1200700E0001B5
:10521E00AD6F000EAF6F000EB36F020EB16F000ECA
:10522E00B06F1200000E0501EF6F000EEE6F000E54
:10523E00F16F320EF06F70EC22F01200016E015021
:10524E000C0D540EF324D96E010EF420DA6EDF50DD
:10525E00010B1200AF90D680820E0501B86F540E6E
:10526E00B96FC6EC29F09F801200010136B542EFEE
:10527E0029F045EF29F0010E46EF29F0000E12003D
:10528E00010136B94DEF29F050EF29F0010E51EF23
:10529E0029F0000E1200010136BB58EF29F05BEF2A
:1052AE0029F0010E5CEF29F0000E1200100E010124
:1052BE00506F040E516F610E526F050E536F120038
:1052CE00010E0101046F010E056F060E066F000E32
:1052DE00076F12006100E0F663F40501B951646EC8
:1052EE0012006100E0F66BF40501B9516C6E12000C
:1052FE006100E0F672F40501B951736E120061009F
:10530E00E0F67AF40501B9517B6E1200BF84BF82BC
:10531E00010E6BEC26F01200B196E5EC27F03AEC9C
:10532E002AF01200B8C502F6B9C503F61200B8C5C8
:10533E0004F6B9C505F61200B8C500F6B9C501F6F2
:10534E001200B8C508F6B9C509F61200B8C50AF6B6
:10535E00B9C50BF61200B8C506F6B9C507F61200A8
:10536E00B8C58CF5B9C58DF51200B8C58EF5B9C5A1
:10537E008FF51200B8C58AF5B9C58BF51200B8C500
:10538E0018F6B9C519F61200B8C588F5B9C589F56C
:10539E00120001010239E832070B1200B8C57CF584
:1053AE00B9C57DF51200B8C57EF5B9C57FF51200F9
:1053BE00B8C57AF5B9C57BF51200B8C580F5B9C583
:1053CE0081F51200B8C586F5B9C587F51200B8C5C6
:1053DE0084F5B9C585F51200B8C582F5B9C583F552
:1053EE001200B8C50EF6B9C50FF61200B8C510F604
:1053FE00B9C511F61200B8C512F6B9C513F61200EA
:10540E00B8C514F6B9C515F61200B8C50CF6B9C56F
:10541E000DF61200B8C516F6B9C517F61200010141
:10542E000239E832070B1200016E610004F4FBF33F
:10543E001200B19E2AEC28F01200AF906BEC27F010
:10544E00120003011A9F12000301F39B1200D69A59
:10545E00120069841200788E1200789E12007884F1
:10546E0012000100120012001200120012001200AF
:10547E00120012001200120012001200120012008E
:04548E0012001200F6
:020000040020DA
:10000000FF0FFF0FFF0FFF0FFF0FFF0FFF0FFF0F80
:10001000FF0FFF0FFF0FFF0FFF0FFF0FFF0FFF0F70
:020000040030CA
:10000000FAEFF7DF9FFFFFFFFFFFFFFFFFFFFFFF9D
:10001000FFFFFFFFFFFFFFFFFFFFFFFFFFFFFFFFF0
:04002000FFFFFFFFE0
:00000001FF
