:020000040000FA
:040000000DEF00F010
:0400080024EF22F0CF
:06001800FF004AEF24F096
:0D2600000000010203040506070850010058
:10260E000501C651800BCF6FC651C625D16FC5AF20
:10261E0013EF13F015EF13F016EF13F0D181D15124
:10262E00D8B41CEF13F01EEF13F033EF13F0D129D3
:10263E00D8A424EF13F026EF13F02EEF13F0000EB4
:10264E00C36F000EC46F000EC56F000EC66FC58F30
:10265E00000EC66F3BEF13F0000EC36F000EC46F7B
:10266E00000EC56F000EC66FCA51800BD06FCF51D2
:10267E00D019D8B445EF13F047EF13F048EF13F02D
:10268E00CF8DCA51CA25D06FC9AF50EF13F052EF9C
:10269E0013F053EF13F0D081D051D8B459EF13F09B
:1026AE005BEF13F070EF13F0D029D8A461EF13F0A5
:1026BE0063EF13F06BEF13F0000EC76F000EC86FD1
:1026CE00000EC96F000ECA6FC98F000ECA6F78EF69
:1026DE0013F0000EC76F000EC86F000EC96F000E0C
:1026EE00CA6FD151D05DD8B07FEF13F081EF13F0E8
:1026FE00A8EF13F0CFAD86EF13F088EF13F08AEF4B
:10270E0013F0800ECF1BD1C5D2F5D0C5D1F5D2C5F1
:10271E00D0F5C3C5D2F5C7C5C3F5D2C5C7F5C4C577
:10272E00D2F5C8C5C4F5D2C5C8F5C5C5D2F5C9C55B
:10273E00C5F5D2C5C9F5C6C5D2F5CAC5C6F5D2C549
:10274E00CAF5000ED26FD151D0C5CBF5CC6BCB5F95
:10275E00000ECC5BCCBFBDEF13F0CC5109E11A0ECD
:10276E00CB5DD8A0BDEF13F0BFEF13F0F6EF13F073
:10277E00C351C411C511C611D8A4C8EF13F0CBEFC5
:10278E0013F0010ECCEF13F0000ED26F000EC36FDC
:10279E00000EC46F000EC56F000EC66FD0C5D1F50A
:1027AE00FFEF13F0D2A1DEEF13F0E0EF13F0E6EF40
:1027BE0013F0D890D2310109D26FE8EF13F0D89010
:1027CE00D233C3A1EDEF13F0EFEF13F0F0EF13F0F0
:1027DE00D28FC635C633C533C433C333D12BD05194
:1027EE00D15DD8A0FDEF13F0FFEF13F0D9EF13F08A
:1027FE00CFBD04EF14F006EF14F046EF14F0D151F4
:10280E00D8A40CEF14F00EEF14F018EF14F0000E25
:10281E00C36F000EC46F000EC56F000EC66F67EF5C
:10282E0015F0C751C327C851C423C951C523CA5176
:10283E00C623C6A125EF14F027EF14F0D3EF14F042
:10284E00D2A12CEF14F02EEF14F034EF14F0D89038
:10285E00D2310109D26F36EF14F0D890D233C3A122
:10286E003BEF14F03DEF14F03EEF14F0D28FC6356F
:10287E00C633C533C433C333D12BD3EF14F0C75192
:10288E00C35DC851C459C951C559C651800ACB6FD1
:10289E00CA51800ACB59D8B057EF14F059EF14F043
:1028AE0084EF14F0C351C75DCB6FC451C859CC6FC0
:1028BE00C551C959CD6FC651CA59CE6FFF0ECB2522
:1028CE00C36FFF0ECC21C46FFF0ECD21C56FFF0E5F
:1028DE00CE21C66F800ECF1BD26DD251D8A47AEF07
:1028EE0014F07CEF14F08CEF14F0010EC327000EE1
:1028FE00C423C523C6238CEF14F0C751C35FC85140
:10290E00C45BC951C55BCA51C65BC351C411C51165
:10291E00C611D8A495EF14F097EF14F0CCEF14F085
:10292E00D251D8A49DEF14F09FEF14F0CCEF14F019
:10293E00000EC36F000EC46F000EC56F000EC66F83
:10294E0067EF15F0D890C337C437C537C637D2AF47
:10295E00B3EF14F0B5EF14F0B6EF14F0C381D2A1BB
:10296E00BBEF14F0BDEF14F0C1EF14F0D880D237E6
:10297E00C3EF14F0D890D237D151D8B4C9EF14F0B8
:10298E00CBEF14F0CCEF14F0D107C5AFD1EF14F0AC
:10299E00D3EF14F0A9EF14F0000ED06FD2AFDAEF30
:1029AE0014F0DCEF14F0F4EF14F0D2C5CBF57F0E7B
:1029BE00CB17D8B4E5EF14F0E7EF14F0EBEF14F00B
:1029CE00010ED06FF4EF14F0C3A1F0EF14F0F2EF9C
:1029DE0014F0F4EF14F0E7EF14F0D051D8B4FAEF8E
:1029EE0014F0FCEF14F027EF15F0010EC327000EC4
:1029FE00C423C523C623C6A107EF15F009EF15F0B2
:102A0E0027EF15F0C3C5CBF5C4C5CCF5C5C5CDF5BF
:102A1E00C6C5CEF5CE35CE33CD33CC33CB33CBC5C9
:102A2E00C3F5CCC5C4F5CDC5C5F5CEC5C6F5D12902
:102A3E00D8B424EF15F026EF15F027EF15F0D12BB3
:102A4E00D129D8B42DEF15F02FEF15F037EF15F083
:102A5E00D151D8A435EF15F037EF15F049EF15F039
:102A6E00000EC36F000EC46F000EC56F000EC66F52
:102A7E00D151D8A445EF15F047EF15F049EF15F0F9
:102A8E00000ECF6FD1A14EEF15F050EF15F053EFB2
:102A9E0015F0C58F54EF15F0C59FD890D131C66F84
:102AAE00CFAF5CEF15F05EEF15F05FEF15F0C68F50
:102ABE00C3C5C3F5C4C5C4F5C5C5C5F5C6C5C6F5FC
:102ACE0012002B50800B346E2B502B24366E2AAEF8
:102ADE0073EF15F075EF15F076EF15F03680365072
:102AEE00D8B47CEF15F07EEF15F093EF15F0362885
:102AFE00D8A484EF15F086EF15F08EEF15F0000ECA
:102B0E00286E000E296E000E2A6E000E2B6E2A8E77
:102B1E00000E2B6E9BEF15F0000E286E000E296E28
:102B2E00000E2A6E000E2B6E2F50800B356E345019
:102B3E003518D8B4A5EF15F0A7EF15F0A8EF15F0DE
:102B4E00348C2F502F24356E2EAEB0EF15F0B2EF21
:102B5E0015F0B3EF15F035803550D8B4B9EF15F048
:102B6E00BBEF15F0D0EF15F03528D8A4C1EF15F056
:102B7E00C3EF15F0CBEF15F0000E2C6E000E2D6E80
:102B8E00000E2E6E000E2F6E2E8E000E2F6ED8EFB4
:102B9E0015F0000E2C6E000E2D6E000E2E6E000E19
:102BAE002F6E3650355CD8B0DFEF15F0E1EF15F033
:102BBE0008EF16F034ACE6EF15F0E8EF15F0EAEF9B
:102BCE0015F0800E341A36C537F535C536F537C5CE
:102BDE0035F528C537F52CC528F537C52CF529C58B
:102BEE0037F52DC529F537C52DF52AC537F52EC56F
:102BFE002AF537C52EF52BC537F52FC52BF537C55D
:102C0E002FF5000E376E365035C530F5316A305E11
:102C1E00000E315A31BE1DEF16F0315009E11A0E79
:102C2E00305CD8A01DEF16F01FEF16F056EF16F021
:102C3E00285029102A102B10D8A428EF16F02BEFAD
:102C4E0016F0010E2CEF16F0000E376E000E286EE9
:102C5E00000E296E000E2A6E000E2B6E35C536F54F
:102C6E005FEF16F037A03EEF16F040EF16F046EF8E
:102C7E0016F0D89037300109376E48EF16F0D8901D
:102C8E00373228A04DEF16F04FEF16F050EF16F03A
:102C9E00378E2B342B322A3229322832362A3550AF
:102CAE00365CD8A05DEF16F05FEF16F039EF16F038
:102CBE0034BC64EF16F066EF16F0A6EF16F0365041
:102CCE00D8A46CEF16F06EEF16F078EF16F0000E3B
:102CDE00286E000E296E000E2A6E000E2B6EC7EFA8
:102CEE0017F02C5028262D5029222E502A222F50F4
:102CFE002B222BA085EF16F087EF16F033EF17F08F
:102D0E0037A08CEF16F08EEF16F094EF16F0D890E9
:102D1E0037300109376E96EF16F0D890373228A06B
:102D2E009BEF16F09DEF16F09EEF16F0378E2B34BC
:102D3E002B322A3229322832362A33EF17F02C5012
:102D4E00285C2D5029582E502A582B50800A306E50
:102D5E002F50800A3058D8B0B7EF16F0B9EF16F0F2
:102D6E00E4EF16F028502C5C306E29502D58316E41
:102D7E002A502E58326E2B502F58336EFF0E3024A1
:102D8E00286EFF0E3120296EFF0E32202A6EFF0EA6
:102D9E0033202B6E800E341A376C3750D8A4DAEFEE
:102DAE0016F0DCEF16F0ECEF16F0010E2826000EF2
:102DBE0029222A222B22ECEF16F02C50285E2D50C1
:102DCE00295A2E502A5A2F502B5A285029102A1081
:102DDE002B10D8A4F5EF16F0F7EF16F02CEF17F036
:102DEE003750D8A4FDEF16F0FFEF16F02CEF17F0CA
:102DFE00000E286E000E296E000E2A6E000E2B6E2F
:102E0E00C7EF17F0D890283629362A362B3637AE2C
:102E1E0013EF17F015EF17F016EF17F0288037A005
:102E2E001BEF17F01DEF17F021EF17F0D880373694
:102E3E0023EF17F0D89037363650D8B429EF17F065
:102E4E002BEF17F02CEF17F036062AAE31EF17F0F6
:102E5E0033EF17F009EF17F0000E356E37AE3AEF7D
:102E6E0017F03CEF17F054EF17F037C530F57F0E23
:102E7E003016D8B445EF17F047EF17F04BEF17F0B9
:102E8E00010E356E54EF17F028A050EF17F052EFE9
:102E9E0017F054EF17F047EF17F03550D8B45AEF3C
:102EAE0017F05CEF17F087EF17F0010E2826000ED3
:102EBE0029222A222B222BA067EF17F069EF17F099
:102ECE0087EF17F028C530F529C531F52AC532F53B
:102EDE002BC533F53334333232323132303230C5E2
:102EEE0028F531C529F532C52AF533C52BF5362817
:102EFE00D8B484EF17F086EF17F087EF17F0362A65
:102F0E003628D8B48DEF17F08FEF17F097EF17F034
:102F1E003650D8A495EF17F097EF17F0A9EF17F0EA
:102F2E00000E286E000E296E000E2A6E000E2B6EFD
:102F3E003650D8A4A5EF17F0A7EF17F0A9EF17F0AA
:102F4E00000E346E36A0AEEF17F0B0EF17F0B3EF01
:102F5E0017F02A8EB4EF17F02A9ED89036302B6ECB
:102F6E0034AEBCEF17F0BEEF17F0BFEF17F02B8E9D
:102F7E0028C528F529C529F52AC52AF52BC52BF50F
:102F8E0012001250800B1B6E12501224216E11AEC5
:102F9E00D3EF17F0D5EF17F0D6EF17F021802150B1
:102FAE00D8B4DCEF17F0DEEF17F0F1EF17F02128B1
:102FBE00D8A4E4EF17F0E6EF17F0EEEF17F0000EDF
:102FCE000F6E000E106E000E116E000E126E118E30
:102FDE00F9EF17F0000E0F6E000E106E000E116E50
:102FEE00000E126E1650800B1B1A16501624206EF1
:102FFE0015AE04EF18F006EF18F007EF18F020806A
:10300E002050D8B40DEF18F00FEF18F022EF18F093
:10301E002028D8A415EF18F017EF18F01FEF18F0AE
:10302E00000E136E000E146E000E156E000E166E50
:10303E00158E2AEF18F0000E136E000E146E000E91
:10304E00156E000E166E2050D8B430EF18F032EF19
:10305E0018F03AEF18F02150D8A438EF18F03AEFE4
:10306E0018F044EF18F0000E0F6E000E106E000EEA
:10307E00116E000E126EEEEF19F015500F02610078
:10308E00CCF326F56100D0F327F526501C6E1D6A91
:10309E001E6A1F6A2750226E236A246A256A1450FC
:1030AE0010026100CCF326F56100D0F327F526500F
:1030BE001C26000E1D221E221F2227502226000E25
:1030CE00232224222522135011026100CCF326F56F
:1030DE006100D0F327F526501C26000E1D221E225D
:1030EE001F2227502226000E2322242225221EC50F
:1030FE001FF51DC51EF51CC51DF51C6A13501002CB
:10310E006100CCF326F56100D0F327F526501C267E
:10311E0027501D22000E1E22000E1F2214500F02D9
:10312E006100CCF326F56100D0F327F526501C265E
:10313E0027501D22000E1E22000E1F221EC51FF537
:10314E001DC51EF51CC51DF51C6A13500F0261002E
:10315E00CCF326F56100D0F327F526501C26275018
:10316E001D22000E1E22000E1F221550100261009D
:10317E00CCF326F56100D0F327F5265022262750F2
:10318E002322000E2422000E25221450110261006B
:10319E00CCF326F56100D0F327F5265022262750D2
:1031AE002322000E2422000E25221550110261004A
:1031BE00CCF326F56100D0F327F52650176E275075
:1031CE00186E196A1A6A19C51AF518C519F517C5B0
:1031DE0018F5176A17502226185023221950242248
:1031EE001A5025221CC517F51DC518F51EC519F553
:1031FE001FC51AF5190E09EF19F0D8901A321932A7
:10320E0018321732E82E04EF19F0175022261850F4
:10321E002322195024221A5025221EC51FF51DC522
:10322E001EF51CC51DF51C6A205021C517F5186A20
:10323E001726000E1822820E1724266EFF0E182057
:10324E00276E3FEF19F0D8902236233624362536D6
:10325E001FAE34EF19F036EF19F037EF19F0228068
:10326E00D8901C361D361E361F362606D8A02706C9
:10327E0024AE44EF19F046EF19F02AEF19F0000EC4
:10328E00206E1FAE4DEF19F04FEF19F073EF19F0DE
:10329E00FF0E1C14176EFF0E1D14186EFF0E1E145B
:1032AE00196E7F0E1F141A6E1750181019101A105F
:1032BE00D8B464EF19F066EF19F06AEF19F0010E49
:1032CE00206E73EF19F022A06FEF19F071EF19F065
:1032DE0073EF19F066EF19F02050D8B479EF19F0AA
:1032EE007BEF19F09FEF19F0010E2226000E23221C
:1032FE002422252225A086EF19F088EF19F09FEFE2
:10330E0019F022C517F523C518F524C519F525C5DD
:10331E001AF51A341A3219321832173217C522F525
:10332E0018C523F519C524F51AC525F5264A272AE9
:10333E0027BEAAEF19F0275008E12628D8A0AAEF39
:10334E0019F0ACEF19F0B6EF19F0000E226E000E68
:10335E00236E800E246E7F0E256EE4EF19F027BECD
:10336E00C3EF19F0275006E12604D8B0C1EF19F0CB
:10337E00C3EF19F0CFEF19F0000E226E000E236E80
:10338E00000E246E000E256E000E1B6EE4EF19F07B
:10339E0026C521F5FF0E2216FF0E23167F0E2416CC
:1033AE00000E251621A0DEEF19F0E0EF19F0E1EF87
:1033BE0019F0248ED8902130256E1B50251222C56F
:1033CE000FF523C510F524C511F525C512F512000C
:1033DE001250800B1F6E12501224266E11AEFAEF91
:1033EE0019F0FCEF19F0FDEF19F026802650D8B435
:1033FE0003EF1AF005EF1AF01AEF1AF02628D8A4E8
:10340E000BEF1AF00DEF1AF015EF1AF0000E0F6E0B
:10341E00000E106E000E116E000E126E118E000E4A
:10342E00126E22EF1AF0000E0F6E000E106E000ECE
:10343E00116E000E126E1650800B1F1A16501624A7
:10344E00276E15AE2DEF1AF02FEF1AF030EF1AF09F
:10345E0027802750D8B436EF1AF038EF1AF04DEF18
:10346E001AF02728D8A43EEF1AF040EF1AF048EFD2
:10347E001AF0000E136E000E146E000E156E000E76
:10348E00166E158E000E166E55EF1AF0000E136E98
:10349E00000E146E000E156E000E166E13501410E4
:1034AE0015101610D8A45EEF1AF060EF1AF078EF30
:1034BE001AF0000E0F6E000E106E000E116E000E42
:1034CE00126E800E11127F0E12121F5012120FC5A5
:1034DE000FF510C510F511C511F512C512F5BBEF9C
:1034EE001BF02650D8A47EEF1AF080EF1AF08AEF68
:1034FE001AF0000E0F6E000E106E000E116E000E02
:10350E00126EBBEF1BF0275026C517F5186A175E13
:10351E00000E185A7F0E1724206E000E1820216EF2
:10352E000FC51BF510C51CF511C51DF512C51EF5F1
:10353E00000E0F6E000E106E000E116E000E126E4B
:10354E00000E226E000E236E000E246E000E256EEF
:10355E00000E276EEBEF1AF02750D8B4B9EF1AF021
:10356E00BBEF1AF0D2EF1AF0D8901B361C361D3670
:10357E001E36D8900F3610361136123625AECAEFDB
:10358E001AF0CCEF1AF0CDEF1AF00F80D890223649
:10359E0023362436253613501B5C14501C581550F8
:1035AE001D5816501E58D8A0DFEF1AF0E1EF1AF092
:1035BE00EAEF1AF0258C13501B5E14501C5A15504E
:1035CE001D5A16501E5A272A190E2764F1EF1AF0AB
:1035DE00F3EF1AF0B3EF1AF01B501C101D101E1053
:1035EE00D8B4FCEF1AF0FEEF1AF016EF1BF02280A3
:1035FE0016EF1BF0D8900F3610361136123625AE58
:10360E000BEF1BF00DEF1BF00EEF1BF00F80D890A1
:10361E0022362336243625362006D8A0210611AEB2
:10362E001BEF1BF01DEF1BF001EF1BF0000E276EC2
:10363E0025AE24EF1BF026EF1BF04AEF1BF0FF0E1A
:10364E002214176EFF0E2314186EFF0E2414196E1B
:10365E007F0E25141A6E1750181019101A10D8B4A0
:10366E003BEF1BF03DEF1BF041EF1BF0010E276E01
:10367E004AEF1BF00FA046EF1BF048EF1BF04AEF8E
:10368E001BF03DEF1BF02750D8B450EF1BF052EF5C
:10369E001BF076EF1BF0010E0F26000E10221122EA
:1036AE00122212A05DEF1BF05FEF1BF076EF1BF006
:1036BE000FC517F510C518F511C519F512C51AF570
:1036CE001A341A3219321832173217C50FF518C5B7
:1036DE0010F519C511F51AC512F5204A212A21BE79
:1036EE0081EF1BF0215008E12028D8A081EF1BF0BC
:1036FE0083EF1BF08EEF1BF0000E216E2068000E84
:10370E000F6E000E106E000E116E000E126E21BEA8
:10371E009BEF1BF0215006E12004D8B099EF1BF06F
:10372E009BEF1BF0A9EF1BF0000E216E000E206E1A
:10373E00000E0F6E000E106E000E116E000E126E49
:10374E00000E1F6E20C526F526A0B0EF1BF0B2EFBF
:10375E001BF0B5EF1BF0118EB6EF1BF0119ED8903B
:10376E002630126E6CEF1AF01200040E0301F96F80
:10377E00000EFA6F000ED86F000EFB6F000ED96FA1
:10378E00000EDA6F000EDB6F000EDC6F000EDF6FC7
:10379E00000EE06F000EE36F000EE46F000EE56F9B
:1037AE00000EE66F000EE76F000EEA6F000EEB6F75
:1037BE00000EEC6F000EEE6F000EEF6F000EF06F4E
:1037CE00000EF16F000EF26F000EF36F000EF46F2D
:1037DE00100EF56F000EF66F000EF76F120EF86FEB
:1037EE00000EFC6F010EFB6F000ED96F000EDA6F2C
:1037FE00000EDB6F000EDC6F000EDF6F000EE06F51
:10380E00000EE36F000EE46F000EE56F000EE66F24
:10381E00000EE76F000EEA6F000EEB6F010EEC6FFD
:10382E00000EEE6F000EEF6F000EF06F000EF16FD8
:10383E00000EF26F000EF36F000EF46F100EF56FA8
:10384E00000EF66F000EF76F000EF86F000EFD6F94
:10385E00020EFB6F000ED96F000EDA6F000EDB6FDB
:10386E00000EDC6F000EDF6F000EE06F000EE36FD8
:10387E00000EE46F000EE56F000EE66F000EE76FB0
:10388E00000EEA6F000EEB6F160EEC6F000EEE6F71
:10389E00000EEF6F000EF06F000EF16F000EF26F64
:1038AE00000EF36F000EF46F100EF56F000EF66F34
:1038BE00000EF76F000EF86F000EFE6F030EFB6F1B
:1038CE00000ED96F000EDA6F000EDB6F000EDC6F8C
:1038DE00000EDF6F000EE06F000EE36F000EE46F60
:1038EE00000EE56F000EE66F000EE76F000EEA6F3A
:1038FE00000EEB6F170EEC6F000EEE6F000EEF6FFB
:10390E00000EF06F000EF16F000EF26F000EF36FEF
:10391E00000EF46F100EF56F000EF66F000EF76FBF
:10392E00000EF86F000EFF6FAF94AF96B090B0928E
:10393E00B094B096000E0501A76F000EA86FD0ECE4
:10394E0026F0000E0501A76F000EA86FC6EC26F03C
:10395E00000E0501A76F000EA86FC1EC26F0000E39
:10396E000501A76F000EA86FBCEC26F0000E050136
:10397E00A76F000EA86FB7EC26F0000E0501A76F1B
:10398E00000EA86FCBEC26F0840E0301F36F12002D
:10399E00446E10EF1DF0E5EC26F0000ED5EC26F08F
:1039AE00000E17EC25F001C547F502C548F5010ECE
:1039BE00496E3DEF1DF0E5EC26F0010ED5EC26F03C
:1039CE00010E17EC25F001C547F502C548F5DEEFEF
:1039DE001CF0E5EC26F0020ED5EC26F0170E17ECD7
:1039EE0025F001C547F502C548F5DEEF1CF0E5EC04
:1039FE0026F0020ED5EC26F0160E17EC25F001C5BA
:103A0E0047F502C548F5DEEF1CF0020E496E3DEF9C
:103A1E001DF04450426E436A4350000AD8B41AEF68
:103A2E001DF00CEF1DF04250000AD8B4D2EF1CF07E
:103A3E00010AD8B4E2EF1CF0030AD8B4F0EF1CF080
:103A4E00010AD8B4FEEF1CF0070AD8B40CEF1DF033
:103A5E00010AD8B40CEF1DF0030AD8B40CEF1DF018
:103A6E00010AD8B40CEF1DF00CEF1DF04904D8A4D8
:103A7E0043EF1DF045EF1DF0C6EF1DF0485007E176
:103A8E00070E475CD8B04EEF1DF050EF1DF056EF0D
:103A9E001DF0000E466E000E456E91EF1DF06F0E7E
:103AAE002C6E810E2D6EA80E2E6EC00E2F6EB30EC6
:103ABE00136E7B0E146E920E156E3F0E166E47C56C
:103ACE0001F548C502F5036A046A000EA3EC1EF068
:103ADE0001C50FF502C510F503C511F504C512F5A4
:103AEE00C8EC17F00FC528F510C529F511C52AF534
:103AFE0012C52BF568EC15F028C538F529C539F532
:103B0E002AC53AF52BC53BF533EC21F038C545F502
:103B1E0039C546F5890E455C130E4658D8A09AEF66
:103B2E001DF09CEF1DF09EEF1DF0C6EF1DF02F0E49
:103B3E00136EDD0E146E9C0E156E410E166E45C57F
:103B4E0001F546C502F5036A046A000EA3EC1EF0E9
:103B5E0001C50FF502C510F503C511F504C512F523
:103B6E00EFEC19F00FC538F510C539F511C53AF55A
:103B7E0012C53BF533EC21F03850C6EF1DF01200A4
:103B8E000501BD6F0501BD51D8B4D0EF1DF0D2EFC8
:103B9E001DF0F4EF1DF0B8BFD9EF1DF0D7EF1DF0FB
:103BAE00F4EF1DF0B5C5B9F5B6C5BAF5B7C5BBF599
:103BBE00B8C5BCF5B91FBA1FBB1FBC1FB92B000E71
:103BCE00BA23BB23BC23B9C5BFF5BAC5C0F5BBC567
:103BDE00C1F5BCC5C2F5FCEF1DF0B5C5BFF5B6C548
:103BEE00C0F5B7C5C1F5B8C5C2F5B551B611B71117
:103BFE00B811D8A405EF1EF007EF1EF011EF1EF05E
:103C0E00000EB56F000EB66F000EB76F000EB86FD8
:103C1E00A2EF1EF0960EBE6F1BEF1EF0BE2BD890BD
:103C2E00C233C133C033BF33000EBF15B96F000EA0
:103C3E00C015BA6F000EC115BB6FFE0EC215BC6F5C
:103C4E00B951BA11BB11BC11D8A430EF1EF032EF2E
:103C5E001EF015EF1EF040EF1EF0BE2B010EBF271B
:103C6E00000EC023C123C223D890C233C133C03348
:103C7E00BF33000EBF15B96F000EC015BA6F000E20
:103C8E00C115BB6FFF0EC215BC6FB951BA11BB1176
:103C9E00BC11D8A455EF1EF057EF1EF034EF1EF0F6
:103CAE005FEF1EF0BE07D890BF37C037C137C2379F
:103CBE00C1BF64EF1EF066EF1EF06EEF1EF0020E37
:103CCE00BE616CEF1EF06EEF1EF059EF1EF0BEB12E
:103CDE0073EF1EF075EF1EF076EF1EF0C19FD890B9
:103CEE00BE33BEC5B9F5BA6BBB6BBC6BB9C5BCF503
:103CFE00BB6BBA6BB96BB951BF13BA51C013BB5181
:103D0E00C113BC51C213BD51D8B490EF1EF092EF47
:103D1E001EF09AEF1EF0B8BF99EF1EF097EF1EF04F
:103D2E009AEF1EF0C28FBFC5B5F5C0C5B6F5C1C5B9
:103D3E00B7F5C2C5B8F51200096E0950D8B4AAEF8E
:103D4E001EF0ACEF1EF0CEEF1EF004BEB3EF1EF071
:103D5E00B1EF1EF0CEEF1EF001C505F502C506F55A
:103D6E0003C507F504C508F5051E061E071E081E29
:103D7E00052A000E06220722082205C50BF506C5E8
:103D8E000CF507C50DF508C50EF5D6EF1EF001C5ED
:103D9E000BF502C50CF503C50DF504C50EF5015066
:103DAE00021003100410D8A4DFEF1EF0E1EF1EF096
:103DBE00EBEF1EF0000E016E000E026E000E036E93
:103DCE00000E046E7CEF1FF0960E0A6EF5EF1EF0DD
:103DDE000A2AD8900E320D320C320B32000E0B1412
:103DEE00056E000E0C14066E000E0D14076EFE0E00
:103DFE000E14086E0550061007100810D8A40AEF0E
:103E0E001FF00CEF1FF0EFEF1EF01AEF1FF00A2A53
:103E1E00010E0B26000E0C220D220E22D8900E3211
:103E2E000D320C320B32000E0B14056E000E0C14FC
:103E3E00066E000E0D14076EFF0E0E14086E055062
:103E4E00061007100810D8A42FEF1FF031EF1FF047
:103E5E000EEF1FF039EF1FF00A06D8900B360C3616
:103E6E000D360E360DBE3EEF1FF040EF1FF048EF41
:103E7E001FF0020E0A6046EF1FF048EF1FF033EFFF
:103E8E001FF00AB04DEF1FF04FEF1FF050EF1FF075
:103E9E000D9ED8900A320AC505F5066A076A086AA9
:103EAE0005C508F5076A066A056A05500B12065025
:103EBE000C1207500D1208500E120950D8B46AEFAA
:103ECE001FF06CEF1FF074EF1FF004BE73EF1FF0C6
:103EDE0071EF1FF074EF1FF00E8E0BC501F50CC5C0
:103EEE0002F50DC503F50EC504F5120001011DAF57
:103EFE0083EF1FF085EF1FF094EF1FF002D892EFC3
:103F0E001FF00500FA6E05018651FD6E8751FE6E9B
:103F1E00FF6AFA50120001011D9F1DAD99EF1FF0AF
:103F2E009BEF1FF0AAEF1FF002D8A8EF1FF00500BD
:103F3E00FA6E05018451FD6E8551FE6EFF6AFA50D0
:103F4E00120001011D9D1DABAFEF1FF0B1EF1FF071
:103F5E00C0EF1FF002D8BEEF1FF00500FA6E05018C
:103F6E008251FD6E8351FE6EFF6AFA5012000101FE
:103F7E001D9B1CA7C5EF1FF0C7EF1FF0D6EF1FF05C
:103F8E0002D8D4EF1FF00500FA6E05018051FD6EC8
:103F9E008151FE6EFF6AFA50120001011C971DA995
:103FAE00DBEF1FF0DDEF1FF0ECEF1FF002D8EAEFB2
:103FBE001FF00500FA6E05017E51FD6E7F51FE6EFB
:103FCE00FF6AFA50120001011D991DA5F1EF1FF0B5
:103FDE00F3EF1FF009EF20F002D800EF20F00500FC
:103FEE00FA6E05017C51FD6E7D51FE6EFF6AFA5030
:103FFE001200010154A906EF20F008EF20F009EF9E
:10400E0020F054991DA70EEF20F010EF20F026EFB0
:10401E0020F002D81DEF20F00500FA6E05017A514E
:10402E00FD6E7B51FE6EFF6AFA501200010160A711
:10403E0023EF20F025EF20F026EF20F06097AE9CC6
:10404E001200000E0501B06FAEBF32EF20F030EF60
:10405E0020F03CEF20F0AE1FAD1FAC1FAB6D000E7D
:10406E00AC23AD23AE23010EB06FAABF43EF20F0F9
:10407E0041EF20F04DEF20F0AA1FA91FA81FA76D3A
:10408E00000EA823A923AA23010EB01B000EB16FA8
:10409E00000EB26F000EB36F000EB46FAB51AC11C9
:1040AE00AD11AE11D8B45EEF20F060EF20F096EFB8
:1040BE0020F0010EAF6F6AEF20F0D890AB37AC371F
:1040CE00AD37AE37AF2BAEAF6FEF20F071EF20F004
:1040DE0064EF20F0D890B137B237B337B437AB5165
:1040EE00A75DAC51A859AD51A959AE51AA59D8A046
:1040FE0083EF20F085EF20F08EEF20F0AB51A75F1D
:10410E00AC51A85BAD51A95BAE51AA5BB181D89001
:10411E00AE33AD33AC33AB33AF2F71EF20F0B051C4
:10412E00D8B49CEF20F09EEF20F0A6EF20F0B41F45
:10413E00B31FB21FB16D000EB223B323B423B1C5AA
:10414E00A7F5B2C5A8F5B3C5A9F5B4C5AAF5120071
:10415E000501D535D635DC6FDC51D8A4B9EF20F08A
:10416E00BBEF20F0C5EF20F0000ED36F000ED46F22
:10417E00000ED56F000ED66F32EF21F0D3C5D7F5F6
:10418E00D4C5D8F5D5C5D9F5D6C5DAF5200ED5EFF7
:10419E0020F0D890DA33D933D833D733E82ED0EF96
:1041AE0020F0D751DB6FD58FFF0ED317FF0ED4172C
:1041BE00FF0ED517000ED617960EDC5FDCBFECEFA8
:1041CE0020F0EAEF20F002EF21F0DC51800A970F89
:1041DE00D8B0F4EF20F0F6EF20F0F8EF20F0BBEFC0
:1041EE0020F0D890D633D533D433D333DC3FF8EF29
:1041FE0020F01AEF21F01F0EDC6508EF21F00AEF18
:10420E0021F012EF21F0BBEF20F0D890D337D43746
:10421E00D537D637DC07DC51D8A418EF21F01AEFCA
:10422E0021F00CEF21F0DB51D8B420EF21F022EF7A
:10423E0021F02AEF21F0D61FD51FD41FD36D000E0B
:10424E00D423D523D623D3C5D3F5D4C5D4F5D5C51C
:10425E00D5F5D6C5D6F512003A343B34416E4150F1
:10426E00D8A43CEF21F03EEF21F048EF21F0000EF4
:10427E00386E000E396E000E3A6E000E3B6EB5EFC4
:10428E0021F038C53CF539C53DF53AC53EF53BC57F
:10429E003FF5200E58EF21F0D8903F323E323D329E
:1042AE003C32E82E53EF21F03C50406E3A8EFF0E1A
:1042BE003816FF0E3916FF0E3A16000E3B16960EE6
:1042CE00415E41BE6FEF21F06DEF21F085EF21F0E1
:1042DE004150800A970FD8B077EF21F079EF21F097
:1042EE007BEF21F03EEF21F0D8903B323A3239325B
:1042FE003832413E7BEF21F09DEF21F01F0E4164DD
:10430E008BEF21F08DEF21F095EF21F03EEF21F0B4
:10431E00D890383639363A363B3641064150D8A415
:10432E009BEF21F09DEF21F08FEF21F04050D8B49C
:10433E00A3EF21F0A5EF21F0ADEF21F03B1E3A1EC9
:10434E00391E386C000E39223A223B2238C538F518
:10435E0039C539F53AC53AF53BC53BF512006A0E3B
:10436E000501C76F4D0EC86F930EC96FBF0ECA6F92
:10437E00DFC5ABF5E0C5ACF5AD6BAE6B490EA76F07
:10438E00990EA86F000EA96F000EAA6F28EC20F0F0
:10439E00A7C5B5F5A8C5B6F5A9C5B7F5AAC5B8F5AB
:1043AE00010EC7EC1DF0B5C5C3F5B6C5C4F5B7C54E
:1043BE00C5F5B8C5C6F507EC13F0C3C5D3F5C4C52E
:1043CE00D4F5C5C5D5F5C6C5D6F5AFEC20F0D3C529
:1043DE00E3F5D4C5E4F5DDC5E1F5DEC5E2F505018D
:1043EE00D890E137E237D890E137E237E1C5AEF544
:1043FE00E2C5AFF5DFC5A9F5E0C5AAF5000EA86FB9
:10440E00640EA76F08EC23F0A7C5B0F5A8C5B1F5EB
:10441E00D2EC25F0AEC5E5F5AFC5E6F5E5C5A7F5D9
:10442E00E6C5A8F556EC26F0E3C5A7F5E4C5A8F554
:10443E004FEC26F0EEEC26F01200A1AE29EF22F0A2
:10444E002BEF22F036EF22F0B1AE30EF22F032EF4A
:10445E0022F036EF22F0DAEC26F07EEF22F09FA06B
:10446E003BEF22F03DEF22F048EF22F0AFA042EFFB
:10447E0022F044EF22F048EF22F0DEEC26F07EEF41
:10448E0022F09EAC4DEF22F04FEF22F05AEF22F0C9
:10449E00AEAC54EF22F056EF22F05AEF22F07DEC44
:1044AE001FF07EEF22F0A1A65FEF22F061EF22F067
:1044BE006CEF22F0B1A666EF22F068EF22F06CEFFF
:1044CE0022F05FEC25F07EEF22F0A1A871EF22F032
:1044DE0073EF22F07EEF22F0B1A878EF22F07AEFA0
:1044EE0022F07EEF22F045EC26F07EEF22F0110056
:1044FE000501A96F000E0501A86F8FEC26F00501CE
:10450E00A76F040EA719D8B48FEF22F091EF22F007
:10451E00A2EF22F0A905D8B497EF22F099EF22F07E
:10452E00A2EF22F0040EA919D8A4A0EF22F0A2EF58
:10453E0022F0C7EF22F0010103510501A919F80B72
:10454E00A9190101036FB9EF22F001011DA9B2EF04
:10455E0022F0B4EF22F0B9EF22F0020E0501A86F9F
:10456E00C9EF22F00239E832070B0501A919D8A4C8
:10457E00C3EF22F0C5EF22F0ACEF22F0C9EF22F02C
:10458E00010EA86FA8511200F40E0501A76F4D0E73
:10459E00A86FA8EC26F0F60E0501A76F4D0EA86FBA
:1045AE00ADEC26F0F80E0501A76F4D0EA86FB2EC1C
:1045BE0026F0F20E0501A76F4D0EA86FA3EC26F0A4
:1045CE00EE0E0501A76F4D0EA86F99EC26F0EC0EBE
:1045DE000501A76F4D0EA86F94EC26F0F00E0501A5
:1045EE00A76F4D0EA86F9EEC26F0AE9C000E01013B
:1045FE001C6F000E1D6F080E1E6FFC0E1F6F9E8C23
:10460E001200000E0501AC6F000EAB6FA951AA117E
:10461E00D8B414EF23F016EF23F03EEF23F0010E83
:10462E00AD6F1EEF23F0D890A937AA37AD2BAAAFE6
:10463E0023EF23F025EF23F01AEF23F0D890AB37BA
:10464E00AC37A951A75DAA51A859D8A031EF23F0D4
:10465E0033EF23F038EF23F0A951A75FAA51A85BDF
:10466E00AB81D890AA33A933AD2F25EF23F0ABC57C
:10467E00A7F5ACC5A8F51200000E6F6E020E706E97
:10468E00000E716E500E726E0F0E736EFE0E746E05
:10469E00000E756E000E766E000E776E000E796E41
:1046AE000D0E7A6E050E7B6EA80E7C6E070E7D6E5D
:1046BE00B39CB39E76907692A39EA39C000E0501AA
:1046CE00A76F000EA86F71EC26F0000E0501A76F04
:1046DE00000EA86F6CEC26F0000E0501A76F000E01
:1046EE00A86F76EC26F0800E786E1200000E606ECB
:1046FE00020E616E000E626E3D0E636E000E646EF3
:10470E00FE0E656E000E666E000E676E000E686E13
:10471E00000E6A6E1F0E6B6E000E6C6E1F0E6D6EAF
:10472E00000E6E6EB29CB29E67906792A29EA29C85
:10473E00000E0501A76F000EA86F80EC26F0000E8C
:10474E000501A76F000EA86F7BEC26F0000E050189
:10475E00A76F000EA86F85EC26F0800E696E120012
:10476E00000EBE6E000EBF6E000EC06E080ECA6E3C
:10477E00EF0EC66EC80EC76EDC0EC86EF30E0401C9
:10478E00106F770E086FDF0E006F000E216F000E98
:10479E00096F000E016F000E116F000E026F000EFA
:1047AE000A6F000E126F03690B69136904690C69B5
:1047BE001469080E246F180E0201116F0F0E696F27
:1047CE00050E3E6F1A0E126F0B0E3D6F460E0D6FDD
:1047DE0012000501E96F07EF24F0ECEC26F01DEF57
:1047EE0024F0EAEC26F0000E0501DE6F190EDD6FE7
:1047FE00000EE06F0A0EDF6FB6EC21F01DEF24F015
:10480E000501E951E76FE86BE851000AD8B412EFE1
:10481E0024F01DEF24F0E751000AD8B4F4EF23F092
:10482E00010AD8B4F8EF23F01DEF24F012000101B5
:10483E00018F040E7FEC22F00009D8A429EF24F09A
:10484E002BEF24F049EF24F0000E01014C6F260EE1
:10485E004D6F000E4E6F000E4F6F600E006F970E75
:10486E00016F100E026F3BEC26F027EC26F031ECB8
:10487E0026F0F1EC26F048EC25F0CBEC22F0060EFB
:10488E007FEC22F01200E00EF66E4D0EF76E000E6B
:10489E00F86E09006100D4F3FEF509006100D4F34F
:1048AE00FFF501EE00F2100EEE6AE806FDE101EEF4
:1048BE0060F1470EEE6AE806FDE101EE4AF1160ED2
:1048CE00EE6AE806FDE10401080E5D6F000E5E6FF4
:1048DE00000E5F6F000198EF24F0000E03011F6FB2
:1048EE00000E206F010E216FCF0E1D6F2C0E1C6F50
:1048FE00B1981C51600074FCA9F50501AA6BA9C5FD
:10490E00AAF5A96BA911EA6FAA51EB6FA188E60E61
:10491E00A76F4D0EA86F62EC26F0110E03011E6FED
:10492E001200CCEC24F0D68EC79ABF8AE2EC26F0A9
:10493E000F0E0501A86FA00EA76FB2EC24F0C79062
:10494E00C896BF80C086000EF0EC23F000F0ADEFED
:10495E0024F00DEF00F0BDEF24F0040E0501A96F59
:10496E003D0EE82EFED7A92FFCD700D00501A707D4
:10497E00D8A0A807A72906E1A829D8A4C9EF24F032
:10498E00CBEF24F0B4EF24F01200E8EC26F0FCECB0
:10499E0025F0BCEC1BF0B7EC23F010EC26F030EC5D
:1049AE0025F01CEC26F074EC24F0E8EC25F043EC3A
:1049BE0023F01EEC24F07DEC23F01200FEEC24F02C
:1049CE000501FC51FD11D8B4EFEF24F0F1EF24F006
:1049DE00FDEF24F002D8FDEF24F00500FA6EFC5135
:1049EE00FD6EFD51FE6EFF6AFA5012001200000EAF
:1049FE00CEBA010E4D6E4D04D8A408EF25F00AEF85
:104A0E0025F016EF25F0000ECFEC1CF00501916F8E
:104A1E00010ECFEC1CF00501906F4EC54FF5120044
:104A2E00056E610014F4ECF30301F38FF39DF38133
:104A3E00F3B124EF25F026EF25F01FEF25F0EB5113
:104A4E00046E036AEA510324016E000E0420026E06
:104A5E001200010E0301266F000E256F000E276F48
:104A6E00C20E236F000E226FB196A186E40E0501D1
:104A7E00A76F4D0EA86F5DEC26F0F00E0301246FAC
:104A8E001200000E0501A76FA751020DFF0EF324B1
:104A9E00D96E050EF420DA6E000EDF6EA72BA7512D
:104AAE00D8B45CEF25F05EEF25F04BEF25F0120049
:104ABE00B1960501784B792B795109E10A0E785D93
:104ACE00D8A06CEF25F06EEF25F075EF25F076ECA3
:104ADE0025F0000E0501796F000E786F12000601A9
:104AEE0012511311D8B47EEF25F080EF25F08CEF24
:104AFE0025F002D88CEF25F00500FA6E1251FD6EEE
:104B0E001351FE6EFF6AFA501200120003011EA529
:104B1E0093EF25F095EF25F09EEF25F01E910250B4
:104B2E001D6F610004F41CF31E81A3EF25F00250EB
:104B3E001D6F610004F41CF31200060114511511CF
:104B4E00D8B4ACEF25F0AEEF25F0BAEF25F002D8D1
:104B5E00BAEF25F00500FA6E1451FD6E1551FE6E7A
:104B6E00FF6AFA5012001200060110511111D8B44A
:104B7E00C3EF25F0C5EF25F0D1EF25F002D8D1EF28
:104B8E0025F00500FA6E1051FD6E1151FE6EFF6A92
:104B9E00FA50120012000501AE51B0036100CCF3C1
:104BAE00B2F56100D0F3B3F5AE51B103F350B327B4
:104BBE00AF51B003F350B327B2C5AEF5B3C5AFF5E1
:104BCE001200440E03011B6F9B0E196F000E186F1F
:104BDE00B19EA18EE80E0501A76F4D0EA86F67EC72
:104BEE0026F0800E03011A6F1200000E0001606F96
:104BFE00000E616F000E626F000E636F000E646F29
:104C0E00000E656F000E666F000E676F000E686F08
:104C1E001200700E0001AD6F000EAF6F000EB36F7D
:104C2E00020EB16F000EB06F1200AF90D680EA0E7A
:104C3E000501A76F4D0EA86F8AEC26F09F8012001B
:104C4E00100E0101506F040E516F600E526F050E63
:104C5E00536F1200080E01015C6F040E5D6F600E43
:104C6E005E6F050E5F6F1200010E0101046F010EE3
:104C7E00056F060E066F000E076F1200B198EAC59B
:104C8E0001F5EBC502F58DEC25F0A4EC25F0120034
:104C9E0061009CF672F40501A851736E120061005A
:104CAE009CF67AF40501A8517B6E1200A7C512F688
:104CBE00A8C513F61200A7C514F6A8C515F612005E
:104CCE00A7C510F6A8C511F61200A7C5ECF5A8C524
:104CDE00EDF51200A7C5EEF5A8C5EFF51200A7C5B4
:104CEE0016F6A8C517F61200A7C58AF5A8C58BF546
:104CFE001200A7C58CF5A8C58DF51200A7C588F5BD
:104D0E00A8C589F51200A7C5FCF5A8C5FDF51200CA
:104D1E0001010239E832070B1200A7C57CF5A8C5C0
:104D2E007DF51200A7C57EF5A8C57FF51200A7C5B3
:104D3E007AF5A8C57BF51200A7C580F5A8C581F543
:104D4E001200A7C586F5A8C587F51200A7C584F57C
:104D5E00A8C585F51200A7C582F5A8C583F5120072
:104D6E00A7C5F2F5A8C5F3F51200A7C5F4F5A8C5B9
:104D7E00F5F51200A7C5F6F5A8C5F7F51200A7C5FB
:104D8E00F8F5A8C5F9F51200A7C5F0F5A8C5F1F517
:104D9E001200A7C5FAF5A8C5FBF51200016E610059
:104DAE0004F4FBF31200B19EBBEC25F01200AF90A1
:104DBE00E5EC24F01200BF84BF8212000301F39BC6
:104DCE001200D69A1200788E1200789E1200788405
:104DDE001200010012001200120012001200120046
:0C4DEE001200120012001200120012004D
:020000040020DA
:10000000FF0FFF0FFF0FFF0FFF0FFF0FFF0FFF0F80
:10001000FF0FFF0FFF0FFF0FFF0FFF0FFF0FFF0F70
:020000040030CA
:10000000FAEFF7DF9FFFFFFFFFFFFFFFFFFFFFFF9D
:10001000FFFFFFFFFFFFFFFFFFFFFFFFFFFFFFFFF0
:04002000FFFFFFFFE0
:00000001FF
