:020000040000FA
:040000000DEF00F010
:040008005FEF1EF098
:06001800FF0011EF23F0D0
:0D2600000000010203040506070850010058
:10260E002B50800B346E2B502B24366E2AAE12EFCD
:10261E0013F014EF13F015EF13F036803650D8B4D4
:10262E001BEF13F01DEF13F032EF13F03628D8A482
:10263E0023EF13F025EF13F02DEF13F0000E286E9D
:10264E00000E296E000E2A6E000E2B6E2A8E000EC4
:10265E002B6E3AEF13F0000E286E000E296E000E50
:10266E002A6E000E2B6E2F50800B356E345035189F
:10267E00D8B444EF13F046EF13F047EF13F0348C59
:10268E002F502F24356E2EAE4FEF13F051EF13F067
:10269E0052EF13F035803550D8B458EF13F05AEF8F
:1026AE0013F06FEF13F03528D8A460EF13F062EF3C
:1026BE0013F06AEF13F0000E2C6E000E2D6E000E4E
:1026CE002E6E000E2F6E2E8E000E2F6E77EF13F0E5
:1026DE00000E2C6E000E2D6E000E2E6E000E2F6E46
:1026EE003650355CD8B07EEF13F080EF13F0A7EFC5
:1026FE0013F034AC85EF13F087EF13F089EF13F07E
:10270E00800E341A36C537F535C536F537C535F56D
:10271E0028C537F52CC528F537C52CF529C537F54D
:10272E002DC529F537C52DF52AC537F52EC52AF540
:10273E0037C52EF52BC537F52FC52BF537C52FF51C
:10274E00000E376E365035C530F5316A305E000EEC
:10275E00315A31BEBCEF13F0315009E11A0E305C24
:10276E00D8A0BCEF13F0BEEF13F0F5EF13F0285026
:10277E0029102A102B10D8A4C7EF13F0CAEF13F0AC
:10278E00010ECBEF13F0000E376E000E286E000E0A
:10279E00296E000E2A6E000E2B6E35C536F5FEEF35
:1027AE0013F037A0DDEF13F0DFEF13F0E5EF13F0CA
:1027BE00D89037300109376EE7EF13F0D8903732E3
:1027CE0028A0ECEF13F0EEEF13F0EFEF13F0378ECF
:1027DE002B342B322A3229322832362A3550365CA7
:1027EE00D8A0FCEF13F0FEEF13F0D8EF13F034BCCB
:1027FE0003EF14F005EF14F045EF14F03650D8A4A3
:10280E000BEF14F00DEF14F017EF14F0000E286E0E
:10281E00000E296E000E2A6E000E2B6E66EF15F05E
:10282E002C5028262D5029222E502A222F502B2272
:10283E002BA024EF14F026EF14F0D2EF14F037A0F3
:10284E002BEF14F02DEF14F033EF14F0D890373047
:10285E000109376E35EF14F0D890373228A03AEFD1
:10286E0014F03CEF14F03DEF14F0378E2B342B3276
:10287E002A3229322832362AD2EF14F02C50285C14
:10288E002D5029582E502A582B50800A306E2F501A
:10289E00800A3058D8B056EF14F058EF14F083EF8A
:1028AE0014F028502C5C306E29502D58316E2A5061
:1028BE002E58326E2B502F58336EFF0E3024286E4A
:1028CE00FF0E3120296EFF0E32202A6EFF0E3320AE
:1028DE002B6E800E341A376C3750D8A479EF14F063
:1028EE007BEF14F08BEF14F0010E2826000E292238
:1028FE002A222B228BEF14F02C50285E2D50295AB1
:10290E002E502A5A2F502B5A285029102A102B108D
:10291E00D8A494EF14F096EF14F0CBEF14F03750D8
:10292E00D8A49CEF14F09EEF14F0CBEF14F0000E31
:10293E00286E000E296E000E2A6E000E2B6E66EFAC
:10294E0015F0D890283629362A362B3637AEB2EF08
:10295E0014F0B4EF14F0B5EF14F0288037A0BAEFEE
:10296E0014F0BCEF14F0C0EF14F0D8803736C2EF7D
:10297E0014F0D89037363650D8B4C8EF14F0CAEFEA
:10298E0014F0CBEF14F036062AAED0EF14F0D2EFDF
:10299E0014F0A8EF14F0000E356E37AED9EF14F028
:1029AE00DBEF14F0F3EF14F037C530F57F0E301671
:1029BE00D8B4E4EF14F0E6EF14F0EAEF14F0010EE1
:1029CE00356EF3EF14F028A0EFEF14F0F1EF14F0E2
:1029DE00F3EF14F0E6EF14F03550D8B4F9EF14F02D
:1029EE00FBEF14F026EF15F0010E2826000E29221B
:1029FE002A222B222BA006EF15F008EF15F026EF5A
:102A0E0015F028C530F529C531F52AC532F52BC587
:102A1E0033F53334333232323132303230C528F579
:102A2E0031C529F532C52AF533C52BF53628D8B46C
:102A3E0023EF15F025EF15F026EF15F0362A362880
:102A4E00D8B42CEF15F02EEF15F036EF15F03650FA
:102A5E00D8A434EF15F036EF15F048EF15F0000E50
:102A6E00286E000E296E000E2A6E000E2B6E36504A
:102A7E00D8A444EF15F046EF15F048EF15F0000E10
:102A8E00346E36A04DEF15F04FEF15F052EF15F0F6
:102A9E002A8E53EF15F02A9ED89036302B6E34AE18
:102AAE005BEF15F05DEF15F05EEF15F02B8E28C580
:102ABE0028F529C529F52AC52AF52BC52BF51200AF
:102ACE001250800B1B6E12501224216E11AE72EF3B
:102ADE0015F074EF15F075EF15F021802150D8B474
:102AEE007BEF15F07DEF15F090EF15F02128D8A4AF
:102AFE0083EF15F085EF15F08DEF15F0000E0F6ECC
:102B0E00000E106E000E116E000E126E118E98EFEA
:102B1E0015F0000E0F6E000E106E000E116E000EF0
:102B2E00126E1650800B1B1A16501624206E15AE00
:102B3E00A3EF15F0A5EF15F0A6EF15F020802050AD
:102B4E00D8B4ACEF15F0AEEF15F0C1EF15F02028AC
:102B5E00D8A4B4EF15F0B6EF15F0BEEF15F0000ED9
:102B6E00136E000E146E000E156E000E166E158E80
:102B7E00C9EF15F0000E136E000E146E000E156EDA
:102B8E00000E166E2050D8B4CFEF15F0D1EF15F021
:102B9E00D9EF15F02150D8A4D7EF15F0D9EF15F0D5
:102BAE00E3EF15F0000E0F6E000E106E000E116E9C
:102BBE00000E126E8DEF17F015500F026100CCF360
:102BCE0026F56100D0F327F526501C6E1D6A1E6A8D
:102BDE001F6A2750226E236A246A256A1450100237
:102BEE006100CCF326F56100D0F327F526501C26A4
:102BFE00000E1D221E221F2227502226000E2322E7
:102C0E0024222522135011026100CCF326F5610017
:102C1E00D0F327F526501C26000E1D221E221F2241
:102C2E0027502226000E2322242225221EC51FF500
:102C3E001DC51EF51CC51DF51C6A13501002610042
:102C4E00CCF326F56100D0F327F526501C2627502D
:102C5E001D22000E1E22000E1F2214500F026100B4
:102C6E00CCF326F56100D0F327F526501C2627500D
:102C7E001D22000E1E22000E1F221EC51FF51DC591
:102C8E001EF51CC51DF51C6A13500F026100CCF316
:102C9E0026F56100D0F327F526501C2627501D225D
:102CAE00000E1E22000E1F22155010026100CCF3E2
:102CBE0026F56100D0F327F5265022262750232231
:102CCE00000E2422000E2522145011026100CCF3B6
:102CDE0026F56100D0F327F5265022262750232211
:102CEE00000E2422000E2522155011026100CCF395
:102CFE0026F56100D0F327F52650176E2750186E73
:102D0E00196A1A6A19C51AF518C519F517C518F5ED
:102D1E00176A1750222618502322195024221A50AF
:102D2E0025221CC517F51DC518F51EC519F51FC59D
:102D3E001AF5190EA8EF16F0D8901A321932183269
:102D4E001732E82EA3EF16F0175022261850232222
:102D5E00195024221A5025221EC51FF51DC51EF519
:102D6E001CC51DF51C6A205021C517F5186A1726BB
:102D7E00000E1822820E1724266EFF0E1820276EC4
:102D8E00DEEF16F0D89022362336243625361FAEC7
:102D9E00D3EF16F0D5EF16F0D6EF16F02280D890BE
:102DAE001C361D361E361F362606D8A0270624AE24
:102DBE00E3EF16F0E5EF16F0C9EF16F0000E206EF9
:102DCE001FAEECEF16F0EEEF16F012EF17F0FF0E4F
:102DDE001C14176EFF0E1D14186EFF0E1E14196EA6
:102DEE007F0E1F141A6E1750181019101A10D8B41F
:102DFE0003EF17F005EF17F009EF17F0010E206E35
:102E0E0012EF17F022A00EEF17F010EF17F012EFDF
:102E1E0017F005EF17F02050D8B418EF17F01AEF8F
:102E2E0017F03EEF17F0010E2226000E2322242269
:102E3E00252225A025EF17F027EF17F03EEF17F00C
:102E4E0022C517F523C518F524C519F525C51AF59C
:102E5E001A341A3219321832173217C522F518C51C
:102E6E0023F519C524F51AC525F5264A272A27BEA6
:102E7E0049EF17F0275008E12628D8A049EF17F0A0
:102E8E004BEF17F055EF17F0000E226E000E236E6B
:102E9E00800E246E7F0E256E83EF17F027BE62EF35
:102EAE0017F0275006E12604D8B060EF17F062EF56
:102EBE0017F06EEF17F0000E226E000E236E000E4E
:102ECE00246E000E256E000E1B6E83EF17F026C5C6
:102EDE0021F5FF0E2216FF0E23167F0E2416000E6E
:102EEE00251621A07DEF17F07FEF17F080EF17F07A
:102EFE00248ED8902130256E1B50251222C50FF539
:102F0E0023C510F524C511F525C512F51200446E22
:102F1E00F6EF17F00AEC26F0000EF7EC25F0000E97
:102F2E00D8EC23F001C547F502C548F507EC26F0AD
:102F3E00010E466E1BEF18F00AEC26F0010EF7ECB0
:102F4E0025F0010ED8EC23F001C547F502C548F572
:102F5E009DEF17F00AEC26F0020EF7EC25F0170E97
:102F6E00D8EC23F001C547F502C548F507EC26F06D
:102F7E00020E466E1BEF18F00AEC26F0030EF7EC6D
:102F8E0025F0160ED8EC23F001C547F502C548F51D
:102F9E00BDEF17F0D0B8D6EF17F0DAEF17F0426AA0
:102FAE00422ADBEF17F0426A4250476E486A020E21
:102FBE00466E1BEF18F0D0B6E7EF17F0EBEF17F0F9
:102FCE00426A422AECEF17F0426A4250476E486A54
:102FDE00020E466E1BEF18F046681BEF18F04450B9
:102FEE00426E436A4350000AD8B400EF18F0F3EF74
:102FFE0017F04250000AD8B491EF17F0010AD8B476
:10300E00A3EF17F0030AD8B4B1EF17F0010AD8B442
:10301E00C3EF17F0070AD8B4D1EF17F0010AD8B4EE
:10302E00E2EF17F0F3EF17F000F04604D8A422EF0A
:10303E0018F024EF18F08BEF18F0485007E1070E48
:10304E00475CD8B02DEF18F02FEF18F035EF18F0D1
:10305E00000E4C6E000E4B6E3FEF18F047C54BF551
:10306E0048C54CF5FB0E4B244B6EFF0E4C204C6EA0
:10307E00890E4B5C130E4C58D8A048EF18F04AEF4F
:10308E0018F04CEF18F0F1EF18F04BC501F54CC5E8
:10309E0002F5000E046E050E036E15EC22F001C54E
:1030AE0049F502C54AF59C0E4924496EFF0E4A2089
:1030BE004A6E49C501F54AC502F5000E046E0A0EA8
:1030CE00036EA7EC24F001C549F502C54AF549C5C2
:1030DE0001F54AC502F5000E046EE80E036E15ECFE
:1030EE0022F001C549F502C54AF54BC501F54CC59F
:1030FE0002F5000E046E640E036E15EC22F0015004
:10310E00456E4550F1EF18F0020E4618D8A492EF16
:10311E0018F094EF18F0F1EF18F06F0E2C6E810E80
:10312E002D6EA80E2E6EC00E2F6EB30E136E7B0E6E
:10313E00146E920E156E3F0E166E47C501F548C5FC
:10314E0002F5036A046A000E54EC1CF001C50FF57B
:10315E0002C510F503C511F504C512F567EC15F09F
:10316E000FC528F510C529F511C52AF512C52BF581
:10317E0007EC13F028C538F529C539F52AC53AF5F7
:10318E002BC53BF5E4EC1EF038C54BF539C54CF5B7
:10319E00890E4B5C130E4C58D8A0D8EF18F0DAEF0E
:1031AE0018F0DCEF18F0F1EF18F0D8904B34496EB0
:1031BE004C344A6E49C501F54AC502F5000E046E3F
:1031CE00640E036E15EC22F001C549F502C54AF5F1
:1031DE007CEF18F0120053EC20F00009D8B4FAEF8F
:1031EE0018F0FCEF18F020EF1AF0BB0E226E050E51
:1031FE00236E3BEC23F0E806D8A408EF19F00AEF93
:10320E0019F020EF1AF000F0BBC5E7F5BCC5E8F5E4
:10321E00BDC5E9F5BEC5EAF5610000F7D9F4610058
:10322E0004F7DAF4DF500501F26F20EE01F0C05121
:10323E00D926C151DA22DF50F16F20EE02F0C051D3
:10324E00D926C151DA22DF50F06F20EE03F0C051C3
:10325E00D926C151DA22DF50EE6F20EE04F0C051B4
:10326E00D926C151DA22DF50EF6F20EE05F0C051A2
:10327E00D926C151DA22DF50ED6F20EE06F0C05193
:10328E00D926C151DA22DF50EB6F20EE07F0C05184
:10329E00D926C151DA22DF50EC6FDAEF19F0F2C500
:1032AE00B1F5F1C5B0F5F0C5AFF5EEC5AEF5EFC5AC
:1032BE00ADF5AF51B6EC22F020EF1AF0F251070B3C
:1032CE00AC6FF251180BAB6FF251E00BAA6FF151CC
:1032DE00010BA96FF151060BA86FF151780BA76F77
:1032EE00F0C54DF57F0E4D164E6AF1AF01D04E2A48
:1032FE004E304D34A66FEE514D6E4E6AD8904D360F
:10330E004E36EF51506E4F6A4D504F124E50501276
:10331E00516AF0AF01D0512A010E511651504F1083
:10332E00766F5050776F20EF1AF0F2C5A5F5F1C504
:10333E00A4F5F0C5A3F5EEC5A2F5EFC5A1F5EDC553
:10334E00A0F5EBC59FF5ECC59EF520EF1AF0F251F6
:10335E00F1C54DF54E6A4DC54EF54D6A4D10746F63
:10336E004E50756FF051EEC54DF54E6A4DC54EF58A
:10337E004D6A4D10726F4E50736FEF51EDC54DF596
:10338E004E6A4DC54EF54D6A4D10706F4E50716FB1
:10339E0020EF1AF0F2C5AFF5F2C59BF520EF1AF04B
:1033AE0000F020EF1AF0E7C54DF5E8C54EF5E9C57A
:1033BE004FF5EAC550F55050000AD8B419EF1AF07F
:1033CE00D7EF19F04E50030AD8B4F8EF19F0070AE8
:1033DE00D8B403EF1AF0010AD8B40AEF1AF0D7EFF7
:1033EE0019F04D50200AD8B456EF19F0670AD8B428
:1033FE00D3EF19F0D7EF19F04D50120AD8B4D1EF20
:10340E0019F0D7EF19F04D50000AD8B465EF19F046
:10341E00010AD8B49CEF19F0030AD8B4AEEF19F034
:10342E00D7EF19F04F50000AD8B4E9EF19F0D7EFE3
:10343E0019F0120020EE04F00C50D9260D50DA22AD
:10344E00DF50176E17C510F520EE04F00E50D9267A
:10345E000F50DA2210461046DF501018C30B10180A
:10346E00DF6E17B83DEF1AF041EF1AF0106A102A0E
:10347E0042EF1AF0106A20EE04F00E50D9260F50CB
:10348E00DA22DF501018FE0B1018DF6E17BA52EF4B
:10349E001AF056EF1AF0106A102A57EF1AF0106A47
:1034AE0020EE04F00E50D9260F50DA221046DF50CF
:1034BE001018FD0B1018DF6E17BC68EF1AF06CEFCA
:1034CE001AF0106A102A6DEF1AF0106A20EE04F04E
:1034DE000E50D9260F50DA2210321032DF5010184B
:1034EE007F0B1018DF6E17BE7FEF1AF083EF1AF006
:1034FE00106A102A84EF1AF0106A20EE04F00E50B3
:10350E00D9260F50DA22103A10461046DF50101806
:10351E00BF0B1018DF6E20EE01F00C50D9260D50A7
:10352E00DA22DF50106E070E10161050136E146A4A
:10353E00156A166A15C516F514C515F513C514F5D5
:10354E00136A610030F4D9F4610034F4DAF4DF5018
:10355E00106E1050131220EE04F00E50D9260F509C
:10356E00DA22DFA0BDEF1AF0BFEF1AF000EF1BF06A
:10357E00050ED8901336143615361636E82EC0EFD3
:10358E001AF020EE03F00C50D9260D50DA22DF503F
:10359E00106E1F0E10161050131215C516F514C509
:1035AE0015F513C514F5136A20EE02F00C50D9264A
:1035BE000D50DA22DF50106E10501312050ED890F7
:1035CE001336143615361636E82EE6EF1AF020EEC0
:1035DE0001F00C50D9260D50DA22DF50106ED89023
:1035EE001032D8901032D89010321F0E1016105084
:1035FE001312610038F4D9F461003CF4DAF461007E
:10360E004CF4DEF4610050F4DEF4610054F4DEF4A8
:10361E00610058F4DEF4000E016E060E026E080E06
:10362E000C24036E000E0D20046E20EE04F00E50DE
:10363E00D9260F50DA22DF30E8320F0B106E116AE6
:10364E00010E1024F66E260E1120F76EF86A000E8B
:10365E00F8220800F550056E066AE4EC22F020EE22
:10366E0005F00E50D9260F50DA22000EDE6E060E31
:10367E00DD6E1200000E0301F96F3F0EFA6F000EA1
:10368E00D86F000EFB6F000ED96F000EDA6F000EB2
:10369E00DB6F000EDC6F000EDF6F000EE06F000EB2
:1036AE00E36F000EE46F000EE56F000EE66F000E86
:1036BE00E76F000EEA6F000EEB6F000EEC6FE80E78
:1036CE00EE6F030EEF6F000EF06F000EF16F000E37
:1036DE00F26F000EF36F000EF46F100EF56F000E0A
:1036EE00F66F000EF76F000EF86F000EFC6F010EF6
:1036FE00FB6F000ED96F000EDA6F000EDB6F000E3F
:10370E00DC6F000EDF6F000EE06F000EE36F000E39
:10371E00E46F000EE56F000EE66F000EE76F000E11
:10372E00EA6F000EEB6F010EEC6FE80EEE6F030EFC
:10373E00EF6F000EF06F000EF16F000EF26F000EC5
:10374E00F36F000EF46F100EF56F000EF66F000E95
:10375E00F76F000EF86F000EFD6F020EFB6F000E7E
:10376E00D96F000EDA6F000EDB6F000EDC6F000EED
:10377E00DF6F000EE06F000EE36F000EE46F000EC1
:10378E00E56F000EE66F000EE76F000EEA6F000E9B
:10379E00EB6F170EEC6FE80EEE6F030EEF6F000E71
:1037AE00F06F000EF16F000EF26F000EF36F000E51
:1037BE00F46F100EF56F000EF66F000EF76F000E21
:1037CE00F86F000EFE6F030EFB6F000ED96F000E2A
:1037DE00DA6F000EDB6F000EDC6F000EDF6F000E77
:1037EE00E06F000EE36F000EE46F000EE56F000E4B
:1037FE00E66F000EE76F000EEA6F000EEB6F160E0F
:10380E00EC6FE80EEE6F030EEF6F000EF06F000E12
:10381E00F16F000EF26F000EF36F000EF46F100ECC
:10382E00F56F000EF66F000EF76F000EF86F000EBC
:10383E00FF6FAF94AF96B090B092B094B096000E6A
:10384E000601086F000E096FF2EC25F0000E06015E
:10385E00086F000E096FE8EC25F0000E0601086FE8
:10386E00000E096FE3EC25F0000E0601086F000E46
:10387E00096FDEEC25F0000E0601086F000E096FD1
:10388E00D9EC25F0000E0601086F000E096FEDEC65
:10389E0025F0840E0301F36F1200096E0950D8B49F
:1038AE005BEF1CF05DEF1CF07FEF1CF004BE64EFCD
:1038BE001CF062EF1CF07FEF1CF001C505F502C590
:1038CE0006F503C507F504C508F5051E061E071EF9
:1038DE00081E052A000E06220722082205C50BF532
:1038EE0006C50CF507C50DF508C50EF587EF1CF0DE
:1038FE0001C50BF502C50CF503C50DF504C50EF596
:10390E000150021003100410D8A490EF1CF092EF97
:10391E001CF09CEF1CF0000E016E000E026E000EED
:10392E00036E000E046E2DEF1DF0960E0A6EA6EFBE
:10393E001CF00A2AD8900E320D320C320B32000EC9
:10394E000B14056E000E0C14066E000E0D14076E91
:10395E00FE0E0E14086E0550061007100810D8A49F
:10396E00BBEF1CF0BDEF1CF0A0EF1CF0CBEF1CF07A
:10397E000A2A010E0B26000E0C220D220E22D890C2
:10398E000E320D320C320B32000E0B14056E000E81
:10399E000C14066E000E0D14076EFF0E0E14086E3C
:1039AE000550061007100810D8A4E0EF1CF0E2EF47
:1039BE001CF0BFEF1CF0EAEF1CF00A06D8900B3695
:1039CE000C360D360E360DBEEFEF1CF0F1EF1CF07F
:1039DE00F9EF1CF0020E0A60F7EF1CF0F9EF1CF085
:1039EE00E4EF1CF00AB0FEEF1CF000EF1DF001EF4B
:1039FE001DF00D9ED8900A320AC505F5066A076AB3
:103A0E00086A05C508F5076A066A056A05500B12AD
:103A1E0006500C1207500D1208500E120950D8B451
:103A2E001BEF1DF01DEF1DF025EF1DF004BE24EF62
:103A3E001DF022EF1DF025EF1DF00E8E0BC501F5CA
:103A4E000CC502F50DC503F50EC504F512000101F6
:103A5E001DAF34EF1DF036EF1DF045EF1DF002D80F
:103A6E0043EF1DF00500FA6E05018A51FD6E8B5174
:103A7E00FE6EFF6AFA50120001011D9F1DAD4AEF46
:103A8E001DF04CEF1DF05BEF1DF002D859EF1DF04D
:103A9E000500FA6E05018851FD6E8951FE6EFF6AB2
:103AAE00FA50120001011D9D1DAB60EF1DF062EF7B
:103ABE001DF071EF1DF002D86FEF1DF00500FA6ECC
:103ACE0005018651FD6E8751FE6EFF6AFA50120097
:103ADE0001011D9B1CA776EF1DF078EF1DF087EFFF
:103AEE001DF002D885EF1DF00500FA6E0501845118
:103AFE00FD6E8551FE6EFF6AFA50120001011C9791
:103B0E001DA98CEF1DF08EEF1DF09DEF1DF002D85C
:103B1E009BEF1DF00500FA6E05018251FD6E83517B
:103B2E00FE6EFF6AFA50120001011D991DA5A2EF4B
:103B3E001DF0A4EF1DF0BAEF1DF002D8B1EF1DF08D
:103B4E000500FA6E05018051FD6E8151FE6EFF6A11
:103B5E00FA501200010154A9B7EF1DF0B9EF1DF094
:103B6E00BAEF1DF054991DA7BFEF1DF0C1EF1DF068
:103B7E00D7EF1DF002D8CEEF1DF00500FA6E05014D
:103B8E007E51FD6E7F51FE6EFF6AFA5012000101EA
:103B9E0060A7D4EF1DF0D6EF1DF0D7EF1DF06097A4
:103BAE00AE9C1200000E0A6E08BEE2EF1DF0E0EFB2
:103BBE001DF0ECEF1DF0081E071E061E056C000E14
:103BCE00062207220822010E0A6E04BEF3EF1DF034
:103BDE00F1EF1DF0FDEF1DF0041E031E021E016C21
:103BEE00000E022203220422010E0A1A000E0B6E90
:103BFE00000E0C6E000E0D6E000E0E6E05500610B1
:103C0E0007100810D8B40EEF1EF010EF1EF046EF9E
:103C1E001EF0010E096E1AEF1EF0D890053606360C
:103C2E0007360836092A08AE1FEF1EF021EF1EF0E8
:103C3E0014EF1EF0D8900B360C360D360E3605509E
:103C4E00015C065002580750035808500458D8A07B
:103C5E0033EF1EF035EF1EF03EEF1EF00550015E05
:103C6E000650025A0750035A0850045A0B80D89037
:103C7E000832073206320532092E21EF1EF00A50A5
:103C8E00D8B44CEF1EF04EEF1EF056EF1EF00E1E87
:103C9E000D1E0C1E0B6C000E0C220D220E220BC5DF
:103CAE0001F50CC502F50DC503F50EC504F51200A0
:103CBE006100D8F352F56100DCF353F56100E0F3D7
:103CCE0054F56100D4F355F5A1AE70EF1EF072EF0E
:103CDE001EF07DEF1EF0B1AE77EF1EF079EF1EF005
:103CEE007DEF1EF0FCEC25F0D7EF1EF09FA082EFCB
:103CFE001EF084EF1EF08FEF1EF0AFA089EF1EF0C6
:103D0E008BEF1EF08FEF1EF000EC26F0D7EF1EF0BB
:103D1E00A1A694EF1EF096EF1EF0A1EF1EF0B1A635
:103D2E009BEF1EF09DEF1EF0A1EF1EF068EC25F04C
:103D3E00D7EF1EF09EACA6EF1EF0A8EF1EF0B3EF6D
:103D4E001EF0AEACADEF1EF0AFEF1EF0B3EF1EF0F7
:103D5E002EEC1DF0D7EF1EF0A2A8B8EF1EF0BAEFB2
:103D6E001EF0C5EF1EF0B2A8BFEF1EF0C1EF1EF0A1
:103D7E00C5EF1EF07CEC24F0D7EF1EF0A1A8CAEF21
:103D8E001EF0CCEF1EF0D7EF1EF0B1A8D1EF1EF053
:103D9E00D3EF1EF0D7EF1EF0B8EC20F0D7EF1EF0E9
:103DAE00610054F5F5F4610050F5F8F461004CF53E
:103DBE00F7F4610048F5F6F411003A343B34416EE5
:103DCE004150D8A4EDEF1EF0EFEF1EF0F9EF1EF00C
:103DDE00000E386E000E396E000E3A6E000E3B6EFF
:103DEE0066EF1FF038C53CF539C53DF53AC53EF5D1
:103DFE003BC53FF5200E09EF1FF0D8903F323E3203
:103E0E003D323C32E82E04EF1FF03C50406E3A8EAD
:103E1E00FF0E3816FF0E3916FF0E3A16000E3B1621
:103E2E00960E415E41BE20EF1FF01EEF1FF036EFE3
:103E3E001FF04150800A970FD8B028EF1FF02AEFDD
:103E4E001FF02CEF1FF0EFEF1EF0D8903B323A32FE
:103E5E0039323832413E2CEF1FF04EEF1FF01F0E5D
:103E6E0041643CEF1FF03EEF1FF046EF1FF0EFEF07
:103E7E001EF0D890383639363A363B364106415028
:103E8E00D8A44CEF1FF04EEF1FF040EF1FF0405044
:103E9E00D8B454EF1FF056EF1FF05EEF1FF03B1E2D
:103EAE003A1E391E386C000E39223A223B2238C592
:103EBE0038F539C539F53AC53AF53BC53BF512002B
:103ECE00490E016E990E026E000E036E000E046E08
:103EDE0044C505F545C506F5076A086AD9EC1DF017
:103EEE0001C548F502C549F56A0E2C6E4D0E2D6EB4
:103EFE00930E2E6EBF0E2F6E48C501F549C502F505
:103F0E00036A046A000E54EC1CF001C528F502C5C4
:103F1E0029F503C52AF504C52BF507EC13F028C5C2
:103F2E0038F529C539F52AC53AF52BC53BF5E4EC2C
:103F3E001EF038C548F539C549F542C546F543C5A5
:103F4E0047F5D89046364736D8904636473646C55A
:103F5E004AF547C54BF54AC501F54BC502F5000EAE
:103F6E00046E640E036EA7EC24F001C54AF502C57B
:103F7E004BF54AC501F54BC502F544C503F545C5DC
:103F8E0004F515EC22F001C54AF502C54BF54AC5FC
:103F9E0001F54BC502F574EC25F048C501F549C590
:103FAE0002F56EEC25F012EC26F01200216E000EDA
:103FBE001D6E18503DEC25F0206E20A0E9EF1FF08D
:103FCE00EBEF1FF051EF20F018500C0D580EF324AC
:103FDE00D96E010EF420DA6E610078F31EF56100E1
:103FEE0074F31FF51E501F10D8B400EF20F002EF2F
:103FFE0020F051EF20F01EC50CF51FC50DF519C5AB
:10400E000EF51AC50FF521EC1AF018500C0D510EC5
:10401E00F324D96E010EF420DA6E000EDB802150EF
:10402E00020DF40EF324D96E050EF420DA6EDF2A9B
:10403E00185016EC25F01B6E2150020DF40EF324D1
:10404E00D96E050EF420DA6E1B50DE5CD8A032EF6E
:10405E0020F034EF20F03EEF20F02150020DF40E50
:10406E00F324D96E050EF420DA6E000EDF6E20A654
:10407E0043EF20F045EF20F04FEF20F018500C0DDD
:10408E00540EF324D96E010EF420DA6EF70EDF16FD
:10409E00010E1D6E1D501200000E036E000E0A6EF4
:1040AE000A50020DF30EF324D96E050EF420DA6ECB
:1040BE00DF50066E06503DEC25F0056E05A06AEF4A
:1040CE0020F06CEF20F0ADEF20F0065016EC25F04E
:1040DE00076E05A675EF20F077EF20F07BEF20F04E
:1040EE0007C504F5ABEF20F006500C0D550EF3246A
:1040FE00D96E010EF420DA6EDF501F0B086E0A50D7
:10410E00020DF40EF324D96E050EF420DA6EDF5094
:10411E00096E0950085CD8B097EF20F099EF20F0A7
:10412E009FEF20F00950085C0724046EABEF20F0DF
:10413E000850095CD8B0A6EF20F0A8EF20F077EF7A
:10414E0020F00950085C046E045003260A2A0A5017
:10415E00D8B4B4EF20F0B6EF20F057EF20F00350B4
:10416E001200B198CFC501F5D0C502F537EC24F099
:10417E004EEC24F01CEC26F05D2A060E5D18D8A439
:10418E00CBEF20F0CDEF20F0D1EF20F0000E5D6EE2
:10419E0018EC26F05C2A0B0E5C18D8A4D9EF20F090
:1041AE00DBEF20F0DFEF20F0000E5C6EE4EC24F08D
:1041BE000501B22B650EB219D8A4E8EF20F0EAEF94
:1041CE0020F0EEEF20F0000EB26F1BEC26F0050192
:1041DE007C4B7D2B2D0E7C1906E17D05D8A4FAEFC4
:1041EE0020F0FCEF20F002EF21F0000E7D6F000EAC
:1041FE007C6F19EC26F005017A4B7B2B590E7A1940
:10420E0007E1020E7B19D8A40FEF21F011EF21F078
:10421E0017EF21F0000E7B6F000E7A6F1AEC26F06E
:10422E00120006010A6F000E0601096FB1EC25F0AF
:10423E000601086F040E0819D8B428EF21F02AEFF2
:10424E0021F03BEF21F00A05D8B430EF21F032EF28
:10425E0021F03BEF21F0040E0A19D8A439EF21F01A
:10426E003BEF21F060EF21F00101035106010A1925
:10427E00F80B0A190101036F52EF21F001011DA97C
:10428E004BEF21F04DEF21F052EF21F0020E06011F
:10429E00096F62EF21F00239E832070B06010A19A5
:1042AE00D8A45CEF21F05EEF21F045EF21F062EF34
:1042BE0021F0010E096F09511200460E0601086F1A
:1042CE004C0E096FCAEC25F0480E0601086F4C0E15
:1042DE00096FCFEC25F04A0E0601086F4C0E096FE0
:1042EE00D4EC25F0440E0601086F4C0E096FC5EC98
:1042FE0025F0400E0601086F4C0E096FBBEC25F041
:10430E003E0E0601086F4C0E096FB6EC25F0420EFC
:10431E000601086F4C0E096FC0EC25F0AE9C000E26
:10432E0001011C6F000E1D6F0A0E1E6FFC0E1F6F1B
:10433E009E8C1200000E6F6E020E706E000E716E6D
:10434E00500E726E0F0E736EFE0E746E000E756E44
:10435E00000E766E000E776E000E796E0D0E7A6E72
:10436E00050E7B6EA80E7C6E070E7D6EB39CB39E03
:10437E0076907692A39EA39C000E0601086F000E07
:10438E00096F8EEC25F0000E0601086F000E096F06
:10439E0089EC25F0000E0601086F000E096F93ECF4
:1043AE0025F0800E786E1200000E606E020E616EA9
:1043BE00000E626E3D0E636E000E646EFE0E656E36
:1043CE00000E666E000E676E000E686E000E6A6E50
:1043DE001F0E6B6E000E6C6E1F0E6D6E000E6E6EEF
:1043EE00B29CB29E67906792A29EA29C000E06019E
:1043FE00086F000E096F9DEC25F0000E0601086F88
:10440E00000E096F98EC25F0000E0601086F000EE5
:10441E00096FA2EC25F0800E696E1200000E066E7A
:10442E00000E056E03500410D8B420EF22F022EFD8
:10443E0022F04AEF22F0010E076E2AEF22F0D890FA
:10444E0003360436072A04AE2FEF22F031EF22F0A6
:10445E0026EF22F0D890053606360350015C045044
:10446E000258D8A03DEF22F03FEF22F044EF22F0A9
:10447E000350015E0450025A0580D8900432033274
:10448E00072E31EF22F005C501F506C502F5120023
:10449E00000EBE6E000EBF6E000EC06E080ECA6E0F
:1044AE00EF0EC66EC80EC76EDC0EC86ED80E0401B7
:1044BE00106F400E086FCF0E006F000E216F000EB2
:1044CE00096F000E016F000E116F000E026F000ECD
:1044DE000A6F000E126F03690B69136904690C6988
:1044EE001469080E246F180E0201116F0F0E696FFA
:1044FE00050E3E6F1A0E126F0B0E3D6F460E0D6FB0
:10450E0012000101018F040E18EC21F00009D8A44D
:10451E0093EF22F095EF22F0B5EF22F0000E01019D
:10452E004C6F260E4D6F000E4E6F000E4F6F600ECD
:10453E00006F970E016F100E026F5EEC25F054ECBB
:10454E0025F092EC24F0F6EC24F009EC24F064EC67
:10455E0021F0060E18EC21F0C79ABF9A12004C6E8D
:10456E0005019B05D8A4BEEF22F0C0EF22F0E3EFC9
:10457E0022F04C503C0D6100CCF356F56100D0F3A7
:10458E0057F556C501F557C502F5000E046E640EBB
:10459E00036E15EC22F001C556F502C557F55650BF
:1045AE00566E576A56C542F557C543F5010E456E10
:1045BE002C0E446E67EC1FF0120003C509F504C5FE
:1045CE000AF501C507F502C508F503EF23F06100F2
:1045DE0024F4D9F4610028F4DAF4DF500B6E094AA2
:1045EE000A2A61001CF4D9F4610020F4DAF46100A7
:1045FE002CF4DFF4074A082A0506D8A0060605287B
:10460E0006E10628D8A40EEF23F010EF23F0EEEF0C
:10461E0022F01200280EF66E4C0EF76E000EF86E9B
:10462E0009006100D4F3F3F509006100D4F3F4F549
:10463E0001EE00F2080EEE6AE806FDE101EE60F111
:10464E00690EEE6AE806FDE101EE56F1080EEE6A1D
:10465E00E806FDE10401080E5D6F000E5E6F000EB0
:10466E005F6F000125EF25F0000E256E2550020D1F
:10467E00F30EF324D96E050EF420DA6EDF50186EA9
:10468E0022C519F523C51AF52550DDEC1FF0246E51
:10469E002450D8B455EF23F057EF23F059EF23F001
:1046AE0062EF23F0252A2550D8B460EF23F062EF95
:1046BE0023F03DEF23F024501200000E03011F6F74
:1046CE00000E206F010E216F850E1D6FEE0E1C6FFA
:1046DE00B1981C51600074FC0AF606010B6B0AC6F9
:1046EE000BF60A6B0A110501CF6F06010B5105017E
:1046FE00D06FA1882E0E0601086F4C0E096F7FEC4D
:10470E0025F0310E03011E6F1200000ECEBA010EFF
:10471E000501996F9905D8A497EF23F099EF23F02F
:10472E00A5EF23F0000E8EEC17F00501986F010E29
:10473E008EEC17F00501976F56C59AF5120010EC26
:10474E0026F0D0EC24F041EC1BF04FEC22F031ECD3
:10475E0025F0F1EC23F064EC23F049EC25F0BCECF1
:10476E0024F0A1EC21F088EC22F0DBEC21F0120019
:10477E008CEC23F00501E351E411D8B4C9EF23F01A
:10478E00CBEF23F0D7EF23F002D8D7EF23F00500BD
:10479E00FA6EE351FD6EE451FE6EFF6AFA5012009E
:1047AE001200056E610014F4ECF30301F38FF39D18
:1047BE00F381F3B1E5EF23F0E7EF23F0E0EF23F021
:1047CE00EB51046E036AEA510324016E000E0420BD
:1047DE00026E1200010E0301266F000E256F000EF1
:1047EE00276FC20E236F000E226FB196A1862A0E7E
:1047FE000601086F4C0E096F7AEC25F0F00E0301DE
:10480E00246F1200000E0601086F0851020DF40EFF
:10481E00F324D96E050EF420DA6E000EDF6E082B2F
:10482E000851D8B41DEF24F01FEF24F00CEF24F044
:10483E0012000501CB51CC11D8B428EF24F02AEF89
:10484E0024F036EF24F002D836EF24F00500FA6E8D
:10485E00CB51FD6ECC51FE6EFF6AFA501200120063
:10486E0003011EA53DEF24F03FEF24F048EF24F0A6
:10487E001E9102501D6F610004F41CF31E814DEF5A
:10488E0024F002501D6F610004F41CF312000501A8
:10489E00CD51CE11D8B456EF24F058EF24F064EF7A
:1048AE0024F002D864EF24F00500FA6ECD51FD6EAF
:1048BE00CE51FE6EFF6AFA50120012000501C95168
:1048CE00CA11D8B46DEF24F06FEF24F07BEF24F013
:1048DE0002D87BEF24F00500FA6EC951FD6ECA5165
:1048EE00FE6EFF6AFA5012001200010160A182EF03
:1048FE0024F084EF24F091EF24F002D891EF24F00D
:10490E000500FA6E05018C51FD6E8D51FE6EFF6A2B
:10491E00FA5012001200190E01015C6F040E5D6F49
:10492E00600E5E6F050E5F6F1A0E0601086F4C0E5D
:10493E00096FACEC25F001011E83B298A28812001B
:10494E00015003026100CCF305F56100D0F306F5CA
:10495E0001500402F350062602500302F3500626BD
:10496E0005C501F506C502F51200440E03011B6FC5
:10497E009B0E196F000E186FB19EA18E3A0E060196
:10498E00086F4C0E096F84EC25F0800E03011A6F30
:10499E001200000E0001606F000E616F000E626F5C
:1049AE00000E636F000E646F000E656F000E666F73
:1049BE00000E676F000E686F1200BEB8E9EF24F0AC
:1049CE00ECEF24F0010EEDEF24F0000EFF0A016E65
:1049DE00013ABE500118EF0B0118BE6E12005F0EA9
:1049EE000101946F956996699769000E986F000E94
:1049FE00996F000E9A6F000E9B6F810E816F1200E1
:104A0E00040100810083108F108D10891087C698C5
:104A1E00C790C794C792C79AC884C89A1200026EEC
:104A2E0002500C0D530EF324D96E010EF420DA6EE3
:104A3E00DF50016E1F0E011601281200A6EC23F0A6
:104A4E00D68E07EC25F004EC26F000F02CEF25F0C6
:104A5E000DEF00F0700E0001AD6F000EAF6F000E87
:104A6E00B36F020EB16F000EB06F1200016E0150E7
:104A7E000C0D540EF324D96E010EF420DA6EDF50B5
:104A8E00090B1200AF90D6803C0E0601086F4C0E3B
:104A9E00096FA7EC25F09F801200100E0101506FD8
:104AAE00040E516F610E526F050E536F1200010E00
:104ABE000101046F010E056F060E066F000E076FE3
:104ACE001200B19620EC24F016EC26F012006100D4
:104ADE0004F463F40250646E1200610004F46BF48B
:104AEE0002506C6E120008C6CBF509C6CCF512004A
:104AFE0008C6CDF509C6CEF5120008C6C9F509C619
:104B0E00CAF5120008C6D3F509C6D4F5120008C6B8
:104B1E00D5F509C6D6F5120008C6D1F509C6D2F5E7
:104B2E00120008C690F509C691F5120008C692F556
:104B3E0009C693F5120008C68EF509C68FF5120048
:104B4E0008C6E3F509C6E4F5120008C68CF509C6D9
:104B5E008DF5120001010239E832070B120008C66A
:104B6E0080F509C681F5120008C682F509C683F5DF
:104B7E00120008C67EF509C67FF5120008C684F538
:104B8E0009C685F5120008C68AF509C68BF512000E
:104B9E0008C688F509C689F5120008C686F509C645
:104BAE0087F5120008C6D9F509C6DAF5120008C64F
:104BBE00DBF509C6DCF5120008C6DDF509C6DEF523
:104BCE00120008C6DFF509C6E0F5120008C6D7F5D3
:104BDE0009C6D8F5120008C6E1F509C6E2F51200BD
:104BEE00016E610004F4FBF31200B19E65EC24F03B
:104BFE001200AF90BFEC23F0120003011A9F1200B7
:104C0E000301F39112000301F39B1200F2EC18F072
:104C1E001200D69A120069841200010012001200CE
:104C2E0012001200120012001200120012001200E6
:0E4C3E001200120012001200120012001200EA
:020000040020DA
:10000000FF0FFF0FFF0FFF0FFF0FFF0FFF0FFF0F80
:10001000FF0FFF0FFF0FFF0FFF0FFF0FFF0FFF0F70
:020000040030CA
:10000000FAEFF7DF9FFFFFFFFFFFFFFFFFFFFFFF9D
:10001000FFFFFFFFFFFFFFFFFFFFFFFFFFFFFFFFF0
:04002000FFFFFFFFE0
:00000001FF
