:040000000DEF00F010
:04000800E4EF2AF007
:06001800FF0087EF2DF050
:0D2600000000010203040506070850010058
:10260E0005019851800BA16F98519825A36F97AF34
:10261E0013EF13F015EF13F016EF13F0A381A35180
:10262E00D8B41CEF13F01EEF13F033EF13F0A32901
:10263E00D8A424EF13F026EF13F02EEF13F0000EB4
:10264E00956F000E966F000E976F000E986F978F16
:10265E00000E986F3BEF13F0000E956F000E966F05
:10266E00000E976F000E986F9C51800BA26FA151B8
:10267E00A219D8B445EF13F047EF13F048EF13F05B
:10268E00A18D9C519C25A26F9BAF50EF13F052EF82
:10269E0013F053EF13F0A281A251D8B459EF13F0F7
:1026AE005BEF13F070EF13F0A229D8A461EF13F0D3
:1026BE0063EF13F06BEF13F0000E996F000E9A6F2D
:1026CE00000E9B6F000E9C6F9B8F000E9C6F78EF21
:1026DE0013F0000E996F000E9A6F000E9B6F000E96
:1026EE009C6FA351A25DD8B07FEF13F081EF13F072
:1026FE00A8EF13F0A1AD86EF13F088EF13F08AEF79
:10270E0013F0800EA11BA3C5A4F5A2C5A3F5A4C505
:10271E00A2F595C5A4F599C595F5A4C599F596C5E7
:10272E00A4F59AC596F5A4C59AF597C5A4F59BC5CB
:10273E0097F5A4C59BF598C5A4F59CC598F5A4C5B9
:10274E009CF5000EA46FA351A2C59DF59E6B9D5FD7
:10275E00000E9E5B9EBFBDEF13F09E5109E11A0E57
:10276E009D5DD8A0BDEF13F0BFEF13F0F6EF13F0A1
:10277E009551961197119811D8A4C8EF13F0CBEF7D
:10278E0013F0010ECCEF13F0000EA46F000E956F38
:10279E00000E966F000E976F000E986FA2C5A3F5F0
:1027AE00FFEF13F0A4A1DEEF13F0E0EF13F0E6EF6E
:1027BE0013F0D890A4310109A46FE8EF13F0D8906C
:1027CE00A43395A1EDEF13F0EFEF13F0F0EF13F04C
:1027DE00A48F98359833973396339533A32BA25104
:1027EE00A35DD8A0FDEF13F0FFEF13F0D9EF13F0B8
:1027FE00A1BD04EF14F006EF14F046EF14F0A35150
:10280E00D8A40CEF14F00EEF14F018EF14F0000E25
:10281E00956F000E966F000E976F000E986F67EF14
:10282E0015F0995195279A5196239B5197239C51B8
:10283E00982398A125EF14F027EF14F0D3EF14F09E
:10284E00A4A12CEF14F02EEF14F034EF14F0D89066
:10285E00A4310109A46F36EF14F0D890A43395A1DA
:10286E003BEF14F03DEF14F03EEF14F0A48F9835CB
:10287E009833973396339533A32BD3EF14F09951A6
:10288E00955D9A5196599B5197599851800A9D6F13
:10289E009C51800A9D59D8B057EF14F059EF14F09F
:1028AE0084EF14F09551995D9D6F96519A599E6FD4
:1028BE0097519B599F6F98519C59A06FFF0E9D2564
:1028CE00956FFF0E9E21966FFF0E9F21976FFF0E45
:1028DE00A021986F800EA11BA46DA451D8A47AEFED
:1028EE0014F07CEF14F08CEF14F0010E9527000E0F
:1028FE009623972398238CEF14F09951955F9A5154
:10290E00965B9B51975B9C51985B955196119711D5
:10291E009811D8A495EF14F097EF14F0CCEF14F0B3
:10292E00A451D8A49DEF14F09FEF14F0CCEF14F047
:10293E00000E956F000E966F000E976F000E986F3B
:10294E0067EF15F0D8909537963797379837A4AF2D
:10295E00B3EF14F0B5EF14F0B6EF14F09581A4A117
:10296E00BBEF14F0BDEF14F0C1EF14F0D880A43714
:10297E00C3EF14F0D890A437A351D8B4C9EF14F014
:10298E00CBEF14F0CCEF14F0A30797AFD1EF14F008
:10299E00D3EF14F0A9EF14F0000EA26FA4AFDAEF8C
:1029AE0014F0DCEF14F0F4EF14F0A4C59DF57F0ED7
:1029BE009D17D8B4E5EF14F0E7EF14F0EBEF14F039
:1029CE00010EA26FF4EF14F095A1F0EF14F0F2EFF8
:1029DE0014F0F4EF14F0E7EF14F0A251D8B4FAEFBC
:1029EE0014F0FCEF14F027EF15F0010E9527000EF2
:1029FE0096239723982398A107EF15F009EF15F06A
:102A0E0027EF15F095C59DF596C59EF597C59FF5D3
:102A1E0098C5A0F5A035A0339F339E339D339DC539
:102A2E0095F59EC596F59FC597F5A0C598F5A32972
:102A3E00D8B424EF15F026EF15F027EF15F0A32BE1
:102A4E00A329D8B42DEF15F02FEF15F037EF15F0B1
:102A5E00A351D8A435EF15F037EF15F049EF15F067
:102A6E00000E956F000E966F000E976F000E986F0A
:102A7E00A351D8A445EF15F047EF15F049EF15F027
:102A8E00000EA16FA3A14EEF15F050EF15F053EF0E
:102A9E0015F0978F54EF15F0979FD890A331986F3C
:102AAE00A1AF5CEF15F05EEF15F05FEF15F0988FAC
:102ABE0095C595F596C596F597C597F598C598F56C
:102ACE0012002B50800B346E2B502B24366E2AAEF8
:102ADE0073EF15F075EF15F076EF15F03680365072
:102AEE00D8B47CEF15F07EEF15F093EF15F0362885
:102AFE00D8A484EF15F086EF15F08EEF15F0000ECA
:102B0E00286E000E296E000E2A6E000E2B6E2A8E77
:102B1E00000E2B6E9BEF15F0000E286E000E296E28
:102B2E00000E2A6E000E2B6E2F50800B356E345019
:102B3E003518D8B4A5EF15F0A7EF15F0A8EF15F0DE
:102B4E00348C2F502F24356E2EAEB0EF15F0B2EF21
:102B5E0015F0B3EF15F035803550D8B4B9EF15F048
:102B6E00BBEF15F0D0EF15F03528D8A4C1EF15F056
:102B7E00C3EF15F0CBEF15F0000E2C6E000E2D6E80
:102B8E00000E2E6E000E2F6E2E8E000E2F6ED8EFB4
:102B9E0015F0000E2C6E000E2D6E000E2E6E000E19
:102BAE002F6E3650355CD8B0DFEF15F0E1EF15F033
:102BBE0008EF16F034ACE6EF15F0E8EF15F0EAEF9B
:102BCE0015F0800E341A36C537F535C536F537C5CE
:102BDE0035F528C537F52CC528F537C52CF529C58B
:102BEE0037F52DC529F537C52DF52AC537F52EC56F
:102BFE002AF537C52EF52BC537F52FC52BF537C55D
:102C0E002FF5000E376E365035C530F5316A305E11
:102C1E00000E315A31BE1DEF16F0315009E11A0E79
:102C2E00305CD8A01DEF16F01FEF16F056EF16F021
:102C3E00285029102A102B10D8A428EF16F02BEFAD
:102C4E0016F0010E2CEF16F0000E376E000E286EE9
:102C5E00000E296E000E2A6E000E2B6E35C536F54F
:102C6E005FEF16F037A03EEF16F040EF16F046EF8E
:102C7E0016F0D89037300109376E48EF16F0D8901D
:102C8E00373228A04DEF16F04FEF16F050EF16F03A
:102C9E00378E2B342B322A3229322832362A3550AF
:102CAE00365CD8A05DEF16F05FEF16F039EF16F038
:102CBE0034BC64EF16F066EF16F0A6EF16F0365041
:102CCE00D8A46CEF16F06EEF16F078EF16F0000E3B
:102CDE00286E000E296E000E2A6E000E2B6EC7EFA8
:102CEE0017F02C5028262D5029222E502A222F50F4
:102CFE002B222BA085EF16F087EF16F033EF17F08F
:102D0E0037A08CEF16F08EEF16F094EF16F0D890E9
:102D1E0037300109376E96EF16F0D890373228A06B
:102D2E009BEF16F09DEF16F09EEF16F0378E2B34BC
:102D3E002B322A3229322832362A33EF17F02C5012
:102D4E00285C2D5029582E502A582B50800A306E50
:102D5E002F50800A3058D8B0B7EF16F0B9EF16F0F2
:102D6E00E4EF16F028502C5C306E29502D58316E41
:102D7E002A502E58326E2B502F58336EFF0E3024A1
:102D8E00286EFF0E3120296EFF0E32202A6EFF0EA6
:102D9E0033202B6E800E341A376C3750D8A4DAEFEE
:102DAE0016F0DCEF16F0ECEF16F0010E2826000EF2
:102DBE0029222A222B22ECEF16F02C50285E2D50C1
:102DCE00295A2E502A5A2F502B5A285029102A1081
:102DDE002B10D8A4F5EF16F0F7EF16F02CEF17F036
:102DEE003750D8A4FDEF16F0FFEF16F02CEF17F0CA
:102DFE00000E286E000E296E000E2A6E000E2B6E2F
:102E0E00C7EF17F0D890283629362A362B3637AE2C
:102E1E0013EF17F015EF17F016EF17F0288037A005
:102E2E001BEF17F01DEF17F021EF17F0D880373694
:102E3E0023EF17F0D89037363650D8B429EF17F065
:102E4E002BEF17F02CEF17F036062AAE31EF17F0F6
:102E5E0033EF17F009EF17F0000E356E37AE3AEF7D
:102E6E0017F03CEF17F054EF17F037C530F57F0E23
:102E7E003016D8B445EF17F047EF17F04BEF17F0B9
:102E8E00010E356E54EF17F028A050EF17F052EFE9
:102E9E0017F054EF17F047EF17F03550D8B45AEF3C
:102EAE0017F05CEF17F087EF17F0010E2826000ED3
:102EBE0029222A222B222BA067EF17F069EF17F099
:102ECE0087EF17F028C530F529C531F52AC532F53B
:102EDE002BC533F53334333232323132303230C5E2
:102EEE0028F531C529F532C52AF533C52BF5362817
:102EFE00D8B484EF17F086EF17F087EF17F0362A65
:102F0E003628D8B48DEF17F08FEF17F097EF17F034
:102F1E003650D8A495EF17F097EF17F0A9EF17F0EA
:102F2E00000E286E000E296E000E2A6E000E2B6EFD
:102F3E003650D8A4A5EF17F0A7EF17F0A9EF17F0AA
:102F4E00000E346E36A0AEEF17F0B0EF17F0B3EF01
:102F5E0017F02A8EB4EF17F02A9ED89036302B6ECB
:102F6E0034AEBCEF17F0BEEF17F0BFEF17F02B8E9D
:102F7E0028C528F529C529F52AC52AF52BC52BF50F
:102F8E00120005017F51800B886F7F517F258E6F58
:102F9E007EAFD4EF17F0D6EF17F0D7EF17F08E8184
:102FAE008E51D8B4DDEF17F0DFEF17F0F2EF17F018
:102FBE008E29D8A4E5EF17F0E7EF17F0EFEF17F033
:102FCE00000E7C6F000E7D6F000E7E6F000E7F6F09
:102FDE007E8FFAEF17F0000E7C6F000E7D6F000EE5
:102FEE007E6F000E7F6F8351800B881B835183256C
:102FFE008D6F82AF05EF18F007EF18F008EF18F09D
:10300E008D818D51D8B40EEF18F010EF18F023EF1C
:10301E0018F08D29D8A416EF18F018EF18F020EF3D
:10302E0018F0000E806F000E816F000E826F000E82
:10303E00836F828F2BEF18F0000E806F000E816F62
:10304E00000E826F000E836F8D51D8B431EF18F0E1
:10305E0033EF18F03BEF18F08E51D8A439EF18F07B
:10306E003BEF18F045EF18F0000E7C6F000E7D6FF1
:10307E00000E7E6F000E7F6FEFEF19F082517C0312
:10308E006100CCF393F56100D0F394F59351896F01
:10309E008A6B8B6B8C6B94518F6F906B916B926B69
:1030AE0081517D036100CCF393F56100D0F394F56B
:1030BE0093518927000E8A238B238C2394518F27BB
:1030CE00000E90239123922380517E036100CCF356
:1030DE0093F56100D0F394F593518927000E8A235E
:1030EE008B238C2394518F27000E902391239223B0
:1030FE008BC58CF58AC58BF589C58AF5896B805190
:10310E007D036100CCF393F56100D0F394F59351F8
:10311E00892794518A23000E8B23000E8C23815114
:10312E007C036100CCF393F56100D0F394F59351D9
:10313E00892794518A23000E8B23000E8C238BC576
:10314E008CF58AC58BF589C58AF5896B80517C0310
:10315E006100CCF393F56100D0F394F59351892778
:10316E0094518A23000E8B23000E8C2382517D03F3
:10317E006100CCF393F56100D0F394F593518F2752
:10318E0094519023000E9123000E922381517E03C1
:10319E006100CCF393F56100D0F394F593518F2732
:1031AE0094519023000E9123000E922382517E03A0
:1031BE006100CCF393F56100D0F394F59351846FD5
:1031CE009451856F866B876B86C587F585C586F5A9
:1031DE0084C585F5846B84518F2785519023865144
:1031EE0091238751922389C584F58AC585F58BC5B0
:1031FE0086F58CC587F5190E0AEF19F0D89087332E
:10320E00863385338433E82E05EF19F084518F27EA
:10321E008551902386519123875192238BC58CF52E
:10322E008AC58BF589C58AF5896B8D518EC584F556
:10323E00856B8427000E8523820E8425936FFF0EE7
:10324E008521946F40EF19F0D8908F3790379137D2
:10325E0092378CAF35EF19F037EF19F038EF19F0D0
:10326E008F81D89089378A378B378C379307D8A0C0
:10327E00940791AF45EF19F047EF19F02BEF19F0C6
:10328E00000E8D6F8CAF4EEF19F050EF19F074EFFA
:10329E0019F0FF0E8915846FFF0E8A15856FFF0ECC
:1032AE008B15866F7F0E8C15876F84518511861155
:1032BE008711D8B465EF19F067EF19F06BEF19F0BD
:1032CE00010E8D6F74EF19F08FA170EF19F072EF80
:1032DE0019F074EF19F067EF19F08D51D8B47AEF39
:1032EE0019F07CEF19F0A0EF19F0010E8F27000EE8
:1032FE0090239123922392A187EF19F089EF19F071
:10330E00A0EF19F08FC584F590C585F591C586F5AA
:10331E0092C587F58735873386338533843384C5E5
:10332E008FF585C590F586C591F587C592F5934BBA
:10333E00942B94BFABEF19F0945108E19329D8A0C8
:10334E00ABEF19F0ADEF19F0B7EF19F0000E8F6F6C
:10335E00000E906F800E916F7F0E926FE5EF19F059
:10336E0094BFC4EF19F0945106E19305D8B0C2EFA3
:10337E0019F0C4EF19F0D0EF19F0000E8F6F000E98
:10338E00906F000E916F000E926F000E886FE5EF3A
:10339E0019F093C58EF5FF0E8F17FF0E90177F0E47
:1033AE009117000E92178EA1DFEF19F0E1EF19F0D1
:1033BE00E2EF19F0918FD8908E31926F885192135F
:1033CE008FC57CF590C57DF591C57EF592C57FF5CF
:1033DE0012001250800B1B6E12501224216E11AE71
:1033EE00FBEF19F0FDEF19F0FEEF19F021802150DF
:1033FE00D8B404EF1AF006EF1AF019EF1AF02128DC
:10340E00D8A40CEF1AF00EEF1AF016EF1AF0000E09
:10341E000F6E000E106E000E116E000E126E118EDB
:10342E0021EF1AF0000E0F6E000E106E000E116ED0
:10343E00000E126E1650800B1B1A16501624206E9C
:10344E0015AE2CEF1AF02EEF1AF02FEF1AF0208097
:10345E002050D8B435EF1AF037EF1AF04AEF1AF0C1
:10346E002028D8A43DEF1AF03FEF1AF047EF1AF0DC
:10347E00000E136E000E146E000E156E000E166EFC
:10348E00158E52EF1AF0000E136E000E146E000E13
:10349E00156E000E166E2050D8B458EF1AF05AEF73
:1034AE001AF062EF1AF02150D8A460EF1AF062EF12
:1034BE001AF06CEF1AF0000E0F6E000E106E000E6A
:1034CE00116E000E126E16EF1CF015500F026100F9
:1034DE00CCF326F56100D0F327F526501C6E1D6A3D
:1034EE001E6A1F6A2750226E236A246A256A1450A8
:1034FE0010026100CCF326F56100D0F327F52650BB
:10350E001C26000E1D221E221F2227502226000ED0
:10351E00232224222522135011026100CCF326F51A
:10352E006100D0F327F526501C26000E1D221E2208
:10353E001F2227502226000E2322242225221EC5BA
:10354E001FF51DC51EF51CC51DF51C6A1350100276
:10355E006100CCF326F56100D0F327F526501C262A
:10356E0027501D22000E1E22000E1F2214500F0285
:10357E006100CCF326F56100D0F327F526501C260A
:10358E0027501D22000E1E22000E1F221EC51FF5E3
:10359E001DC51EF51CC51DF51C6A13500F026100DA
:1035AE00CCF326F56100D0F327F526501C262750C4
:1035BE001D22000E1E22000E1F2215501002610049
:1035CE00CCF326F56100D0F327F52650222627509E
:1035DE002322000E2422000E252214501102610017
:1035EE00CCF326F56100D0F327F52650222627507E
:1035FE002322000E2422000E2522155011026100F6
:10360E00CCF326F56100D0F327F52650176E275020
:10361E00186E196A1A6A19C51AF518C519F517C55B
:10362E0018F5176A175022261850232219502422F3
:10363E001A5025221CC517F51DC518F51EC519F5FE
:10364E001FC51AF5190E31EF1BF0D8901A32193228
:10365E0018321732E82E2CEF1BF017502226185076
:10366E002322195024221A5025221EC51FF51DC5CE
:10367E001EF51CC51DF51C6A205021C517F5186ACC
:10368E001726000E1822820E1724266EFF0E182003
:10369E00276E67EF1BF0D890223623362436253658
:1036AE001FAE5CEF1BF05EEF1BF05FEF1BF0228096
:1036BE00D8901C361D361E361F362606D8A0270675
:1036CE0024AE6CEF1BF06EEF1BF052EF1BF0000EF2
:1036DE00206E1FAE75EF1BF077EF1BF09BEF1BF00C
:1036EE00FF0E1C14176EFF0E1D14186EFF0E1E1407
:1036FE00196E7F0E1F141A6E1750181019101A100B
:10370E00D8B48CEF1BF08EEF1BF092EF1BF0010E76
:10371E00206E9BEF1BF022A097EF1BF099EF1BF092
:10372E009BEF1BF08EEF1BF02050D8B4A1EF1BF0D7
:10373E00A3EF1BF0C7EF1BF0010E2226000E232273
:10374E002422252225A0AEEF1BF0B0EF1BF0C7EF11
:10375E001BF022C517F523C518F524C519F525C587
:10376E001AF51A341A3219321832173217C522F5D1
:10377E0018C523F519C524F51AC525F5264A272A95
:10378E0027BED2EF1BF0275008E12628D8A0D2EF93
:10379E001BF0D4EF1BF0DEEF1BF0000E226E000EBE
:1037AE00236E800E246E7F0E256E0CEF1CF027BE4E
:1037BE00EBEF1BF0275006E12604D8B0E9EF1BF023
:1037CE00EBEF1BF0F7EF1BF0000E226E000E236ED8
:1037DE00000E246E000E256E000E1B6E0CEF1CF0FC
:1037EE0026C521F5FF0E2216FF0E23167F0E241678
:1037FE00000E251621A006EF1CF008EF1CF009EFB5
:10380E001CF0248ED8902130256E1B50251222C517
:10381E000FF523C510F524C511F525C512F51200B7
:10382E0005017F51800B8C6F7F517F25936F7EAF8B
:10383E0023EF1CF025EF1CF026EF1CF09381935123
:10384E00D8B42CEF1CF02EEF1CF043EF1CF0932994
:10385E00D8A434EF1CF036EF1CF03EEF1CF0000E37
:10386E007C6F000E7D6F000E7E6F000E7F6F7E8F61
:10387E00000E7F6F4BEF1CF0000E7C6F000E7D6F05
:10388E00000E7E6F000E7F6F8351800B8C1B835159
:10389E008325946F82AF56EF1CF058EF1CF059EF52
:1038AE001CF094819451D8B45FEF1CF061EF1CF0C2
:1038BE0076EF1CF09429D8A467EF1CF069EF1CF08A
:1038CE0071EF1CF0000E806F000E816F000E826F84
:1038DE00000E836F828F000E836F7EEF1CF0000E42
:1038EE00806F000E816F000E826F000E836F80510D
:1038FE00811182118311D8A487EF1CF089EF1CF07F
:10390E00A1EF1CF0000E7C6F000E7D6F000E7E6F1F
:10391E00000E7F6F800E7E137F0E7F138C517F13F0
:10392E007CC57CF57DC57DF57EC57EF57FC57FF5B5
:10393E00E4EF1DF09351D8A4A7EF1CF0A9EF1CF0F3
:10394E00B3EF1CF0000E7C6F000E7D6F000E7E6FCD
:10395E00000E7F6FE4EF1DF0945193C584F5856BD7
:10396E00845F000E855B7F0E84258D6F000E852192
:10397E008E6F7CC588F57DC589F57EC58AF57FC5B8
:10398E008BF5000E7C6F000E7D6F000E7E6F000EAD
:10399E007F6F000E8F6F000E906F000E916F000EF6
:1039AE00926F000E946F14EF1DF09451D8B4E2EFA5
:1039BE001CF0E4EF1CF0FBEF1CF0D8908837893731
:1039CE008A378B37D8907C377D377E377F3792AFEB
:1039DE00F3EF1CF0F5EF1CF0F6EF1CF07C81D890A5
:1039EE008F379037913792378051885D8151895941
:1039FE0082518A5983518B59D8A008EF1DF00AEFD6
:103A0E001DF013EF1DF0928D8051885F8151895BFF
:103A1E0082518A5B83518B5B942B190E94651AEF3E
:103A2E001DF01CEF1DF0DCEF1CF0885189118A117E
:103A3E008B11D8B425EF1DF027EF1DF03FEF1DF0D1
:103A4E008F813FEF1DF0D8907C377D377E377F37E3
:103A5E0092AF34EF1DF036EF1DF037EF1DF07C8185
:103A6E00D8908F379037913792378D07D8A08E0721
:103A7E007EAF44EF1DF046EF1DF02AEF1DF0000E55
:103A8E00946F92AF4DEF1DF04FEF1DF073EF1DF0E1
:103A9E00FF0E8F15846FFF0E9015856FFF0E91151B
:103AAE00866F7F0E9215876F84518511861187114F
:103ABE00D8B464EF1DF066EF1DF06AEF1DF0010E35
:103ACE00946F73EF1DF07CA16FEF1DF071EF1DF081
:103ADE0073EF1DF066EF1DF09451D8B479EF1DF021
:103AEE007BEF1DF09FEF1DF0010E7C27000E7D2356
:103AFE007E237F237FA186EF1DF088EF1DF09FEFC1
:103B0E001DF07CC584F57DC585F57EC586F57FC522
:103B1E0087F58735873386338533843384C57CF5C3
:103B2E0085C57DF586C57EF587C57FF58D4B8E2BBC
:103B3E008EBFAAEF1DF08E5108E18D29D8A0AAEFF5
:103B4E001DF0ACEF1DF0B7EF1DF0000E8E6F8D69FE
:103B5E00000E7C6F000E7D6F000E7E6F000E7F6F6D
:103B6E008EBFC4EF1DF08E5106E18D05D8B0C2EFA9
:103B7E001DF0C4EF1DF0D2EF1DF0000E8E6F000E83
:103B8E008D6F000E7C6F000E7D6F000E7E6F000E2F
:103B9E007F6F000E8C6F8DC593F593A1D9EF1DF03D
:103BAE00DBEF1DF0DEEF1DF07E8FDFEF1DF07E9F51
:103BBE00D89093317F6F95EF1CF012001250800B4E
:103BCE001F6E12501224266E11AEF0EF1DF0F2EFA2
:103BDE001DF0F3EF1DF026802650D8B4F9EF1DF03E
:103BEE00FBEF1DF010EF1EF02628D8A401EF1EF0FB
:103BFE0003EF1EF00BEF1EF0000E0F6E000E106E98
:103C0E00000E116E000E126E118E000E126E18EF57
:103C1E001EF0000E0F6E000E106E000E116E000ED6
:103C2E00126E1650800B1F1A16501624276E15AEE4
:103C3E0023EF1EF025EF1EF026EF1EF027802750F3
:103C4E00D8B42CEF1EF02EEF1EF043EF1EF02728F7
:103C5E00D8A434EF1EF036EF1EF03EEF1EF0000E2D
:103C6E00136E000E146E000E156E000E166E158E6F
:103C7E00000E166E4BEF1EF0000E136E000E146E3D
:103C8E00000E156E000E166E135014101510161031
:103C9E00D8A454EF1EF056EF1EF06EEF1EF0000E7D
:103CAE000F6E000E106E000E116E000E126E800E54
:103CBE0011127F0E12121F5012120FC50FF510C5E2
:103CCE0010F511C511F512C512F5B1EF1FF0265002
:103CDE00D8A474EF1EF076EF1EF080EF1EF0000EEB
:103CEE000F6E000E106E000E116E000E126EB1EF02
:103CFE001FF0275026C517F5186A175E000E185AC2
:103D0E007F0E1724206E000E1820216E0FC51BF596
:103D1E0010C51CF511C51DF512C51EF5000E0F6E52
:103D2E00000E106E000E116E000E126E000E226E40
:103D3E00000E236E000E246E000E256E000E276EF2
:103D4E00E1EF1EF02750D8B4AFEF1EF0B1EF1EF02A
:103D5E00C8EF1EF0D8901B361C361D361E36D89076
:103D6E000F3610361136123625AEC0EF1EF0C2EFEA
:103D7E001EF0C3EF1EF00F80D89022362336243665
:103D8E00253613501B5C14501C5815501D581650D8
:103D9E001E58D8A0D5EF1EF0D7EF1EF0E0EF1EF0A4
:103DAE00258C13501B5E14501C5A15501D5A16505C
:103DBE001E5A272A190E2764E7EF1EF0E9EF1EF0B0
:103DCE00A9EF1EF01B501C101D101E10D8B4F2EFE0
:103DDE001EF0F4EF1EF00CEF1FF022800CEF1FF020
:103DEE00D8900F3610361136123625AE01EF1FF071
:103DFE0003EF1FF004EF1FF00F80D890223623360A
:103E0E00243625362006D8A0210611AE11EF1FF05C
:103E1E0013EF1FF0F7EF1EF0000E276E25AE1AEF10
:103E2E001FF01CEF1FF040EF1FF0FF0E2214176E55
:103E3E00FF0E2314186EFF0E2414196E7F0E251418
:103E4E001A6E1750181019101A10D8B431EF1FF03F
:103E5E0033EF1FF037EF1FF0010E276E40EF1FF00C
:103E6E000FA03CEF1FF03EEF1FF040EF1FF033EFBF
:103E7E001FF02750D8B446EF1FF048EF1FF06CEF3D
:103E8E001FF0010E0F26000E10221122122212A078
:103E9E0053EF1FF055EF1FF06CEF1FF00FC517F526
:103EAE0010C518F511C519F512C51AF51A341A32BE
:103EBE0019321832173217C50FF518C510F519C576
:103ECE0011F51AC512F5204A212A21BE77EF1FF0EF
:103EDE00215008E12028D8A077EF1FF079EF1FF0CE
:103EEE0084EF1FF0000E216E2068000E0F6E000E84
:103EFE00106E000E116E000E126E21BE91EF1FF0AD
:103F0E00215006E12004D8B08FEF1FF091EF1FF083
:103F1E009FEF1FF0000E216E000E206E000E0F6E32
:103F2E00000E106E000E116E000E126E000E1F6E41
:103F3E0020C526F526A0A6EF1FF0A8EF1FF0ABEFC9
:103F4E001FF0118EACEF1FF0119ED8902630126E1E
:103F5E0062EF1EF01200D0B4B7EF1FF0B9EF1FF0F2
:103F6E00BCEF1FF0010E0501BF6F0501BF05D8A400
:103F7E00C3EF1FF0C5EF1FF0CBEF1FF0010EFFECEC
:103F8E002CF0020E0501BF6F020EBF19D8A4D2EF9E
:103F9E001FF0D4EF1FF0E9EF1FF0E2EF1FF0D0A4F7
:103FAE00DBEF1FF0DDEF1FF0E2EF1FF0030E050158
:103FBE00BF6FE9EF1FF0D0A4E7EF1FF0E9EF1FF09E
:103FCE00D6EF1FF0030E0501BF19D8A4F1EF1FF0B5
:103FDE00F3EF1FF0F9EF1FF0000EFFEC2CF0040EC4
:103FEE000501BF6F040EBF19D8A400EF20F002EF39
:103FFE0020F017EF20F010EF20F0D0B409EF20F0F2
:10400E000BEF20F010EF20F0050E0501BF6F17EF3C
:10401E0020F0D0B415EF20F017EF20F004EF20F0D1
:10402E00050E0501BF19D8A41FEF20F021EF20F0D7
:10403E0027EF20F0010EFFEC2CF0060E0501BF6FEE
:10404E00060EBF19D8A42EEF20F030EF20F05BEF54
:10405E0020F0020EA5EC23F00501BC6FE351BC5D10
:10406E00D8B03CEF20F03FEF20F0010E40EF20F0F3
:10407E00000EBD6F020EA5EC23F00501BE6FE351DD
:10408E00BE5DD8B04DEF20F050EF20F0010E51EF95
:10409E0020F0000EBD15E8A057EF20F059EF20F0EC
:1040AE005BEF20F0070EBF6F070EBF19D8A462EFAB
:1040BE0020F064EF20F089EF20F0000EA5EC23F045
:1040CE000501E5616DEF20F070EF20F0010E71EF4C
:1040DE0020F0000EBC6F000EA5EC23F00501E5618B
:1040EE007BEF20F07EEF20F0010E7FEF20F0000E30
:1040FE00BC15E8A085EF20F087EF20F089EF20F0C7
:10410E00080EBF6F0A0EBF19D8A490EF20F092EFE1
:10411E0020F095EF20F0BF940B0EBF6F0B0EBF1962
:10412E00D8A49CEF20F09EEF20F0C9EF20F0030EF4
:10413E00616FE80E606F3FEC2EF0000EA5EC23F0E1
:10414E000501E561ADEF20F0B0EF20F0010EB1EF0B
:10415E0020F0000EBC6F000EA5EC23F00501E5610A
:10416E00BBEF20F0BEEF20F0010EBFEF20F0000EEF
:10417E00BC15E8A0C5EF20F0C7EF20F0C9EF20F086
:10418E000C0EBF6F0C0EBF19D8A4D0EF20F0D2EFDB
:10419E0020F0DCEF20F0BF84030E616FE80E606F3D
:1041AE003FEC2EF00D0E0501BF6F0D0EBF19D8A4FA
:1041BE00E3EF20F0E5EF20F0E8EF20F0BF920E0ED7
:1041CE00BF6F0E0EBF19D8A4EFEF20F0F1EF20F065
:1041DE002FEF21F0030E616FE80E606F3FEC2EF0B3
:1041EE00CEB2FCEF20F001EF21F00501BC6BBC2B31
:1041FE0003EF21F00501BC6BE451BC5DD8B00AEFB2
:10420E0021F00DEF21F0010E0EEF21F0000EBD6F2B
:10421E00CEB014EF21F018EF21F0BE6BBE2B1AEFCB
:10422E0021F00501BE6BE451BE5DD8B021EF21F047
:10423E0024EF21F0010E25EF21F0000EBD15E8A0B0
:10424E002BEF21F02DEF21F02FEF21F00F0EBF6F8E
:10425E000F0EBF19D8A436EF21F038EF21F044EF3E
:10426E0021F0BF82030E616FE80E606F3FEC2EF0FF
:10427E00100E0501BF6F010EE96F100EBF19D8A405
:10428E004BEF21F04DEF21F069EF21F0620E7C6FC4
:10429E00030E7D6F000E7E6F000E7F6F080E806F17
:1042AE00000E816FE9C582F5000E836F000E846FDC
:1042BE00000E856F000E866F000E876F000E886FE2
:1042CE0089EC29F012006100B4F5D9F46100B8F55B
:1042DE00DAF4610078F372F5610078F373F561003A
:1042EE0078F374F5610078F375F5050120EE04F0AE
:1042FE006D51D9266E51DA22DFA088EF21F08AEFB8
:10430E0021F0C4EF21F020EE01F06B51D9266C5153
:10431E00DA227239E842F80BF80BDF6E050E6F6F7A
:10432E00D89075337433733372336F2F97EF21F048
:10433E0020EE02F06B51D9266C51DA226100C8F5DD
:10434E00DFF473C572F574C573F575C574F5756BC9
:10435E0020EE03F06B51D9266C51DA2272511F0BED
:10436E00DF6E050E6F6FD8907533743373337233FF
:10437E006F2FBAEF21F0DCEF21F020EE03F06B513E
:10438E00D9266C51DA22000EDF6E10EE02F06B5160
:10439E00E1266C51E222DFC4E7F420EE01F06B510E
:1043AE00D9266C51DA22E7C4DFF46100ACF5D9F4FA
:1043BE006100B0F5DAF46100C8F5DFF473C572F58B
:1043CE0074C573F575C574F5756B72C56FF5070E0B
:1043DE006F1720EE01F06B51D9266C51DA226F5116
:1043EE00DF1220EE04F06D51D9266E51DA22DF3045
:1043FE00E8320F0B716F20EE04F06D51D9266E511D
:10440E00DA22DFB00DEF22F011EF22F06F6B6F2B7F
:10441E0013EF22F005016F6B6F39F00B711320EE65
:10442E0004F06D51D9266E51DA22DFB221EF22F05F
:10443E0025EF22F0200E6F6F27EF22F005016F6B34
:10444E006F51711320EE04F06D51D9266E51DA22A0
:10445E00DFBE34EF22F038EF22F0400E6F6F3AEFEE
:10446E0022F005016F6B6F51711320EE04F06D5148
:10447E00D9266E51DA22DFBC47EF22F04BEF22F045
:10448E00800E6F6F4DEF22F005016F6B6F51711340
:10449E0020EE04F06B51D9266C51DA226100C4F57E
:1044AE00DFF420EE04F06D51D9266E51DA22DFB220
:1044BE0063EF22F065EF22F091EF22F0080E6B25EC
:1044CE00606F000E6C21616F20EE05F06D51D926E4
:1044DE006E51DA22610078F362F5610074F363F5D0
:1044EE0020EE04F06D51D9266E51DA22DF30E8321B
:1044FE000F0B6F6F706B010E6F25F66E260E70210F
:10450E00F76EF86A000EF8220800F550646F656BBE
:10451E002DEC2DF01200040E0301F96F000EFA6F50
:10452E00000ED86F000EFB6F000ED96F000EDA6F03
:10453E00000EDB6F000EDC6F000EDF6F000EE06F03
:10454E00000EE36F000EE46F000EE56F000EE66FD7
:10455E00000EE76F000EEA6F000EEB6F000EEC6FB1
:10456E00000EEE6F000EEF6F000EF06F000EF16F8B
:10457E00000EF26F000EF36F000EF46F100EF56F5B
:10458E00000EF66F000EF76F120EF86F000EFC6F36
:10459E00010EFB6F000ED96F000EDA6F000EDB6F8F
:1045AE00000EDC6F000EDF6F000EE06F000EE36F8B
:1045BE00000EE46F000EE56F000EE66F000EE76F63
:1045CE00000EEA6F000EEB6F010EEC6F000EEE6F39
:1045DE00000EEF6F000EF06F000EF16F000EF26F17
:1045EE00000EF36F000EF46F100EF56F000EF66FE7
:1045FE00000EF76F000EF86F000EFD6F020EFB6FD0
:10460E00000ED96F000EDA6F000EDB6F000EDC6F3E
:10461E00000EDF6F000EE06F000EE36F000EE46F12
:10462E00000EE56F000EE66F000EE76F000EEA6FEC
:10463E00000EEB6F160EEC6F000EEE6F000EEF6FAE
:10464E00000EF06F000EF16F000EF26F000EF36FA2
:10465E00000EF46F100EF56F000EF66F000EF76F72
:10466E00000EF86F000EFE6F030EFB6F000ED96F7B
:10467E00000EDA6F000EDB6F000EDC6F000EDF6FC8
:10468E00000EE06F000EE36F000EE46F000EE56F9C
:10469E00000EE66F000EE76F000EEA6F000EEB6F76
:1046AE00170EEC6F000EEE6F000EEF6F000EF06F38
:1046BE00000EF16F000EF26F000EF36F000EF46F2E
:1046CE00100EF56F000EF66F000EF76F000EF86FFE
:1046DE00000EFF6FAF94AF96B090B092B094B096BC
:1046EE00000E0501606F000E616FB1EC30F0000E30
:1046FE000501606F000E616FA7EC30F0000E050132
:10470E00606F000E616FA2EC30F0000E0501606F5D
:10471E00000E616F9DEC30F0000E0501606F000E13
:10472E00616F98EC30F0000E0501606F000E616F46
:10473E00ACEC30F0840E0301F36F12000501B16F83
:10474E00E8EF23F0CBEC30F0000E3DEC30F0000E35
:10475E0020EC2EF060C5B4F561C5B5F5010E05016E
:10476E00B66F16EF24F0CBEC30F0010E3DEC30F0CE
:10477E00010E20EC2EF060C5B4F561C5B5F5B5EFB0
:10478E0023F0CBEC30F0020E3DEC30F0170E20ECA7
:10479E002EF060C5B4F561C5B5F5B5EF23F0CBECE1
:1047AE0030F0020E3DEC30F0160E20EC2EF060C50F
:1047BE00B4F561C5B5F5B5EF23F0020EB66F16EF81
:1047CE0024F00501B151AF6FB06BB051000AD8B4EF
:1047DE00F3EF23F0E4EF23F0AF51000AD8B4A9EFC2
:1047EE0023F0010AD8B4BAEF23F0030AD8B4C8EF05
:1047FE0023F0010AD8B4D6EF23F0070AD8B4E4EFB9
:10480E0023F0010AD8B4E4EF23F0030AD8B4E4EF9E
:10481E0023F0010AD8B4E4EF23F0E4EF23F0B60559
:10482E00D8A41CEF24F01EEF24F0A1EF24F0B55114
:10483E0007E1070EB45DD8B027EF24F029EF24F07E
:10484E002FEF24F0000EB36F000EB26F6AEF24F05C
:10485E006F0E996F810E9A6FA80E9B6FC00E9C6F94
:10486E00B30E806F7B0E816F920E826F3F0E836F41
:10487E00B4C56EF5B5C56FF5706B716B000E9AEC25
:10488E0025F06EC57CF56FC57DF570C57EF571C5DD
:10489E007FF5C8EC17F07CC595F57DC596F57EC500
:1048AE0097F57FC598F507EC13F095C5A5F596C558
:1048BE00A6F597C5A7F598C5A8F582EC28F0A5C56D
:1048CE00B2F5A6C5B3F5890E0501B25D130EB35947
:1048DE00D8A074EF24F076EF24F078EF24F0A1EF57
:1048EE0024F02F0E806FDD0E816F9C0E826F410EB5
:1048FE00836FB2C56EF5B3C56FF5706B716B000E3D
:10490E009AEC25F06EC57CF56FC57DF570C57EF50C
:10491E0071C57FF517EC1CF07CC5A5F57DC5A6F518
:10492E007EC5A7F57FC5A8F582EC28F00501A55137
:10493E00A1EF24F01200446EE3EF24F0CEEC30F041
:10494E00000EBBEC30F0000EBDEC2EF001C547F5AD
:10495E0002C548F5010E496E10EF25F0CEEC30F091
:10496E00010EBBEC30F0010EBDEC2EF001C547F58B
:10497E0002C548F5B1EF24F0CEEC30F0020EBBECE0
:10498E0030F0170EBDEC2EF001C547F502C548F507
:10499E00B1EF24F0CEEC30F0020EBBEC30F0160E80
:1049AE00BDEC2EF001C547F502C548F5B1EF24F078
:1049BE00020E496E10EF25F04450426E436A43508A
:1049CE00000AD8B4EDEF24F0DFEF24F04250000AD5
:1049DE00D8B4A5EF24F0010AD8B4B5EF24F0030A39
:1049EE00D8B4C3EF24F0010AD8B4D1EF24F0070AEB
:1049FE00D8B4DFEF24F0010AD8B4DFEF24F0030AB5
:104A0E00D8B4DFEF24F0010AD8B4DFEF24F0DFEFE3
:104A1E0024F04904D8A416EF25F018EF25F099EFED
:104A2E0025F0485007E1070E475CD8B021EF25F07E
:104A3E0023EF25F029EF25F0000E466E000E456E91
:104A4E0064EF25F06F0E2C6E810E2D6EA80E2E6E5D
:104A5E00C00E2F6EB30E136E7B0E146E920E156E6D
:104A6E003F0E166E47C501F548C502F5036A046A86
:104A7E00000E76EC26F001C50FF502C510F503C544
:104A8E0011F504C512F5F0EC19F00FC528F510C597
:104A9E0029F511C52AF512C52BF568EC15F028C5B8
:104AAE0038F529C539F52AC53AF52BC53BF506EC7F
:104ABE0029F038C545F539C546F5890E455C130E06
:104ACE004658D8A06DEF25F06FEF25F071EF25F069
:104ADE0099EF25F02F0E136EDD0E146E9C0E156ED3
:104AEE00410E166E45C501F546C502F5036A046A08
:104AFE00000E76EC26F001C50FF502C510F503C5C4
:104B0E0011F504C512F5E5EC1DF00FC538F510C50D
:104B1E0039F511C53AF512C53BF506EC29F03850BA
:104B2E0099EF25F012000501766F05017651D8B484
:104B3E00A3EF25F0A5EF25F0C7EF25F071BFACEF81
:104B4E0025F0AAEF25F0C7EF25F06EC572F56FC5FB
:104B5E0073F570C574F571C575F5721F731F741FEB
:104B6E00751F722B000E73237423752372C578F58F
:104B7E0073C579F574C57AF575C57BF5CFEF25F05C
:104B8E006EC578F56FC579F570C57AF571C57BF58B
:104B9E006E516F1170117111D8A4D8EF25F0DAEFA4
:104BAE0025F0E4EF25F0000E6E6F000E6F6F000E15
:104BBE00706F000E716F75EF26F0960E776FEEEF39
:104BCE0025F0772BD8907B337A3379337833000EF8
:104BDE007815726F000E7915736F000E7A15746F5B
:104BEE00FE0E7B15756F7251731174117511D8A469
:104BFE0003EF26F005EF26F0E8EF25F013EF26F091
:104C0E00772B010E7827000E79237A237B23D890F9
:104C1E007B337A3379337833000E7815726F000E4A
:104C2E007915736F000E7A15746FFF0E7B15756F05
:104C3E007251731174117511D8A428EF26F02AEF52
:104C4E0026F007EF26F032EF26F07707D890783768
:104C5E0079377A377B377ABF37EF26F039EF26F080
:104C6E0041EF26F0020E77613FEF26F041EF26F07E
:104C7E002CEF26F077B146EF26F048EF26F049EFFD
:104C8E0026F07A9FD890773377C572F5736B746B75
:104C9E00756B72C575F5746B736B726B725178139D
:104CAE007351791374517A1375517B137651D8B4AD
:104CBE0063EF26F065EF26F06DEF26F071BF6CEF17
:104CCE0026F06AEF26F06DEF26F07B8F78C56EF535
:104CDE0079C56FF57AC570F57BC571F51200096E51
:104CEE000950D8B47DEF26F07FEF26F0A1EF26F025
:104CFE0004BE86EF26F084EF26F0A1EF26F001C564
:104D0E0005F502C506F503C507F504C508F5051E2C
:104D1E00061E071E081E052A000E0622072208225E
:104D2E0005C50BF506C50CF507C50DF508C50EF541
:104D3E00A9EF26F001C50BF502C50CF503C50DF55F
:104D4E0004C50EF50150021003100410D8A4B2EFE2
:104D5E0026F0B4EF26F0BEEF26F0000E016E000E28
:104D6E00026E000E036E000E046E4FEF27F0960ECD
:104D7E000A6EC8EF26F00A2AD8900E320D320C3287
:104D8E000B32000E0B14056E000E0C14066E000E88
:104D9E000D14076EFE0E0E14086E05500610071049
:104DAE000810D8A4DDEF26F0DFEF26F0C2EF26F0D4
:104DBE00EDEF26F00A2A010E0B26000E0C220D2214
:104DCE000E22D8900E320D320C320B32000E0B1416
:104DDE00056E000E0C14066E000E0D14076EFF0EFF
:104DEE000E14086E0550061007100810D8A402EF16
:104DFE0027F004EF27F0E1EF26F00CEF27F00A067C
:104E0E00D8900B360C360D360E360DBE11EF27F040
:104E1E0013EF27F01BEF27F0020E0A6019EF27F0B1
:104E2E001BEF27F006EF27F00AB020EF27F022EF56
:104E3E0027F023EF27F00D9ED8900A320AC505F50C
:104E4E00066A076A086A05C508F5076A066A056AEA
:104E5E0005500B1206500C1207500D1208500E1270
:104E6E000950D8B43DEF27F03FEF27F047EF27F07A
:104E7E0004BE46EF27F044EF27F047EF27F00E8EE3
:104E8E000BC501F50CC502F50DC503F50EC504F5F0
:104E9E00120001011DAF56EF27F058EF27F067EF14
:104EAE0027F002D865EF27F00500FA6E0501DA51FA
:104EBE00FD6EDB51FE6EFF6AFA50120001011D9F5E
:104ECE001DAD6CEF27F06EEF27F07DEF27F002D8C7
:104EDE007BEF27F00500FA6E0501D851FD6ED95112
:104EEE00FE6EFF6AFA50120001011D9D1DAB82EF8E
:104EFE0027F084EF27F093EF27F002D891EF27F0F9
:104F0E000500FA6E0501D651FD6ED751FE6EFF6A91
:104F1E00FA50120001011D9B1CA798EF27F09AEF83
:104F2E0027F0A9EF27F002D8A7EF27F00500FA6EB9
:104F3E000501D451FD6ED551FE6EFF6AFA50120076
:104F4E0001011C971DA9AEEF27F0B0EF27F0BFEFC0
:104F5E0027F002D8BDEF27F00500FA6E0501D251F9
:104F6E00FD6ED351FE6EFF6AFA50120001011D99BB
:104F7E001DA5C4EF27F0C6EF27F0DCEF27F002D80F
:104F8E00D3EF27F00500FA6E0501D051FD6ED15119
:104F9E00FE6EFF6AFA501200010154A9D9EF27F0F4
:104FAE00DBEF27F0DCEF27F054991DA7E1EF27F098
:104FBE00E3EF27F0F9EF27F002D8F0EF27F0050026
:104FCE00FA6E0501CE51FD6ECF51FE6EFF6AFA509C
:104FDE001200010160A7F6EF27F0F8EF27F0F9EFC6
:104FEE0027F06097AE9C1200000E0501696F67BF37
:104FFE0005EF28F003EF28F00FEF28F0671F661F6C
:10500E00651F646D000E652366236723010E696FAD
:10501E0063BF16EF28F014EF28F020EF28F0631F7F
:10502E00621F611F606D000E612362236323010EF8
:10503E00691B000E6A6F000E6B6F000E6C6F000E18
:10504E006D6F6451651166116711D8B431EF28F098
:10505E0033EF28F069EF28F0010E686F3DEF28F06E
:10506E00D8906437653766376737682B67AF42EF7E
:10507E0028F044EF28F037EF28F0D8906A376B37D6
:10508E006C376D376451605D655161596651625977
:10509E0067516359D8A056EF28F058EF28F061EF0A
:1050AE0028F06451605F6551615B6651625B6751C8
:1050BE00635B6A81D8906733663365336433682FD8
:1050CE0044EF28F06951D8B46FEF28F071EF28F053
:1050DE0079EF28F06D1F6C1F6B1F6A6D000E6B232E
:1050EE006C236D236AC560F56BC561F56CC562F501
:1050FE006DC563F512000501A735A835AE6FAE512B
:10510E00D8A48CEF28F08EEF28F098EF28F0000E40
:10511E00A56F000EA66F000EA76F000EA86F05EF0D
:10512E0029F0A5C5A9F5A6C5AAF5A7C5ABF5A8C5CD
:10513E00ACF5200EA8EF28F0D890AC33AB33AA33E1
:10514E00A933E82EA3EF28F0A951AD6FA78FFF0E5C
:10515E00A517FF0EA617FF0EA717000EA817960E7F
:10516E00AE5FAEBFBFEF28F0BDEF28F0D5EF28F051
:10517E00AE51800A970FD8B0C7EF28F0C9EF28F0CC
:10518E00CBEF28F08EEF28F0D890A833A733A633B4
:10519E00A533AE3FCBEF28F0EDEF28F01F0EAE6536
:1051AE00DBEF28F0DDEF28F0E5EF28F08EEF28F0AA
:1051BE00D890A537A637A737A837AE07AE51D8A4D3
:1051CE00EBEF28F0EDEF28F0DFEF28F0AD51D8B47B
:1051DE00F3EF28F0F5EF28F0FDEF28F0A81FA71F3A
:1051EE00A61FA56D000EA623A723A823A5C5A5F56A
:1051FE00A6C5A6F5A7C5A7F5A8C5A8F512003A3409
:10520E003B34416E4150D8A40FEF29F011EF29F035
:10521E001BEF29F0000E386E000E396E000E3A6E3E
:10522E00000E3B6E88EF29F038C53CF539C53DF5CB
:10523E003AC53EF53BC53FF5200E2BEF29F0D89031
:10524E003F323E323D323C32E82E26EF29F03C50C2
:10525E00406E3A8EFF0E3816FF0E3916FF0E3A16B6
:10526E00000E3B16960E415E41BE42EF29F040EF16
:10527E0029F058EF29F04150800A970FD8B04AEF25
:10528E0029F04CEF29F04EEF29F011EF29F0D890CC
:10529E003B323A3239323832413E4EEF29F070EF1E
:1052AE0029F01F0E41645EEF29F060EF29F068EFE0
:1052BE0029F011EF29F0D890383639363A363B3688
:1052CE0041064150D8A46EEF29F070EF29F062EF3D
:1052DE0029F04050D8B476EF29F078EF29F080EF1E
:1052EE0029F03B1E3A1E391E386C000E39223A2226
:1052FE003B2238C538F539C539F53AC53AF53BC5BF
:10530E003BF5120081C50CF682C50DF683C50EF66F
:10531E0084C50FF685C510F686C511F687C512F63B
:10532E0088C513F67CC5F4F57DC5F5F57EC5F6F595
:10533E007FC5F7F50501F89DF89FF893F88180C5B4
:10534E0089F50F0E891789478947F8518919C30BBB
:10535E008919F86F0C0EF96F060EFA6FFCEC2FF030
:10536E00E806D8A4BDEF29F0BFEF29F0C3EF29F06E
:10537E0000F0010E0501EC6FF1EC2FF0E806D8A459
:10538E00CBEF29F0CDEF29F0D1EF29F000F0010E8F
:10539E000501EC6FE6EC2FF0E806D8A4D9EF29F062
:1053AE00DBEF29F0DFEF29F000F0010E0501EC6FC5
:1053BE00C2EC2FF0E806D8A4E7EF29F0E9EF29F0C8
:1053CE00EDEF29F000F0010E0501EC6F000E72EC0E
:1053DE002EF00501896F89A1F7EF29F0F9EF29F079
:1053EE0001EF2AF0F40E766F050E776F000E3FEC8C
:1053FE002BF000F012000501666F000E0501676FBD
:10540E0020EE04F06151D9266251DA22DF50686F26
:10541E0068AF14EF2AF016EF2AF022EF2AF0B6EC5E
:10542E0030F0060AD8A41EEF2AF020EF2AF022EF61
:10543E002AF00501678305016831E8320F0B636FAF
:10544E00080E63652DEF2AF02FEF2AF042EF2AF0B7
:10545E0068AD34EF2AF036EF2AF040EF2AF0B6ECC2
:10546E0030F0060AD8A43EEF2AF040EF2AF042EFC1
:10547E002AF005016781090EF66E260EF76EF86AA0
:10548E0008006100D4F363F505016831E8320F0BB3
:10549E00646F656B010E6425F66E260E6521F76E40
:1054AE00F86A000EF8220800F550635DD8B062EF7E
:1054BE002AF064EF2AF065EF2AF067816651B4ECAA
:1054CE002FF00009D8A46EEF2AF070EF2AF073EFD8
:1054DE002AF0030E050167130501675112006A0ECB
:1054EE000501996F4D0E9A6F930E9B6FBF0E9C6FB9
:1054FE00B1C564F5B2C565F5666B676B490E606F35
:10550E00990E616F000E626F000E636FFBEC27F059
:10551E0060C56EF561C56FF562C570F563C571F551
:10552E00010E9AEC25F06EC595F56FC596F570C512
:10553E0097F571C598F507EC13F095C5A5F596C5C9
:10554E00A6F597C5A7F598C5A8F582EC28F0A5C5D0
:10555E00B5F5A6C5B6F5AFC5B3F5B0C5B4F505013D
:10556E00D890B337B437D890B337B437B3C567F5DF
:10557E00B4C568F5B1C562F5B2C563F5000E616FCD
:10558E00640E606F17EC2CF060C569F561C56AF5A5
:10559E0061EC2FF067C5B7F568C5B8F5B7C560F50E
:1055AE00B8C561F536EC30F0B5C560F5B6C561F538
:1055BE002FEC30F0D7EC30F01200A1AEE9EF2AF06C
:1055CE00EBEF2AF0F6EF2AF0B1AEF0EF2AF0F2EFA1
:1055DE002AF0F6EF2AF0C0EC30F03EEF2BF09FA051
:1055EE00FBEF2AF0FDEF2AF008EF2BF0AFA002EF51
:1055FE002BF004EF2BF008EF2BF0C4EC30F03EEF65
:10560E002BF09EAC0DEF2BF00FEF2BF01AEF2BF0D3
:10561E00AEAC14EF2BF016EF2BF01AEF2BF050EC84
:10562E0027F03EEF2BF0A1A61FEF2BF021EF2BF072
:10563E002CEF2BF0B1A626EF2BF028EF2BF02CEF52
:10564E002BF005EC2FF03EEF2BF0A1A831EF2BF055
:10565E0033EF2BF03EEF2BF0B1A838EF2BF03AEFF3
:10566E002BF03EEF2BF025EC30F03EEF2BF011003F
:10567E0005017B6F05017B51FDEC2DF00009D8B4BF
:10568E004BEF2BF04DEF2BF08DEF2BF076C561F538
:10569E0077C562F505017B5102EC2AF00501786FA2
:1056AE007851D8A45DEF2BF05FEF2BF08DEF2BF040
:1056BE007B510C0D580EF324D96E010EF420DA6EC8
:1056CE00610078F379F5610074F37AF579517A1106
:1056DE00D8B474EF2BF076EF2BF08DEF2BF079C55D
:1056EE006BF57AC56CF576C56DF577C56EF56AEC1A
:1056FE0021F005017B510C0D510EF324D96E010ED4
:10570E00F420DA6E030EDF128DEF2BF0120005017E
:10571E00626F000E0501616FB6EC30F00501606F2F
:10572E00040E6019D8B49EEF2BF0A0EF2BF0B1EF62
:10573E002BF06205D8B4A6EF2BF0A8EF2BF0B1EF4B
:10574E002BF0040E6219D8A4AFEF2BF0B1EF2BF0B3
:10575E00D6EF2BF00101035105016219F80B621906
:10576E000101036FC8EF2BF001011DA9C1EF2BF052
:10577E00C3EF2BF0C8EF2BF0020E0501616FD8EFCF
:10578E002BF00239E832070B05016219D8A4D2EFCB
:10579E002BF0D4EF2BF0BBEF2BF0D8EF2BF0010E4C
:1057AE00616F61511200C60E0501606F610E616F6F
:1057BE0089EC30F0C80E0501606F610E616F8EECE2
:1057CE0030F0CA0E0501606F610E616F93EC30F020
:1057DE00C40E0501606F610E616F84EC30F0C00E77
:1057EE000501606F610E616F7AEC30F0BE0E05013F
:1057FE00606F610E616F75EC30F0C20E0501606F67
:10580E00610E616F7FEC30F0AE9C000E01011C6FDB
:10581E00000E1D6F080E1E6FFC0E1F6F9E8C120069
:10582E00000E0501656F000E646F62516311D8B4EE
:10583E0023EF2CF025EF2CF04DEF2CF0010E666FC0
:10584E002DEF2CF0D89062376337662B63AF32EFB3
:10585E002CF034EF2CF029EF2CF0D890643765370C
:10586E006251605D63516159D8A040EF2CF042EF58
:10587E002CF047EF2CF06251605F6351615B6481E5
:10588E00D89063336233662F34EF2CF064C560F525
:10589E0065C561F51200000E6F6E020E706E000E81
:1058AE00716E500E726E0F0E736EFE0E746E000ED3
:1058BE00756E000E766E000E776E000E796E0D0E02
:1058CE007A6E050E7B6EA80E7C6E070E7D6EB39CF7
:1058DE00B39E76907692A39EA39C000E0501606FF8
:1058EE00000E616F57EC30F0000E0501606F000E78
:1058FE00616F52EC30F0000E0501606F000E616FAB
:10590E005CEC30F0800E786E1200000E606E020EAF
:10591E00616E000E626E3D0E636E000E646EFE0EC4
:10592E00656E000E666E000E676E000E686E000EDF
:10593E006A6E1F0E6B6E000E6C6E1F0E6D6E000E7D
:10594E006E6EB29CB29E67906792A29EA29C000E53
:10595E000501606F000E616F66EC30F0000E050100
:10596E00606F000E616F61EC30F0000E0501606F2C
:10597E00000E616F6BEC30F0800E696E1200000E3F
:10598E00BE6E000EBF6E000EC06E080ECA6EEF0E1B
:10599E00C66EC80EC76EDC0EC86EF30E0401106F15
:1059AE00770E086FDF0E006F000E216F000E096F6D
:1059BE00000E016F000E116F000E026F000E0A6FC7
:1059CE00000E126F03690B69136904690C6914697F
:1059DE00080E246F180E0201116F0F0E696F050E5F
:1059EE003E6F1A0E126F0B0E3D6F460E0D6F1200AC
:1059FE000501BB6F16EF2DF0D5EC30F02CEF2DF02E
:105A0E00D3EC30F0000E0501B06F190EAF6F000E23
:105A1E00B26F0A0EB16F76EC2AF02CEF2DF0050165
:105A2E00BB51B96FBA6BBA51000AD8B421EF2DF041
:105A3E002CEF2DF0B951000AD8B403EF2DF0010A66
:105A4E00D8B407EF2DF02CEF2DF0120062C568F5DB
:105A5E0063C569F560C566F561C567F54CEF2DF058
:105A6E006100A0F5D9F46100A4F5DAF4DF506A6F95
:105A7E00684B692B610098F5D9F461009CF5DAF456
:105A8E006100A8F5DFF4664B672B05016407D8A00B
:105A9E006507642906E16529D8A458EF2DF05AEF61
:105AAE002DF037EF2DF012000101018F040E8EEC58
:105ABE002BF00009D8A466EF2DF068EF2DF086EFDD
:105ACE002DF0000E01014C6F260E4D6F000E4E6F25
:105ADE00000E4F6F600E006F970E016F100E026F6B
:105AEE001BEC30F007EC30F011EC30F0DAEC30F06B
:105AFE00EEEC2EF0DAEC2BF0060E8EEC2BF0120004
:105B0E00B20EF66E610EF76E000EF86E09006100B1
:105B1E00D4F3FDF509006100D4F3FEF501EE00F2B9
:105B2E001C0EEE6AE806FDE101EEC0F13B0EEE6AD8
:105B3E00E806FDE101EE4AF1160EEE6AE806FDE119
:105B4E000401080E5D6F000E5E6F000E5F6F0001A8
:105B5E0077EF2FF0BEB8B6EF2DF0B9EF2DF0010EA6
:105B6E00BAEF2DF0000EFF0A016E013ABE50011879
:105B7E00EF0B0118BE6E06011E511F11D8B4CAEFED
:105B8E002DF0CCEF2DF0D8EF2DF002D8D8EF2DF070
:105B9E000500FA6E1E51FD6E1F51FE6EFF6AFA5021
:105BAE0012001200000E03011F6F000E206F010E77
:105BBE00216FCF0E1D6F2C0E1C6FB1981C51600003
:105BCE0074FC62F50501636B62C563F5626B62116D
:105BDE00FB6F6351FC6FA188B80E606F610E616F31
:105BEE0048EC30F0110E03011E6F12000501616FBB
:105BFE00000E0501606F040E616108EF2EF00AEFD2
:105C0E002EF01DEF2EF061510C0D500EF324D96EB7
:105C1E00010EF420DA6E0101DFAE18EF2EF01AEF4E
:105C2E002EF01DEF2EF0010E0501606F0501605183
:105C3E0012000501646F610090F5ECF30301F38F20
:105C4E00F39DF381F3B12EEF2EF030EF2EF029EF0E
:105C5E002EF0EB510501636F626B0301EA510501F2
:105C6E006225606F0301000E05016321616F120052
:105C7E004AEF2EF0040E0501626F3D0EE82EFED7A0
:105C8E00622FFCD700D005016007D8A061076029FC
:105C9E0006E16129D8A456EF2EF058EF2EF041EF11
:105CAE002EF01200D1EC30F0A0EC2FF092EC22F09E
:105CBE00C6EC2CF0CFEC2FF0D6EC2EF0DBEC2FF068
:105CCE00D9EC2DF08CEC2FF052EC2CF05BEC2DF08F
:105CDE008CEC2CF012000501636F000E0501626F53
:105CEE006351FDEC2DF00009D8B480EF2EF082EF59
:105CFE002EF088EF2EF005016351B4EC2FF0050164
:105D0E00626F050162511200A4EC2EF006013451AF
:105D1E003511D8B495EF2EF097EF2EF0A3EF2EF0AD
:105D2E0002D8A3EF2EF00500FA6E3451FD6E3551F8
:105D3E00FE6EFF6AFA5012001200000ECEBA010E6D
:105D4E004A6E4A04D8A4AEEF2EF0B0EF2EF0BCEFA0
:105D5E002EF0000EA2EC24F00501E86F010EA2EC6D
:105D6E0024F00501E76F4BC54CF51200056E61007E
:105D7E0014F4ECF30301F38FF39DF381F3B1CAEF47
:105D8E002EF0CCEF2EF0C5EF2EF0EB51046E036A21
:105D9E00EA510324016E000E0420026E1200010E61
:105DAE000301266F000E256F000E276FC20E236FA4
:105DBE00000E226FB196A186B60E0501606F610EC0
:105DCE00616F43EC30F0F00E0301246F1200000EF1
:105DDE000501606F6051020DFE0EF324D96E050EA3
:105DEE00F420DA6E000EDF6E602B6051D8B402EF35
:105DFE002FF004EF2FF0F1EF2EF01200B196050107
:105E0E00CC4BCD2BCD5109E10A0ECC5DD8A012EFB3
:105E1E002FF014EF2FF01BEF2FF0B1EC2DF0000E42
:105E2E000501CD6F000ECC6F120003011EA522EFEF
:105E3E002FF024EF2FF02DEF2FF01E9102501D6F3B
:105E4E00610004F41CF31E8132EF2FF002501D6F1F
:105E5E00610004F41CF31200060120512111D8B484
:105E6E003BEF2FF03DEF2FF049EF2FF002D849EF27
:105E7E002FF00500FA6E2051FD6E2151FE6EFF6A65
:105E8E00FA501200120006011C511D11D8B452EF27
:105E9E002FF054EF2FF060EF2FF002D860EF2FF0BD
:105EAE000500FA6E1C51FD6E1D51FE6EFF6AFA5012
:105EBE00120012000501675169036100CCF36BF506
:105ECE006100D0F36CF567516A03F3506C2768518B
:105EDE006903F3506C276BC567F56CC568F5120046
:105EEE0059EC2EF0D68EC79ABF8AC8EC30F0030E4E
:105EFE000501616FE80E606F3FEC2EF000F0B2EC22
:105F0E001FF07EEF2FF00DEF00F0440E03011B6F1C
:105F1E009B0E196F000E186FB19EA18EBA0E050161
:105F2E00606F610E616F4DEC30F0800E03011A6FE1
:105F3E001200000E0001606F000E616F000E626FA6
:105F4E00000E636F000E646F000E656F000E666FBD
:105F5E00000E676F000E686F12000501606F05017D
:105F6E0060510C0D540EF324D96E010EF420DA6E2E
:105F7E00DF50010B1200F1EC2FF00009D8B4CAEF7C
:105F8E002FF0CDEF2FF0010ECEEF2FF0000E1200FE
:105F9E00700E0001AD6F000EAF6F000EB36F020EEC
:105FAE00B16F000EB06F1200AF90D680BC0E05011F
:105FBE00606F610E616F70EC30F09F801200010116
:105FCE0036B5ECEF2FF0EFEF2FF0010EF0EF2FF0D4
:105FDE00000E1200010136B9F7EF2FF0FAEF2FF095
:105FEE00010EFBEF2FF0000E1200010136BB02EF87
:105FFE0030F005EF30F0010E06EF30F0000E12001B
:10600E00100E0101506F040E516F600E526F050E8F
:10601E00536F1200080E01015C6F040E5D6F600E6F
:10602E005E6F050E5F6F1200010E0101046F010E0F
:10603E00056F060E066F000E076F1200B198FBC5B6
:10604E0001F5FCC502F51CEC2FF033EC2FF012001D
:10605E00610080F572F405016151736E12006100EA
:10606E0080F57AF4050161517B6E12000501606FB7
:10607E00610080F5FBF3120060C51EF661C51FF6C8
:10608E00120060C520F661C521F6120060C51CF62F
:10609E0061C51DF6120060C524F661C525F6120015
:1060AE0060C526F661C527F6120060C522F661C5E9
:1060BE0023F6120060C5DEF561C5DFF5120060C57E
:1060CE00E0F561C5E1F5120060C5DCF561C5DDF5F1
:1060DE00120060C534F661C535F6120060C5D0F504
:1060EE0061C5D1F5120060C5D2F561C5D3F51200B8
:1060FE0060C5CEF561C5CFF5120060C5D4F561C59A
:10610E00D5F5120060C5DAF561C5DBF5120060C584
:10611E00D8F561C5D9F5120060C5D6F561C5D7F5BC
:10612E00120060C52AF661C52BF6120060C52CF66A
:10613E0061C52DF6120060C52EF661C52FF6120050
:10614E0060C530F661C531F6120060C528F661C52E
:10615E0029F6120060C532F661C533F61200010150
:10616E000239E832070B1200016E610004F4FBF3F2
:10617E001200B19E4AEC2FF01200AF908BEC2EF075
:10618E001200BF84BF8212000301F39B12000301B1
:10619E00F39B1200D69A1200788E1200789E12008F
:1061AE007884120001001200120012001200120078
:0E61BE00120012001200120012001200120055
:020000040020DA
:10000000FF0FFF0FFF0FFF0FFF0FFF0FFF0FFF0F80
:10001000FF0FFF0FFF0FFF0FFF0FFF0FFF0FFF0F70
:020000040030CA
:10000000FAEFF7DF9FFFFFFFFFFFFFFFFFFFFFFF9D
:10001000FFFFFFFFFFFFFFFFFFFFFFFFFFFFFFFFF0
:04002000FFFFFFFFE0
:00000001FF
