:020000040000FA
:040000000DEF00F010
:0400080092EF22F061
:06001800FF00BAEF24F026
:0D2600000000010203040506070850010058
:10260E000501CA51800BD36FCA51CA25D56FC9AF08
:10261E0013EF13F015EF13F016EF13F0D581D5511C
:10262E00D8B41CEF13F01EEF13F033EF13F0D529CF
:10263E00D8A424EF13F026EF13F02EEF13F0000EB4
:10264E00C76F000EC86F000EC96F000ECA6FC98F1C
:10265E00000ECA6F3BEF13F0000EC76F000EC86F6F
:10266E00000EC96F000ECA6FCE51800BD46FD351BE
:10267E00D419D8B445EF13F047EF13F048EF13F029
:10268E00D38DCE51CE25D46FCDAF50EF13F052EF88
:10269E0013F053EF13F0D481D451D8B459EF13F093
:1026AE005BEF13F070EF13F0D429D8A461EF13F0A1
:1026BE0063EF13F06BEF13F0000ECB6F000ECC6FC9
:1026CE00000ECD6F000ECE6FCD8F000ECE6F78EF59
:1026DE0013F0000ECB6F000ECC6F000ECD6F000E00
:1026EE00CE6FD551D45DD8B07FEF13F081EF13F0DC
:1026FE00A8EF13F0D3AD86EF13F088EF13F08AEF47
:10270E0013F0800ED31BD5C5D6F5D4C5D5F5D6C5D9
:10271E00D4F5C7C5D6F5CBC5C7F5D6C5CBF5C8C557
:10272E00D6F5CCC5C8F5D6C5CCF5C9C5D6F5CDC53B
:10273E00C9F5D6C5CDF5CAC5D6F5CEC5CAF5D6C529
:10274E00CEF5000ED66FD551D4C5CFF5D06BCF5F79
:10275E00000ED05BD0BFBDEF13F0D05109E11A0EC1
:10276E00CF5DD8A0BDEF13F0BFEF13F0F6EF13F06F
:10277E00C751C811C911CA11D8A4C8EF13F0CBEFB5
:10278E0013F0010ECCEF13F0000ED66F000EC76FD4
:10279E00000EC86F000EC96F000ECA6FD4C5D5F5F6
:1027AE00FFEF13F0D6A1DEEF13F0E0EF13F0E6EF3C
:1027BE0013F0D890D6310109D66FE8EF13F0D89008
:1027CE00D633C7A1EDEF13F0EFEF13F0F0EF13F0E8
:1027DE00D68FCA35CA33C933C833C733D52BD45174
:1027EE00D55DD8A0FDEF13F0FFEF13F0D9EF13F086
:1027FE00D3BD04EF14F006EF14F046EF14F0D551EC
:10280E00D8A40CEF14F00EEF14F018EF14F0000E25
:10281E00C76F000EC86F000EC96F000ECA6F67EF4C
:10282E0015F0CB51C727CC51C823CD51C923CE515A
:10283E00CA23CAA125EF14F027EF14F0D3EF14F03A
:10284E00D6A12CEF14F02EEF14F034EF14F0D89034
:10285E00D6310109D66F36EF14F0D890D633C7A112
:10286E003BEF14F03DEF14F03EEF14F0D68FCA3567
:10287E00CA33C933C833C733D52BD3EF14F0CB517A
:10288E00C75DCC51C859CD51C959CA51800ACF6FB5
:10289E00CE51800ACF59D8B057EF14F059EF14F03B
:1028AE0084EF14F0C751CB5DCF6FC851CC59D06FA8
:1028BE00C951CD59D16FCA51CE59D26FFF0ECF2506
:1028CE00C76FFF0ED021C86FFF0ED121C96FFF0E4B
:1028DE00D221CA6F800ED31BD66DD651D8A47AEFF3
:1028EE0014F07CEF14F08CEF14F0010EC727000EDD
:1028FE00C823C923CA238CEF14F0CB51C75FCC5128
:10290E00C85BCD51C95BCE51CA5BC751C811C91145
:10291E00CA11D8A495EF14F097EF14F0CCEF14F081
:10292E00D651D8A49DEF14F09FEF14F0CCEF14F015
:10293E00000EC76F000EC86F000EC96F000ECA6F73
:10294E0067EF15F0D890C737C837C937CA37D6AF33
:10295E00B3EF14F0B5EF14F0B6EF14F0C781D6A1B3
:10296E00BBEF14F0BDEF14F0C1EF14F0D880D637E2
:10297E00C3EF14F0D890D637D551D8B4C9EF14F0B0
:10298E00CBEF14F0CCEF14F0D507C9AFD1EF14F0A4
:10299E00D3EF14F0A9EF14F0000ED46FD6AFDAEF28
:1029AE0014F0DCEF14F0F4EF14F0D6C5CFF57F0E73
:1029BE00CF17D8B4E5EF14F0E7EF14F0EBEF14F007
:1029CE00010ED46FF4EF14F0C7A1F0EF14F0F2EF94
:1029DE0014F0F4EF14F0E7EF14F0D451D8B4FAEF8A
:1029EE0014F0FCEF14F027EF15F0010EC727000EC0
:1029FE00C823C923CA23CAA107EF15F009EF15F0A2
:102A0E0027EF15F0C7C5CFF5C8C5D0F5C9C5D1F5A7
:102A1E00CAC5D2F5D235D233D133D033CF33CFC5A9
:102A2E00C7F5D0C5C8F5D1C5C9F5D2C5CAF5D529E2
:102A3E00D8B424EF15F026EF15F027EF15F0D52BAF
:102A4E00D529D8B42DEF15F02FEF15F037EF15F07F
:102A5E00D551D8A435EF15F037EF15F049EF15F035
:102A6E00000EC76F000EC86F000EC96F000ECA6F42
:102A7E00D551D8A445EF15F047EF15F049EF15F0F5
:102A8E00000ED36FD5A14EEF15F050EF15F053EFAA
:102A9E0015F0C98F54EF15F0C99FD890D531CA6F74
:102AAE00D3AF5CEF15F05EEF15F05FEF15F0CA8F48
:102ABE00C7C5C7F5C8C5C8F5C9C5C9F5CAC5CAF5DC
:102ACE0012002B50800B346E2B502B24366E2AAEF8
:102ADE0073EF15F075EF15F076EF15F03680365072
:102AEE00D8B47CEF15F07EEF15F093EF15F0362885
:102AFE00D8A484EF15F086EF15F08EEF15F0000ECA
:102B0E00286E000E296E000E2A6E000E2B6E2A8E77
:102B1E00000E2B6E9BEF15F0000E286E000E296E28
:102B2E00000E2A6E000E2B6E2F50800B356E345019
:102B3E003518D8B4A5EF15F0A7EF15F0A8EF15F0DE
:102B4E00348C2F502F24356E2EAEB0EF15F0B2EF21
:102B5E0015F0B3EF15F035803550D8B4B9EF15F048
:102B6E00BBEF15F0D0EF15F03528D8A4C1EF15F056
:102B7E00C3EF15F0CBEF15F0000E2C6E000E2D6E80
:102B8E00000E2E6E000E2F6E2E8E000E2F6ED8EFB4
:102B9E0015F0000E2C6E000E2D6E000E2E6E000E19
:102BAE002F6E3650355CD8B0DFEF15F0E1EF15F033
:102BBE0008EF16F034ACE6EF15F0E8EF15F0EAEF9B
:102BCE0015F0800E341A36C537F535C536F537C5CE
:102BDE0035F528C537F52CC528F537C52CF529C58B
:102BEE0037F52DC529F537C52DF52AC537F52EC56F
:102BFE002AF537C52EF52BC537F52FC52BF537C55D
:102C0E002FF5000E376E365035C530F5316A305E11
:102C1E00000E315A31BE1DEF16F0315009E11A0E79
:102C2E00305CD8A01DEF16F01FEF16F056EF16F021
:102C3E00285029102A102B10D8A428EF16F02BEFAD
:102C4E0016F0010E2CEF16F0000E376E000E286EE9
:102C5E00000E296E000E2A6E000E2B6E35C536F54F
:102C6E005FEF16F037A03EEF16F040EF16F046EF8E
:102C7E0016F0D89037300109376E48EF16F0D8901D
:102C8E00373228A04DEF16F04FEF16F050EF16F03A
:102C9E00378E2B342B322A3229322832362A3550AF
:102CAE00365CD8A05DEF16F05FEF16F039EF16F038
:102CBE0034BC64EF16F066EF16F0A6EF16F0365041
:102CCE00D8A46CEF16F06EEF16F078EF16F0000E3B
:102CDE00286E000E296E000E2A6E000E2B6EC7EFA8
:102CEE0017F02C5028262D5029222E502A222F50F4
:102CFE002B222BA085EF16F087EF16F033EF17F08F
:102D0E0037A08CEF16F08EEF16F094EF16F0D890E9
:102D1E0037300109376E96EF16F0D890373228A06B
:102D2E009BEF16F09DEF16F09EEF16F0378E2B34BC
:102D3E002B322A3229322832362A33EF17F02C5012
:102D4E00285C2D5029582E502A582B50800A306E50
:102D5E002F50800A3058D8B0B7EF16F0B9EF16F0F2
:102D6E00E4EF16F028502C5C306E29502D58316E41
:102D7E002A502E58326E2B502F58336EFF0E3024A1
:102D8E00286EFF0E3120296EFF0E32202A6EFF0EA6
:102D9E0033202B6E800E341A376C3750D8A4DAEFEE
:102DAE0016F0DCEF16F0ECEF16F0010E2826000EF2
:102DBE0029222A222B22ECEF16F02C50285E2D50C1
:102DCE00295A2E502A5A2F502B5A285029102A1081
:102DDE002B10D8A4F5EF16F0F7EF16F02CEF17F036
:102DEE003750D8A4FDEF16F0FFEF16F02CEF17F0CA
:102DFE00000E286E000E296E000E2A6E000E2B6E2F
:102E0E00C7EF17F0D890283629362A362B3637AE2C
:102E1E0013EF17F015EF17F016EF17F0288037A005
:102E2E001BEF17F01DEF17F021EF17F0D880373694
:102E3E0023EF17F0D89037363650D8B429EF17F065
:102E4E002BEF17F02CEF17F036062AAE31EF17F0F6
:102E5E0033EF17F009EF17F0000E356E37AE3AEF7D
:102E6E0017F03CEF17F054EF17F037C530F57F0E23
:102E7E003016D8B445EF17F047EF17F04BEF17F0B9
:102E8E00010E356E54EF17F028A050EF17F052EFE9
:102E9E0017F054EF17F047EF17F03550D8B45AEF3C
:102EAE0017F05CEF17F087EF17F0010E2826000ED3
:102EBE0029222A222B222BA067EF17F069EF17F099
:102ECE0087EF17F028C530F529C531F52AC532F53B
:102EDE002BC533F53334333232323132303230C5E2
:102EEE0028F531C529F532C52AF533C52BF5362817
:102EFE00D8B484EF17F086EF17F087EF17F0362A65
:102F0E003628D8B48DEF17F08FEF17F097EF17F034
:102F1E003650D8A495EF17F097EF17F0A9EF17F0EA
:102F2E00000E286E000E296E000E2A6E000E2B6EFD
:102F3E003650D8A4A5EF17F0A7EF17F0A9EF17F0AA
:102F4E00000E346E36A0AEEF17F0B0EF17F0B3EF01
:102F5E0017F02A8EB4EF17F02A9ED89036302B6ECB
:102F6E0034AEBCEF17F0BEEF17F0BFEF17F02B8E9D
:102F7E0028C528F529C529F52AC52AF52BC52BF50F
:102F8E0012001250800B1B6E12501224216E11AEC5
:102F9E00D3EF17F0D5EF17F0D6EF17F021802150B1
:102FAE00D8B4DCEF17F0DEEF17F0F1EF17F02128B1
:102FBE00D8A4E4EF17F0E6EF17F0EEEF17F0000EDF
:102FCE000F6E000E106E000E116E000E126E118E30
:102FDE00F9EF17F0000E0F6E000E106E000E116E50
:102FEE00000E126E1650800B1B1A16501624206EF1
:102FFE0015AE04EF18F006EF18F007EF18F020806A
:10300E002050D8B40DEF18F00FEF18F022EF18F093
:10301E002028D8A415EF18F017EF18F01FEF18F0AE
:10302E00000E136E000E146E000E156E000E166E50
:10303E00158E2AEF18F0000E136E000E146E000E91
:10304E00156E000E166E2050D8B430EF18F032EF19
:10305E0018F03AEF18F02150D8A438EF18F03AEFE4
:10306E0018F044EF18F0000E0F6E000E106E000EEA
:10307E00116E000E126EEEEF19F015500F02610078
:10308E00CCF326F56100D0F327F526501C6E1D6A91
:10309E001E6A1F6A2750226E236A246A256A1450FC
:1030AE0010026100CCF326F56100D0F327F526500F
:1030BE001C26000E1D221E221F2227502226000E25
:1030CE00232224222522135011026100CCF326F56F
:1030DE006100D0F327F526501C26000E1D221E225D
:1030EE001F2227502226000E2322242225221EC50F
:1030FE001FF51DC51EF51CC51DF51C6A13501002CB
:10310E006100CCF326F56100D0F327F526501C267E
:10311E0027501D22000E1E22000E1F2214500F02D9
:10312E006100CCF326F56100D0F327F526501C265E
:10313E0027501D22000E1E22000E1F221EC51FF537
:10314E001DC51EF51CC51DF51C6A13500F0261002E
:10315E00CCF326F56100D0F327F526501C26275018
:10316E001D22000E1E22000E1F221550100261009D
:10317E00CCF326F56100D0F327F5265022262750F2
:10318E002322000E2422000E25221450110261006B
:10319E00CCF326F56100D0F327F5265022262750D2
:1031AE002322000E2422000E25221550110261004A
:1031BE00CCF326F56100D0F327F52650176E275075
:1031CE00186E196A1A6A19C51AF518C519F517C5B0
:1031DE0018F5176A17502226185023221950242248
:1031EE001A5025221CC517F51DC518F51EC519F553
:1031FE001FC51AF5190E09EF19F0D8901A321932A7
:10320E0018321732E82E04EF19F0175022261850F4
:10321E002322195024221A5025221EC51FF51DC522
:10322E001EF51CC51DF51C6A205021C517F5186A20
:10323E001726000E1822820E1724266EFF0E182057
:10324E00276E3FEF19F0D8902236233624362536D6
:10325E001FAE34EF19F036EF19F037EF19F0228068
:10326E00D8901C361D361E361F362606D8A02706C9
:10327E0024AE44EF19F046EF19F02AEF19F0000EC4
:10328E00206E1FAE4DEF19F04FEF19F073EF19F0DE
:10329E00FF0E1C14176EFF0E1D14186EFF0E1E145B
:1032AE00196E7F0E1F141A6E1750181019101A105F
:1032BE00D8B464EF19F066EF19F06AEF19F0010E49
:1032CE00206E73EF19F022A06FEF19F071EF19F065
:1032DE0073EF19F066EF19F02050D8B479EF19F0AA
:1032EE007BEF19F09FEF19F0010E2226000E23221C
:1032FE002422252225A086EF19F088EF19F09FEFE2
:10330E0019F022C517F523C518F524C519F525C5DD
:10331E001AF51A341A3219321832173217C522F525
:10332E0018C523F519C524F51AC525F5264A272AE9
:10333E0027BEAAEF19F0275008E12628D8A0AAEF39
:10334E0019F0ACEF19F0B6EF19F0000E226E000E68
:10335E00236E800E246E7F0E256EE4EF19F027BECD
:10336E00C3EF19F0275006E12604D8B0C1EF19F0CB
:10337E00C3EF19F0CFEF19F0000E226E000E236E80
:10338E00000E246E000E256E000E1B6EE4EF19F07B
:10339E0026C521F5FF0E2216FF0E23167F0E2416CC
:1033AE00000E251621A0DEEF19F0E0EF19F0E1EF87
:1033BE0019F0248ED8902130256E1B50251222C56F
:1033CE000FF523C510F524C511F525C512F512000C
:1033DE001250800B1F6E12501224266E11AEFAEF91
:1033EE0019F0FCEF19F0FDEF19F026802650D8B435
:1033FE0003EF1AF005EF1AF01AEF1AF02628D8A4E8
:10340E000BEF1AF00DEF1AF015EF1AF0000E0F6E0B
:10341E00000E106E000E116E000E126E118E000E4A
:10342E00126E22EF1AF0000E0F6E000E106E000ECE
:10343E00116E000E126E1650800B1F1A16501624A7
:10344E00276E15AE2DEF1AF02FEF1AF030EF1AF09F
:10345E0027802750D8B436EF1AF038EF1AF04DEF18
:10346E001AF02728D8A43EEF1AF040EF1AF048EFD2
:10347E001AF0000E136E000E146E000E156E000E76
:10348E00166E158E000E166E55EF1AF0000E136E98
:10349E00000E146E000E156E000E166E13501410E4
:1034AE0015101610D8A45EEF1AF060EF1AF078EF30
:1034BE001AF0000E0F6E000E106E000E116E000E42
:1034CE00126E800E11127F0E12121F5012120FC5A5
:1034DE000FF510C510F511C511F512C512F5BBEF9C
:1034EE001BF02650D8A47EEF1AF080EF1AF08AEF68
:1034FE001AF0000E0F6E000E106E000E116E000E02
:10350E00126EBBEF1BF0275026C517F5186A175E13
:10351E00000E185A7F0E1724206E000E1820216EF2
:10352E000FC51BF510C51CF511C51DF512C51EF5F1
:10353E00000E0F6E000E106E000E116E000E126E4B
:10354E00000E226E000E236E000E246E000E256EEF
:10355E00000E276EEBEF1AF02750D8B4B9EF1AF021
:10356E00BBEF1AF0D2EF1AF0D8901B361C361D3670
:10357E001E36D8900F3610361136123625AECAEFDB
:10358E001AF0CCEF1AF0CDEF1AF00F80D890223649
:10359E0023362436253613501B5C14501C581550F8
:1035AE001D5816501E58D8A0DFEF1AF0E1EF1AF092
:1035BE00EAEF1AF0258C13501B5E14501C5A15504E
:1035CE001D5A16501E5A272A190E2764F1EF1AF0AB
:1035DE00F3EF1AF0B3EF1AF01B501C101D101E1053
:1035EE00D8B4FCEF1AF0FEEF1AF016EF1BF02280A3
:1035FE0016EF1BF0D8900F3610361136123625AE58
:10360E000BEF1BF00DEF1BF00EEF1BF00F80D890A1
:10361E0022362336243625362006D8A0210611AEB2
:10362E001BEF1BF01DEF1BF001EF1BF0000E276EC2
:10363E0025AE24EF1BF026EF1BF04AEF1BF0FF0E1A
:10364E002214176EFF0E2314186EFF0E2414196E1B
:10365E007F0E25141A6E1750181019101A10D8B4A0
:10366E003BEF1BF03DEF1BF041EF1BF0010E276E01
:10367E004AEF1BF00FA046EF1BF048EF1BF04AEF8E
:10368E001BF03DEF1BF02750D8B450EF1BF052EF5C
:10369E001BF076EF1BF0010E0F26000E10221122EA
:1036AE00122212A05DEF1BF05FEF1BF076EF1BF006
:1036BE000FC517F510C518F511C519F512C51AF570
:1036CE001A341A3219321832173217C50FF518C5B7
:1036DE0010F519C511F51AC512F5204A212A21BE79
:1036EE0081EF1BF0215008E12028D8A081EF1BF0BC
:1036FE0083EF1BF08EEF1BF0000E216E2068000E84
:10370E000F6E000E106E000E116E000E126E21BEA8
:10371E009BEF1BF0215006E12004D8B099EF1BF06F
:10372E009BEF1BF0A9EF1BF0000E216E000E206E1A
:10373E00000E0F6E000E106E000E116E000E126E49
:10374E00000E1F6E20C526F526A0B0EF1BF0B2EFBF
:10375E001BF0B5EF1BF0118EB6EF1BF0119ED8903B
:10376E002630126E6CEF1AF01200040E0301F96F80
:10377E00000EFA6F000ED86F000EFB6F000ED96FA1
:10378E00000EDA6F000EDB6F000EDC6F000EDF6FC7
:10379E00000EE06F000EE36F000EE46F000EE56F9B
:1037AE00000EE66F000EE76F000EEA6F000EEB6F75
:1037BE00000EEC6F000EEE6F000EEF6F000EF06F4E
:1037CE00000EF16F000EF26F000EF36F000EF46F2D
:1037DE00100EF56F000EF66F000EF76F120EF86FEB
:1037EE00000EFC6F010EFB6F000ED96F000EDA6F2C
:1037FE00000EDB6F000EDC6F000EDF6F000EE06F51
:10380E00000EE36F000EE46F000EE56F000EE66F24
:10381E00000EE76F000EEA6F000EEB6F010EEC6FFD
:10382E00000EEE6F000EEF6F000EF06F000EF16FD8
:10383E00000EF26F000EF36F000EF46F100EF56FA8
:10384E00000EF66F000EF76F000EF86F000EFD6F94
:10385E00020EFB6F000ED96F000EDA6F000EDB6FDB
:10386E00000EDC6F000EDF6F000EE06F000EE36FD8
:10387E00000EE46F000EE56F000EE66F000EE76FB0
:10388E00000EEA6F000EEB6F160EEC6F000EEE6F71
:10389E00000EEF6F000EF06F000EF16F000EF26F64
:1038AE00000EF36F000EF46F100EF56F000EF66F34
:1038BE00000EF76F000EF86F000EFE6F030EFB6F1B
:1038CE00000ED96F000EDA6F000EDB6F000EDC6F8C
:1038DE00000EDF6F000EE06F000EE36F000EE46F60
:1038EE00000EE56F000EE66F000EE76F000EEA6F3A
:1038FE00000EEB6F170EEC6F000EEE6F000EEF6FFB
:10390E00000EF06F000EF16F000EF26F000EF36FEF
:10391E00000EF46F100EF56F000EF66F000EF76FBF
:10392E00000EF86F000EFF6FAF94AF96B090B0928E
:10393E00B094B096000E0501AB6F000EAC6F91EC1B
:10394E0027F0000E0501AB6F000EAC6F87EC27F071
:10395E00000E0501AB6F000EAC6F82EC27F0000E6F
:10396E000501AB6F000EAC6F7DEC27F0000E05016C
:10397E00AB6F000EAC6F78EC27F0000E0501AB6F4D
:10398E00000EAC6F8CEC27F0840E0301F36F120067
:10399E00446E10EF1DF0A3EC27F0000E96EC27F00E
:1039AE00000E97EC25F001C547F502C548F5010E4E
:1039BE00496E3DEF1DF0A3EC27F0010E96EC27F0BB
:1039CE00010E97EC25F001C547F502C548F5DEEF6F
:1039DE001CF0A3EC27F0020E96EC27F0170E97ECD6
:1039EE0025F001C547F502C548F5DEEF1CF0A3EC46
:1039FE0027F0020E96EC27F0160E97EC25F001C577
:103A0E0047F502C548F5DEEF1CF0020E496E3DEF9C
:103A1E001DF04450426E436A4350000AD8B41AEF68
:103A2E001DF00CEF1DF04250000AD8B4D2EF1CF07E
:103A3E00010AD8B4E2EF1CF0030AD8B4F0EF1CF080
:103A4E00010AD8B4FEEF1CF0070AD8B40CEF1DF033
:103A5E00010AD8B40CEF1DF0030AD8B40CEF1DF018
:103A6E00010AD8B40CEF1DF00CEF1DF04904D8A4D8
:103A7E0043EF1DF045EF1DF0C6EF1DF0485007E176
:103A8E00070E475CD8B04EEF1DF050EF1DF056EF0D
:103A9E001DF0000E466E000E456E91EF1DF06F0E7E
:103AAE002C6E810E2D6EA80E2E6EC00E2F6EB30EC6
:103ABE00136E7B0E146E920E156E3F0E166E47C56C
:103ACE0001F548C502F5036A046A000EA3EC1EF068
:103ADE0001C50FF502C510F503C511F504C512F5A4
:103AEE00C8EC17F00FC528F510C529F511C52AF534
:103AFE0012C52BF568EC15F028C538F529C539F532
:103B0E002AC53AF52BC53BF533EC21F038C545F502
:103B1E0039C546F5890E455C130E4658D8A09AEF66
:103B2E001DF09CEF1DF09EEF1DF0C6EF1DF02F0E49
:103B3E00136EDD0E146E9C0E156E410E166E45C57F
:103B4E0001F546C502F5036A046A000EA3EC1EF0E9
:103B5E0001C50FF502C510F503C511F504C512F523
:103B6E00EFEC19F00FC538F510C539F511C53AF55A
:103B7E0012C53BF533EC21F03850C6EF1DF01200A4
:103B8E000501C16F0501C151D8B4D0EF1DF0D2EFC0
:103B9E001DF0F4EF1DF0BCBFD9EF1DF0D7EF1DF0F7
:103BAE00F4EF1DF0B9C5BDF5BAC5BEF5BBC5BFF581
:103BBE00BCC5C0F5BD1FBE1FBF1FC01FBD2B000E55
:103BCE00BE23BF23C023BDC5C3F5BEC5C4F5BFC547
:103BDE00C5F5C0C5C6F5FCEF1DF0B9C5C3F5BAC530
:103BEE00C4F5BBC5C5F5BCC5C6F5B951BA11BB11F7
:103BFE00BC11D8A405EF1EF007EF1EF011EF1EF05A
:103C0E00000EB96F000EBA6F000EBB6F000EBC6FC8
:103C1E00A2EF1EF0960EC26F1BEF1EF0C22BD890B5
:103C2E00C633C533C433C333000EC315BD6F000E88
:103C3E00C415BE6F000EC515BF6FFE0EC615C06F44
:103C4E00BD51BE11BF11C011D8A430EF1EF032EF1E
:103C5E001EF015EF1EF040EF1EF0C22B010EC32713
:103C6E00000EC423C523C623D890C633C533C43330
:103C7E00C333000EC315BD6F000EC415BE6F000E0C
:103C8E00C515BF6FFF0EC615C06FBD51BE11BF115A
:103C9E00C011D8A455EF1EF057EF1EF034EF1EF0F2
:103CAE005FEF1EF0C207D890C337C437C537C6378B
:103CBE00C5BF64EF1EF066EF1EF06EEF1EF0020E33
:103CCE00C2616CEF1EF06EEF1EF059EF1EF0C2B126
:103CDE0073EF1EF075EF1EF076EF1EF0C59FD890B5
:103CEE00C233C2C5BDF5BE6BBF6BC06BBDC5C0F5E3
:103CFE00BF6BBE6BBD6BBD51C313BE51C413BF5161
:103D0E00C513C051C613C151D8B490EF1EF092EF37
:103D1E001EF09AEF1EF0BCBF99EF1EF097EF1EF04B
:103D2E009AEF1EF0C68FC3C5B9F5C4C5BAF5C5C5A1
:103D3E00BBF5C6C5BCF51200096E0950D8B4AAEF82
:103D4E001EF0ACEF1EF0CEEF1EF004BEB3EF1EF071
:103D5E00B1EF1EF0CEEF1EF001C505F502C506F55A
:103D6E0003C507F504C508F5051E061E071E081E29
:103D7E00052A000E06220722082205C50BF506C5E8
:103D8E000CF507C50DF508C50EF5D6EF1EF001C5ED
:103D9E000BF502C50CF503C50DF504C50EF5015066
:103DAE00021003100410D8A4DFEF1EF0E1EF1EF096
:103DBE00EBEF1EF0000E016E000E026E000E036E93
:103DCE00000E046E7CEF1FF0960E0A6EF5EF1EF0DD
:103DDE000A2AD8900E320D320C320B32000E0B1412
:103DEE00056E000E0C14066E000E0D14076EFE0E00
:103DFE000E14086E0550061007100810D8A40AEF0E
:103E0E001FF00CEF1FF0EFEF1EF01AEF1FF00A2A53
:103E1E00010E0B26000E0C220D220E22D8900E3211
:103E2E000D320C320B32000E0B14056E000E0C14FC
:103E3E00066E000E0D14076EFF0E0E14086E055062
:103E4E00061007100810D8A42FEF1FF031EF1FF047
:103E5E000EEF1FF039EF1FF00A06D8900B360C3616
:103E6E000D360E360DBE3EEF1FF040EF1FF048EF41
:103E7E001FF0020E0A6046EF1FF048EF1FF033EFFF
:103E8E001FF00AB04DEF1FF04FEF1FF050EF1FF075
:103E9E000D9ED8900A320AC505F5066A076A086AA9
:103EAE0005C508F5076A066A056A05500B12065025
:103EBE000C1207500D1208500E120950D8B46AEFAA
:103ECE001FF06CEF1FF074EF1FF004BE73EF1FF0C6
:103EDE0071EF1FF074EF1FF00E8E0BC501F50CC5C0
:103EEE0002F50DC503F50EC504F5120001011DAF57
:103EFE0083EF1FF085EF1FF094EF1FF002D892EFC3
:103F0E001FF00500FA6E05018851FD6E8951FE6E97
:103F1E00FF6AFA50120001011D9F1DAD99EF1FF0AF
:103F2E009BEF1FF0AAEF1FF002D8A8EF1FF00500BD
:103F3E00FA6E05018651FD6E8751FE6EFF6AFA50CC
:103F4E00120001011D9D1DABAFEF1FF0B1EF1FF071
:103F5E00C0EF1FF002D8BEEF1FF00500FA6E05018C
:103F6E008451FD6E8551FE6EFF6AFA5012000101FA
:103F7E001D9B1CA7C5EF1FF0C7EF1FF0D6EF1FF05C
:103F8E0002D8D4EF1FF00500FA6E05018251FD6EC6
:103F9E008351FE6EFF6AFA50120001011C971DA993
:103FAE00DBEF1FF0DDEF1FF0ECEF1FF002D8EAEFB2
:103FBE001FF00500FA6E05018051FD6E8151FE6EF7
:103FCE00FF6AFA50120001011D991DA5F1EF1FF0B5
:103FDE00F3EF1FF009EF20F002D800EF20F00500FC
:103FEE00FA6E05017E51FD6E7F51FE6EFF6AFA502C
:103FFE001200010154A906EF20F008EF20F009EF9E
:10400E0020F054991DA70EEF20F010EF20F026EFB0
:10401E0020F002D81DEF20F00500FA6E05017C514C
:10402E00FD6E7D51FE6EFF6AFA501200010160A70F
:10403E0023EF20F025EF20F026EF20F06097AE9CC6
:10404E001200000E0501B46FB2BF32EF20F030EF58
:10405E0020F03CEF20F0B21FB11FB01FAF6D000E6D
:10406E00B023B123B223010EB46FAEBF43EF20F0E5
:10407E0041EF20F04DEF20F0AE1FAD1FAC1FAB6D2A
:10408E00000EAC23AD23AE23010EB41B000EB56F94
:10409E00000EB66F000EB76F000EB86FAF51B011B5
:1040AE00B111B211D8B45EEF20F060EF20F096EFB0
:1040BE0020F0010EB36F6AEF20F0D890AF37B03713
:1040CE00B137B237B32BB2AF6FEF20F071EF20F0F4
:1040DE0064EF20F0D890B537B637B737B837AF5151
:1040EE00AB5DB051AC59B151AD59B251AE59D8A02A
:1040FE0083EF20F085EF20F08EEF20F0AF51AB5F15
:10410E00B051AC5BB151AD5BB251AE5BB581D890E5
:10411E00B233B133B033AF33B32F71EF20F0B451AC
:10412E00D8B49CEF20F09EEF20F0A6EF20F0B81F41
:10413E00B71FB61FB56D000EB623B723B823B5C58E
:10414E00ABF5B6C5ACF5B7C5ADF5B8C5AEF5120055
:10415E000501D935DA35E06FE051D8A4B9EF20F07A
:10416E00BBEF20F0C5EF20F0000ED76F000ED86F1A
:10417E00000ED96F000EDA6F32EF21F0D7C5DBF5E6
:10418E00D8C5DCF5D9C5DDF5DAC5DEF5200ED5EFDF
:10419E0020F0D890DE33DD33DC33DB33E82ED0EF86
:1041AE0020F0DB51DF6FD98FFF0ED717FF0ED81718
:1041BE00FF0ED917000EDA17960EE05FE0BFECEF98
:1041CE0020F0EAEF20F002EF21F0E051800A970F85
:1041DE00D8B0F4EF20F0F6EF20F0F8EF20F0BBEFC0
:1041EE0020F0D890DA33D933D833D733E03FF8EF15
:1041FE0020F01AEF21F01F0EE06508EF21F00AEF14
:10420E0021F012EF21F0BBEF20F0D890D737D8373E
:10421E00D937DA37E007E051D8A418EF21F01AEFBA
:10422E0021F00CEF21F0DF51D8B420EF21F022EF76
:10423E0021F02AEF21F0DA1FD91FD81FD76D000EFB
:10424E00D823D923DA23D7C5D7F5D8C5D8F5D9C5FC
:10425E00D9F5DAC5DAF512003A343B34416E4150E5
:10426E00D8A43CEF21F03EEF21F048EF21F0000EF4
:10427E00386E000E396E000E3A6E000E3B6EB5EFC4
:10428E0021F038C53CF539C53DF53AC53EF53BC57F
:10429E003FF5200E58EF21F0D8903F323E323D329E
:1042AE003C32E82E53EF21F03C50406E3A8EFF0E1A
:1042BE003816FF0E3916FF0E3A16000E3B16960EE6
:1042CE00415E41BE6FEF21F06DEF21F085EF21F0E1
:1042DE004150800A970FD8B077EF21F079EF21F097
:1042EE007BEF21F03EEF21F0D8903B323A3239325B
:1042FE003832413E7BEF21F09DEF21F01F0E4164DD
:10430E008BEF21F08DEF21F095EF21F03EEF21F0B4
:10431E00D890383639363A363B3641064150D8A415
:10432E009BEF21F09DEF21F08FEF21F04050D8B49C
:10433E00A3EF21F0A5EF21F0ADEF21F03B1E3A1EC9
:10434E00391E386C000E39223A223B2238C538F518
:10435E0039C539F53AC53AF53BC53BF512006A0E3B
:10436E000501CB6F4D0ECC6F930ECD6FBF0ECE6F82
:10437E00E3C5AFF5E4C5B0F5B16BB26B490EAB6FEB
:10438E00990EAC6F000EAD6F000EAE6F28EC20F0E4
:10439E00ABC5B9F5ACC5BAF5ADC5BBF5AEC5BCF58B
:1043AE00010EC7EC1DF0B9C5C7F5BAC5C8F5BBC53A
:1043BE00C9F5BCC5CAF507EC13F0C7C5D7F5C8C516
:1043CE00D8F5C9C5D9F5CAC5DAF5AFEC20F0D7C511
:1043DE00E7F5D8C5E8F5E1C5E5F5E2C5E6F5050171
:1043EE00D890E537E637D890E537E637E5C5B2F52C
:1043FE00E6C5B3F5E3C5ADF5E4C5AEF5000EAC6F9D
:10440E00640EAB6F76EC23F0ABC5B4F5ACC5B5F569
:10441E0052EC26F0B2C5E9F5B3C5EAF5E9C5ABF540
:10442E00EAC5ACF5FEEC26F0E7C5ABF5E8C5ACF594
:10443E00F7EC26F0A8EC27F012006A0E0501CB6F00
:10444E004D0ECC6F930ECD6FBF0ECE6FE3C5AFF595
:10445E00E4C5B0F5B16BB26B490EAB6F990EAC6F94
:10446E00000EAD6F000EAE6F28EC20F0ABC5B9F5A7
:10447E00ACC5BAF5ADC5BBF5AEC5BCF5010EC7EC06
:10448E001DF0B9C5C7F5BAC5C8F5BBC5C9F5BCC5DC
:10449E00CAF507EC13F0C7C5D7F5C8C5D8F5C9C519
:1044AE00D9F5CAC5DAF5AFEC20F0D7C5E7F5D8C512
:1044BE00E8F5E1C5E5F5E2C5E6F50501D890E53785
:1044CE00E637D890E537E637E5C5B2F5E6C5B3F57C
:1044DE00E3C5ADF5E4C5AEF5000EAC6F640EAB6F83
:1044EE0076EC23F0ABC5B4F5ACC5B5F552EC26F0C1
:1044FE00B2C5E9F5B3C5EAF5E9C5ABF5EAC5ACF564
:10450E000CEC27F0E7C5ABF5E8C5ACF505EC27F0EC
:10451E00AEEC27F01200A1AE97EF22F099EF22F049
:10452E00A4EF22F0B1AE9EEF22F0A0EF22F0A4EFA6
:10453E0022F09BEC27F0ECEF22F09FA0A9EF22F0E7
:10454E00ABEF22F0B6EF22F0AFA0B0EF22F0B2EF59
:10455E0022F0B6EF22F09FEC27F0ECEF22F09EACAB
:10456E00BBEF22F0BDEF22F0C8EF22F0AEACC2EFEF
:10457E0022F0C4EF22F0C8EF22F07DEC1FF0ECEF3A
:10458E0022F0A1A6CDEF22F0CFEF22F0DAEF22F04B
:10459E00B1A6D4EF22F0D6EF22F0DAEF22F0DFEC64
:1045AE0025F0ECEF22F0A1A8DFEF22F0E1EF22F0F0
:1045BE00ECEF22F0B1A8E6EF22F0E8EF22F0ECEFFC
:1045CE0022F0EDEC26F0ECEF22F011000501AD6FBC
:1045DE00000E0501AC6F50EC27F00501AB6F040E19
:1045EE00AB19D8B4FDEF22F0FFEF22F010EF23F05D
:1045FE00AD05D8B405EF23F007EF23F010EF23F04D
:10460E00040EAD19D8A40EEF23F010EF23F035EF02
:10461E0023F0010103510501AD19F80BAD1901018C
:10462E00036F27EF23F001011DA920EF23F022EFE6
:10463E0023F027EF23F0020E0501AC6F37EF23F0C6
:10464E000239E832070B0501AD19D8A431EF23F07A
:10465E0033EF23F01AEF23F037EF23F0010EAC6F98
:10466E00AC511200720E0501AB6F4F0EAC6F69ECC0
:10467E0027F0740E0501AB6F4F0EAC6F6EEC27F08A
:10468E00760E0501AB6F4F0EAC6F73EC27F0700E0C
:10469E000501AB6F4F0EAC6F64EC27F06C0E05018D
:1046AE00AB6F4F0EAC6F5AEC27F06A0E0501AB6F75
:1046BE004F0EAC6F55EC27F06E0E0501AB6F4F0E23
:1046CE00AC6F5FEC27F0AE9C000E01011C6F000E6C
:1046DE001D6F0A0E1E6FFC0E1F6F9E8C1200000EB9
:1046EE000501B06F000EAF6FAD51AE11D8B482EFB1
:1046FE0023F084EF23F0ACEF23F0010EB16F8CEFBB
:10470E0023F0D890AD37AE37B12BAEAF91EF23F08B
:10471E0093EF23F088EF23F0D890AF37B037AD5139
:10472E00AB5DAE51AC59D8A09FEF23F0A1EF23F0B3
:10473E00A6EF23F0AD51AB5FAE51AC5BAF81D8901D
:10474E00AE33AD33B12F93EF23F0AFC5ABF5B0C59C
:10475E00ACF51200000E6F6E020E706E000E716ED2
:10476E00500E726E0F0E736EFE0E746E000E756E20
:10477E00000E766E000E776E000E796E0D0E7A6E4E
:10478E00050E7B6EA80E7C6E070E7D6EB39CB39EDF
:10479E0076907692A39EA39C000E0501AB6F000E41
:1047AE00AC6F2DEC27F0000E0501AB6F000EAC6F59
:1047BE0028EC27F0000E0501AB6F000EAC6F32EC4B
:1047CE0027F0800E786E1200000E606E020E616E83
:1047DE00000E626E3D0E636E000E646EFE0E656E12
:1047EE00000E666E000E676E000E686E000E6A6E2C
:1047FE001F0E6B6E000E6C6E1F0E6D6E000E6E6ECB
:10480E00B29CB29E67906792A29EA29C000E05017A
:10481E00AB6F000EAC6F3CEC27F0000E0501AB6FDA
:10482E00000EAC6F37EC27F0000E0501AB6F000EDB
:10483E00AC6F41EC27F0800E696E1200000EBE6E5A
:10484E00000EBF6E000EC06E080ECA6EEF0EC66E64
:10485E00C80EC76EDC0EC86EF30E0401106F770E15
:10486E00086FDF0E006F000E216F000E096F000E35
:10487E00016F000E116F000E026F000E0A6F000E18
:10488E00126F03690B69136904690C691469080EC8
:10489E00246F180E0201116F0F0E696F050E3E6F19
:1048AE001A0E126F0B0E3D6F460E0D6F12000101A8
:1048BE00018F040EEDEC22F00009D8A469EF24F06C
:1048CE006BEF24F08BEF24F0000E01014C6F260EDF
:1048DE004D6F000E4E6F000E4F6F600E006F970EF5
:1048EE00016F100E026FE3EC26F0D9EC26F068ECA7
:1048FE0026F0A5EC26F0C8EC25F039EC23F0060ED8
:10490E00EDEC22F0C79ABF9A12000501ED6FA3EFEE
:10491E0024F0ACEC27F0B9EF24F0AAEC27F0000E4F
:10492E000501E26F320EE16F000EE46F640EE36F6D
:10493E0024EC22F0B9EF24F00501ED51EB6FEC6B96
:10494E00EC51000AD8B4AEEF24F0B9EF24F0EB51DD
:10495E00000AD8B490EF24F0010AD8B494EF24F0F2
:10496E00B9EF24F01200600EF66E4F0EF76E000EC9
:10497E00F86E09006100D4F3FEF509006100D4F36E
:10498E00FFF501EE00F2100EEE6AE806FDE101EE13
:10499E0060F14B0EEE6AE806FDE101EE4AF1160EED
:1049AE00EE6AE806FDE10401080E5D6F000E5E6F13
:1049BE00000E5F6F0001E4EF24F04CEC25F0D68E74
:1049CE00C79ABF8A13EC27F0C2EC26F00B0E050136
:1049DE00AC6FB80EAB6F32EC25F0C790C896BF80A7
:1049EE00C086270E0501AC6F100EAB6F32EC25F0B2
:1049FE00000E8CEC24F000F0030E0501AC6FE80EF7
:104A0E00AB6F32EC25F002EF25F00DEF00F0000E4B
:104A1E0003011F6F000E206F010E216FCF0E1D6F51
:104A2E002C0E1C6FB1981C51600074FCADF5050185
:104A3E00AE6BADC5AEF5AD6BAD11EE6FAE51EF6FAA
:104A4E00A188640EAB6F4F0EAC6F1EEC27F0110EEB
:104A5E0003011E6F12003DEF25F0040E0501AD6F30
:104A6E003D0EE82EFED7AD2FFCD700D00501AB07CB
:104A7E00D8A0AC07AB2906E1AC29D8A449EF25F0A4
:104A8E004BEF25F034EF25F01200A6EC27F091EC59
:104A9E0026F0BCEC1BF025EC24F0B6EC26F0B0ECC6
:104AAE0025F0CEEC26F00EEC25F07DEC26F0B1ECE8
:104ABE0023F05EEC24F0EBEC23F012007EEC25F0FC
:104ACE000501FC51FD11D8B46FEF25F071EF25F003
:104ADE007DEF25F002D87DEF25F00500FA6EFC5132
:104AEE00FD6EFD51FE6EFF6AFA5012001200000EAE
:104AFE00CEBA010E4D6E4D04D8A488EF25F08AEF84
:104B0E0025F096EF25F0000ECFEC1CF00501956F09
:104B1E00010ECFEC1CF00501946F4EC596F51200F8
:104B2E00056E610014F4ECF30301F38FF39DF38132
:104B3E00F3B1A4EF25F0A6EF25F09FEF25F0EB5192
:104B4E00046E036AEA510324016E000E0420026E05
:104B5E001200010E0301266F000E256F000E276F47
:104B6E00C20E236F000E226FB196A186620E050152
:104B7E00AB6F4F0EAC6F19EC27F0F00E0301246FE4
:104B8E001200000E0501AB6FAB51020DFF0EF324A8
:104B9E00D96E050EF420DA6E000EDF6EAB2BAB5124
:104BAE00D8B4DCEF25F0DEEF25F0CBEF25F01200C8
:104BBE00B19605017A4B7B2B7B5109E10A0E7A5D8A
:104BCE00D8A0ECEF25F0EEEF25F0F5EF25F0F6ECA2
:104BDE0025F0000E05017B6F000E7A6F12000601A4
:104BEE0012511311D8B4FEEF25F000EF26F00CEFA2
:104BFE0026F002D80CEF26F00500FA6E1251FD6E6B
:104C0E001351FE6EFF6AFA501200120003011EA528
:104C1E0013EF26F015EF26F01EEF26F01E91025030
:104C2E001D6F610004F41CF31E8123EF26F0025069
:104C3E001D6F610004F41CF31200060114511511CE
:104C4E00D8B42CEF26F02EEF26F03AEF26F002D84D
:104C5E003AEF26F00500FA6E1451FD6E1551FE6EF8
:104C6E00FF6AFA5012001200060110511111D8B449
:104C7E0043EF26F045EF26F051EF26F002D851EF24
:104C8E0026F00500FA6E1051FD6E1151FE6EFF6A90
:104C9E00FA50120012000501B251B4036100CCF3B8
:104CAE00B6F56100D0F3B7F5B251B503F350B7279F
:104CBE00B351B403F350B727B6C5B2F5B7C5B3F5C4
:104CCE001200190E01015C6F040E5D6F600E5E6FB7
:104CDE00050E5F6F000E0501AB6F000EAC6F4BEC57
:104CEE0027F001011E83B298A2881200440E030120
:104CFE001B6F9B0E196F000E186FB19EA18E660E64
:104D0E000501AB6F4F0EAC6F23EC27F0800E030145
:104D1E001A6F1200000E0001606F000E616F000E20
:104D2E00626F000E636F000E646F000E656F000EF3
:104D3E00666F000E676F000E686F12005F0E010146
:104D4E00946F956996699769000E986F000E996F2A
:104D5E00000E9A6F000E9B6F810E816F1200700E07
:104D6E000001AD6F000EAF6F000EB36F020EB16F8C
:104D7E00000EB06F1200000E0501E26F000EE16F23
:104D8E00000EE46F320EE36FB6EC21F01200AF901E
:104D9E00D680680E0501AB6F4F0EAC6F46EC27F058
:104DAE009F801200100E0101506F040E516F610EA4
:104DBE00526F050E536F1200010E0101046F010EAA
:104DCE00056F060E066F000E076F1200B198EEC546
:104DDE0001F5EFC502F50DEC26F024EC26F01200DD
:104DEE006100ACF663F40501AC51646E1200610013
:104DFE00ACF66BF40501AC516C6E12006100ACF6B2
:104E0E0072F40501AC51736E12006100ACF67AF4C7
:104E1E000501AC517B6E1200BF84BF82010E8CEC7B
:104E2E0024F01200ABC512F6ACC513F61200ABC5DA
:104E3E0014F6ACC515F61200ABC510F6ACC511F6DE
:104E4E001200ABC518F6ACC519F61200ABC51AF6B2
:104E5E00ACC51BF61200ABC516F6ACC517F61200A4
:104E6E00ABC58EF5ACC58FF51200ABC590F5ACC5D4
:104E7E0091F51200ABC58CF5ACC58DF51200ABC526
:104E8E00FCF5ACC5FDF51200ABC58AF5ACC58BF5CE
:104E9E00120001010239E832070B1200ABC57EF594
:104EAE00ACC57FF51200ABC580F5ACC581F512001F
:104EBE00ABC57CF5ACC57DF51200ABC582F5ACC5B6
:104ECE0083F51200ABC588F5ACC589F51200ABC5EC
:104EDE0086F5ACC587F51200ABC584F5ACC585F576
:104EEE001200ABC5F2F5ACC5F3F51200ABC5F4F587
:104EFE00ACC5F5F51200ABC5F6F5ACC5F7F512006D
:104F0E00ABC5F8F5ACC5F9F51200ABC5F0F5ACC5FF
:104F1E00F1F51200ABC5FAF5ACC5FBF51200016E4A
:104F2E00610004F4FBF31200B19E3BEC26F012007C
:104F3E00AF9065EC25F012000301F39B1200D69A98
:104F4E00120069841200788E1200789E1200788406
:104F5E0012000100120012001200120012001200C4
:0A4F6E0012001200120012001200DF
:020000040020DA
:10000000FF0FFF0FFF0FFF0FFF0FFF0FFF0FFF0F80
:10001000FF0FFF0FFF0FFF0FFF0FFF0FFF0FFF0F70
:020000040030CA
:10000000FAEFF7DF9FFFFFFFFFFFFFFFFFFFFFFF9D
:10001000FFFFFFFFFFFFFFFFFFFFFFFFFFFFFFFFF0
:04002000FFFFFFFFE0
:00000001FF
